:020000040800F2
:103000007037002001310008093100080B31000839
:103010000D3100080F3100081131000800000000D8
:1030200000000000000000000000000069D400085B
:103030001531000800000000D1A2000833D60008B6
:103040001B310008CDA200081B3100081B3100080D
:103050001B3100081B3100081B3100081B31000820
:103060001B3100081B3100081B3100081B31000810
:103070001B3100081B3100081B3100081B31000800
:103080001B3100081B3100081B3100081B310008F0
:103090001B3100081B3100081B3100081B310008E0
:1030A0001B3100081B3100081B3100081B310008D0
:1030B0001B3100081B3100081B3100081B310008C0
:1030C0001B3100081B3100081B3100081B310008B0
:1030D0001B310008D9DD0008E5DD00081B310008C0
:1030E0001B3100081B3100081B310008DFF80CD031
:1030F00000F028F80048004789DE000870370020FB
:103100000648804706480047FEE7FEE7FEE7FEE781
:10311000FEE7FEE7FEE7FEE7FEE7FEE7DDD6000896
:10312000ED300008202A04DB203A21FA02F00021C9
:10313000704721FA02F3D040C2F1200291400843C7
:1031400019467047064C074D06E0E06840F0010361
:1031500094E8070098471034AC42F6D3FFF7CAFF53
:1031600088E30008A8E3000870B58C1810F8015B2C
:1031700015F0070301D110F8013B2A1106D110F810
:10318000012B03E010F8016B01F8016B5B1EF9D114
:103190002B0705D40023521E0DD401F8013BFAE79A
:1031A00010F8013BCB1A921C03E013F8015B01F805
:1031B000015B521EF9D5A142D8D3002070BD00009A
:1031C0002DE9F04FC1B000240026164D4FF49607AC
:1031D0000121384602F0A4FF0DF104084FF4807A73
:1031E0004FF4FA7B4FF4504917E015F8010B08F83B
:1031F0000400641C761CFF2CF7D9524601A93846FE
:103200000AF082F858460AF041F818B90121132053
:1032100002F0C4FE07F5807700244E45EBD341B0A1
:10322000BDE8F08F003000080346012000E058435D
:10323000491EC9B2FBD2704710B506F0BBF90F4862
:1032400002F0B2FF0E4803F0D5FD0E4804F0E4FB97
:103250000B48603004F02CFD0948F83005F07AF98D
:103260000848803805F0F8FA0648403805F0F4FAC6
:1032700003F008F8BDE8104003F080B86C020020AD
:1032800060050020580700201FB500200390029021
:10329000FD208DF804000A24012301AA502133489F
:1032A000009403F0F7FC18B102210B2002F076FE27
:1032B000012302AA51212D48009403F091FB18B17B
:1032C00002210B2002F06AFEFE208DF8040001238B
:1032D00001AA50212548009403F0DCFC18B102211A
:1032E0000B2002F05BFE012303AA51211F4800942A
:1032F00003F076FB18B102210B2002F04FFE9DF87F
:1033000008101B486F2903D19DF80C105D2904D0CB
:10331000816D21F0800181651FBD816D41F08001CB
:10332000816500212A2000F047F80521212000F0C6
:1033300043F80521272000F03FF84021442000F009
:103340003BF80021282000F037F80521292000F063
:1033500033F80F211F2000F02FF80021802000F00B
:103360002BF80021084600F027F81FBD600500205B
:103370000800002011B583B00A24012303AA5021BC
:103380000C48009403F086FC18B102210B2002F0D7
:1033900005FE012302AA51210648009403F020FBF8
:1033A00018B102210B2002F0F9FD9DF8080004B0CD
:1033B00010BD0000600500201CB58DF804008DF8DC
:1033C00005100A200090022301AA5021044803F0AE
:1033D00061FC002803D002210B2002F0DFFD1CBDA0
:1033E0006005002010B50022044B03E010F8014BEB
:1033F0001C60521C8A42F9D3186810BD003002408C
:10340000014901208860704700300240002210F816
:10341000013B1A44491E0029F9D1D043401CC0B2D7
:10342000704710B50022002302E01446521C0355D9
:103430008A42FAD310BDF0B5C1B007460E46144615
:10344000220CB4EB024F00D9521CD1B2304602F02C
:1034500067FE1DE0FF2C04D94FF48075A4F580743D
:1034600001E025460024AAB201A9384609F046FE2B
:10347000AAB201A9304609F047FF4FF4FA7009F0EB
:1034800005FF18B90121132002F088FD2E442F44B6
:10349000002CDFD141B0F0BD2DE9F05FDFF8ECA3E7
:1034A000DAF85400FA4EC707504631688268F94D81
:1034B000C37802F1010241F4807142F210794FF0B9
:1034C000000403D0DAF85000C00704D0DAF8540042
:1034D000C00732D051E0CAF808204A454FD3CAF895
:1034E0000840DAF8500040F00100CAF85000EA48FD
:1034F0000078082805D0DAF85C0040F00200CAF82D
:103500005C00DAF85000800608D5DAF85C0040F07C
:103510001000CAF85C0041F010003060DAF85C007E
:1035200020F00100CAF85C0043F002008AF80300B2
:10353000ED20287005F0FCFE21E0DAF850705046CE
:10354000FF071AD082604A4519D38460026D22F0C9
:1035500001020265C26D42F00102C265C26D22F035
:103560001002C26523F00202C27041F01000306008
:10357000EE20287005F0DCFE01E0CAF80840DAF819
:103580005400C64F800713D5DAF8500080070FD4D7
:10359000DAF80C00401CCAF80C0032283ED3CAF8F6
:1035A0000C40DAF8500040F00200CAF8500035E054
:1035B000DAF8540080072FD4DAF8500080072BD5B2
:1035C000DAF80C00401CCAF80C00322826D3CAF8DE
:1035D0000C40DAF8500020F00200CAF85000DAF887
:1035E0004C0000071AD4DAF84C0040F00800CAF882
:1035F0004C00F320287005F09BFE386840F0200056
:103600003860386840F000403860306840F48070BE
:1036100040F01000306001E0CAF80C40DAF85400C5
:10362000D346DFF87C82400731D5DBF850004007F5
:103630002DD4DBF81000401CCBF81000322840D30A
:10364000CBF81040DBF8500040F00400CBF85000FD
:10365000DBF84C00000734D5DBF84C0020F0080004
:10366000CBF84C0088F80040F420287005F060FE8C
:10367000386820F020003860386840F0004038603A
:10368000306840F4807040F01000306019E0DBF8E2
:103690005400400713D4DBF8500040070FD5DBF887
:1036A0001000401CCBF8100032280AD3CBF8104091
:1036B000DBF8500020F00400CBF8500001E0CBF81C
:1036C0001040DBF854004FF0F20A00072DD5DBF86C
:1036D0005000000729D4DBF81400401CCBF814007C
:1036E000642868D3CBF81440DBF8500040F00800A1
:1036F000CBF85000DBF84C0080065CD5DBF84C00C2
:1037000020F02000CBF84C009BF8030020F00100D3
:103710008BF8030085F800A005F00AFE306840F43D
:10372000807040F01000306045E0DBF85400000786
:103730003FD4DBF8500000073BD5DBF81400401CF9
:10374000CBF81400642836D3CBF81440DBF85000D3
:1037500020F00800CBF85000DBF84C00C00711D077
:10376000DBF84C0020F00100CBF84C00386820F06A
:1037700010003860386840F000403860F020287051
:1037800005F0D6FDDBF84C0040F02000CBF84C00F3
:103790009BF8030040F001008BF80300F120287033
:1037A00005F0C6FD306840F4807040F010003060D5
:1037B00001E0CBF81440DBF85400C00613D5DBF869
:1037C0005000C0060FD4DBF81800401CCBF81800DE
:1037D00032282ED3CBF81840DBF8500040F0100010
:1037E000CBF8500025E0DBF85400C0061FD4DBF80E
:1037F0005000C0061BD5DBF81800401CCBF81800A1
:10380000322816D3CBF81840DBF8500020F0100017
:10381000CBF85000386840F400503860386840F009
:1038200000403860EA20287005F082FD01E0CBF806
:103830001840DBF85400800634D5DBF850008006D1
:1038400030D4DBF81C00401CCBF81C0048454DD39D
:10385000CBF81C40DBF8500040F02000CBF85000C3
:10386000DBF85000C0070BD0DBF85C0040F0100024
:10387000CBF85C00306840F4807040F0100030609D
:10388000EC20287005F054FD30E000000800002016
:103890008C00002050030020A9010020D00000204F
:1038A000A8010020DBF8540080061DD4DBF850107E
:1038B0005846890618D5C169491CC161494515D3C7
:1038C000C461016D21F020010165C16D21F010017D
:1038D000C165306840F4807040F010003060EB202B
:1038E000287005F025FD01E0CBF81C40DBF8540002
:1038F000D94640062FD5D9F8500040062BD4D9F828
:103900002000401CC9F8200064286AD3C9F8204070
:10391000D9F8500040F04000C9F85000D9F84C00E8
:10392000C0075ED0D9F84C0020F00100C9F84C0067
:10393000386820F010003860386840F00040386087
:10394000F020287005F0F4FC306840F4807040F0FE
:103950001000306045E0D9F8540040063FD4D9F853
:10396000500040063BD5D9F82000401CC9F8200083
:10397000642836D3C9F82040D9F8500020F0400020
:10398000C9F85000D9F84C0080060FD5D9F84C0082
:1039900020F02000C9F84C0099F8030020F0010045
:1039A00089F8030085F800A005F0C2FCD9F84C00A6
:1039B00040F00100C9F84C00386840F01000386051
:1039C000386840F000403860EF20287005F0B0FC07
:1039D000306840F4807040F01000306001E0C9F8B9
:1039E0002040D9F8540000061DD5D9F85000000633
:1039F00019D4D9F82400401CC9F82400322830D347
:103A0000C9F82440D9F8500040F08000C9F85000AF
:103A1000D9F84C0040F08000C9F84C00B020287064
:103A200005F086FC1DE0D9F85400000617D4D9F83B
:103A30005000000613D5D9F82400401CC9F8240012
:103A400032280ED3C9F82440D9F8500020F0800065
:103A5000C9F85000B120287005F06AFC01E0C9F8EF
:103A60002440D9F85800904F40074FF0030B4FF017
:103A7000380A3BD5D9F84C00800737D4D9F84C0028
:103A800040F00200C9F84C0002F04CFEC9F83C00BE
:103A900002F048FEC9F84000D9F84C00C0071ED11A
:103AA00005F0A6FAD8B93878022818D2D9F85C00FF
:103AB00040F00800C9F85C00306840F4807040F0C5
:103AC0001000306006F0CEFB88F800B04FF4FA60CA
:103AD000C9F83800FD20287005F02AFC4CE0C9F830
:103AE00038A0022002F056F93C7045E002F01AFEC0
:103AF000D9F83C10401AD9F83810884220D3D9F8A8
:103B00006000000705D4D9F85C0020F00800C9F86F
:103B10005C00D9F84C0080072ED599F8030040F0DE
:103B2000040089F80300D9F84C0020F00200C9F81D
:103B30004C00306840F4807040F0100030601BE0B2
:103B4000D9F84C00800717D502F0ECFDD9F84010E9
:103B5000401AC82810D302F0E5FDC9F8400099F8D2
:103B60000300410704D520F0040089F8030003E0B6
:103B700040F0040089F80300D9F858004E46C00709
:103B80003ED0F06C40073BD4F06C40F00400F06491
:103B900002F0C8FD706302F0C5FD7064F078C007E4
:103BA00002D00120B06400E0B46405F02BFA4FF0BD
:103BB000020968B9387801280AD0C6F830A0012077
:103BC00002F0E8F83878032814D0052815D047E02B
:103BD00005F018FA18B1012002F0E2F804E0387894
:103BE000012801D187F8009088F800B040F2D24057
:103BF000306335E00420387032E087F800902FE021
:103C000002F090FD716B401A316B884212D9F06C52
:103C1000400725D5F06C20F00400F064B06C20B1B2
:103C2000F07840F00100F0701AE0F07820F0010028
:103C3000F07015E0F06C400712D502F073FD716C66
:103C4000401AC8280CD302F06DFD7064F078C107EB
:103C500003D020F00100F07002E040F00100F070AD
:103C6000306D000619D5F06C000616D502F05AFD2D
:103C7000B16A401A40F25741884212D302F052FD15
:103C8000B062F06A401CF0623C280AD3F462B020B3
:103C90002870BDE8F05F05F04BBBF46202F042FD16
:103CA000B062BDE8F09F00009D00002010B50D48F7
:103CB000C16C21F01001C164C17841F00401C170F0
:103CC000C16D41F00201C165C16D21F00101C16505
:103CD000C16C21F48071C16400F040FABDE810406D
:103CE000FFF7D2BA080000202DE9F04387B0F94869
:103CF0000078022801D107F041FDF7480068C007AD
:103D00007ED1F648F64E4FF000050078C0074BD044
:103D1000306D3346800647D5F248F34F0278387845
:103D200002F0800100F0800421433DD002F03F0109
:103D300001EB8101490000F07F045FEA4269EB4A30
:103D40004FF0270C4FF0050839D512885FEA026959
:103D50002BD4C2F30B09894527D3D96D21F020015B
:103D6000D965010664D520F0800038708DF81850B0
:103D70008DF819C08DF81A00032306AAA021DC488B
:103D8000CDF8008002F086FF18B10221122002F067
:103D900005F90F236422A121D54802F069FD18B16D
:103DA0000221122002F0FAF842E0100602D4081BA9
:103DB00090423DDDD86D40F02000D86538E0128893
:103DC0005FEA026907D40C44944204D2D86D40F0F3
:103DD0002000D8652CE0140601D48A4228D2D96D7F
:103DE00021F02001D965010622D520F0800038702D
:103DF0008DF818508DF819C08DF81A00032300E0D3
:103E0000A1E106AAA021BA48CDF8008002F042FF45
:103E100018B10221122002F0C1F80F236422A1215F
:103E2000B34802F025FD18B10221122002F0B6F8C5
:103E3000306E3446C00535D5206E800505D4E06D62
:103E40002070206E40F400702066206EC0B2E065E5
:103E5000206E40060AD5206EC00407D4206E40F4C0
:103E60008050206602F05EFC606021E0206E40061B
:103E700005D4206E4EF6FF710840206618E0206ED3
:103E8000400615D5206EC00412D502F04BFC6168C7
:103E9000401A41F2F83188420AD3E06D00F0BF00C9
:103EA000E06505E0206E800502D52078E065256696
:103EB000A06D000614D50320FFF75CFAA16D01F098
:103EC000F801A165A16D00F007000843A06500207E
:103ED000FFF750FAC00703D000210846FFF76CFA3D
:103EE000E06CC00551D46565824E0121304602F078
:103EF0000BFC012803D1606D40F0010060650221D8
:103F0000304602F001FC012803D1606D40F0020050
:103F100060650421304602F0F7FB012803D1606D93
:103F200040F0040060650821304602F0EDFB0128F6
:103F300003D1606D40F0080060651021304602F04A
:103F4000E3FB012803D1606D40F010006065202183
:103F5000304602F0D9FB012803D1606D40F020000B
:103F600060654021304602F0CFFB012803D1606D2F
:103F700040F0400060658021304602F0C5FB01281A
:103F800003D1606D40F080006065FFF785FAE06D59
:103F9000594EC00705D001221021304602F0BBFB6C
:103FA00004E000221021304602F0B5FBE06D8007EE
:103FB00005D501222021304602F0ADFB04E00022AD
:103FC0002021304602F0A7FBE06D400705D5012215
:103FD0008021304602F09FFB04E000228021304621
:103FE00002F099FBE06DC00604D5E07840F01000C7
:103FF000E07003E0E07820F01000E070E06D8006F3
:1040000004D5E07840F02000E07003E0E07820F094
:104010002000E070A07802274FF001080A2804D0A1
:10402000364804F077FA88B112E0344804F072FAA6
:1040300070B1324804F053FA40200290CDF80C8061
:10404000059702A9304602F069FA01E005F0BCFBD1
:10405000E06DDFF8A890400610D5A1780A2907D0B6
:10406000D9F8000041630021484604F0C1FA0FE08E
:1040700001224021304602F04EFB09E0A0780A28D8
:1040800010D000211D4804F0CBFAD9F80000456398
:1040900060784FF480790A280AD0194804F03AFA77
:1040A000B8B131E000224021304602F034FBEFE7A6
:1040B000134804F02FFA38B3114804F010FACDF881
:1040C0000890CDF80C80059702A9304602F026FA38
:1040D0001AE017E0D0010020200200208C00002010
:1040E00008000020900000209100002072000020B5
:1040F00060050020000C01400008014098060020E7
:104100001806002005F0DCFAE06D134F00060FD50D
:1041100062780A2A06D0386842630021384604F0E3
:1041200067FA0EE001224946304602F0F4FA08E050
:1041300060780A280AD00021074804F071FA38682C
:10414000456300F00BF807B0BDE8F0830022494654
:10415000304602F0E0FAF4E71806002070B50A23B2
:1041600001220C490C4803F08FFE18B101211220E6
:1041700001F014FF094D4FF48054002221462846D7
:1041800002F0C9FA21462846BDE87040012202F03B
:10419000C2BA00000B000020C0050020000801404A
:1041A0002DE9F04107460C4615461E462A2001F02F
:1041B00095FE384601F066FE284601F063FE2B208E
:1041C00001F08CFE204601F05DFE3046BDE8F04176
:1041D00001F058BE10B5174903228A700022CA8028
:1041E0004FF6FF720A81144C472804D0482811D09A
:1041F000532815D019E02078000605D50FA292218A
:10420000822001F077F910E00EA29221822001F0C5
:1042100071F90AE00DA29221642001F06BF904E02B
:104220000DA29221642001F065F9207820F0800031
:10423000207010BD9C00002040050020204D722EF3
:10424000000000004D72732000000000534F4241F7
:1042500052494341000000005345525649534552CC
:1042600000000000F0B591B02648032181700024C1
:10427000C4804FF6FF710181234D244F2878002818
:1042800002D1387800283BD0402101A8FFF7C9F8B7
:1042900000200022002301AE02E0B154521C401C59
:1042A000395C09B11128F8D32E27102804D98DF8CC
:1042B00014708DF815401EE02021531CB1540021CC
:1042C00002E0F2545B1C491C6A5C0AB11129F8D364
:1042D0000144122908D9411C2B784A1C7354531CE1
:1042E000B754F454C01C00E008464008C0F10A006E
:1042F00000EB8000430098B201AAB62101F0FAF861
:1043000011B0F0BD9C0000204005002050050020A9
:104310002DE9F04102F006FA244CE169401AB0F5AB
:10432000FA6F40D302F0FEF9E0610A2038342070C1
:104330001F4D4FF4806600223146284602F0EBF90B
:10434000EF1400223946284602F0E5F94FF4FA78D6
:10435000434601222146174803F096FD18B101217A
:10436000102001F01BFE43460122611C114803F09E
:10437000E3FC18B10121102001F010FE01223946A2
:10438000284602F0C8F901223146284602F0C3F956
:104390006078000607D40848DC2101701021817084
:1043A00004F0C6FFFEE7BDE8F08100009C0000209D
:1043B000000C0140C0050020500300202DE9F04111
:1043C000ADF5207D054600240021EF2340F23F1289
:1043D0000846FFF7E5FE2C2001F080FD1A4E012271
:1043E0009102304602F097F9280AEAB269464FF482
:1043F00020750855641C0A55641CAC42F9D34FF46F
:10440000006700223946304602F085F9F0244FF467
:10441000FA7843462A4669460C4803F035FD18B140
:104420000121132001F0BAFD641E002CF1D10122FC
:104430003946304602F06FF9002001F04FFD0DF5CE
:10444000207DBDE8F0810000000C0140C005002087
:1044500070B588B002F066F93D4C616A401AB0F55B
:104460007A7F72D302F05EF96062012207A93948AF
:1044700003F003FA012206A9364803F0D5F99DF8A6
:104480001A20206A82421AD02262606B40F00040FB
:10449000606302212F4803F0BFF99DF81920032122
:1044A0002C4803F0B9F99DF818200421294803F09D
:1044B000B3F99DF81B200521264803F0ADF9032030
:1044C000A0704FF6FF7020810026E68006AC6A4699
:1044D0000121A01C04F039FB2E258DF802500DF1AE
:1044E00003020121601C04F030FB8DF805503220DE
:1044F0008DF8060030208DF8070002AA0121E01C8B
:1045000004F023FB8DF80A5020208DF80B0003AA3D
:10451000012107A804F019FB3A248DF80E4007ADDD
:104520000DF10F020121681C04F00FFB8DF8114002
:104530000DF112020121A81C04F007FB8DF8146094
:104540006A46D621002000F0D5FF08B070BD0000FB
:104550009C000020580700202DE9F041ADF5006DCA
:104560000146481E00EB400006044FF400670C298A
:104570000ED04FF416340021EF2340F23F120846CC
:10458000FFF70EFE2C2001F0A9FCDFF870802FE071
:104590003C461F2300211A460846FFF701FEF1E7BB
:1045A000BC4203D33D46A4F5006401E02546002447
:1045B000AAB26946304608F0A1FD012291024046A8
:1045C00002F0A9F800223946404602F0A4F8AAB247
:1045D000052369460A4803F057FC18B10121102051
:1045E00001F0DCFC01223946404602F094F82E44EA
:1045F000002CD5D10DF5006DBDE8F081000C014017
:10460000C005002070B50122D102DF4802F083F816
:10461000DE4C207840F040002070FFF79FFD052021
:1046200001F040FE207820F040002070FFF796FD5A
:10463000322001F037FE207840F040002070FFF774
:104640008DFDC82001F02EFEEF2001F047FC032075
:1046500001F0F4FB802001F0F1FB022001F0EEFB01
:10466000CF2001F03BFC002001F0E8FBC12001F06D
:10467000E5FB302001F0E2FBED2001F02FFC64208F
:1046800001F0DCFB032001F0D9FB122001F0D6FB86
:10469000812001F0D3FBE82001F020FC852001F00F
:1046A000CDFB002001F0CAFB782001F0C7FBCB2036
:1046B00001F014FC392001F0C1FB2C2001F0BEFBFD
:1046C000002001F0BBFB342001F0B8FB022001F018
:1046D000B5FBF72001F002FC202001F0AFFBEA203F
:1046E00001F0FCFB002001F0A9FB002001F0A6FB7B
:1046F000C02001F0F3FB232001F0A0FBC12001F05A
:10470000EDFB102001F09AFBC52001F0E7FB3E20F5
:1047100001F094FB282001F091FBC72001F0DEFBA3
:10472000E82001F08BFB362001F0D8FBE82001F0F7
:1047300085FB3A2001F0D2FB552001F07FFBB12030
:1047400001F0CCFB002001F079FB182001F076FB92
:10475000B62001F0C3FB082001F070FB822001F0BD
:104760006DFB272001F06AFBF22001F0B7FB00206F
:1047700001F064FB262001F0B1FB012001F05EFB9B
:10478000E02001F0ABFB0F2001F058FB312001F0DD
:1047900055FB2B2001F052FB0C2001F04FFB0E20AB
:1047A00001F04CFB082001F049FB4E2001F046FBD4
:1047B000F12001F043FB372001F040FB072001F01E
:1047C0003DFB102001F03AFB032001F037FB0E20E7
:1047D00001F034FB092001F031FB002001F02EFB39
:1047E000E12001F07BFB002001F028FB0E2001F00E
:1047F00025FB142001F022FB032001F01FFB1120F8
:1048000001F01CFB072001F019FB312001F016FB21
:10481000C12001F013FB482001F010FB082001F03B
:104820000DFB0F2001F00AFB0C2001F007FB3120EB
:1048300001F004FB362001F001FB0F2001F0FEFA2D
:10484000B12001F04BFB002001F0F8FA102001F03C
:10485000F5FA112001F042FBC82001F023FD2920C8
:1048600001F03CFB4B494A4C0968A0884863002092
:10487000FFF7A4FD0020E0804FF6FF7020810120AB
:10488000A07045A200210A2000F034FE4CA228218D
:10489000142000F02FFE544A5021002000F02AFE80
:1048A000524A6021002000F025FE51A28021002004
:1048B00000F020FE514805234178007801EB0022EA
:1048C00080218C2000F0DEFD4DA29021002000F020
:1048D00011FE4F480623902142688C2000F0D2FD43
:1048E0004CA2A021002000F005FE4E48052341788F
:1048F000007801EB0022A0218C2000F0C3FD4AA229
:10490000B021002000F0F6FD4B480068C10705D03B
:104910004AA2B0218C2000F0EDFD1CE0800715D5E7
:104920004B4D0123B0212A788C2000F0ABFD49A229
:10493000B021A02000F0DEFD287801280BD97322D9
:10494000B0214FF4887000F0B1FA04E045A2B02124
:104950008C2000F0CFFD606B40F008006063606B5E
:1049600040F00040606340F2DC54204601F09AFCC5
:10497000404802F0A8FA204601F094FCBDE87040DF
:104980003C4802F0A0BA0000000C01400B000020DF
:104990009C00002058060020492D4D4544494120E7
:1049A00047524F555020642E6F2E6F2E2053617248
:1049B000616A65766F202D20323031382E0000007C
:1049C0004C5558202D20486F74656C20526F6F6DC8
:1049D00020262041636365737320436F6E74726F8A
:1049E0006C6C6572000000001CDF000829DF000805
:1049F00053797374656D2049443A000035020020F4
:104A000052533438352062617564726174653A00BE
:104A1000D8060020525334383520616464726573BF
:104A2000733A0000D50100204F6E6557697265200A
:104A30006465766963653A008C0000204453313820
:104A40004232302054656D702E53656E736F720064
:104A5000700000204C555820546865726D6F737457
:104A6000617400004E4F542044455445435445441E
:104A700000000000B405002030B50023037043702F
:104A8000C3708370C37103718371437100228118F5
:104A90000B720B740376002100EBC204651885F8D5
:104AA0002030491C0829F9D3521C082AEFD330BD05
:104AB0002DE9FE430446DFF8B8C3A078ED4A00288C
:104AC00016D0012824D0022822D120780021EA4ED5
:104AD000012704F110034FF0200804F158050228C3
:104AE00062D2E0794FF00401042813D2E17114E09E
:104AF000207802280CD21068C00503D5106820F475
:104B000080701060DCF8000020F48070CCF80000A9
:104B1000BDE8FE83052800D9E1712179E079C85408
:104B2000207868B10128F3D1106840F480701060DB
:104B300000202118097C042927D005292BD02FE03B
:104B4000DCF8000040F48070CCF800000020CB4A74
:104B5000CB4B2118097C042902D0052909D010E08B
:104B6000116807FA00F5294311601968A943196013
:104B700007E0196807FA00F6314319601168B1437C
:104B80001160401C0828E4D3C2E7136807FA00F15B
:104B90001943116004E0116807FA00F399431160AA
:104BA000401C0828C5D3B3E77ED12079D0B10128B5
:104BB0001BD0B44A022820D0032826D0B24E0428A5
:104BC0002BD0052842D006285BD00728A0D16079D9
:104BD000A8B301287BD002287ED0032867D0042800
:104BE00066D088E0FEF728FB92E7002001F0D8F8B5
:104BF000706B40F0040070638AE7002001F0D0F889
:104C0000107840F04000107082E7002001F0C8F8F2
:104C1000107840F0800010707AE704F0E5FE30680C
:104C2000C10702D0072020750CE0800708D50620B8
:104C3000207509229549702001F080F902E041E0D9
:104C40000220207509202073A77061E7E079092808
:104C500000D9E1716179E0792144303081F8480070
:104C6000207902A904EBC000203008F082FC0298F1
:104C70008749020A0A7048700222282001F05EF972
:104C800046E7E079092800D9E1716179E0792144AA
:104C9000303081F85000207902A904EBC0002030A8
:104CA00008F067FC029804E04BE010E014E018E024
:104CB0001CE07849020A0A7048700222362001F08E
:104CC0003DF925E7E079172815D9E17113E0E0797E
:104CD0003B2810D9E1710EE0E0791F280BD9E7716C
:104CE00009E0E0790C2806D9E77104E0E07963284F
:104CF00001D91220E0713D3414F8360C01F012F99C
:104D000014F8381C4855E07E8DF80400207F8DF89B
:104D10000500607F8DF80200A07F8DF80100E07F24
:104D20008DF80300012201A95B4802F005FF012272
:104D30006946594802F096FE306840F02000306025
:104D4000E6E6032828D004289AD1E079092800D97A
:104D5000E17161792279E079214408EBC2023030B7
:104D60008854207902A904EBC000203008F001FC2F
:104D7000029823794949020A01F81320227901EBAC
:104D8000420250702079602201EB400102EB4000AA
:104D9000022201F0D3F8BBE6207990B1012890D02F
:104DA00002288ED003288CD004288AD0052822D04F
:104DB000062832D0072884D1E07909283FD9E77145
:104DC0003FE0E279012A00D9E171E179C154E0794B
:104DD00010B1012805D008E0307820F002003070D2
:104DE00003E0307840F00200307001222249802038
:104DF00001F0A4F88CE6E0790A2800D9E171E179A4
:104E0000022204F1480004F0C3F82549E079087053
:104E10000122812001F092F87AE6E0790A2800D98F
:104E2000E171E179022204F1500004F0B1F81D496A
:104E3000E07908700122822001F080F868E600B96C
:104E4000E771E17964204143B1800322284604F0F0
:104E50009FF81549B088096848630749020A383144
:104E60000A70487002223B2001F068F850E600000A
:104E700054000020680000209C0000205C000020FE
:104E800058000020D20100208C000020A802002041
:104E9000D5010020350200205807002030050020F1
:104EA000090000200A000020580600202DE9F84FD4
:104EB000DFF8CC80B8F8089098F80230042404EBAE
:104EC00083040094012B04D0022B06D0032B08D0BE
:104ED0000AE010274FF47C1A06E014274FF4840AE6
:104EE00002E01A274FF48A0AA2F1200BCA19521EB7
:104EF00093B2009A0244521E92B2FFF751F92C204D
:104F000000F0ECFF00262EE098F80200012808D0FF
:104F10000BFB07600AEB400008F0B0F804460025E0
:104F20001DE006EB0A000BFB070008F025F804461D
:104F3000F5E7B8F80600A8F8080098F8020001287C
:104F400017D0200401D5A8F80890B8F8080000F0A0
:104F500099FF98F80200012800D064006D1C0098A9
:104F60008542E6D3761CBE42CED3A8F80890BDE8B1
:104F7000F88F0120A8402042E7D0A8F80890E4E785
:104F80009C0000202DE9FC5F044643F2390B0C27FE
:104F9000DFF8C8814FF0020A88F802A00025A8F8BF
:104FA00006504FF6FF70A8F808000020FFF706FA39
:104FB0006BA21421002000F09DFA69A2C8210020F4
:104FC00000F098FA00210923601805740576037231
:104FD000002004EBC102161886F82050401C082857
:104FE000F9D3491C0829EFD32078012138B30128CF
:104FF00033D0082204F1480504F150064FF00509AA
:10500000022838D0032877D0042816D100255B4E1B
:105010001746601980F81890077206EB450016F8DD
:1050200015104078052200EB012104EBC50020306B
:1050300003F0AEFF6D1C082DEBD3BDE8FC9F0020F4
:105040004F4A0D4605FA00F11368194201D02318A2
:105050001D74401C0828F5D3EFE70020494A0D468F
:1050600005FA00F11368194201D023181D74401C81
:105070000828F5D3E1E7072020726072A072E07281
:1050800020736273A273E27384F81D9084F81E90FB
:1050900084F81F903C4805224178007801EB0021FC
:1050A000284603F075FF394805224178007801EB66
:1050B0000021304603F06CFF012201A9344802F0C0
:1050C000DCFB01226946324802F0AEFB9DF8040089
:1050D00084F858009DF8050084F859009DF80200F6
:1050E00084F85A009DF8010084F85B009DF80300E5
:1050F00084F85C00A1E7FFE7E27222736273A27397
:10510000E27398F80000800700D5217484F81B90A2
:1051100084F81CA06177A177E1770522594604F154
:10512000380003F035FF0222394604F1400003F055
:105130002FFF184802220178284603F029FF16485D
:1051400002220178304603F023FF0322B8F804104E
:1051500004F1580003F01CFF6FE700009C000020E2
:105160002D2D2D2D2D2D2D2D2D2D2D2D2D2D2D2D6F
:105170002D2D2D2D2D2D2D2D2D2D00003005002018
:105180005800002064000020D501002035020020D6
:1051900058070020090000200A0000202DE9F04FE8
:1051A00085B00446AF4F0220B8704FF00008A7F852
:1051B00006804FF6FF7AA7F808A0A07807F1F4015F
:1051C00051F82020DC21002000F094F9A078D0B123
:1051D000A7F80680A7F808A0A2492078603151F806
:1051E00020200021084600F085F900254FF028090D
:1051F0002079A8420DD1A07858B148F23040F8800B
:10520000A7F8088009E048F23040F880A7F8088045
:10521000E2E7A7F80680A7F808A02078042814D0B1
:105220009049743101EB051151F8202005EB850000
:1052300009EB800081B2002000F05CF96019017A6E
:10524000082913D0092979D005E105EB850009EB80
:105250008006B1B284A2002000F04CF905F13100C3
:10526000C2B2B1B2D220FFF721FEE7E7072D02D18B
:10527000207802280ED005EB850009EB800004EBB6
:10528000C50281B22032FA2000F034F9A079012859
:105290006FD0E0E004F1380604F158006A460121BD
:1052A00003F053FC3A208DF8020006F12100EB4692
:1052B0000DF10302012103F048FC20208DF80500C8
:1052C00006F122000BF10602012103F03EFC4FF033
:1052D0002E0B8DF808B006F123000DF10902012113
:1052E00003F033FC8DF80BB032208DF80C00302029
:1052F0008DF80D0006F124000DF10E02012103F0DE
:1053000024FC8DF810806A46B421782000F0F2F871
:105310002079072811D1A07901280ED14CF218600C
:10532000F880A7F80880607948B1012814D00228D5
:1053300020D003282BD0042836D08CE05BE09DF8E9
:105340000020B4217820FFF7B1FD9DF80120B421A1
:105350008420FFF7ABFD7EE09DF80320B4219C2064
:10536000FFF7A4FD9DF80420B421A820FFF79EFDBF
:1053700071E028E09DF80620B421C020FFF796FDDB
:105380009DF80720B421CC20FFF790FD63E09DF845
:105390000920B421E420FFF789FD9DF80A20B421FB
:1053A000F020FFF783FD56E09DF80E20B4214FF466
:1053B0009070FFF77BFD9DF80F20B4214FF496709D
:1053C000FFF774FD47E04CF21860F880A7F80880FA
:1053D00021796079202202EBC102031901EB8101DE
:1053E0009A5C00EB4000FA2309EB810103EB80009B
:1053F000FFF75CFD2FE02179A9420DD1A17859B1C9
:10540000022905D048F23041F980A7F8088007E06A
:105410004CF21861F980F8E7A7F80680A7F808A011
:105420001049007C403151F8202005EB850009EB44
:10543000800081B2D22000F05DF8042D0BD12078DD
:10544000022808D10E48782100783030C2B24FF4DB
:105450009670FFF72BFD6D1C082DFFF4C9AE05B04B
:10546000BDE8F08F9C0000205045524D49545445F2
:1054700044204144445245535320203A0000000048
:10548000700000202DE9F04780468A4691461D466F
:10549000002617480421807801EB800700241BE0D8
:1054A000281B401EC1B20A20FDF7BEFEB9FBF0F07A
:1054B0000A21B0FBF1F201FB120326B9681E8442F7
:1054C00001D26BB1012607FB04803033DAB280B21F
:1054D0005146FFF7EBFC641CAC42E1D3BDE8F0871A
:1054E00007FB048080B220225146FFF7DFFCF2E781
:1054F0009C0000202DE9F04704460D46174616484B
:105500000421807801EB8008012804D0022804D00F
:10551000032804D004E0102602E0142600E01A2636
:10552000C8F5A079C6F1F00A10E0A14502D2002426
:10553000A81985B2AA4501D2002400252946204693
:10554000FFF7B4FC04EB080084B27F1C3A78002A11
:10555000EBD1BDE8F08700009C00002030B5417819
:10556000022912D1C27801230325002400F1180179
:10557000012A0BD0022A08D1C5704570827882B307
:10558000012A38D0022A00D1837030BDC570457021
:1055900082783AB1012A0BD0022AF6D1C179491C8E
:1055A000C17130BD8370047144718471C47130BDA8
:1055B0008279012A08D00179491C017101790829F1
:1055C000F5D38470047130BD4279521CD3B243715B
:1055D0000279515C8B42F1D3521C02718471447187
:1055E000ECE7FFE743700178491CC9B20170052957
:1055F000E9D3047030BD022282700279515C002927
:10560000F8D0837130BD00002DE9F04F89B0FA4821
:105610000078022801D106F0B1F801F083F8F74DC7
:105620002969401AE968884258D30024EC6001F0E7
:1056300079F8286120216846FDF7F3FEFEF768FE41
:10564000DFF8BCA3DAF800004FF00206C00740F60E
:1056500029184FF6FF774FF0030970D0686B80036D
:105660003CD4686B40F400306863C5F80C80EC8073
:105670002F81AE70E3A2BC210020FFF73BFF85F82D
:105680000290686BC00702D1686B800729D5686BF0
:10569000C00705D0DDA2D6210020FFF72BFF07E0D1
:1056A000686B800704D5DFA2D6210020FFF722FF18
:1056B000686B20F001006863686B20F0020068638B
:1056C000686B20F400306863686B40F000406863EA
:1056D000DAF8000020F00100CAF8000009B0BDE8C7
:1056E000F08FD6A2D6210020FFF704FFD94C2078F6
:1056F000772818D078281CD0792821D07A2825D06E
:105700007B2829D064381C28E8D8D3A2D6218C2045
:10571000FFF7F0FE22780223633AD6214FF482701D
:10572000FFF7B0FEDAE7CEA2D6218C20FFF7E2FE2B
:10573000D4E7CEA2D6218C20FFF7DCFECEE711E025
:10574000CDA2D6218C20FFF7D5FEC7E7CDA2D6216A
:105750008C20FFF7CFFEC1E7CDA2D6218C20FFF72A
:10576000C9FEBBE7686B800325D5686B20F4003069
:105770006863C5F80C80686B40F000406863EC809B
:105780002F81AE709FA2BC210020FFF7B3FE85F8E9
:105790000290C2480078410705D5C1A2D621002059
:1057A000FFF7A8FE9AE7000798D5C3A2D6210020EC
:1057B000FFF7A0FE92E7686B400302D4686B00031A
:1057C00025D5EC802F81AE708EA2BC210020FFF782
:1057D00091FE85F80290686B400305D5BCA2D621E6
:1057E0000020FFF787FE07E0686B000304D5BEA228
:1057F000D6210020FFF77EFE686B20F4002068634E
:10580000686B20F480206863C5F80C8066E7686BDD
:1058100041F23859400714D56869401C68610E2868
:1058200009D96C61686B20F004006863686B40F014
:105830000040686385E0C0B2FEF78EFEC5F80C80BC
:105840004CE7686BC00544D5686B20F480706863D2
:10585000686B40F0004068630620FEF77DFEC5F8E7
:105860000C902878A64F800704D57878FEF7B2FC14
:10587000FEF7F8FC78784FF6E071482804D0472806
:1058800010D0532813D021E0AE70EC8029819DA266
:10589000D6210020FFF72EFE9C48FFF7EDF80120EF
:1058A000687013E09948FFF7E7F86C700EE0AE708F
:1058B000EC80298196A2D6210020FFF71BFE934899
:1058C000FFF7DAF8062000F06BFA6C7004F00AFFBC
:1058D00004E7686B800511D5686B20F4007068637D
:1058E000686B40F0004068630720FEF735FEC5F89E
:1058F0000C908648FFF7C0F86C70EFE603F08CFB65
:1059000078B147F23050286300F00CFFE8627F481E
:10591000FFF738FB7D48FFF741FC022000F040FA1A
:10592000DCE603F08DFB60B147F23050286300F0F5
:10593000F9FEE8627548FFF731FC022000F030FA0A
:10594000CCE66878002854D000F0ECFEE96A401AF2
:10595000296B884205D36C70686B40F00040686327
:10596000BCE66878022801D00428B1D1234CA67087
:1059700027810025A846AA46A946AB4650262827D7
:1059800047F23050206300F0CDFEE0620020FEF7C9
:1059900015FD62A200213C20FFF7ACFD65A2A0210D
:1059A0000020FFF7A7FD65A2C8210020FFF7A2FD98
:1059B00069A2DC210020FFF79DFD002404EB840197
:1059C000282000EB810081B208906AA20C20FFF72A
:1059D00091FD0A484078022802D004280AD0DAE073
:1059E00004F13100C2B2089881B20020FFF75EFADC
:1059F000D1E016E1C0E00000D00100209C000020B2
:105A0000200200202020202020200000426F6F7400
:105A10006C6F6164657220557064617465642020E8
:105A200000000000426F6F746C6F61646572204605
:105A300061696C65642020200000000055504441DD
:105A400054453A20202020202020202020202020E3
:105A500000000000D3010020494D414745000000EF
:105A60004649524D5741524500000000424F4F54A5
:105A70004C4F414445520000534D414C4C20464F41
:105A80004E5400004D4944444C4520464F4E54006E
:105A900042494720464F4E5400000000D2010020EA
:105AA0005472616E736665722053756363657373B8
:105AB00066756C20000000005472616E736665723A
:105AC000204661696C20202020202020000000005A
:105AD0004669726D776172652055706461746564A2
:105AE00020202020000000004669726D77617265F9
:105AF00020557064617465204661696C0000000087
:105B00001E0500204A4F55524E414C00F002002025
:105B100053455454494E47530000000043495343F2
:105B20002E205A414D4A2E2047454E2E205A42499A
:105B300052000000484F54454C0000002D2D2D2DE3
:105B40002D2D2D2D2D2D2D2D2D2D2D2D2D2D2D2D85
:105B50002D2D2D2D2D2D00004E455854203E3E203C
:105B600020202020202020202020202020204558D8
:105B7000495400002E53500004F13600C2B2089878
:105B800081B20020FFF792F9042C04D17BA2782186
:105B90000020FFF7AFFC641C052CFFF40FAF794821
:105BA0004178042900D18569774C1BE0B9B2B0B2C5
:105BB000FFF77CF90C366D1C09F10109605D2C289A
:105BC00010D16D1C0BF1010B08F10108B8F1040FA5
:105BD00018D0C9F1040000EB400006EB80060F3638
:105BE0004FF00009625D42B13B2A06D0654840781B
:105BF00000EB4000BBEB800FD8D362494878022805
:105C00000BD00BE04FF00008502614370AF1010AC0
:105C1000BAF1050FE4D11437E2E78D61401C4870FA
:105C20005CE503F0E5F9E0B100F07CFDE96A401ABB
:105C3000296B884207D3002000F0B2F8686B40F06F
:105C4000004068634AE55148FFF788FC03F0EEF92D
:105C50000028E5D04D48FEF72BFF002000F09AF811
:105C60003CE5686B40050DD50820FEF775FC686BB8
:105C700020F480606863686B40F000406863C5F89A
:105C80000C902BE5686B00050DD50920FEF764FC30
:105C9000686B20F400606863686B40F000406863E4
:105CA000C5F80C901AE5686BC0040DD50D20FEF701
:105CB00053FC686B20F480506863686B40F00040D0
:105CC0006863C5F80C9009E5686B002851DA686BC9
:105CD00020F000406863686B2D4C800605D50E20CF
:105CE000FEF73AFC0620207033E0686B4FF00706A1
:105CF000400404D50B20FEF72FFC267029E0686BCA
:105D0000000404D50A20FEF727FC267021E0686B0A
:105D1000C00603D50220FEF71FFC1AE0686BC00323
:105D200003D50320FEF718FC13E0686B400603D58B
:105D30000420FEF711FC0CE0686B000603D505207B
:105D4000FEF70AFC05E0686B000702D50120FEF7AC
:105D500003FC686B800494D5686B000491D4686B75
:105D600040048ED4686B80068BD40C20FEF7F4FBC5
:105D7000B4E4FEF76DFB00F019F8AFE431302E53B8
:105D8000000000009C000020DE030020F002002044
:105D9000A80100200149C87070470000F0020020EF
:105DA0000149487070470000F00200207CB500F007
:105DB000B9FC1F4CA16A401A40F2D241884236D346
:105DC00000F0B0FCA0621B48007800F0010100F078
:105DD000020001432BD00220A0704FF6E07020811A
:105DE0000025E5802B248DF800401348022201880D
:105DF0000A20B1FBF0F10DF1010003F0C9F89DF8A4
:105E000001102020302903D18DF800008DF80140C9
:105E10005E218DF8031043218DF804108DF80500E4
:105E20008DF806506A46BC210520FFF763FB7CBD58
:105E30009C0000208C0000207200002031B50F4C27
:105E400001229102204600F066FCE514002229465A
:105E5000204600F060FC4FF4FA73012269460848BE
:105E600002F012F818B10121132000F097F8012276
:105E70002946204600F04FFC38BD0000000C0140D0
:105E8000C005002070B50446114D0122910228463C
:105E900000F041FC0F48210A01704470EC1400220C
:105EA0002146284600F037FC4FF4FA7302220949D4
:105EB000094801F0E9FF18B10121132000F06EF844
:105EC00021462846BDE87040012200F024BC0000B5
:105ED000000C0140D4000020C005002031B50F4C5B
:105EE00000224FF48061204600F015FCE5140022EA
:105EF0002946204600F00FFC4FF4FA730122694650
:105F0000074801F0C1FF18B10121132000F046F845
:105F100001222946204600F0FEFB38BD000C01405E
:105F2000C0050020002102E00A38C0B2491C09283F
:105F3000FAD809010844C0B27047000010B58AB011
:105F40000223040A8DF808408DF8090002A805E034
:105F500011F8014BC454521ED2B25B1C002AF7D177
:105F6000052000909BB202AAA0210B4800F092FEEF
:105F700018B10221132000F011F80F236422A1218F
:105F8000054800F075FC002803D00221132000F022
:105F900005F80AB010BD00006005002010B5054AE4
:105FA000DD2313709070517003F0C2F9BDE810400A
:105FB000FDF742B9500300202DE9F04105460E4699
:105FC0001746002400F022FADFF83C8013E056F870
:105FD000242000232946022000F0D2F910B100202D
:105FE000BDE8F08156F824102868884201D00020CE
:105FF000F6E72D1D641CBC4201D24545E7D900F0EF
:10600000B3F90120ECE70000FCFF0008064900207E
:10601000C8610648016941F004010161016941F06C
:10602000400101617047000078020020002002401A
:10603000064A0021D16106490A6942F002020A615A
:106040004861086940F0400008617047780200200C
:1060500000200240044B0022DA61044A136943F035
:106060000103136101807047780200200020024084
:1060700000201449CA68D306134A04D5D06940F0F9
:106080000200D0611020CB685B0705D5D36943F0CF
:106090000103D36140F00400CB69DB0707D0D3696B
:1060A00043F00403D361CA6922F00102CA61A0F57A
:1060B0008072013A01D0C8607047C86920F00100C1
:1060C000C8617047002002407802002070B5044685
:1060D00000F028FB0546114E09E0601C07D024B1F2
:1060E00000F020FB401BA04201D9032070BDF068E6
:1060F000C007F2D1F068800601D52020F060F0687A
:10610000C00605D4F069C00702D1F068400703D586
:10611000FFF7AEFF012070BD002070BD00200240DF
:106120002DE9F04105460C464FF4FA76B70025E01C
:10613000002007F025F9304607F0A8F818B901212A
:106140001320FFF72BFF284607F072F8304607F0C0
:106150009DF818B901211320FFF720FFD821284608
:1061600006F0C6FE384607F091F818B90121132051
:10617000FFF714FF05F58035641EE4B2002CD7D17B
:10618000BDE8F08110B50446002C02D0607910B152
:1061900006E0012010BD00202071204600F012F81A
:1061A00001206071002010BD00680449884204D1BC
:1061B0000348416921F040014161704700300240CD
:1061C0000010024008B500680649884208D1064818
:1061D000416941F040014161406900F04000009098
:1061E00008BD0000003002400010024010B500243D
:1061F00090F82110022903D00421816301243DE09D
:1062000001680A6822F00E020A6001680A6822F03A
:1062100001020A601A4A0168914201D1012121E07C
:10622000174A1432914201D110211BE0144A28323E
:10623000914201D1891515E0114A3C32914201D1B8
:1062400089140FE00E4A5032914202D14FF480314E
:1062500008E00B4A6432914202D14FF4801101E010
:106260004FF08071064A083A5160012180F82110F0
:10627000002180F82010416B01B18847204610BDF5
:106280000800024010B506484FF0FF31C1600022FF
:106290000261C160C26000F04BFE002010BD000032
:1062A0000010024031B500F03DFA0546009C601C2C
:1062B00000D0641C00F036FA401BA042FAD338BD6F
:1062C0002DE9F04705460F464FF0010ADFF89080B0
:1062D00098F8180001280DD0012088F818002868C7
:1062E000204E4CF25039022807D04846FFF7EEFE08
:1062F00098B12FE00220BDE8F0874846FFF7E6FEA0
:10630000F8B90120FFF782FE4846FFF7DFFE82461C
:10631000306920F0040030611CE04FF0FF3038603D
:10632000AC6811E02046FFF783FE4846FFF7CEFE3B
:106330008246306920F0020030615FEA0A0001D035
:106340003C6007E004F58064D5E9020100EB8120A0
:10635000A042E7D8002088F818005046CBE700009C
:1063600078020020002002400348016941F08001CA
:1063700001610020704700000020024000F070BE64
:106380002DE9F05F0746884615461E460024DFF8D3
:10639000749099F81800012809D0012089F8180094
:1063A0004CF2503B5846FFF791FE18B126E0022010
:1063B000BDE8F09F012F05D0022F05D00427DFF89C
:1063C00048A019E00127FAE70227F8E7220128464A
:1063D0003146FCF7A7FE81B208EB4400FFF73AFE16
:1063E0005846FFF773FEDAF8101021F00101CAF8E1
:1063F000101018B9641CE4B2BC42E7D3002189F83C
:106400001810D5E7780200200020024005480169F5
:10641000090605D5044941600449416000207047E0
:10642000012070470020024023016745AB89EFCD72
:106430002DE9F04300224FF00F0CDFF8C8805CE03C
:10644000012393400B4083B3FF2B01D8044601E0A6
:1064500000F1040402D84FEA820503E0A2F1080526
:106460004FEA850527680CFA05F927EA09074FF076
:10647000040909FA05F947EA090766462760C4686E
:1064800024EA0304C46022F0030404EB0805AC68AA
:106490004FEA82774FEA177706FA07F606EA040909
:1064A000194CA04202D1002410E025E0174CA04274
:1064B00001D101240AE0164CA04201D1022405E0DA
:1064C000144CA04201D1032400E00424BC404C45FC
:1064D00012D1AC68B443AC600F4C25689D43256075
:1064E000241D25689D432560241D25689D43256046
:1064F000241D25689D432560521C31FA02F39FD16B
:10650000BDE8F0830000014000080140000C01409C
:106510000010014000140140000401402DE9F84F33
:1065200000230024DFF8C0914FF00F0809F1040A9E
:106530000AF1040B0BF1040E0127A7400A683A4048
:10654000BA4275D1DFF8A4C14D68A5EB0C066545CC
:106550002BD00DDC032D34D005DC35B3012D19D043
:10656000022D2FD11BE0112D16D0122D2AD119E0AA
:10657000B6F5881F19D006DCB6F5803F15D0B6F504
:10658000801F1FD111E0B6F5001F0ED0B6F5041F15
:1065900018D10AE0CB6815E0CB681B1D12E0CB6870
:1065A00008330FE0CB680C330CE08B6823B1012B70
:1065B00004D00823476105E0042303E008230761B2
:1065C00000E00023FF2A01D8054601E000F10405A0
:1065D00002D84FEA840603E0A4F108064FEA8606D3
:1065E0002F6808FA06FC27EA0C0703FA06F647EAC2
:1065F00006072F604D68ED0070D53D4DAE6946F041
:106600000106AE61AD6905F001050095394D24F034
:1066100003067719BE68A5072D0F08FA05FC26EAC0
:106620000C06DFF8D4C0604503D14FF0000C17E032
:1066300054E0DFF8C8C0604502D14FF0010C0FE014
:10664000DFF8BCC0604502D14FF0020C08E0DFF873
:10665000B4C0604502D14FF0030C01E04FF0040CD0
:106660000CFA05FC4CEA060CC7F808C04D68ED03AF
:1066700005D5D9F800501543C9F8005004E0D9F801
:1066800000509543C9F800504D68AD0305D5DAF8C0
:1066900000501543CAF8005004E0DAF80050954362
:1066A000CAF800504D68ED0205D5DBF800501543DF
:1066B000CBF8005004E0DBF800509543CBF80050D5
:1066C0004D68AD0205D5DEF800501543CEF80050F8
:1066D00004E0DEF800509543CEF80050641C102C06
:1066E000FFF42AAFBDE8F88F00040140000011104C
:1066F000001002400000014000080140000C014071
:1067000000100140001401408068084201D00120BF
:10671000704700207047002A01D0016170470904CA
:1067200001617047014800687047000004000020C4
:1067300010B50446002C12D0242084F83D002068B7
:10674000016821F001010160204600F053FB0020A8
:106750003034206160732060A073207310BD01206D
:1067600010BD000070B50446002C04D094F83D0024
:10677000002510B106E0012070BD84F83C50204691
:1067800000F04EFB242084F83D002068016821F0D1
:106790000101016000F032FE3349B0FBF1F12268E3
:1067A0005160324A6368934201D8491C07E04FF4B4
:1067B000967359434FF47A73B1FBF3F1491C236884
:1067C0001962616891420BD84900B0FBF1F2C2F343
:1067D0000B02042A01D2042019E0B0FBF1F016E00C
:1067E000A2689AB301EBC10303EB0113B0FBF3F30F
:1067F00043F480431B0530D04AB301EBC10202EBE6
:106800000111B0FBF1F040F4804040F400402168F9
:10681000C861D4E90701084321680860D4E903107E
:10682000084321688860D4E9050108432168C860ED
:106830002068016841F0010101602564202084F88E
:106840003D00256384F83E50002070BD00E006E066
:1068500001EB4103B0FBF3F3CCE70120D7E701EBF9
:106860004101B0FBF1F0D0E740420F00A0860100EB
:106870002DE9FF4F81B004468B461F460126FFF7E6
:1068800051FF054694F83D00202803D0022005B0B2
:10689000BDE8F08F192301224F492046009502F0F0
:1068A0009BFA08B10220F2E794F83C00012807D0D7
:1068B000012084F83C0020680168C90702D005E087
:1068C0000220E4E7016841F00101016020680168ED
:1068D00021F400610160242084F83D004FF0000A9B
:1068E000C4F840A03D48E0624FF0200920680168EC
:1068F00041F4807101603B4600224FF001112046B7
:10690000009502F069FA08B10320C0E721680BF096
:10691000FE000861FFF706FF054620684169C1F3E4
:1069200040014069C0F3802094F83D204FF0A0085A
:1069300010E027B1FFF7F6FE401BB84201D984F8FA
:106940003D8020684169C1F340014069C0F3802067
:1069500094F83D20014301D1A02AEAD184F83D906A
:1069600020684169C943890718D42168096841F43E
:10697000007101602068416980690090192301223B
:1069800015492046009502F027FA08B103207EE75A
:1069900084F83D9084F83CA0002078E7016841F439
:1069A0000071016021686FF4806048611923012241
:1069B00009492046009502F00FFA08B1032066E766
:1069C00030460399761C884290D384F83D9084F831
:1069D0003CA001205BE70000020010000000FFFF68
:1069E0002DE9F84F04468A4617469946DDF8288077
:1069F000FFF798FE054694F83D00202802D00220BB
:106A0000BDE8F88F192301229F492046009502F026
:106A1000E3F908B10220F3E794F83C00012807D01D
:106A2000012084F83C0020680168C90702D005E015
:106A30000220E5E7016841F001010160206801687A
:106A400021F400610160222084F83D00102084F8C8
:106A50003E00002626646762A4F82A908B48E06214
:106A6000608D20852B4642465146204602F0A6F80E
:106A700050B1206C042803D084F83C600320BFE7A9
:106A800084F83C600120BBE7208D70B1012815D04F
:106A9000022823D02068016841F4806101602068E9
:106AA0004169806900907A4FE3E02068416981691B
:106AB0000091016841F400710160F4E72068016809
:106AC00021F48061016072B620684169816900919A
:106AD000016841F40071016062B6E4E72068016872
:106AE00041F40061016072B62068416981690091DA
:106AF000016821F48061016062B6D4E703286FD891
:106B000001280BD0022823D04346002239462046D4
:106B1000009502F061F9E8B3032071E72A46414687
:106B2000204602F0DDF930B1206C202801D0012090
:106B300066E7032064E720680169606A421C6262BC
:106B40000170208D401E2085608D401E608590E084
:106B50004346002239462046009502F03DF908B12F
:106B600003204DE772B62068016841F400710160AE
:106B700020680169606A421C62620170208D401EBB
:106B80002085608D401E608562B620680169606A5C
:106B9000421C00E008E062620170208D401E2085EA
:106BA000608D401E608564E02068016821F480618A
:106BB000016072B620680169606A421C62620170FD
:106BC000208D401E2085608D401E6085434600223A
:106BD00039462046009502F0FFF810B103200FE778
:106BE0001EE02068016841F40071016020680169BD
:106BF000606A421C62620170208D401E2085608D9B
:106C0000401E608562B620680169606A421C62624B
:106C10000170208D401E2085608D401E608528E01B
:106C20002A464146204602F05BF930B1206C20280C
:106C300001D00120E4E60320E2E620680169606AF1
:106C4000421C62620170208D401E2085608D401EB6
:106C5000608520684169C94349070AD40169606AAF
:106C6000421C62620170208D401E2085608D401E96
:106C70006085208D00287FF441AF20203C34607077
:106C8000A67026700020BBE6020010000000FFFF87
:106C9000040001002DE9F84F04468A4690469946C3
:106CA0000A9FFFF73FFD054694F83D00202802D0DB
:106CB0000220BDE8F88F192301224C492046009597
:106CC00002F08AF808B10220F3E794F83C000128AA
:106CD00007D0012084F83C0020680168C90702D071
:106CE00005E00220E5E7016841F00101016020684C
:106CF000016821F400610160212084F83D0010202A
:106D000084F83E0000262664C4F82480A4F82A9063
:106D10003748E062608D20852B463A465146204632
:106D200001F0D8FF50B1206C042803D084F83C60F7
:106D30000320BEE784F83C600120BAE7206841697F
:106D40008069009041E02A463946204602F0F9F871
:106D500058B1206C042801D00320AAE720680168FC
:106D600041F4007101600120A3E7606A411C616287
:106D7000216800780861608D401E6085208D401E6E
:106D800080B2208522685169C94349070BD450B1AC
:106D9000606A411C616200781061608D401E6085F0
:106DA000208D401E20852A463946204601F0EEFF00
:106DB00058B1206C042801D003207AE720680168CC
:106DC00041F400710160012073E7208D0028BAD1E1
:106DD0001F3454F81F0C016841F400710160202039
:106DE000A077E6776677002063E7000002001000D6
:106DF0000000FFFF00680749884209D10648C169C1
:106E000021F40011C1614FF440710448FFF710BB39
:106E1000704700000054004000100240000C014088
:106E200000B585B000680F49884218D10E48C16985
:106E300041F40011C161C06900F4001000904FF4EA
:106E400040700190122002900320049001A907488D
:106E5000FFF764FB0648416841F00201416005B05C
:106E600000BD00000054004000100240000C014032
:106E70000000014070B50446002C11D021684CF68A
:106E8000CC400860216845F255500860D4E90010F4
:106E900048602168A0688860FFF744FC054608E068
:106EA000012070BDFFF73EFC401B302801D90320B4
:106EB00070BD2068C0680028F4D121684AF6AA2075
:106EC0000860002070BD00684AF6AA210160002019
:106ED0007047000002480168491C016070470000CB
:106EE0000400002010B50748016841F0100101605E
:106EF000032000F0A3F8002000F006F800F01AF8D4
:106F0000002010BD0020024010B5044607484FF491
:106F10007A720068B0FBF2F001F080F9002221469D
:106F2000501E00F06BF8002010BD00000000002093
:106F30007047000008B52248816941F00101816174
:106F4000806900F001000090032000F077F8002233
:106F500011466FF00B0000F051F8002211466FF05F
:106F60000A0000F04BF8002211466FF0090000F013
:106F700045F800221146501F00F040F8002211464B
:106F8000101F00F03BF800221146901E00F036F86A
:106F900000221146501E00F031F800221146012057
:106FA00000F02CF8012000F01CF80648416821F0A0
:106FB000E0614160416841F00071416008BD00003E
:106FC0000010024000000140002809DB00F01F0211
:106FD000012191404009800000F1E020C0F88011BB
:106FE0007047002809DB00F01F0201219140400991
:106FF000800000F1E020C0F800117047F0B40D46A9
:107000000D4B1B68C3F30223C3F10704042C00D902
:107010000424191D072901D2002300E0DB1E0126EC
:1070200006FA04F1491E294099409E40761E1640FA
:107030003143F0BC02F04ABC0CED00E000F0070167
:10704000054A10684FF6FF03184040EA0120034943
:1070500008431060704700000CED00E00000FA05E6
:10706000BFF34F8F05480168054A01F4E061114301
:107070000160BFF34F8F00BFFDE700000CED00E0A3
:107080000400FA05014901200862704700000E4221
:107090007047000010B5054C2068C00304D5FFF709
:1070A000F7FF4FF48030206010BD00001404014051
:1070B00010B586B001462AA090E81C00C068CDE952
:1070C0000334029205902AA0006801900020294C08
:1070D000012922D0022939D010291CD161682268E7
:1070E000D20118D502A8C1F38342805CC90309D537
:1070F000616801AAC1F34041515C1F4AB2FBF1F142
:10710000484301E01D4948436168490203D44000F7
:107110000321B0FBF1F006B010BD216AC1F30122DA
:10712000012A03D1890701D5D003F4E7022A05D14A
:10713000616A890702D549F64040ECE7032AEAD1A3
:1071400021688903E7D54FF22440E4E700F066F9AF
:107150006168C1F38131491C4900B0FBF1F0DAE705
:1071600002030405060708090A0B0C0D0E0F101088
:10717000010200000010024000127A0000093D00E8
:107180002DE9F8430446DFF8F8802078C0075FD087
:107190000027D8F81C00C0000BD4D8F81C0040F021
:1071A0008050C8F81C00D8F81C0000F080500090F7
:1071B0000127344D2868C00512D4286840F4807037
:1071C0002860FFF7AFFA064607E0FFF7ABFA801B2F
:1071D000642802D90320BDE8F8832868C005F4D5E7
:1071E000D8F8200000F4407010B3A18801F4407179
:1071F00081421DD0D8F8200020F44070224901229D
:107200000A6000220A60C8F82000C00710D0FFF70B
:1072100089FA054641F2883606E0FFF783FA401BFB
:10722000B04201D90320D6E7D8F820008007F4D572
:10723000D8F82000616820F440700843C8F82000A6
:10724000012F05D1D8F81C0020F08050C8F81C0090
:107250002078800707D5D8F80400A16820F44040C2
:107260000843C8F804002078C00607D5D8F8040001
:10727000E16820F480000843C8F804000020AAE771
:107280000010024000700040400442422DE9F047E7
:1072900004460E46DFF84881D8F8000000F00700E9
:1072A000B0420FD2D8F8000020F007003043C8F8F1
:1072B0000000D8F8000000F00700B04202D0012022
:1072C000BDE8F0872078474F800705D57868A1682A
:1072D00020F0F000084378602078C00748D060684C
:1072E000012806D0022809D0396889070BD401206B
:1072F000E6E73968890306D40120E1E739688901A6
:1073000001D40120DCE7796821F0030101437960B1
:10731000FFF708FA0546606841F28839012809D06C
:10732000022814D020E0FFF7FDF9401B484501D9A1
:107330000320C5E77868C0F381000128F3D117E086
:10734000FFF7F0F9401B484501D90320B8E77868FA
:10735000C0F381000228F3D10AE0FFF7E3F9401BF4
:10736000484501D90320ABE7786810F00C0FF4D141
:10737000D8F8000000F00700B0420ED9D8F800009D
:1073800020F007003043C8F80000D8F8000000F0F3
:107390000700B04201D0012092E72078400705D5D0
:1073A0007868E16820F4E06008437860207800079E
:1073B00006D57868216920F4605040EAC100786001
:1073C00000F03CF87968084AC1F30311515CC840E9
:1073D000064908600020FFF797FD002070E70000D5
:1073E000002002400010024004DF000800000020DE
:1073F00001480068704700000000002000B5FFF75A
:10740000F7FF04494968044AC1F30221515CC840AE
:1074100000BD00000010024014DF000800B5FFF7B7
:10742000E7FF04494968044AC1F3C221515CC840DE
:1074300000BD00000010024014DF000810B585B048
:1074400013A0D0E901130268C068CDE902130192CC
:10745000049013A000680090124B5968124801F084
:107460000C02042A0FD0082A0DD101AAC1F38344CB
:10747000125DC90309D55968C1F340411DF80110D7
:10748000B0FBF1F0504305B010BD08485043FAE797
:1074900002030405060708090A0B0C0D0E0F101055
:1074A000010200000010024000127A0000093D00B5
:1074B0002DE9F84F0446D04D2078C0075BD06868AE
:1074C000C0F38100012807D06868C0F3810002285A
:1074D0000AD16868C00307D5286880034BD5606867
:1074E00078BB0120BDE8F88F6068B0F5803F11D00F
:1074F000A8B1B0F5A02F1BD0286820F480302860F8
:10750000286820F480202860606830B3FFF70AF90B
:1075100006461EE0286840F480302860F4E72868BA
:1075200020F480302860286820F480202860EBE771
:10753000286840F480202860286840F48030286063
:10754000E2E718E0FFF7EEF8801B642801D903207A
:10755000C8E728688003F5D50DE0FFF7E3F8064695
:1075600006E0FFF7DFF8801B642801D90320B9E7A4
:1075700028688003F5D42078DFF8808280074FF0F8
:10758000010A4FF0000945D5686810F00C0F07D0CC
:107590006868C0F38100022812D16868C0030FD464
:1075A0002868800704D52069012801D0012099E7C7
:1075B0002868616920F0F80040EAC100286029E0ED
:1075C0002069B8B1C8F800A0FFF7ACF8064606E09D
:1075D000FFF7A8F8801B022801D9032082E728685A
:1075E0008007F5D52868616920F0F80040EAC100FD
:1075F00028600FE0C8F80090FFF794F8064606E010
:10760000FFF790F8801B022801D903206AE7286859
:107610008007F5D42078000726D57948A16999B16B
:10762000C0F800A0FFF77EF8064606E0FFF77AF8FC
:10763000801B022801D9032054E7686A8007F5D52A
:10764000012004F053F80FE0C0F80090FFF76AF84B
:10765000064606E0FFF766F8801B022801D90320E2
:1076600040E7686A8007F5D42078400773D5002684
:10767000E869C00008D4E86940F08050E861E86932
:1076800000F0805000900126DFF878B1DBF80000B0
:10769000C00514D4DBF8000040F48070CBF8000083
:1076A000FFF740F8074606E0FFF73CF8C01B6428E8
:1076B00001D9032016E7DBF80000C005F4D5E06827
:1076C000012812D0B0B105281DD0286A20F0010091
:1076D0002862286A20F004002862E06841F2883BB2
:1076E00028B3FFF71FF807461DE0286A40F00100A5
:1076F0002862F2E7286A20F001002862286A20F058
:1077000004002862E9E7286A40F004002862286A39
:1077100040F001002862E0E7FFF704F8C01B58457D
:1077200001D90320DEE6286A8007F5D50DE0FEF7D3
:10773000F9FF074606E0FEF7F5FFC01B584501D9E3
:107740000320CFE6286A8007F5D4012E03D1E8692B
:1077500020F08050E861E069A0B36968C1F381015D
:10776000022947D0022805D0C8F86090FEF7DAFF5A
:1077700004463AE0C8F86090FEF7D4FF064606E0FB
:10778000FEF7D0FF801B022801D90320AAE6286853
:107790008001F5D4206AB0F5803F05D16868A16802
:1077A00020F4003008436860D4E9080108436968A0
:1077B00021F4741108436860C8F860A0FEF7B2FFB6
:1077C000044607E014E0FEF7ADFF001B022801D9D4
:1077D000032087E628688001F5D509E0FEF7A2FFBF
:1077E000001B022801D903207CE628688001F5D41B
:1077F000002077E6012075E60010024000004242BA
:107800008004424200700040024800EB81000068A2
:1078100080B27047006C0040024800EB810091B2DA
:1078200001607047006C0040F8B505460C461646EE
:1078300000200090002D08D03CB100226946284667
:1078400000F01BF818B10120F8BD0120F8BD287B1D
:107850002070E87BE070697B6170A97BA17056B1F4
:1078600004F01FFEE070607804F01BFE6070A078EA
:1078700004F017FEA0700020F8BD2DE9F047074680
:107880000C469046002F07D034B138684068400756
:1078900004D50120BDE8F0870120FBE7384604F05D
:1078A000B4FE05464FF46160B5FBF0F1B5FBF0F2B4
:1078B00000FB12533C22B3FBF2F36370B5FBF0F311
:1078C00000FB1350B0FBF2F302FB1300A070182969
:1078D00036D31820B1FBF0F9B1FBF0F200FB121027
:1078E0002070384604F08AFE411C03D0A84201D91A
:1078F000461B01E04FF0FF36A9EB091000EB4000FA
:10790000C0EB001005EBC0152946384604F0D7FE41
:1079100008B10120BEE7701C06D07119384604F08A
:10792000B7FE40B10120B5E73146384604F0B0FE5D
:1079300008B10120AEE74946384604F0BDFD00E03D
:107940002170B8F1000F0BD0207804F0AAFD207050
:10795000607804F0A6FD6070A07804F0A2FDA0702D
:10796000002097E770B50446002C03D0607C002609
:1079700010B105E0012070BD2674204600F058F8D3
:1079800002206074204600F033F9042510B16574BC
:10799000012070BD204604F0E6FD10B165740120A1
:1079A00070BD2068416821F007014160A06820B1E6
:1079B0001848016821F0010101601648001F0168A4
:1079C000A26821F46071114301606068411C04D118
:1079D0000120FFF76DFB98B1401E21688A6822F0F4
:1079E0000F0242EA10428A602168CA6860F30F02FF
:1079F000CA60204604F0D1FD28B16574012070BD35
:107A00006574012070BDE67301206073A07360741B
:107A1000002070BD306C004000680349884202D1EC
:107A20000249002008607047002800403C044242A0
:107A300008B50068084988420DD1FFF723FB0748C5
:107A4000C16941F00061C161C06900F0006000904F
:107A500003490120086008BD0028004000100240D2
:107A60003C0442422DE9F04104460D46002C3FD033
:107A7000E5B3207C01283DD00126267402206074E5
:107A8000AAB3E87804F004FDE073687804F000FD20
:107A90006073A87804F0FCFCA073A27B617BE07BA0
:107AA00004F0C3FD20732870204604F0AEFD4FF4AF
:107AB0006161B0FBF1F10025182936D91822B1FB1C
:107AC000F2F1A1EB011101EB4101C1EB011100EB5E
:107AD000C1173946204604F0F2FD4FF0040890B17A
:107AE00084F8118025740120BDE8F08100E003E0F6
:107AF0000120F9E70220F7E7E878E073687860731F
:107B0000A878A073C9E7204604F078FD411C0CD08A
:107B1000B8420AD207490144204604F0B9FD20B119
:107B200084F8118025740120DEE766742574002036
:107B3000DAE70000805101002DE9F04104460D46CE
:107B4000002C28D03DB3207C012826D001262674A5
:107B5000022060741AB3287804F09AFC4FF4616133
:107B600000FB01F7687804F093FCC0EB001007EB12
:107B70008007A87804F08CFC3D182946204604F0C4
:107B80009EFD00274FF00408A8B184F811802774E7
:107B90000120BDE8F0810120FBE70220F9E7297808
:107BA0004FF4616041436878C0EB001001EB800046
:107BB000A9784518E1E72068416821F00501416096
:107BC000204604F01BFD411C0CD0A8420AD20749F4
:107BD0000144204604F05CFD20B184F81180277434
:107BE0000120D6E7667427740020D2E78051010097
:107BF00070B50446002C0AD02068416821F00801C5
:107C00004160FEF78FFD05464FF47A7608E00120CB
:107C100070BDFEF787FD401BB04201D9032070BD47
:107C2000206840680007F4D5002070BD70B5044698
:107C3000002C05D00025A56294F8510010B104E095
:107C4000012070BD204600F049F8022084F8510060
:107C50002068016821F040010160D4E90101084376
:107C6000D4E903121143084361690843218B01F4ED
:107C700000710843E1690843216A0843A16A084387
:107C800021680860A069042101EA1040616A084384
:107C9000216848602168E06A08612068C16921F4B0
:107CA0000061C1616565012084F85100002070BD4C
:107CB00000680749884209D10648C16921F480411A
:107CC000C1614FF460410448FEF7B2BB7047000049
:107CD0000038004000100240000C014010B586B092
:107CE0000068124988421ED11148C16941F480419F
:107CF000C161C06900F4804001904FF420400290BF
:107D000002200390032005900A4C02A92046FEF7AA
:107D100005FC4FF48041029100210391049102A9D6
:107D20002046FEF7FBFB06B010BD00000038004007
:107D300000100240000C01402DE9F84F04460D46AA
:107D400092461E46002760684FF0040BB0F5827F14
:107D500001D1A06888B194F85000012818D0012002
:107D600084F85000FEF7DEFC804694F851004FF096
:107D7000000901280ED002277FE084F851B0534655
:107D80002A4629462046009600F03CF9BDE8F88FC7
:107D90000220FBE755B3BAF1000F27D084F851B0A9
:107DA000C4F85490A563A4F83CA0A4F83EA0C4F87D
:107DB0003090A4F83490A4F83690C4F84090C4F8F9
:107DC0004490A0684FF4004A504504D120680168EF
:107DD00021F48041016020680168490603D40168EC
:107DE00041F040010160E068C0B131E0012744E0AA
:107DF00020688168C90706D0007B05F8010BE08F79
:107E0000401EE0870AE03EB1701C07D0FEF78AFCF6
:107E1000A0EB0800B04201D303272EE0E08F00283A
:107E2000E6D118E020688168C90706D0C06825F847
:107E3000020BE08F401EE0870AE03EB1701C07D0C5
:107E4000FEF770FCA0EB0800B04201D3032714E05A
:107E5000E08F0028E6D16068B0F5827F0AD1A06883
:107E6000504502D0B0F5806F04D12068016821F040
:107E700040010160606D00B10127012084F85100CC
:107E800084F85090384681E72DE9F84F04460D46B6
:107E900093461E46002794F8500001280DD04FF05D
:107EA000010A84F850A0FEF73DFC804694F851008A
:107EB000B946012804D002279EE00220BDE8F88FD1
:107EC000DDB1BBF1000F18D0032084F85100C4F8D5
:107ED00054902563A4F834B0A4F836B0C4F83890B0
:107EE000A4F83C90A4F83E90C4F84490C4F84090A4
:107EF000A068B0F5004F02D006E001277CE02068C2
:107F0000016841F48041016020680168490603D49A
:107F1000016841F040010160E068B0F5006F05D0F4
:107F2000606850B3E08E012827D044E0606810B14B
:107F3000E08E01281DD1216835F8020BC860E08E63
:107F4000401EE08615E020688168890706D535F86F
:107F5000021BC160E08E401EE0860AE03EB1701C4C
:107F600007D0FEF7DFFBA0EB0800B04201D30327E8
:107F700042E0E08E0028E6D120E0216815F8010BF0
:107F80000873E08E401EE08615E02068816889074E
:107F900006D515F8011B0173E08E401EE0860AE04D
:107FA0003EB1701C07D0FEF7BDFBA0EB0800B0424D
:107FB00001D3032720E0E08E0028E6D133460122DA
:107FC00002212046CDF8008005F004FA08B103270D
:107FD00012E042463146204604F078FF18B10127EE
:107FE0002020606508E0A06818B92068C168806832
:107FF0000090606D00B1012784F851A084F8509082
:1080000038465BE72DE9F84F0446DDF828800D4639
:1080100016469B4601274FF0000994F850000128AE
:108020000ED0012084F85000FEF77CFB824694F8C5
:108030005100616801280DD0B1F5827F07D102E0BF
:108040000220BDE8F88FA16809B9042802D04FF0DA
:108050000209BDE045B13EB1BBF1000F04D094F878
:108060005100012803D005E04FF00109B0E00520E0
:1080700084F8510000206065A663A4F83EB0A4F81F
:108080003CB02563A4F836B0A4F834B02064606432
:1080900020680168490603D4016841F0400101608D
:1080A000E068B0F5006F05D06068B8B3E08E0128D5
:1080B0003CD06AE0606810B1E08E01282FD12168C1
:1080C00035F8020BC860E08E401EE08627E067B1FD
:1080D000E08E50B120688168890706D535F8021B0B
:1080E000C160E08E401EE0860027E08F50B120681E
:1080F0008168C90706D0C06826F8020BE08F401ED1
:10810000E0870127B8F1FF3F09D0FEF70BFBA0EB9A
:108110000A00404503D34FF0030959E006E0E08E22
:108120000028D4D1E08F0028D1D134E0216815F89F
:10813000010B0873E08E401EE08626E067B1E08EFA
:1081400050B120688168890706D515F8011B0173B5
:10815000E08E401EE0860027E08F50B120688168E5
:10816000C90706D0C06806F8010BE08F401EE08703
:108170000127B8F1FF3F08D0FEF7D4FAA0EB0A00C0
:10818000404502D34FF0030922E0E08E0028D5D10C
:10819000E08F0028D2D14346012202212046CDF8AB
:1081A00000A005F017F910B14FF0030910E0524696
:1081B0004146204604F08AFE20B14FF001092020FC
:1081C000606505E0A06818B92068C1688068009003
:1081D00001205034607000202070484631E74FF095
:1081E000E021042804D0086920F0040008617047E9
:1081F000086940F004000861704700000648016803
:10820000002907D00168491E01600068002801D1DB
:1082100003F07EBA704700001C02002010B5401E1B
:10822000B0F1807F01D3012010BD4FF0E0246061E8
:108230000F21601701F04AFB0020A0610720206198
:10824000002010BD10B5FFF7D9FF10BD30B590F874
:108250003C20012A20D0012380F83C30022280F803
:108260003D200268546824F0700454600268546829
:108270000D682C4354600268946824F08004946074
:108280000268946849680C43946080F83D3000218E
:1082900080F83C10002030BD022030BD70B504468F
:1082A00094F83C00012817D0012584F83C500220A6
:1082B00084F83D002068826822F0770222F47F4231
:1082C0008260086850283AD00DDC20285FD005DC99
:1082D000A0B3102864D155E0022070BD30285BD0D7
:1082E00040285DD13FE0602833D070280CD0B0F535
:1082F000805F03D0B0F5005F52D113E02068816841
:1083000021F0070181604BE0CB68D1E901212068B1
:1083100005F04BFA2068816821F0770141F0770180
:1083200081603DE0CB68D1E90121206805F03DFA8C
:108330002068816841F48041816031E01DE0CA68B5
:108340004968206805F0FAFA5021206805F037FAEC
:1083500026E0CA684968206805F001FB60212068B2
:1083600005F02DFA1CE0CA684968206805F0E6FAB5
:108370004021206805F023FA12E00021206805F072
:108380001EFA0DE01021206805F019FA08E02021FE
:10839000206805F014FA03E03021206805F00FFA98
:1083A0003C3465700020207070BD00001FB5124B7A
:1083B000016802221148994207D18115009101926A
:1083C00003926946FEF7AAF81FBDB1F1804F0AD0AB
:1083D0000B4B9942F8D140210091019203926946DA
:1083E000FEF79CF81FBD012100910192039269469E
:1083F000FEF794F81FBD0000002C0140000801406A
:108400000004004070B504460D4694F83C00012875
:108410000DD0012684F83C60022084F83D0042B172
:10842000042A1AD0082A2DD00C2A53D13EE002206B
:1084300070BD2946206805F0CBF92068816941F0BC
:10844000080181612068816921F00401816120684F
:1084500081692A69114381613CE02946206805F061
:10846000E7F92068816941F40061816120688169D0
:1084700021F480618161206881692A6941EA0221D1
:10848000816127E02946206805F004FA2068C16967
:1084900041F00801C1612068C16921F00401C16196
:1084A0002068C1692A691143C16113E02946206827
:1084B00005F020FA2068C16941F40061C1612068BB
:1084C000C16921F48061C1612068C1692A6941EAFA
:1084D0000221C1613C3466700020207070BD10B56F
:1084E0000446022084F83D002068016A41F211121E
:1084F000114207D1016A9210114203D1016821F0A3
:1085000001010160204600F025F800203C34607035
:10851000207010BD90F83D00704710B50446002C47
:1085200003D094F83D0010B107E0012010BD0020F9
:1085300084F83C00204600F02DF8022084F83D002D
:10854000211D206805F0F0F8012084F83D0000208E
:1085500010BD000000680C4A0C49904204D18869A3
:1085600020F4006088617047B0F1804F07D0084A5E
:108570009042F8D1C86920F00200C8617047C8690C
:1085800020F00100C8617047002C0140001002403B
:108590000004004008B50068124A1349904208D10F
:1085A000886940F400608861886900F40060009088
:1085B00008BDB0F1804F0BD00C4A9042F8D1C86989
:1085C00040F00200C861C86900F00200009008BDD8
:1085D000C86940F00100C861C86900F0010000905E
:1085E00008BD0000002C01400010024000040040C3
:1085F00010B504460122206805F0CCF80749206830
:10860000884203D1416C41F4004141642068016813
:1086100041F001010160002010BD0000002C01406C
:1086200010B504460022206805F0B4F8104841F265
:10863000111221689310814209D1086A104206D1B3
:10864000086A184203D1486C20F40040486420684E
:10865000016A114206D1016A194203D1016821F071
:1086600001010160012084F83D00002010BD0000E0
:10867000002C014010B50446002C0CD0242084F8B6
:108680003900204600F0E8F800203834606060705F
:10869000A070207010BD012010BD000008B50022A0
:1086A0000B4909680B684B6800930B684B68009393
:1086B0000B684B6800930B684B6800930B684B6822
:1086C00000934968C26303488264026408BD0000E5
:1086D000D8060020D0010020014611F8390F497852
:1086E0000843704770B5044622681068D168526923
:1086F00000F00F03002B08D1850606D58D0604D5A2
:108700002046BDE8704005F05FB9002B5ED002F056
:10871000010301F490752B4358D0C30705D0CB0556
:1087200003D5E36B43F00103E363430705D5D307A8
:1087300003D0E36B43F00203E363830705D5D3075C
:1087400003D0E36B43F00403E363030705D5D207CB
:1087500003D0E26B42F00802E263E26B002A2AD007
:10876000800604D5880602D5204605F02DF920683C
:108770004069C0F38010E16B090700D400B32046C4
:1087800005F007F920684169490615D5416921F0CE
:1087900040014161606B58B115494163606BFDF761
:1087A00025FD002807D0606B416BBDE8704008478D
:1087B0002046FFF773FF70BD2046FFF76FFF70BDC7
:1087C0002046FFF76BFF0020E06370BD020606D570
:1087D0000A0604D52046BDE8704005F097BA400669
:1087E000F3D54806F1D52046BDE8704005F0DFB866
:1087F00083D9000870B50446002C04D094F83900E1
:10880000002510B106E0012070BD84F838502046E4
:1088100000F04EF8242084F839002068C16821F463
:108820000051C160204605F0A3F92068016921F4D8
:10883000904101612068416921F02A01416120686D
:10884000C16841F40051C160E563202084F839001B
:1088500084F83A00002070BD10B5114B0168114A30
:10886000114899420CD1916921F4804191614FF4F2
:10887000C061FDF7DDFDBDE810402520FEF7A4BB7B
:108880000A4B99420BD1D16921F40031D1610C21FD
:10889000FDF7CEFDBDE810402620FEF795BB10BDCC
:1088A0000038014000100240000801400044004030
:1088B00070B586B0234E01680024234A02200323AA
:1088C000224DB14221D1916941F480419161916978
:1088D00001F480410191010202910390059302A9E4
:1088E0002846FDF71BFE291502910394049402A962
:1088F0002846FDF713FE002201212520FEF77EFB0E
:108900002520FEF76EFB06B070BD114EB142FAD1C4
:10891000D16941F40031D161D16901F40031019193
:10892000042102910390059302A92846FDF7F6FD64
:10893000082102910394049402A92846FDF7EEFD54
:10894000E1E700000038014000100240000801404B
:10895000004400402DE9F84304460D4691461E466A
:1089600094F83A00202802D00220BDE8F883B5B17F
:10897000B9F1000F13D094F83800012811D001206C
:1089800084F838000027E763222084F83A00FDF7D6
:10899000C9FE8046A4F82C90A4F82E9035E0012062
:1089A000E3E70220E1E7E08D401EE085A068B0F536
:1089B000805F09D04346002220212046009605F022
:1089C000D8F9D0B10320D0E7434600222021204629
:1089D000009605F0CEF908B10320C6E7206928B15A
:1089E00020684068C1B229806D1C0EE02068406894
:1089F000C0F308012980AD1C07E0206970B1206830
:108A0000406800F07F0005F8010BE08D0028CAD116
:108A100020203834A07027700020A6E72068406826
:108A200005F8010BF1E790F83A30202B01D0022035
:108A30007047F9B1F2B190F83830012B1CD0816247
:108A40008285C2850021C163222280F83A2080F805
:108A500038100168CA6842F48072CA6001684A69C5
:108A600042F001024A610068C16841F02001C16022
:108A70000020704701207047022070472DE9F8431D
:108A800004460D4691461E4694F83900202802D02F
:108A90000220BDE8F883B5B1B9F1000F13D094F806
:108AA0003800012811D0012084F838000027E7633E
:108AB000212084F83900FDF735FE8046A4F8249083
:108AC000A4F826902DE00120E3E70220E1E7E08C06
:108AD000401EE084A068B0F5805F09D043460022C4
