:020000040800F2
:10000000900F0020C1010008C9010008170E000868
:100010008D180008B10300082D2E00080000000014
:10002000000000000000000000000000D3010008F4
:10003000D501000800000000D7010008152D0008B8
:10004000DB010008DB010008DB010008DB01000820
:10005000DB010008DB010008DB010008DB01000810
:10006000DB010008DB010008DB010008DB01000800
:10007000DB010008DB010008DB010008DB010008F0
:10008000DB010008DB010008DB010008DB010008E0
:10009000DB010008DB010008DB010008DB010008D0
:1000A000DB010008DB010008DB010008DB010008C0
:1000B000DB010008DB010008DB010008DB010008B0
:1000C000DB010008DB010008DB010008DB010008A0
:1000D000DB010008DB010008DB010008DB01000890
:1000E000DB010008DB010008DB010008DB01000880
:1000F000DB010008DB010008DB010008DB01000870
:10010000DB010008651D0008DB010008DB010008B9
:10011000DB010008DB010008DB010008DB0100084F
:10012000DB010008DB010008DB010008B90700085B
:10013000DB010008DB010008DB010008DB0100082F
:10014000DB010008DB010008DB010008DB0100081F
:10015000DB010008DB010008DB010008DB0100080F
:10016000DB010008DB010008DB010008DB010008FF
:10017000DB010008DB010008DB010008DB010008EF
:10018000DB010008DB010008DB010008DB010008DF
:10019000DB010008DB010008DB010008DB010008CF
:1001A000DB010008DB010008DB010008DFF80CD0F0
:1001B00000F02AF800480047BD3B0008900F0020DF
:1001C0000648804706480047FEE7FEE7FEE7FEE7F1
:1001D000FEE7FEE7FEE7FEE7FEE7FEE7292D000863
:1001E000AD010008D2B201E000F8012B491EFBD29C
:1001F00070470022F6E710B513460A460446194632
:10020000FFF7F0FF204610BD064C074D06E0E06802
:1002100040F0010394E8070098471034AC42F6D34D
:10022000FFF7C8FFE4540008045500083B4D3C4963
:1002300028683C4C0840B0F1005F32D1204600F005
:1002400017FE01F065FA012000F0C0FC4FF4805069
:10025000002101F05DFB344E04F5D430B04704F5C5
:10026000D630B04704F5D830B04704F5DA30B0479F
:1002700004F5DC30B04704F5DE30B04704F5E0307B
:10028000B04704F5E230B04701F09EFB01F094FB6B
:1002900068682649C1E90200286880F30888C868B0
:1002A000804704F5DA3420460821012200F0AEFD33
:1002B0001E484FF4FA61416041680029FCD1204694
:1002C0000821002200F0A2FD47F67C5001F0D0F892
:1002D000174DA847C0881D4C400080B215A1A0470B
:1002E000A847C0881AA100EB4000400080B2A04798
:1002F000A847C0881CA1C0EBC00080B2A047A84797
:10030000C0881FA1C00080B2A047A847C08822A112
:1003100000EBC00080B2A04700F0F4FC00800008B1
:100320000000FE2F005800401D0D0008BC000020FA
:1003300095150008202020475245534B412046493F
:10034000524D574152452D6100000000CD14000868
:10035000312E2069736B6C6A756369206E61706100
:100360006A616E6A65000000322E206E61206D6940
:1003700063726F205344206B61727469637500006F
:1003800009757069736920697370726176616E2096
:1003900066616A6C00000000332E20756B6C6A7514
:1003A0006369206E6170616A616E6A6500000000B9
:1003B000FEE70000B0B5454C45A12046012202F001
:1003C00073FFB8BB01F0E6F8C08845A1800080B299
:1003D00001F07CF8E068B0F5801F2FD96648012154
:1003E000026861F31F120260A020162100F06AFE6D
:1003F000484CA047C088614900EB80004E4D80B258
:10040000A847A047C0885E4900EB4000400080B28A
:10041000A847A047C0885B4900EB8000400080B23D
:10042000A84759484FF4FA61016001680029FCD1DE
:10043000FFF7FCFEBDE8B04000F064BC01F0AAF894
:10044000C0882BA100EB800080B201F03FF830485B
:1004500000F014FB00B32F4DA847C088364C00EBCA
:100460004000400080B22CA1A047A847C088334973
:10047000C0EBC00080B2A047A847C0883049C00088
:1004800080B2A047A847C0882E4900EB80004000FA
:1004900080B2A04700F036FC01F07CF8C0882AA1A9
:1004A00000EB4000400080B201F010F801F072F85B
:1004B000C0882BA1C0EBC00080B201F007F800F0AB
:1004C00065F80248BDE8B04002F0B9BE68050020FA
:1004D000303A4354524C5F4E45572E42494E00002D
:1004E0002D66696C652070726F6E61646A656E005E
:1004F0002D666F726D61746972616E6A6520666CDB
:10050000617368206D656D6F72696A650000000037
:100510000080000895150008477265736B612066BE
:100520006F726D61746972616E6A61206D656D6F65
:1005300072696A6500000000CD140008525400087A
:100540007D540008CF5400082D6D656D6F72696A87
:100550006120666F726D61746972616E6100000086
:100560002D75706973206E6F766F67206669726D86
:10057000776172652D610000BC000020675400089F
:10058000BD5400089D540008C00000202DE9FE4F16
:10059000324C01200021207002913149DFF8C480E3
:1005A000324DDFF8CC90DFF8E8A03B4E3B4F4FF0E8
:1005B0000B0BC0B20128C8F8001018BFBDE8FE8FB1
:1005C000294829464FF400720DF1060302F064FF3A
:1005D000BDF80600606000900290029888B36068E1
:1005E000029A02992378411A002B18BF2944D8F89F
:1005F000003009689A1A104400F07EFA09281DD0CC
:10060000C847C0881BA1C00080B2D047C847C08877
:10061000204900EBC00080B2D047C847C0883146AF
:1006200000EB8000400080B2D047C847C088394600
:1006300000FB0BF080B2D04700F064FB0298043856
:10064000CAE7009A0021500AB1EB522F18BF0120CF
:10065000D8F8001062681144ABE700BFCC0000205E
:10066000008000082C00002068050020E000002029
:1006700095150008477265736B6120757069736129
:1006800020202020202020202020202020200000AA
:10069000CD140008525400087D540008CF540008BF
:1006A00010B544490446086810F0450FFBD04107D7
:1006B0003AD4C0073DD101F02FFBA0423ED140F219
:1006C000FF5001F0F1FA0020002401F03FFB2D491A
:1006D000084234D0002834D4410034D4810034D4CA
:1006E000C10034D4010134D4410134D4C10134D423
:1006F000010234D4410221D4810232D4C10232D465
:10070000010332D4410332D4810332D4C10332D441
:10071000010432D4410432D481044FBF19240007AC
:100720001A2101EAE0740AE0042001F0BDFA032472
:1007300005E00120012401F0B7FA00E01024204672
:1007400010BD1C24FBE70924F9E70A24F7E70B2472
:10075000F5E70C24F3E70D24F1E70E24EFE70F246F
:10076000EDE71124EBE71224E9E71324E7E714246B
:10077000E5E71524E3E71624E1E71724DFE718246B
:10078000DDE700BF08E0FFFD10B50A49086810F07A
:10079000450FFBD0410707D410F001044FF00100D2
:1007A00008BF40F2FF5001E00324042001F07CFA6E
:1007B000204610BD342C014002F0BCB8064A02F1BC
:1007C00010039842054838BFA2F5806208408900AE
:1007D00054BF9060D0607047006402407D0F7D0F71
:1007E0000268002942F0010308BF22F00103036000
:1007F00070470000016821F00101016000210160E3
:1008000041608160C16001612121416135498842B7
:100810002FD03549884230D03449884231D03449CC
:10082000884232D03349884233D03349884233D06A
:100830003249884233D03249884233D031498842E4
:1008400035D03149884235D03049884236D0304998
:10085000884237D02F4988423AD02F4988423AD02F
:100860002E4988423AD02E4988423AD131483D211A
:1008700036E02C484FF03D5132E02E484FF4746181
:100880002EE02C484FF474112AE02A484FF074618E
:1008900026E02848264908E02648244905E025485E
:1008A000214902E023484FF03D5141607047214803
:1008B0003D210AE01F484FF4746106E01D484FF4E3
:1008C000741102E01B484FF07461C0F800147047C7
:1008D0001448174904E01348144901E0114812492B
:1008E00001607047B86402402860024040600240E6
:1008F000586002407060024088600240A060024080
:10090000B860024010640240286402404064024023
:10091000586402407064024088640240A06402404F
:10092000106002400C64024000003D20400F002097
:100930003D000020086002400268002942F02003C8
:1009400008BF22F020030360704710B50B0607D5DF
:100950004369002A43F0800408BF23F08004446107
:10096000802908D001F01E01002A02680CBF22EA8B
:1009700001011143016010BD70B50268124B01F115
:100980000C061A400B6870CE1A4322438B6932431F
:100990001A43CB691A430B6A1A434B6A1A438B6A90
:1009A0001A434B6B1A438B6B1A430260CA6A436942
:1009B00023F007031A430B6B1A43426145604A68F0
:1009C00082608968C16070BD3F801CF081B000907A
:1009D00003480099416041680029FCD101B070478B
:1009E000BC00002070B50D46044600F0B7F8092899
:1009F00023D1504E032D306820F4407030604FF406
:100A0000407038BF2802316808433060306820F0F9
:100A1000F80030603068204340F0020030603068F9
:100A200040F48030306000F099F8316821F0020124
:100A30003160316821F0F801316070BD0E48016805
:100A4000C90344BF012070470168C90644BF06209E
:100A500070470168C90544BF02207047016811F062
:100A6000E00F1CBF07207047006880074FF00800A8
:100A700058BF0920704700BF0C3C024010B500F180
:100A80007841B1F5803F04D26FF0070000EAD1242D
:100A900019E040F60101B1EB104F01D1202412E022
:100AA000134901F1006210400144B1F5202F03D237
:100AB000282000EB913406E00C49582401F5302140
:100AC000884208BF50240920582C07D8092805D18E
:100AD00020460221FFF786FF0834F5E780F0090081
:100AE00084F06001084318BF012010BD0000010818
:100AF0000000FEF700F020B8AFF3008070B50C46A0
:100B0000054600F02BF8092813D10A4E306820F46E
:100B100040703060306840F400703060306840F001
:100B2000010030602C6000F019F8316821F00101FB
:100B3000316070BD103C02400548C168B1F1FF3F13
:100B400000DD70470349016003490160704700BF41
:100B5000043C024023016745AB89EFCDE0B5092095
:100B60008DF80700FFF76AFF8DF807009DF8070072
:100B70000128F7D09DF807008CBD0000094A102815
:100B800009D0B0F5805F05D0B0F5807F14BFF43296
:100B9000203200E0403210680840401AB0FA80F07D
:100BA00040097047640000A010B590E80E006FF097
:100BB0001F04C06804EB43131143194341EA40206A
:100BC0000149086010BD00BF500100A045494FF425
:100BD000347241F8202001EB80006FF07042826097
:100BE0000020086148618861704700BF2DE9F04727
:100BF000D0E900643B49D0E902A7D0E9049ED0E9DE
:100C0000068351F82620056A47F6FF7C2B4322EA2B
:100C10000C021C43224342EA0A023A4342EA090216
:100C200042EA0E02456A42EA080242EA050456B167
:100C300043EA05020B6823EA0C031A430A600268C0
:100C400041F8224000E00C60D0F800E0846A01F135
:100C5000080C5CF82E60A368D4E900576FF0FF021F
:100C600002EB03226FF00F0303EB0713013D2B434D
:100C700043EA020506F07046BEF1000F1AD0D4E92F
:100C8000032C6469184B51F8087F03EB0453174C8D
:100C900004EB023207F0704422431A43144B0A60FB
:100CA00045EA060203EB0C4300681A4341F8202092
:100CB000BDE8F0870C3445EA06001ECC0B4D05EB71
:100CC000013108430A4901EB02410843064901EB9F
:100CD00003510843611E40EA01604CF82E00BDE854
:100CE000F08700BF400100A00000F0FF00F0FFFF10
:100CF0000000FFFF02490A6842EA400008607047AE
:100D0000540100A0044C206880F400602060322070
:100D1000FFF75CFEF7E700BF140C024010B50A496C
:100D200008444FEAB0200A2888BF10BD074951F88F
:100D300020400121204600F0F7FD20460021BDE8BB
:100D4000104000F0F1BD00BF0000FEBF644100088C
:100D50002DE9F043D1F8008000234FF0010E4FF051
:100D6000030C0026102E08BFBDE8F0830EFA06F72C
:100D700018EA070F2AD004680CFA03F5AC430460A4
:100D80000C79026804FA03F942EA09020260621E61
:100D9000ED43012A12D882682A4082604A7991F88C
:100DA000069084689A40224382604268BA43426057
:100DB00009FA06F2446892B222434260C2682A40AD
:100DC000C260CA79C4689A402243C26002330136C5
:100DD000C8E7B0B51C236FF0030503EA810305EAF9
:100DE000510108440F24016A9C40A143016202FAA8
:100DF00003F1026A11430162B0BD0069084018BFE7
:100E0000012070474183704701837047002A0CBF5F
:100E1000418301837047FEE71FB54FF48040ADF872
:100E20000C004FF0806002900648E74C01900648A5
:100E300001210090204600F012F86946204600F09B
:100E4000F3F91FBD0000FFBFA08601000288002942
:100E500042F4806308BF22F48063038070470288F5
:100E6000002942F0010308BF22F00103038070470C
:100E700010B50E49884209D00D49884209D0D2499F
:100E8000884218BF10BD4FF4800404E04FF40014F2
:100E900001E04FF400042046012100F069FD2046E6
:100EA0000021BDE8104000F063BD00BF00540040C9
:100EB000005C0040B0B5C44C05462046012100F05E
:100EC00090F92046012100F018FA2046002100F098
:100ED00014FA2046FFF7CCFFFFF79EFF2846B0BD6F
:100EE000BCB54FF48000012100F036FD174D012103
:100EF000A86800F00DFDA869012100F009FD4FF47C
:100F00008000012100F034FD4FF48000002100F04A
:100F10002FFD297B28680422FFF75BFF297F2869C2
:100F20000422FFF756FF0A486C460190A888214624
:100F300000902868FFF70CFFA88A214600902869D6
:100F4000FFF706FFFFF768FFBCBD00BF0C000020E5
:100F5000020201002DE9F84F9B4C8946804620464D
:100F6000012100F035F9994E4FEA192A6FF44055E6
:100F70002046314600F03EF928B90135F8D36FF02C
:100F80000600851D52E020460021FFF75FFF204646
:100F90004146002200F0A7F96FF44055771C204627
:100FA000394600F027F928B90135F8D36FF006006B
:100FB000451D3BE0208B6FF44055B3467F362046FD
:100FC000314600F017F928B90135F8D36FF0060063
:100FD000051D2BE02046514600F08DF96FF4405579
:100FE0000BF1030A58462046314600F003F920B1C0
:100FF0002046514600F0FEF810B90135F3D312E057
:101000005FFA89F1204600F076F96FF440552046EA
:10101000314600F0EFF820B12046514600F0EAF8E2
:1010200050B90135F3D36FF00600C51C2846FFF711
:1010300041FF28B2BDE8F88F2046012100F0C8F832
:101040006FF440555E462046314600F0D3F828B98B
:101050000135F8D36FF00600851CE7E720464146CE
:10106000012200F040F96FF440552046394600F067
:10107000C1F828B90135F8D36FF00600451CD5E753
:10108000208B30466FF4405600F13F05204629463C
:1010900000F0B0F840B90136F8D36FF00600FFF762
:1010A00009FF4FF6F975C4E72046012100F099F8D1
:1010B000204600F015F9054620460121FFF7C6FE3F
:1010C000B7E700BF2DE9F0473F4C8A46054620466A
:1010D0000121904600F07CF83C4E4FEA1A296FF44B
:1010E00040572046314600F085F828B90137F8D33B
:1010F0006FF00400043041E020462946002200F051
:10110000F2F86FF44057751C2046294600F072F83B
:1011100028B90137F8D36FF0040003302EE0208B9C
:101120006FF4405706F17F052046294600F062F82B
:1011300028B90137F8D36FF0040002301EE02046D2
:10114000494600F0D8F86FF440572046294600F091
:1011500051F810B90137F8D30DE05FFA8AF1204653
:1011600000F0C9F86FF440572046294600F042F8D5
:1011700048B90137F8D36FF004000130FFF79AFE49
:1011800000B2BDE8F0872046414600F0B4F86FF4A5
:10119000405703362046294600F02CF820B120465F
:1011A000314600F027F840B90137F3D36FF004005F
:1011B000FFF780FE4FF6FB70E2E72046012100F0CA
:1011C00010F80020DCE700BF0058004001000010CC
:1011D0000288002942F4807308BF22F480730380E0
:1011E00070470288002942F4007308BF22F400739C
:1011F0000380704782B00022019200920090080F95
:10120000019021F07F40019911B10099143102E061
:101210000099000C1831009100990968084018BF26
:10122000012002B0704700007FB5044686886846FA
:101230000D4600F0EBFB2748029926F03F02B1FB78
:10124000F0F0254B0243A280228822F00102228086
:101250002A689A4208D85200B1FBF2F14FF6FC72AC
:10126000114208BF04211FE0EB884BF6FF76B34222
:1012700004D102EB4202B1FBF2F105E019235A431B
:10128000B1FBF2F141F480414FF4967250434FF4B8
:101290007A72B0FBF2F00A466FF31F32B2FA82F2B2
:1012A000520911430D4A114301302084A183208843
:1012B0004FF6F53140F00100208020880840A988D1
:1012C0000843698908432080A88929890843208127
:1012D0007FBD00BF40420F00A08601000080FFFFDD
:1012E000008AC0B2704741F00103002A08BF01F034
:1012F000FE0303827047018270470288002913466B
:101300006FF3DF3318BF42F40043038070470000DF
:101310002DE9FC4740F2E31001214FF0010800F0F5
:10132000F7FA514D40F2022005F580664F4C0190CE
:10133000304601210922A0470220EA46DFF8609CDE
:10134000009030465146C847304600210E22A04743
:1013500030465146CDF80080C847284603210E226A
:10136000A04728460C210E22A04728460B210E221A
:10137000A04741F60800009028465146C84705F5A9
:10138000A05630460A210E22A0474FF480600090FC
:1013900030465146C84705F5C056304606210E2254
:1013A000A047304607210E22A04730460A210E22D0
:1013B000A04730460B210E22A04730460C210922BF
:1013C000A0474FF4E650009030465146C84705F517
:1013D000E05738460D210E22A04738460F210E2235
:1013E000A0474FF42040009038465146C84705F5C5
:1013F0000055284600210E22A047284601210E2232
:10140000A047284602210E22A047284606210E2288
:10141000A047284607210E22A047284609210E2270
:10142000A04728460A210E22A04740F2C76000903C
:1014300028465146C8474FF4006000902846514660
:101440008DF80480C84700F033F84FF40070009026
:10145000304651468DF80480C84730464FF400713D
:10146000FFF7D2FCBDE8FC8700000240D30D000866
:10147000A14A0021B1F5C01F08BF70471378002BA7
:101480004FF050431CBF0023CDF20C0358520231E1
:10149000F0E700BF10B5984B203A9B68D2B2DC88C9
:1014A0001B68624303EB4202BDE8104000F028B81D
:1014B00080B505484FF40061FFF7A6FC0120BDE8A8
:1014C000804000F01BB900BF00200240F8B58A4FF1
:1014D0000C4605460026B1B248090E280FD82278DE
:1014E0006AB1B868808883199BB2834207D32846C3
:1014F000FFF7D0FFB868013480880644EBE7F8BDF9
:101500002DE9F04FDFF8F0A1C0EB0010DAF808B0D9
:10151000DFF8C8914FEA801C00254FF00C0E4FF009
:101520008008BBF80600854228BFBDE8F08F0CEBB1
:1015300041070026BBF80400864225D232F8154048
:101540000C2808D8B0FBFEF3DB0008FA03F33341A4
:1015500023404B460AD024FA06F3DB070AF10604BF
:10156000234608BF4B460C2898BF23469AF8000034
:10157000013600284FF050401CBF0020CDF20C0077
:101580001B88C3530237D5E7081A304400F5F071C1
:101590000135C6E758488068704700BFB0B590B0C5
:1015A0004FF08060012100F0EFF94FF400000121BD
:1015B00000F0AEF9FFF7ACFE00F0F4FCC02007210C
:1015C000032200F089FA4FF4003000F075FA012090
:1015D00000F07CFA3D2000F05BFA0028FAD00025EC
:1015E00040F21D10CDE90355CDE901550C904FF4A3
:1015F00003700B9040F21B100A9040F20A200990F1
:101600000B2008902A20079009200690282001AC82
:101610000590204600F096F820460F95CDE90D552F
:1016200000F090F810B0B0BD70B590B00020FF2170
:10163000069005910221049140F21B1103910C21A7
:10164000029140F20A2101912B210091CDE907007E
:1016500009904FF488700F904FF470700E9040F224
:10166000C3300D9005200B904FF48060164C0A900B
:101670004FF050406D460C902046294600F0B7F8D8
:1016800007200B904FF4C0600A90104804F18006C8
:101690000C903046294600F0AAF8012000F0F0F83E
:1016A0002046012100F09AF83046012100F096F81A
:1016B000012000F0E5F8104805498160012000F0A4
:1016C00035F810B070BD00BF8468014000000CD038
:1016D0000400002001490880704700BF000000207E
:1016E0000549002818BF012008710870704700BF25
:1016F0000149C880704700BFD4000020104900286D
:101700000A6842F0010308BF22F001030B60704732
:1017100080B54FF08060012100F042F94FF0806009
:101720000021BDE8804000F03BB9000004490028DA
:101730000A6842F4803308BF22F480330B6070479C
:101740001868014070B52249224A0B6800F1100662
:1017500013400B6078CE44EA03430C6823430B60CC
:101760004B6813404B604C6846EA054323434B608B
:101770008B6813408B60D0E9083444EA03438C68DB
:1017800023438B60CB681A40CA60CA68D0E90A3428
:1017900044EA03431A43CA600A690F4B1A400A61BC
:1017A00090E83C001A4322430B692A431A430A611A
:1017B0004A6A02F07F424A62D0E90C23806B12042D
:1017C00042EA032210434A6A1043486270BD00BFD8
:1017D0000868014000F800F08F88FE0F02680029B9
:1017E00042F0010308BF22F0010303607047B0B567
:1017F000426802F47042426091E83C0042EA0342CF
:101800004260826802F47042826044EA054282606B
:10181000026922F0070202610A69026182690022FC
:101820008261D1E90734240444EA03234C6A43EA81
:1018300004638C6923438361436940F2077423F096
:10184000FF0343614B694361C369A343C361D1E9AA
:101850000A342343C361836A82620A6B8262C26A6A
:1018600002F0E022C262D1E90D3243EA0242C262D2
:10187000026B40F2FF739A430263C96B0163B0BD10
:1018800001490860704700BF24680140FEE700007E
:1018900070B5C2781149AAB11B4A0723126845786E
:1018A00023EA12220F23D3408678C2F10402D2B277
:1018B0000478334005FA02F21A4312010B1983F837
:1018C000002300E080310078012300F01F0203FABA
:1018D00002F2C0F3421041F8202070BD00E100E0A8
:1018E0000249084308490860704700BF0000FA0534
:1018F0000548BFF34F8F0168044A01F4E0611143CA
:101900000160BFF34F8FFEE70CED00E00400FA0525
:10191000044A002911680CBF21EA00000843106046
:10192000704700BF30380240044A002911680CBFDC
:1019300021EA000008431060704700BF10380240E1
:10194000044A002911680CBF21EA00000843106016
:10195000704700BF38380240044A002911680CBFA4
:1019600021EA000008431060704700BF4038024081
:10197000044A002911680CBF21EA000008431060E6
:10198000704700BF20380240044A002911680CBF8C
:1019900021EA000008431060704700BF443802404D
:1019A000044A002911680CBF21EA000008431060B6
:1019B000704700BF243802400248016841F080713E
:1019C00001607047743802403A480D4B016841F09D
:1019D000010101600021816002681A400260094A29
:1019E0004260094AC0F8842002F18062C0F8882071
:1019F000026822F480220260C160C0F88C10704737
:101A0000FFFFF6EA103000240030002010B51C491A
:101A10004A6802F00C031B4A082B03D0042B17D191
:101A2000194A15E00B6802245B02174B58BF134696
:101A30000A6802F03F02B3FBF2F20B68C3F38813AB
:101A40005A430B68C3F3014304EB4303B2FBF3F2C5
:101A500002604B680D4CC3F30313E35CDA40426051
:101A60004B68C3F38223E35C22FA03F38360496883
:101A7000C1F34231615C22FA01F1C16010BD00BFC7
:101A8000043802400024F40000366E019041000842
:101A900008490122B2EB501F04D04209022A14BFA8
:101AA00074317031096800F01F0021FA00F000F075
:101AB000010070470038024003490A6822F44032AE
:101AC00010430860704700BF8C380240014908602D
:101AD000704700BF70004742090641EA8010024982
:101AE00040EA027008607047883802402DE9FE43E2
:101AF00081460020002600F029F980015DD4694C60
:101B00000821204640F8381F1021021D4FF480673D
:101B10004025E2C2CDE9006600F04CF91020FEF746
:101B2000BFFD0646002849D160694FF00008010456
:101B3000204640F8381F3721021D82E82201076144
:101B400000F038F93720FEF7ABFD0646B0BB0120A8
:101B5000022130220823C4E91A32C4E91C18A06704
:101B60004FF0FF31204640F8641F00F0B3F82046E4
:101B700040F8388F4FF4806140223323C0E90132AE
:101B8000C0E9038100F016F93320FEF789FD06460F
:101B9000A0B96A4F002640F22A65E8463868284214
:101BA0000FD14FF4001000F0BDF80028F6D000F07F
:101BB000FBF848F826000136F0E70E263046BDE86F
:101BC000FE83082000F0AEF820B1082000F06CF889
:101BD0000426F3E7022000F0A5F820B10220022637
:101BE00000F062F8EAE7202000F09CF820B1202005
:101BF00000F05AF80626E1E74FF4007000F092F882
:101C000028B14FF4007000F04FF80726D6E740F2F5
:101C1000FF5000F049F80098B9F1010F00BA1AD14D
:101C200040031AD560694FF480680104204640F8EB
:101C3000381F3721021D0027402582E8A20100F04D
:101C4000B9F83720FEF72CFD06460028B6D1022051
:101C500044F8380F1AE0C00301D42526AEE76069C6
:101C60004FF480680104204640F8381F3721021DD8
:101C70000027402582E8A20100F09CF83720FEF7FB
:101C80000FFD0646002899D144F8387F0620211D13
:101C900081E8A101204600F08DF80620BDE8FE4352
:101CA000FEF7FEBC3800002003490860704700BF03
:101CB00001490860704700BF382C014001490860A5
:101CC000704700BFA080254201490860704700BFEF
:101CD0008C852542B0B590E81E00074D29606A60EA
:101CE000A968026921F0F7011943214340691143B2
:101CF0000843A860B0BD00BF242C014080B54FF45C
:101D000000600121FFF74CFE4FF400600021BDE8A8
:101D10008040FFF745BE000001480068C0B2704730
:101D2000102C014005490968084018BF0120704780
:101D300002490968084018BF01207047342C01404F
:101D40002748006800F00300704700BF81B0002101
:101D500000910349084400900098006801B0704762
:101D6000142C014000F0F6BD044A002911680CBF94
:101D700021EA000008431060704700BF3C2C01407E
:101D800070B5084947F6FF630A689A43037D1A4411
:101D900090E878002A432243006932431A431043F3
:101DA000086070BD042C014001480068704700BF06
:101DB000802C014070B590E81E00064D40F2FF7681
:101DC000296069680069B1431143194321430843FD
:101DD000686070BD082C014001490860704700BF71
:101DE000002C01402DE9FE43FE2001210124FFF7D4
:101DF0008FFD694D40F2023005F5A056674F029005
:101E0000304607210C22B847304606210C22B8473D
:101E1000C0200DF10409DFF83889019030464946A9
:101E2000C047284600210C22B8472846494601945D
:101E3000C04705F58066304600210C22B847304681
:101E400001210C22B847304608210C22B847304601
:101E500009210C22B84730460A210C22B8473046E7
:101E60000E210C22B84730460F210C22B8474CF205
:101E70000370019030464946C04705F5006630467C
:101E800000210C22B847304601210C22B8473046C9
:101E900007210C22B847304608210C22B8473046AB
:101EA00009210C22B84730460A210C22B847304697
:101EB0000B210C22B84730460C210C22B847304683
:101EC0000D210C22B84730460E210C22B84730466F
:101ED0000F210C22B8474FF68370019030464946D7
:101EE000C04705F54066304600210C22B847304611
:101EF00001210C22B847304602210C22B847304657
:101F000003210C22B847304604210C22B847304642
:101F100005210C22B84730460B210C22B847304629
:101F20000C210C22B84730460D210C22B847304610
:101F30000E210C22B84730460F210C22B8474FF62D
:101F40003F00019030464946C04705F58055284678
:101F500000210C22B847284601210C22B847284608
:101F600002210C22B847284604210C22B8472846F3
:101F700005210C22B847284608210C22B8472846DC
:101F80000F210C22B84748F23710019028464946E5
:101F9000C047BDE8FE8300BF00080240D30D000823
:101FA000510D000810B592B0FFF71CFF0120012170
:101FB0000124FFF7C5FC0220CDE90500042007211C
:101FC0000490CDE902010821CDE900016846119095
:101FD0004FF4005010904FF480500F904FF4006079
:101FE0000E9000200D904FF4C0700C9040200B908C
:101FF0001020CDE9091007A8CDE90744FEF7F6FD4A
:1020000000F002F812B010BDFEB5002003900120D0
:1020100008210290CDE9000101202021FEF7AEFD4C
:102020000028F9D16846FEF7BFFD0A200590002080
:1020300004902848059948430490049810B10498E6
:102040000138F9E700200390042002900820019055
:102050000220009001202021FEF790FD0028F9D1F8
:102060006846FEF7A1FD00200390022002900820A0
:1020700001900320009001202021FEF77FFD002821
:10208000F9D16846FEF790FD01202021FEF776FD8C
:102090000028F9D16846FEF787FD40F23120039011
:1020A00001200290082001900420009001202021AE
:1020B000FEF764FD0028F9D16846FEF775FD212082
:1020C000FEF718FE01202021FEF758FD0028F9D167
:1020D00006B080BDA086010010B5B0F5805F15D0B8
:1020E000B0F5006F14D10120FFF700FD0446F8B9E8
:1020F000DF48002440F84C4F4FF40061C0E9014430
:10210000C0E903140475FFF73BFE11E027240FE03C
:102110000020FFF7EBFC044650B9D548152100F12B
:102120004C042046FEF765F82046FFF729FE002400
:10213000204610BDF0B5DFF8D4CBDCF828209CF8A1
:102140000430940F0470C2F383644470C2F30164DA
:102150008470140CC470140A04714271DCF82C20D1
:102160006FF00F0404EA1254C480C2F30354C5880C
:10217000002B44EA0504C480C2F303440472C2F392
:10218000C0344472C2F380348472C2F34034C472E7
:10219000C2F300340473DCF814404FF00003A0F8DD
:1021A00054404FF0020418BF012480F85640437396
:1021B0003BD04FF4406303EA820303610369D2B268
:1021C00043EA82020261DCF830200369012643EA17
:1021D00092730361C2F3C2630375C2F30263437572
:1021E000C2F342538375C2F38243C375062303EAE5
:1021F000D2330376C2F3C033047E234303760369EC
:10220000047E057A013306FA05F5042606FA04F47D
:10221000A4FB0367E41704FB0373A6FB056103FB40
:102220000511C0E9126105651CE04FF47C1101EA5B
:1022300002410161DCF830206FF0FF01046901EA1E
:10224000124121430161C2F3074104694FF40025A3
:102250002143016104694FF4007105EBC444C0E9F6
:1022600012430165C2F3803141767E2101EAD21129
:102270008176C2F3C011837E1943817602F07F011B
:10228000C176DCF83420D10F0177C2F34171417778
:10229000C2F3826181770C2101EA9251C177C2F3C6
:1022A0008151C37F1943C177C2F3405180F8201098
:1022B000002180F82110C2F3004180F82210C2F3FF
:1022C000C03180F82310C2F3803180F82410C2F3AB
:1022D000403180F82510C2F3003180F82610C2F397
:1022E000812180F82710C2F3012180F82810D1B293
:1022F0004908012280F8291080F82A20DCF81810FB
:102300000B0E80F82C306FF0FF0303EA1123C38516
:10231000C48D8BB244EA13230906C3850163DCF83C
:102320001C104FF47F03046B03EA11232343036360
:102330004FF47F43046B03EA112323430363C1F388
:102340000723046B2343036380F83410DCF8201068
:102350000B0E80F835304FF07F4303EA012383638F
:10236000846B01F47F4344EA03238363836BC9B224
:1023700043EA01218163DCF82410836B43EA116393
:102380008363C1F3035390F83C40234380F83C300F
:102390004FF4706303EA1123C387C1F30723C48F8B
:1023A000C9B223434908C38780F8401080F8412010
:1023B0000020F0BDE0B50020009001208DF807005E
:1023C0009DF80700012803D1684600F087FB08B19B
:1023D000FF208CBD0098C0F343208CBD80B5FFF773
:1023E000E9FF0121FF2808BF0221043818BF084671
:1023F00080BD00001CB500208DF8070000F05EF9DC
:10240000FFF77CFC00F0A6F98DF807009DF80700A7
:1024100058BB00F031F88DF807009DF8070020BB8D
:102420005B48152100F14C042046FDF7E2FE2046F2
:10243000FFF7A6FC0F4C2046FFF77CFE00208DF82E
:1024400007009DF8070038B9B4F8540000210004D3
:1024500000F02EFB8DF807009DF8070028B94FF417
:102460000060FFF739FE8DF807009DF807001CBDDE
:1024700038000020E00200202DE9F041FFF760FC69
:1024800000284DD0424D0027284640F8387F4FF4B1
:102490008066C0210222C0E90121C0E90376FFF76E
:1024A00089FCFEF771F9044600286ED1DFF8E4805C
:1024B0000020C047A8610420C047E8610820C04749
:1024C00028620C20C047294641F8387F4022032368
:1024D000C1E90132C1E9037641F8140C0846FFF75F
:1024E00069FC2D49086810F0450FFBD0410719D44D
:1024F000C0071CD1FFF710FC03281DD140F2FF508C
:10250000FFF7D2FB0020FFF721FC10F4604F15D03D
:10251000810437D441040FD4000435D401210EE0E6
:10252000252432E00420FFF7BFFB03242DE0012027
:102530000124FFF7B9FB28E0102426E0010C0A046F
:10254000284640F8382F4FF480620023C024092623
:10255000C0E90164C0E9033240F8241CFFF72AFCFB
:10256000FEF712F9044680B900200024C047A86293
:102570000420C047E8620820C04728630C20C047F9
:10258000686302E0132400E00F242046BDE8F081D8
:10259000380000204D1D0008342C014070B590B06B
:1025A000444C054620464FF0FA51FEF707F9204605
:1025B00000210026FEF714F92046FEF71BF94FF420
:1025C00000100F904FF400000E9003200D90042097
:1025D0000C904FF44030CDE90A604FF480400990F0
:1025E0004FF4805008904FF48060CDE906600120E0
:1025F00005903148CDE9035602904FF000600190FC
:1026000001A92046FEF7B8F9204610210122FEF765
:102610009CF920462021FEF78FF920460121FEF784
:10262000DFF810B070BD00BF70B590B0214C05460A
:1026300020464FF0FA51FEF7C1F82046002100264F
:10264000FEF7CEF82046FEF7D5F84FF400100F90B5
:102650004FF400000E9003200D9004200C904FF4D6
:102660004030CDE90A604FF4804009904FF480502B
:1026700008904FF48060CDE906600120059040206D
:10268000CDE903500C4801A902904FF00060019081
:102690002046FEF771F9204610210122FEF755F978
:1026A00020462021FEF748F920460121FEF798F840
:1026B00010B070BD58640240802C0140FEB50C2063
:1026C0000121FFF725F91F4C1F4E204608210C223F
:1026D000B047204609210C22B04720460A210C228F
:1026E000B04720460B210C22B04720460C210C227B
:1026F000B04704F58065284602210C22B0474FF40C
:1027000070600190114801AE114F02902046314691
:10271000B8470420019028463146B84700208DF87C
:102720000B004FF48050019020463146B8474FF4DB
:1027300000600121FFF728F94FF480000121FFF725
:10274000E7F8FEBD00080240D30D000802020001B8
:10275000510D00082DE9F84FDFF8B085762008F11B
:102760004C0488F860000025204614218DF80350A1
:10277000FDF73FFD2046FFF703FB0320FFF72CFB8F
:102780000120FFF79BFA404640F8385F4FF4806124
:10279000C0E90155C0E90351FFF70CFB6FF4803429
:1027A00001340AD28020FFF7BDFA0028F8D040F2A9
:1027B000FF50FFF779FA002000E003208DF80300B6
:1027C0009DF8030000285BD14FF4D571404640F8D6
:1027D000381F4FF48061002240230824C0E90143E0
:1027E000C0E90321FFF7E6FA5048ED4C21680246A4
:1027F00018B1501C11F04503F8D0032504203AB15C
:1028000011F0040204D148064FF0000502D5402023
:10281000FFF74AFA8DF803509DF803004449A0B130
:1028200089460021404640F8381F4FF4806240231B
:102830003725C0E90153C0E90312FFF7BBFA37207F
:10284000FDF72EFF8DF8030005E0012001F1804126
:1028500088F8040089460027404640F8387F4FF446
:1028600080653721021D4026C2C20561FFF7A2FA2A
:102870003720FDF715FF8DF803009DF8030018B110
:102880009DF80300BDE8F88F00214FF0000B0020F9
:102890004FF6FE7293453AD8C8BB404640F8387FA1
:1028A0003721021DC2C20561FFF784FA3720FDF708
:1028B000F7FE8DF803009DF803000028E0D14046A4
:1028C00040F8389F2921021DC2C20561FFF772FA44
:1028D000206810F0450FFBD05FEA407A4FF004000B
:1028E00058BF40F2FF50FFF7DFF9032000EAEA701B
:1028F0008DF803009DF803000028C1D10020FFF7E8
:1029000025FA0BF1010B00F08041C00FC0E74FF634
:10291000FF70834503D31B208DF80300B0E7002927
:10292000AED0002088F80400AAE700BF0000FFFF37
:10293000000010800648016811F0C05F08BF7047B2
:10294000F24901220A6158304FF0C251FDF736BFFB
:102950000064024010B54FF48070FFF7E9F948B108
:10296000EA4C002020704FF48070FFF7A1F901209D
:10297000E06034E002200224FFF7DAF928B10220F7
:10298000FFF796F9E148047029E00820FFF7D0F935
:1029900028B10820FFF78CF9DC4804211EE0202034
:1029A000FFF7C6F928B12020FFF782F9D7480621A2
:1029B00014E01020FFF7BCF928B11020FFF778F9D8
:1029C000D24805210AE04FF40070FFF7B1F930B1A9
:1029D0004FF40070FFF76CF9CC48072101704CF2FE
:1029E0003A300021FFF7C0F9C848007810BD00BF99
:1029F0002DE9F84F0090C54DC54800244FF001085F
:102A00002C70EC60C5F8088004602F79DDF8289000
:102A100028461646002F08BF4FF4007940F8389F2B
:102A20004FF480624FF0400B10219A46C0E9011B21
:102A3000C0E90342FFF7BEF91020FDF731FE30BBBD
:102A40000B98902209FB00F00221C5E91A0205F15A
:102A5000700080E812014FF0FF31284640F8641FF3
:102A6000FFF738F9700A002F08BF40EACA5645F848
:102A7000386F1220C5E9010B4FF48060EC602861CB
:102A80002846FFF797F91220FDF70AFE08B1BDE8C6
:102A9000F88F40F22A300121FFF766F90120FFF795
:102AA00013F90098FFF77AFD0020BDE8F88F00BF0A
:102AB00010B59649002241F8380F4FF4806040234A
:102AC0000724C1E90143C1E903200846FFF772F971
:102AD0000720BDE81040FDF7E3BD00BFB0B5D8B199
:102AE00004468A48002241694023090440F8381FFF
:102AF0004FF480610D25C0E90153C0E90321FFF7C0
:102B000059F90D20FDF7CCFD054630B90020002510
:102B1000FFF71CF9206000E026252846B0BD00BF65
:102B200010B57A48002140F8381F4FF480624023E6
:102B30000C24C0E90143C0E90312FFF73BF90C2064
:102B4000BDE81040FDF7ACBD70B5704D012029699E
:102B500031B9E96821B9297810B101300029F6D0DE
:102B6000264800262E61013E016818BF11F400516D
:102B7000F9D1A868012803D1FFF7D2FF044600E08D
:102B8000002440F2FF50FFF78FF82046002C08BFCA
:102B90000420002E18BF2046297801B1287870BD86
:102BA000342C014070B5594D0120296931B9E968CB
:102BB00021B9297810B101300029F6D00F4800263C
:102BC0002E61013E016818BF11F48051F9D1A86847
:102BD000012803D1FFF7A4FF044600E0002440F2DF
:102BE000FF50FFF761F82046002C08BF0420002E9C
:102BF00018BF2046297801B1287870BD342C0140D7
:102C00002DE9F84F414D0090002401202C70EC601C
:102C1000A8603F48DDF828A0046095F804802846A5
:102C2000B8F1000F08BF4FF4007A40F838AF4FF406
:102C300080694FF0400B10211F461646C0E9011B6A
:102C4000C0E90349FFF7B6F8700AB8F1000F08BFF2
:102C500040EAC7561020FDF723FD0746002852D151
:102C600068690104284640F8381F3721C0E9011B74
:102C7000C0E90349FFF79EF83720FDF711FD07462D
:102C8000002840D1DDF82C80284640F8388F4FF4DA
:102C9000806B00244FF040091721C0E90119C0E9F9
:102CA000034BFFF787F81720FDF7FAFC074650BBE8
:102CB000284640F8386F1921C0E90119C0E9034BD3
:102CC000FFF778F81920FDF7EBFC0746D8B94FF06D
:102CD000FF3045F8640F0120002790210AFB08F21D
:102CE000C5E90121C5E9037768612846FEF7F2FFCF
:102CF00040F22A300121FFF737F80120FEF7E4FF08
:102D00000098FFF791FC3846BDE8F88F38000020A6
:102D10002C2C01400348016811B1016801390160A0
:102D2000704700BFC00000201CB53A483B4CD0F8AB
:102D3000801041F47001C0F8801037490A6842F0F1
:102D400001020A6000228A600B6823400B60344B4A
:102D50004B600B6823F480230B60CA6001920092E1
:102D60000A6842F480320A600A6802F40032009273
:102D7000019A01320192009A1AB9019AB2F5A04F54
:102D8000F2D10A68920354BF002201220092009AF5
:102D9000012A3AD10A6C42F080520A64214A13682F
:102DA00043F4404313608B688B608B6843F40043AB
:102DB0008B608B6843F4A0538B601B4B4B600B689C
:102DC00043F080730B600B689B01FCD5136843F4E0
:102DD000803313605368DB03FCD5136843F400337E
:102DE000136053689B03FCD540F20572C1F80024C0
:102DF0008A6822F003028A608A6842F002028A60CE
:102E00008A6802F00C02082AFAD14FF000610160D2
:102E10001CBD00BF08ED00E000380240FFFFF6FED9
:102E20001030002400700040185A4007FEE70000F0
:102E3000B0B504464FF0FF30E0620020E07020465D
:102E400001F02EF808B10420B0BD94F82E0294F8D9
:102E50002F1240EA01204AF6552188421CBF032068
:102E6000B0BD94F83000E92805D0EB2816D194F8CD
:102E70003200902812D104F1660000F09DFE084D4A
:102E800020F07F40A84207D004F1820000F094FEB9
:102E900005F14C51884201D10020B0BD0220B0BDE7
:102EA0004641540042690239023A914224BF00204F
:102EB0007047826A408901FB002070472DE9F0418C
:102EC00004688846074679B13846414600F0ECFD73
:102ED00002283CBF0120BDE8F081411C21D061697E
:102EE0004546884206D237E0E56815B160698542FB
:102EF00000D301252E4660690136864228BF02268E
:102F000001D3022D0AD33846314600F0CDFD411CD5
:102F100022D050B101281FD0AE42ECD10020BDE834
:102F2000F0814FF0FF30BDE8F081204631464FF090
:102F3000FF3200F0D1FF0146B8F1000F06D029B9E9
:102F400020464146324600F0C7FF014631B101201C
:102F5000012908BF4FF0FF30BDE8F081E660D4E9F9
:102F60000401023988429CBF01382061207940F079
:102F7000010020713046BDE8F08100002DE9F047E6
:102F800004468069042690B18A4621693E4A01F1CF
:102F9000200595420BD82F46D4F800906FF35F2799
:102FA00047B109EB0700303000262561E06130466B
:102FB000BDE8F0870130A061616971B1B9F80A001C
:102FC000104400F5C00010EA552FEAD1204600F069
:102FD0006BFD02280AD20226E9E7B9F80800B0EB37
:102FE000551FDED80020A0610426E0E780460130AE
:102FF00023D0D9F81400804507D248464146C4F88A
:103000001480FFF74FFFA061CBE7BAF1000FE9D0C2
:1030100061692046FFF752FF80460130032808D23D
:103020001A4901EAC0001A4921FA00F0C0B2BDE80D
:10303000F087484601F048F808B10126B7E709F1E2
:1030400030004FF40071FDF7D4F848464146FFF7D1
:1030500029FF4FF0000A0126C9F82C00B9F80A1020
:103060008A450CD2484689F8036001F02DF8002803
:103070009DD1D9F82C000AF1010A0130ECE7A0EB50
:103080000A00C9F82C00B8E7FFFF1F00F8FFFF0097
:1030900001070200B0B50468054600F028F870B9D1
:1030A000A969204600F0FCFE48B9E869007850B1F3
:1030B000E52808D028460121FFF760FFEFE7042844
:1030C00008BF072020B9A969204600F0E9FE00B139
:1030D000B0BDE8692021FDF78CF8E86905F1200111
:1030E0000B2200F0D5FE0120E0700020B0BD2DE9DC
:1030F000F041044600202061A668D4F80080A6B103
:10310000B8F80A0000274502AF421ED320463146D8
:1031100000F0CAFC064601302DD0022E28D3D8F884
:103120001400864224D27F1BEEE798F800000328A3
:1031300003D3D8F82460002EE2D1B8F80800B8B163
:10314000D8F824000027002603E040463146FFF768
:10315000A9FEC4E9056058B100EB57206FF35F2763
:1031600008EB07013031C4E906010020BDE8F08119
:103170000220BDE8F0810120BDE8F081E0B54FF408
:10318000C060FEF7ADFB0448019001A8FEF780FB8C
:10319000FFF730F98CBD00BF31000001B0B596B02B
:1031A000684614460D46FEF7C5FF08B1012012E03F
:1031B000032D09D0022D0AD0012D0BD1DDE912011A
:1031C000400A40EAC15000E02020206002E04FF4B5
:1031D00000702080002016B0B0BD1CB5084601214B
:1031E0004FF40073CDE9003152020023FFF700FCD9
:1031F000FFF7AAFC0446FFF7F1F80028FBD1002CEA
:1032000018BF012420461CBD002818BF01207047AC
:103210001CB5084601214FF40073CDE9003152027C
:103220000023FFF7EDFCFFF7BDFC0446FFF7D6F8DF
:103230000028FBD1002C18BF012420461CBD1CB562
:10324000044600F0DBF920B901A9204600F062FF36
:1032500000B11CBD002020601CBD0000BFB50546AC
:10326000039001A81446CDE9011100F077FC002875
:1032700012D40C4901EB8001486808B100220270A9
:1032800065B10020012C28704D6009D102A803A966
:10329000002200F0F7F903E00B2001E04D60002070
:1032A00004B0B0BDB40000202DE9F04F8DB00C91FA
:1032B00070B102F03F09154683460CA869464A469C
:1032C00000F0E0F9064640B10020CBF8000000E035
:1032D0000926F0B20DB0BDE8F08FDDF800800C9942
:1032E00001A8CDF8048000F013FB064620B99DF933
:1032F0002F00062101EAE07619F01C0F00F08C8007
:10330000002E00F09780042E03D101A8FFF7C2FE23
:10331000064649F008096EBB19F008002AD0089E3D
:10332000D7483146C6F81600C6F80E002020F072C5
:10333000404600F032FC05460020708398F80010EB
:10334000032908BFB082F061012088F803009DB115
:10335000D8F82C7001A82946002200F02DFE064660
:103360000028B1D14046394600F09AFD0646681E55
:10337000C8F80C00002EA7D1089DCBF82450D8F82F
:103380002C002946CBF82000404600F006FC0746FA
:10339000CBF8080005F11C0000F00EFC0546CBF848
:1033A0000C0009F00800002649EAC000CBF80080B4
:1033B000CBF81C608BF811608BF81000CBF8146010
:1033C000B8F806000BF1280AABF8040050464FF499
:1033D0000071FCF70EFF5FEA89607FF57AAF002D80
:1033E0003FF477AFCBF81450B8F80A000026440237
:1033F000300626D1A54224D95846394600F054FB60
:10340000074600210130022F38BF01214E0000285D
:1034100008BF01262D1BEBE7002E7FF455AF9DF86A
:103420000A00C1062ED45FEA8971A5D510F001000B
:1034300005D1A1E79DF80A0010F0110F1ED0072654
:1034400042E7E905CBF818701ED0E8B94046394686
:10345000FFF728FDE8B100EB5522CBF81C2098F8C7
:10346000010051460123FFF7B8FE002840EA06009C
:1034700018BF012600067FF427AF08E0082000EA05
:10348000450648E704261FE700287FF41DAF002605
:103490001FE7022618E700BF2DE9FE4F0446002073
:1034A0000F46186002A920469B46164600F032FEE1
:1034B00008B9607C08B1BDE8FE8F207CC00704BF5E
:1034C0000720BDE8FE8FE1686069091AB14238BF84
:1034D0000E46DDF8089004F128010191002E00F05D
:1034E000848001466FF35F2161B1C1F500756018FA
:1034F000B54288BF354600F1280138462A4600F01B
:10350000C7FC46E0B9F80A10013901EA50250DB1AF
:10351000A1690CE028B1A169204600F0C5FA014676
:1035200000E0A168012963D9481C63D0A161484625
:10353000FFF7B8FC00285BD000EB050A0020B0EBD9
:10354000562F31D04FEA5628B9F80A1005EB08007B
:10355000884288BFA1EB050899F801005FFA88F35B
:1035600039465246FFF739FE002843D194F910003E
:10357000B0F1FF3F0BDCE069A0EB0A00404506D24A
:10358000019907EB40204FF4007200F081FC4FEAF4
:1035900048256069761B28446061DBF800102F44E1
:1035A0002944CBF8001099E7E269524517D094F905
:1035B0001000B0F1FF3F0ADC99F8010001990123E6
:1035C000FFF726FEB0B9207C00F07F00207499F848
:1035D0000100019952460123FFF7FFFD50B9C4F8DD
:1035E0001CA061696FF35F217FE70020BDE8FE8FBB
:1035F000022000E001206074BDE8FE8F7CB501A9C7
:10360000044600F087FD0646C0BB207C410601D47D
:10361000002633E0019D00060CD5E269687804F1CC
:10362000280101230126FFF7F3FD38BB207C00F0C1
:103630007F002074216A284600F032FC0646E8B973
:10364000666AF07A314640F02000F0722068A26885
:1036500000F0EAFCE16806F11C0000F0EEFC08480E
:10366000C6F81600002070820120E870284600F09D
:10367000E7FC0646207C00F0BF00207430467CBD8D
:103680000000214A2DE9F04F85B00F460021154674
:10369000396000F063FA002817D4DFF86882064624
:1036A00008EB8000446804B33C60207805F0FE0518
:1036B00068B16078FFF7A8FDC10708D140070A216B
:1036C000002D18BF01EAE07577E00B2575E00020BA
:1036D00066702070F0B2FFF751FDC10707D145B108
:1036E00010F0040005D00A2567E00C2565E00325ED
:1036F00063E0204600210025FFF79AFB022820D135
:1037000001AE00253746402D0CD0601990F8F2111B
:1037100021B100F5FB7000F04FFA00E0002001C776
:103720001035F0E7002756F8275035B120462946D6
:10373000FFF77EFB022801D209E003200137042FA6
:10374000F1D1042801D1012537E0012834D894F8BB
:103750003B0094F83C1040EA0120B0F5007F2BD1EB
:1037600094F8460094F8471040EA012BBBF1000F93
:1037700004D104F1540000F01FFA8346C4F818B0D5
:1037800094F84060701E0128A67015D894F83D701A
:10379000781E3840B7FA87F1678118BF01204909C0
:1037A000084309D194F8410094F8421040EA012AF4
:1037B0000007A4F808A004D00D25284605B0BDE8F0
:1037C000F08F94F8430094F8441040EA012018B9AF
:1037D00004F1500000F0F0F994F83E1094F83F2006
:1037E00041EA0222002AE7D00BFB06F101EB1A1393
:1037F00013449842E0D3C01AB842DDD3B0FBF7F7C8
:103800005819A062A8184FF6F672BE1C4FF00309B3
:10381000974240F6F672C4E90750666138BF4FF030
:103820000209974238BF4FF00109B9F1030F10D1D7
:1038300094F85A0094F85B1040EA0A0040EA01202C
:103840000028B9D104F15C0000F0B6F96062B00064
:103850000EE0BAF1000FAFD008446062B9F1020F78
:103860000FBF700006EB460006F0010101EB5000AF
:1038700000F2FF10BBEB502F9ED34FF0FF30C4E996
:1038800003008020B9F1030F207130D194F860005B
:1038900094F8611040EA0120012828D1691C2046D3
:1038A00000F0FEFA18BB0020207194F82E0294F864
:1038B0002F1240EA01204AF65521884217D104F11F
:1038C000300000F079F91049884210D104F50570F4
:1038D00000F072F90D49884209D104F5067000F034
:1038E0006BF9206104F5077000F066F9E06084F878
:1038F0000090B8F8000000250130A8F80000E08032
:103900005BE700BFB4000020525261417272416116
:103910002DE9F84FD0F800800D46044628785C2841
:1039200018BF2F2801D10135F8E70020A0602878C2
:10393000202807D2802084F82B002046BDE8F84FCD
:10394000FFF7D5BBDFF858B1DFF858A104F1200626
:103950004FF0203000274FF0080C0021C6F8070078
:103960007060306007EB0C00401AEB5D07F1010955
:10397000212B39D32E2B22D05C2B2DD02F2B2BD0CB
:1039800087421CD05AB2B2F1FF3F03DC03EB0B02BB
:1039900012F8803C574617F8012B0AB19A42FAD127
:1039A000002A67D1A3F16102D2B21A2A04EB010204
:1039B00038BF203B82F8203001314F46D5E7062042
:1039C000BCF10B0F69D008214FF00B0C2E2B4F468A
:1039D000C8D062E009F1010915F809005C2818BF98
:1039E0002F28F7D0002000E00420002942D03178B1
:1039F000E52904BF0521317084F82B002768204693
:103A0000FFF775FBE8B9A169384600F049FAC0B97B
:103A1000E069017889B3C17A01F03F01A171C17AEF
:103A2000090709D40021725C435C0A2902D00131E4
:103A30009342F8D093421AD020460021FFF79EFA15
:103A4000E0E794F82B1008BB480722D4A079C00601
:103A500022D520694D446FF35F20404400F13001CE
:103A6000404600F09AF8A0604FF0203072E794F8DA
:103A70002B10E9E70620BDE8F88F94F82B104807D3
:103A80004FF0040058BF0520BDE8F88F0428F6D099
:103A900003E00020BDE8F88F0520BDE8F88F00BFE7
:103AA00070530008F0530008F8B502292FD30568B9
:103AB0000C46686988422AD92878032829D0022828
:103AC00038D0012823D1286A04EB540700EB572192
:103AD000284600F0E5F9A0BB7E1C6FF35F27E819CC
:103AE00090F83070286A00EB5621284600F0D8F98B
:103AF00038BB6FF35F26A81990F83000E20747EA59
:103B0000002108466FF31F3018BF0809F8BD0120D7
:103B1000F8BD286A00EBD411284600F0C1F980B93D
:103B200004F07F0005EB8000303000F045F820F015
:103B30007040F8BD286A00EB1421284600F0B0F967
:103B400010B14FF0FF30F8BDE0B205EB400090F847
:103B5000301090F8310041EA0020F8BD10B502683D
:103B6000BAB10023D15C0133212901D33A29F9D11B
:103B70003A290CD11178A1F13004092C09D84FF061
:103B8000FF31022B08BF002C05D1D11801600021A4
:103B900001E04FF0FF31084610BD0246887ECB7E23
:103BA000127840EA0320032A05D10A7D497D0906DF
:103BB00041EA0241084470470068704782B0824879
:103BC0004FF47A7100680024B0FBF1F00138B4EBD7
:103BD000106F07D17D49F02248607D4802700720B0
:103BE0008C6008607B4F4FF4805001210125B8475D
:103BF000FDF7E2FE01200121B8474FF4804001218A
:103C0000FDF7C2FE8DF807408DF80440724C009518
:103C1000A4F540656E4628463146FDF799F8082020
:103C200001214FF00808B8476C483146CDE90080C3
:103C30002046FDF78DF820460821FDF7E3F8FDF753
:103C40004FF9A1201621FDF785F9654EC1B2000696
:103C5000316005D428460121FDF7CFF8002867D050
:103C6000FDF79CFCFDF7E0FC0120FDF747FD01207E
:103C7000FDF736FD47F67C50FDF7FAFB4FF6FF7077
:103C8000FDF736FD47F67C50FDF724FDFDF782FC7D
:103C9000C08854A1400080B2FDF718FC20460821DE
:103CA0000122FDF7B3F86420706070680028FCD131
:103CB000204608210022FDF7A9F8504850A1002213
:103CC000FFF7CCFAB0B33268042060F31F12A020D3
:103CD00016213260FDF7F6F94A4DA847C0884A49D7
:103CE00080004A4C80B2A047A847C08848A100EB9A
:103CF000800080B2A047A847C0884CA100EB4000DC
:103D0000400080B2A047A847C0884FA1C0EBC000C8
:103D100080B2A047A847C08853A100EB80004000B4
:103D200080B2A0474FF4FA60706070680028FCD140
:103D3000FCF77CFAFCF7DEFEFCF73CFB2046082192
:103D40000122FDF763F86420706070680028FCD1E0
:103D5000204608210022FDF759F864207060706841
:103D60000028FCD1204608210122FDF74FF86420ED
:103D7000706070680028FCD1204608210022FDF701
:103D800045F83268022060F31F12A020162132602D
:103D9000FDF798F9FDF7FEFBC0883B49C00080B2F3
:103DA000FDF794FBFDF7F6FBC088384900EB800077
:103DB000400080B2FDF78AFB40F6B8307060706852
:103DC0000028FCD1FDF794FD3000002010E000E059
:103DD00023ED00E011190008000C0240010200016F
:103DE000BC00002020202020424F4F544C4F414423
:103DF000455220414B544956414E000038030020A3
:103E0000303A000095150008FF530008CD14000853
:103E1000312E205344206B617274696361206E6996
:103E20006A652075626163656E610000322E205301
:103E300044206B617274696361206E65697370728E
:103E400061766E6100000000332E20706F6772652E
:103E500073616E20666F726D6174205344206B61D4
:103E60007274696365000000526573746172742036
:103E700061706C696B6163696A65207A61203220C8
:103E800073656B756E646500385400081A54000839
:103E90002AB111F8013B013A00F8013BF9D1704712
:103EA000B0B50546C06A884204BF0020B0BD2846B0
:103EB0000C4600F009F900B1B0BD687805F1300199
:103EC00022460123FFF789F9002818BF4FF0FF347D
:103ED000EC6218BF0120B0BD2DE9F041022925D3C5
:103EE000044640690E46884220D9207815460328AA
:103EF0001FD0022834D0012818D1206A06EB5607BB
:103F000000EB57212046FFF7CBFF002852D107F1E5
:103F100001086FF35F27E019303016F001062BD04F
:103F2000017801F00F0165F30B1126E00220BDE8D6
:103F3000F081206A00EBD6112046FFF7B1FFC8BB25
:103F400006F07F0004EB800000F130063046FFF7FA
:103F500033FE014665F31B01304600F06EF826E0A3
:103F6000206A00EB16212046FFF79AFF10BBF0B243
:103F700004EB400005861AE0E9B201700120E07010
:103F8000206A00EB58212046FFF78AFF90B96FF3B3
:103F90005F2804EB0800303016B1C5F3071105E0C7
:103FA000C5F30321027802F0F002114401700120F0
:103FB000E0700020BDE8F081F8B502292ED3056835
:103FC000044668690E46884228D9AAB12846114697
:103FD0004FF0FF32FFF780FFF8B90DE0D5E904108C
:103FE000821E914205D201312961297941F00101F6
:103FF000297187423E4613D220463146FFF754FDD1
:10400000074601300ED05FB1012F07D02846314658
:104010000022FFF761FF0028E0D0F8BD0220F8BDC4
:104020000020F8BD0120F8BD4A830078032803D1A1
:10403000100E4875100C087570470160704700003D
:10404000B0B5044600F040F800B1B0BD20780328B8
:104050002DD1207901282AD104F134004FF4FD71CB
:10406000FCF7C7F81648254645F8300F4AF65520A4
:10407000A5F8FE011348C5F8E40155F8201C05F524
:10408000F470FFF7DAFF55F8241C05F5F670FFF71A
:10409000D4FF55F8140C2946421C45F8042C15F899
:1040A0002F0C0123FFF7B4F8002005F82C0C6078E2
:1040B00000210022FFF772F8002818BF0120B0BDD0
:1040C0005252614172724161F8B50446C078F0B154
:1040D000E56A607804F1300631462A46012301275B
:1040E000FFF796F8A0B90027E770216AA069691A5E
:1040F00081420DD2A778022F09D3A0693146054429
:1041000060782A460123FFF783F8013FF3E7002791
:104110003846F8BDB0B50C4680B10546006868B1B8
:10412000017859B1A988C2888A4207D14078FFF73F
:104130006BF8C00702D12968002001E009200021A6
:104140002160B0BD02E008C8121F08C1002AFAD1E0
:1041500070477047002001E001C1121F002AFBD107
:104160007047000001000000020000000400000091
:1041700008000000100000002000000040000000C7
:1041800080000000000100000002000000040000A8
:1041900000000000010203040102030406070809ED
:1041A000000000000000000000000000000000000F
:1041B00000000000000000000000000000000000FF
:1041C00000000000000000000000000000000000EF
:1041D0000000800180018001800180018001800158
:1041E00080018001800180018001800100000000C9
:1041F00080018001000000000000000000000000BD
:1042000000000000CC00CC00CC00CC00CC00CC00E6
:10421000000000000000000000000000000000009E
:10422000000000000000000000000000000000008E
:10423000000000000000000000000000600C600CA6
:10424000600C30063006FE1FFE1F300638071803CC
:10425000FE1FFE1F180318038C018C018C01000047
:1042600000008000E003F80F9C0E8C1C8C188C0062
:104270009800F801E007800E801C8C188C189C18A0
:10428000B80CF00FE0038000800000000000000088
:104290000000000000000E181B0C110C1106110686
:1042A000110311039B018E01C038C06C604460444F
:1042B000304430441844186C0C38000000000000F2
:1042C0000000E001F0033807180618063003F0017B
:1042D000F000F8009C310E33061E061C061C063F3B
:1042E000FC73F0210000000000000000000000004E
:1042F000000000000C000C000C000C000C000C0076
:1043000000000000000000000000000000000000AD
:10431000000000000000000000000000000000009D
:104320000000000200038001C000C00060006000C7
:1043300030003000300030003000300030003000FD
:1043400060006000C000C0008001000300020000A7
:10435000000020006000C000800180010003000315
:10436000000600060006000600060006000600061D
:104370000003000380018001C000600020000000F5
:10438000000000000000000000000000C000C000AD
:10439000D806F807E00130033807000000000000ED
:1043A000000000000000000000000000000000000D
:1043B00000000000000000000000000080018001FB
:1043C000800180018001FC3FFC3F80018001800171
:1043D00080018001000000000000000000000000DB
:1043E00000000000000000000000000000000000CD
:1043F00000000000000000000000000000000000BD
:104400000000800180010001000180000000000028
:10441000000000000000000000000000000000009C
:104420000000000000000000E007E00700000000BE
:10443000000000000000000000000000000000007C
:10444000000000000000000000000000000000006C
:10445000000000000000000000000000000000005C
:104460000000C000C00000000000000000000000CC
:104470000000000C000C000600060006000300030C
:1044800000038003800180018001C000C000C000E3
:10449000600060000000000000000000000000005C
:1044A0000000E003F007380E180C0C180C180C185C
:1044B0000C180C180C180C180C180C18180C380EBA
:1044C000F007E00300000000000000000000000012
:1044D000000000018001C001F00198018801800105
:1044E00080018001800180018001800180018001C4
:1044F00080018001000000000000000000000000BA
:104500000000E003F80F180C0C180C180018001825
:10451000000C000600038001C0006000300018009D
:10452000FC1FFC1F00000000000000000000000055
:104530000000E001F807180E0C0C0C0C000C000633
:10454000C003C007000C001800180C180C18180C39
:10455000F807E00300000000000000000000000079
:104560000000000C000E000F000F800DC00C600C4E
:10457000600C300C180C0C0CFC3FFC3F000C000CC9
:10458000000C000C00000000000000000000000013
:104590000000F80FF80F180018000C00EC03FC07DF
:1045A0001C0E001C0018001800180C181C0C180E0B
:1045B000F807E00300000000000000000000000019
:1045C0000000C007F00F381C181818000C00CC03AE
:1045D000EC0F3C0E1C1C0C180C180C18181C380E78
:1045E000F007E003000000000000000000000000F1
:1045F0000000FC1FFC1F000C0006000600038003E7
:104600008001C001C000E000600060007000300068
:10461000300030000000000000000000000000003A
:104620000000E003F007380E180C180C180C3806C0
:10463000F007F007180C0C180C180C180C18380C94
:10464000F80FE00300000000000000000000000080
:104650000000E003F007380E1C0C0C180C180C18A6
:104660001C1C381EF81BE0190018000C000C1C0E56
:10467000F807F0010000000000000000000000004A
:104680000000000000000000000000008001800128
:10469000000000000000000000000000000000001A
:1046A0008001800100000000000000000000000008
:1046B00000000000000000000000000080018001F8
:1046C00000000000000000000000000000000000EA
:1046D0008001800100010001800000000000000056
:1046E00000000000000000000000000000000000CA
:1046F0000010001C800FE003F8001800F800E00331
:10470000800F001C001000000000000000000000EE
:104710000000000000000000000000000000000099
:10472000F81F000000000000F81F0000000000005B
:104730000000000000000000000000000000000079
:104740000000000000000000000000000000000069
:1047500008003800F001C007001F0018001FC00744
:10476000F001380008000000000000000000000018
:104770000000E003F80F180C0C180C180018000CBF
:10478000000600038001C000C000C000000000005F
:10479000C000C00000000000000000000000000099
:1047A00000000000E00718180420C229224A114422
:1047B00009440944094409221113E20C024004206F
:1047C0001818E007000000000000000000000000D2
:1047D000000080038003C006C006C006600C600CA9
:1047E000301830183018F83FF83F1C700C600C601F
:1047F00006C006C00000000000000000000000002D
:104800000000FC03FC0F0C0C0C180C180C180C0C02
:10481000FC07FC0F0C180C300C300C300C300C1852
:10482000FC1FFC070000000000000000000000006A
:104830000000C007F01F38381C300C7006600600FE
:104840000600060006000600060006600C701C301C
:10485000F01FE00700000000000000000000000062
:104860000000FE03FE0F060E06180618063006307E
:104870000630063006300630063006180618060EDA
:10488000FE0FFE030000000000000000000000001A
:104890000000FC3FFC3F0C000C000C000C000C0066
:1048A000FC1FFC1F0C000C000C000C000C000C008A
:1048B000FC3FFC3F00000000000000000000000082
:1048C0000000F83FF83F1800180018001800180002
:1048D000F81FF81F1800180018001800180018001A
:1048E0001800180000000000000000000000000098
:1048F0000000E00FF83F3C780E6006E007C00300C0
:10490000030003FE03FE03C007C006C00EC03CF058
:10491000F83FE00F00000000000000000000000071
:1049200000000C300C300C300C300C300C300C30E3
:10493000FC3FFC3F0C300C300C300C300C300C3099
:104940000C300C30000000000000000000000000EF
:1049500000008001800180018001800180018001D0
:10496000800180018001800180018001800180013F
:104970008001800100000000000000000000000035
:1049800000000006000600060006000600060006FD
:10499000000600060006000600061806180638077E
:1049A000F003E00100000000000000000000000033
:1049B000000006300618060C060606038601C6002F
:1049C00066007600DE008E0106030606060C061859
:1049D000063006600000000000000000000000003B
:1049E000000018001800180018001800180018001F
:1049F00018001800180018001800180018001800F7
:104A0000F81FF81F00000000000000000000000078
:104A100000000EE01EF01EF01EF036D836D836D854
:104A200036D866CC66CC66CCC6C6C6C6C6C6C6C6B2
:104A300086C386C3000000000000000000000000E4
:104A400000000C301C303C303C306C306C30CC30D2
:104A5000CC308C310C330C330C360C360C3C0C3C0B
:104A60000C380C30000000000000000000000000C6
:104A70000000E007F81F1C380E70066003C003C07A
:104A800003C003C003C003C003C006600E701C381F
:104A9000F81FE00700000000000000000000000018
:104AA0000000FC0FFC1F0C380C300C300C300C30AC
:104AB0000C18FC1FFC070C000C000C000C000C0078
:104AC0000C000C00000000000000000000000000CE
:104AD0000000E007F81F1C380E70066003E003C0FA
:104AE00003C003C003C003C007E006630E3F1C3CC5
:104AF000F83FE0F700C000000000000000000000E8
:104B00000000FE0FFE1F063806300630063006385D
:104B1000FE1FFE0706030606060C061806180630DA
:104B200006300660000000000000000000000000E9
:104B30000000E003F80F1C0C0C180C180C001C00F3
:104B4000F803E00F001E0038063006300E301C1C43
:104B5000F80FE00700000000000000000000000067
:104B60000000FE7FFE7F80018001800180018001C6
:104B7000800180018001800180018001800180012D
:104B80008001800100000000000000000000000023
:104B900000000C300C300C300C300C300C300C3071
:104BA0000C300C300C300C300C300C300C30181831
:104BB000F81FE007000000000000000000000000F7
:104BC000000003600630063006300C180C180C1874
:104BD000180C180C380E300630067007600360039E
:104BE000C001C00100000000000000000000000043
:104BF00000000360C361C361C3616633663366331B
:104C00006633663366336C1B6C1B6C1B2C1A3C1EA4
:104C1000380E380E00000000000000000000000008
:104C200000000FE00C7018303018700C600EC007D8
:104C300080038003C003E006700C301C18180C3091
:104C40000E6007E00000000000000000000000000F
:104C5000000003C006600C301C383818300C6006A9
:104C6000E007C00380018001800180018001800194
:104C70008001800100000000000000000000000032
:104C80000000FC7FFC7F006000300018000C000674
:104C900000038001C0006000300018000C00060016
:104CA000FE7FFE7F0000000000000000000000000A
:104CB0000000E003E003600060006000600060004E
:104CC00060006000600060006000600060006000E4
:104CD00060006000600060006000E003E00300002E
:104CE000000030003000600060006000C000C000C4
:104CF000C000C001800180018001000300030003A7
:104D00000006000600000000000000000000000097
:104D10000000E003E00300030003000300030003BE
:104D2000000300030003000300030003000300036B
:104D300000030003000300030003E003E00300009E
:104D400000000000C001C001600360036003300682
:104D50003006180C180C00000000000000000000D5
:104D60000000000000000000000000000000000043
:104D70000000000000000000000000000000000033
:104D80000000000000000000000000000000000023
:104D90000000FFFFFFFF0000000000000000000017
:104DA00000000C000C000C000C000C000C000000BB
:104DB00000000000000000000000000000000000F3
:104DC00000000000000000000000000000000000E3
:104DD000000000000000000000000000F003F807E1
:104DE0001C0C0C0C000FF00FF80C0C0C0C0C1C0F16
:104DF000F80FF018000000000000000000000000A4
:104E0000000018001800180018001800D803F80F48
:104E1000380C181818181818181818181818380CEA
:104E2000F80FD803000000000000000000000000A0
:104E3000000000000000000000000000C003F007B8
:104E4000300E180C1800180018001800180C300E3E
:104E5000F007C00300000000000000000000000098
:104E6000000000180018001800180018C01BF01FE0
:104E7000301C181818181818181818181818301C7A
:104E8000F01FC01B00000000000000000000000038
:104E9000000000000000000000000000C003F00F50
:104EA000300C1818F81FF81F180018003818301C9C
:104EB000F00FC0070000000000000000000000002C
:104EC0000000800FC00FC000C000C000F007F00756
:104ED000C000C000C000C000C000C000C000C000D2
:104EE000C000C00000000000000000000000000042
:104EF000000000000000000000000000E00DF80FBE
:104F0000180E0C0C0C0C0C0C0C0C0C0C0C0C180EC5
:104F1000F80FE00D000C0C0C1C06F807F001000067
:104F2000000018001800180018001800D807F80F23
:104F3000381C1818181818181818181818181818CD
:104F40001818181800000000000000000000000001
:104F50000000C000C000000000000000C000C00051
:104F6000C000C000C000C000C000C000C000C00041
:104F7000C000C000000000000000000000000000B1
:104F80000000C000C000000000000000C000C00021
:104F9000C000C000C000C000C000C000C000C00011
:104FA000C000C000C000C000C000F80078000000D1
:104FB00000000C000C000C000C000C000C0C0C068B
:104FC0000C038C01CC006C00FC009C018C030C03D6
:104FD0000C060C0C000000000000000000000000A7
:104FE0000000C000C000C000C000C000C000C00081
:104FF000C000C000C000C000C000C000C000C000B1
:10500000C000C00000000000000000000000000020
:105010000000000000000000000000007C3CFF7E5B
:10502000C7E383C183C183C183C183C183C183C1FA
:1050300083C183C1000000000000000000000000E8
:105040000000000000000000000000009807F80FBA
:10505000381C1818181818181818181818181818AC
:1050600018181818000000000000000000000000E0
:10507000000000000000000000000000C003F00F6E
:10508000300C181818181818181818181818300C88
:10509000F00FC0030000000000000000000000004E
:1050A000000000000000000000000000D803F80F1E
:1050B000380C181818181818181818181818380C48
:1050C000F80FD80318001800180018001800000086
:1050D000000000000000000000000000C01BF01FE6
:1050E000301C181818181818181818181818301C08
:1050F000F01FC01B0018001800180018001800004E
:10510000000000000000000000000000B007F003F5
:1051100070003000300030003000300030003000CF
:10512000300030000000000000000000000000001F
:10513000000000000000000000000000E003F00399
:10514000380E180C3800F003C007000C180C380E8D
:10515000F007E00300000000000000000000000075
:10516000000000008000C000C000C000F007F00791
:10517000C000C000C000C000C000C000C000C0002F
:10518000C0078007000000000000000000000000D1
:1051900000000000000000000000000018181818AF
:1051A0001818181818181818181818181818381C5B
:1051B000F01FE019000000000000000000000000E7
:1051C0000000000000000000000000000C18180C97
:1051D000180C180C300630063006600360036003BC
:1051E000C001C0010000000000000000000000003D
:1051F000000000000000000000000000C141C141AB
:10520000C3616363636363633636363636361C1CAC
:105210001C1C1C1C0000000000000000000000001E
:105220000000000000000000000000001C38381CD6
:10523000300C600660036003600360036006300C9E
:10524000381C1C38000000000000000000000000B6
:1052500000000000000000000000000018303018BE
:1052600030187018600C600CE00CC006C00680039B
:105270008003800380018001C001F0007000000005
:10528000000000000000000000000000FC1FFC1FE8
:10529000000C000600038001C00060003000180010
:1052A000FC1FFC1F000000000000000000000000C8
:1052B000000000038001C000C000C000C000C000AA
:1052C000C00060006000300060004000C000C0000E
:1052D000C000C000C000C00080010003000000004A
:1052E0000000800180018001800180018001800137
:1052F00080018001800180018001800180018001A6
:105300008001800180018001800180018001000016
:1053100000006000C000C0018001800180018001A8
:1053200080010003000300060003000180018001EA
:105330008001800180018001C00060000000000049
:10534000000000000000000000000000000000005D
:10535000F010F81F080F000000000000000000001F
:10536000000000000000000000000000000000003D
:10537000809A45418E418F804545454949498E8FE8
:105380009092924F994F555559999A9B9C9D9E9FEB
:1053900041494F55A5A5A6A7A8A9AAABACADAEAFEC
:1053A000B0B1B2B3B4B5B6B7B8B9BABBBCBDBEBF85
:1053B000C0C1C2C3C4C5C6C7C8C9CACBCCCDCECF75
:1053C000D0D1D2D3D4D5D6D7D8D9DADBDCDDDEDF65
:1053D000E0E1E2E3E4E5E6E7E8E9EAEBECEDEEEF55
:1053E000F0F1F2F3F4F5F6F7F8F9FAFBFCFDFEFF45
:1053F000222A2B2C3A3B3C3D3E3F5B5D7C7F0047A5
:105400007265736B61206B6F6420636974616E6A8F
:1054100061206B61727469636500537461727420FA
:1054200061706C696B6163696A65207A6120332001
:1054300073656B756E6465002D75706973206669A0
:10544000726D776172652D61207573706A65736125
:105450006E00312E20736D65746E6A61206E61700E
:10546000616A616E6A6100477265736B612076657F
:105470006C6963696E652066616A6C6100322E201A
:105480006E65697370726176616E20666C617368B7
:105490002075436F6E74726F6C6572610052657334
:1054A000746172742061706C696B6163696A6520F4
:1054B0007A6120322073656B756E6465002D6661BC
:1054C0006A6C206A652070726576656C696B005045
:1054D0006F6B7573616A7465207265737461727441
:1054E00000000000085500080000002038000000FF
:1054F000444100084055000838000020580F0000C3
:105500005441000800000000FFFF0000A041000817
:1055100010001800001C0240100000008000000075
:1055200004000000001C0240200000008000000079
:1055300005000000008000080095BA0A0000000085
:04000005080001AD41
:00000001FF
