:020000040800F2
:10000000E020002001010008090100080B010008A0
:100010000D0100080F010008110100080000000098
:1000200000000000000000000000000013010008B4
:10003000150100080000000017010008CD0D0008A0
:100040001B0100081B0100081B0100081B01000820
:100050001B0100081B0100081B0100081B01000810
:100060001B0100081B0100081B0100081B01000800
:100070001B0100081B0100081B0100081B010008F0
:100080001B0100081B0100081B0100081B010008E0
:100090001B0100081B0100081B0100081B010008D0
:1000A0001B0100081B0100081B0100081B010008C0
:1000B0001B0100081B0100081B0100081B010008B0
:1000C0001B0100081B0100081B0100081B010008A0
:1000D0001B0100081B0100081B0100081B01000890
:1000E0001B0100081B0100081B010008DFF80CD0F1
:1000F00000F018F800480047DD0D0008E02000205F
:100100000648804706480047FEE7FEE7FEE7FEE7B1
:10011000FEE7FEE7FEE7FEE7FEE7FEE7490100082F
:10012000ED000008064C074D06E0E06840F00103D2
:1001300094E8070098471034AC42F6D3FFF7DAFF93
:100140000C1B00081C1B00080E480F4A016841F0F8
:1001500001010160416811400C4A41600168114091
:100160000160016821F480210160416821F4FE01F1
:1001700041604FF41F01816005484FF0006101604C
:10018000704700BF001002400000FFF8FFFFF6FEBE
:1001900008ED00E07CB5514D14462A6D6B6D012BC6
:1001A00040F09B80002800F09880012A00F09580A4
:1001B000122200236A650122C5E90E332863A9864D
:1001C000E986C5E912332A65AB65AB6A2A68B3F5DF
:1001D000005F07D1136823F400531360136843F4DE
:1001E00000531360AB68A1F1010CBCFA8CF6B3F5B7
:1001F000004F4FEA561602BF136843F48043136062
:10020000136813F0400F02BF136843F040031360FC
:100210006B68D5F80CE0B3FA83F3BEF1000F4FEA38
:10022000531343EA06031CD0C3B130F8021BD1605C
:100230006146A5F836C0286310E00220002122465E
:1002400000F04EF8002818BF7CBD286B2A6830F8F3
:10025000021BD1602863E88E411EE9860804ECD1B8
:1002600016E02BB1431C2B630078D0600139E9867E
:1002700008040DD002200021224600F031F860BBB6
:10028000286B2A68411C29630078D060E98EEDE76D
:10029000A86A0021B0F5005F02BF106840F48050EA
:1002A00010602246022000F01BF828B980200121AE
:1002B000224600F015F820B1A86D40F01000A865A6
:1002C0007CBDA86828B92868C16801918068019040
:1002D000019800202865012068657CBD8000002011
:1002E000B0B5DFF888C0DFF888E00029DCF800301E
:1002F000DEF804400DD0511C9D680540854232D186
:100300000029F9D092B1DEF804502D1B9542F3D9A3
:100310000CE0511C9D680540854224D00029F9D08D
:1003200022B1DEF804502D1B9542F3D9586820F015
:10033000E0005860186820F040001860DCF82800E1
:10034000B0F5005F07D1186820F4005018601868F5
:1003500040F4005018600020CCF850000120CCF888
:1003600054000320B0BD0020B0BD00BF80000020BD
:100370000000002000F000F80648BFF34F8F064A47
:10038000016801F4E06111430160BFF34F8F00BFCA
:10039000FDE700BF0CED00E00400FA052DE9F8438D
:1003A0004F4F04460D46B86E202840F08380002C45
:1003B00000F080804B4E012142F2107206F5702051
:1003C00000F092F8002875D1786E012872D00120D3
:1003D0004FF0000864227866386B016821F40061F0
:1003E00001602121B9661021F966C7F870800168A3
:1003F00041F4807101604FF00110002100F074F8A9
:1004000090B9386CB0F5804F06D0386BF02101619F
:10041000B01D00F0BDF830B9386BA0210161304645
:1004200000F0B6F828B1386FC7F86480386FBDE8BF
:10043000F883386B4FF6FF7841690091816900912C
:1004400000991DE000F08EF8F0BB7868001B64286E
:1004500032D8386B416911F0800FF3D04C46751ECD
:1004600014F8011B15EA080F0161416918BF11F06A
:10047000040105D099F80110B51E09F102040161CB
:10048000A1467C682E462904E4D107E000F06AF812
:10049000D0B97868001B64280ED8386B416911F018
:1004A000040FF3D0016841F4007101600020786608
:1004B0002020B866BDE8F883386F40F02000386728
:1004C000002078662020B866386F042818BFBDE881
:1004D000F883386B016841F400710160BDE8F8836E
:1004E0000000002002000100B0B5DFF874C084B243
:1004F00000F47F000029DCF804E0DCF8303012D092
:10050000511CB0F5803F0CBF5D699D692540A54237
:1005100023D10029F5D0C2B1DCF80450A5EB0E05BB
:100520009542EED911E0511CB0F5803F0CBF5D69DA
:100530009D692540A54210D00029F5D02AB1DCF8EC
:100540000450A5EB0E059542EED90020CCF86400CE
:100550002020CCF868000320B0BD0020B0BD00BF53
:1005600000000020094900200A6B536913F4806FD2
:1005700008BF7047536923F48063536104220A67FC
:100580004866202088660120704700BF00000020D8
:1005900080B5DFF870C081B200F47F00DCF804E0C1
:1005A000DCF83020B0F5803F0CBF536993690B40F5
:1005B0008B4204BF002080BD536913F4806F0DD1BE
:1005C000DCF80430A3EB0E03652BEBD30020CCF852
:1005D00064002020CCF86800032080BD106840F43F
:1005E00000701060506920F4806050610420CCF8E5
:1005F00070000020CCF864002020CCF868000120B6
:1006000080BD00BF000000202DE9F843884F06465A
:100610008946B86E202840F00881002E00F0058140
:10062000844D012142F2107205F57020FFF75CFF46
:10063000002840F0FA80786E012800F0F680012052
:10064000002464227866386B016821F4006101603F
:100650002221B9661021F9663C67016841F4806186
:100660000160016841F4807101604FF001100021C8
:10067000FFF73AFF80BB386CB0F5804F1DD1A12049
:10068000396B08612846FFF783FF20BBB9F1010FE2
:1006900026D1386B016821F480610160EFF310808E
:1006A00072B6386B416900918169009100990168C7
:1006B00041F40071016062B645E0386BF0210161E0
:1006C000A81DFFF765FF30B9386BA12101612846ED
:1006D000FFF75EFFD8B1386F7C66386FBDE8F883EE
:1006E000386BB9F1020F016825D141F40061016056
:1006F000EFF3108072B6386B416900918169009107
:100700000099016821F48061016062B61BE0386BDA
:10071000642241690091816900910099016841F466
:10072000807101604FF001100021FFF7DDFE00280D
:10073000D2D1F120A4E741F48061016041690091C8
:1007400080690090009805F1020864E0AEB2032EC3
:100750000DD8012E21D100F06FF80028BDD1386BE3
:100760004FF00009006904F8010B264653E000F041
:1007700063F80028B1D1386B2646A5F1010900695C
:1007800006F8010B386B416911F0040F43D0006982
:10079000A5F10209A61C60703DE0404600216422DC
:1007A000FFF7A2FE022E13D100283ED1EFF31080F6
:1007B00072B6A61C4FF00009386B016841F4007155
:1007C00001600069207062B6386B0069607022E0D9
:1007D00058BB386B6422016821F480610160EFF33B
:1007E000108072B60021386B006920704046FFF718
:1007F0007BFE002818BFBDE8F883386BE61C4FF07D
:100800000009016841F4007101600069607062B61E
:10081000386B0069A0704D4634465FEA094095D1B7
:100820002020B86600207866F866BDE8F88300BF2F
:10083000000000200200010010494A68086B43696B
:1008400013F0400F1CBF00207047436913F0100FD6
:1008500008D14B689B1A652BF1D3086F40F020023A
:10086000032005E0426922F01002426101200022CB
:100870000A6700224A6620228A667047000000202C
:100880002DE9FC473E4E0546B06E20285BD13D4821
:10089000012142F210728246FFF726FE0146022035
:1008A00000296AD1716E012967D04FF00109A02497
:1008B0004FF02008C6F86490306B016821F40061A5
:1008C00001602421B166002131672FE0306B0461A3
:1008D000716804E07268521AAA4288BFB46642691D
:1008E0004369B76EA02F05D09B0A43EA520212F06B
:1008F0000102EFD0C6F868804169026842F40072D4
:1009000011F0020F026020D1416942F2107221F40D
:100910008061416150460121FFF7E6FD08BB4FEAC7
:10092000D9007C281FD8306B09F1010901682A46DB
:1009300041F4807101604FF001100021FFF7D4FDF8
:100940000028C3D00DE0022017E0416942F2107286
:10095000019101218069019001985046FFF7C4FD83
:1009600038B1032009E0002070662020B066012025
:1009700003E0002020217066B16602B0BDE8F08778
:1009800000000020020010002DE9FC4F594A04230A
:100990004FF0000B4FF001084FF00F0E4FF0000921
:1009A0000025904208BF03230093102D08BFBDE827
:1009B000FC8F0A6808FA05F73A4200F097804A6807
:1009C000032A16D9112A24D0122A26D04D4B9A4236
:1009D00013D04D4B9A4210D04C4B9A420DD04C4BF9
:1009E0009A420AD04B4B9A4207D04B4B9A4204D0C2
:1009F00020E0DFE802F00216191D8A6832B1012AF0
:100A00004FF0080914BF4761076113E04FF0040974
:100A100010E0CA6802F104090CE0CA6802F10C098E
:100A200008E0D1F80C9005E0CA6802F1080901E07D
:100A30004FF00009082D5A46044628BF203A28BF27
:100A4000043426680EFA02F309FA02F226EA0303D6
:100A50001A432260CA79D20648D5294A0BF00C0CF9
:100A60001346126842F001021A601A680EFA0CF37B
:100A700002F001020192204A019CAC08A2F57E76A8
:100A800056F8242022EA030A244A904208D0244A35
:100A9000904207D0234A009B904208BF022302E005
:100AA000002300E0012303FA0CF242EA0A0246F8AE
:100AB0002420114E4A68336812F4803F0CBFBB43B8
:100AC0003B4333609303736854BFBB433B43736042
:100AD000D302B36854BFBB433B439202074AB3609F
:100AE0001346126854BFBA433A431A600BF1040B21
:100AF00001355AE700140140000401400C04014094
:100B00001810024000001110000012100000211007
:100B100000002210000031100000321000080140D7
:100B2000000C0140001001402DE9F84F344A4FF00D
:100B3000000C4FF001084FF00F09002390424FF0D6
:100B4000040208BF032200922E4AA2F57E7A31FAEF
:100B500003F708BFBDE8F88F08FA03F717EA0105A5
:100B60004AD0B5F5807F6246064628BF203A28BFA6
:100B70000436346809FA02F724EA0707042404FA61
:100B800002F23A430CF00C0732609E0809FA07F4AF
:100B9000C268AA43C2605AF8262002EA040B1B4A24
:100BA00090420AD01A4A90420AD01A4ADDF800E070
:100BB000904208BF4FF0020E04E04FF0000E01E03B
:100BC0004FF0010E0EFA07F2934515D15AF8267030
:100BD000EA43A7430B4C4AF826702768264617407D
:100BE0002760676817406760A7681740A760064CD2
:100BF000276826463A4022600CF1040C0133A6E730
:100C000000140140000401400C04014000080140B0
:100C1000000C01400010014010B5114C1149226830
:100C200002F00C03082B13D1C2F383430EA012F47D
:100C3000803FC35C03D1114803FB00F108E020684A
:100C40000DA2C0F34040105CB1FBF0F000FB03F1DB
:100C500020680B4AC0F30310105C21FA00F010BDAD
:100C60000410024000127A00020304050607080976
:100C70000A0B0C0D0E0F10100102000000093D00C0
:100C8000FC1A000880B5FFF7C7FF4FF47A71B0FB7C
:100C9000F1F00021421E0748B1EB126F06D1064B5E
:100CA0005A60F022C275072299601A600268C17505
:100CB00080BD00BF0CED00E010E000E0DFF898C060
:100CC00026484CF25033DCF8042006E0DCF804102F
:100CD000891A994284BF03207047016811F0010FFF
:100CE000F4D1016811F0200F1CBF202101600168C0
:100CF00011F0100F09D1016911F0010F05D1016840
:100D000011F0040F04BF00207047016811F0100FAC
:100D10001EBFDCF82C1041F00201CCF82C10016849
:100D200011F0040F1EBFDCF82C1041F00101CCF8CB
:100D30002C10016911F0010F09D0DCF82C1041F0E2
:100D40000401CCF82C10016921F00101016114218A
:100D500001600120704700BF000000200C2002400D
:100D6000BFB51148114C6D46016841F480410160E6
:100D70002946006800F4804000900098022001900D
:100D80004FF420400090032003902046FFF7FCFD25
:100D900000204FF4804101900091029020462946A6
:100DA000FFF7F2FDBFBD00BF1C100240000C014068
:100DB0000448016821F48041016003484FF4604118
:100DC000B2E600BF1C100240000C0140024841681E
:100DD00001314160704700BF000000202DE9F04F55
:100DE00089B09549954F4FF6FF04954D086840F03E
:100DF000100008603868204028433860FFF742FF41
:100E0000904E914A0221B846706940F0010070612D
:100E1000706900F0010005900598386820408B4CFF
:100E200028438B4D386038680020F875106861F3EE
:100E30001A601060306810F00C0F08D0306800F0B5
:100E40000C00082807D1306810F4803F03D14FF41C
:100E5000843028580FE001204FF484322060DFF8FE
:100E600090054168AB5813F0020F04D143685B1A38
:100E7000642BF7D942E04FF48430295821F0F8016F
:100E800029500120C4F88004DFF864054168326A03
:100E900012F0020F04D14268521A022AF7D92DE04B
:100EA0000121059141684268059B521A9A42FAD382
:100EB000316801F00C01082920D000214FF4843260
:100EC00021664168AB5813F0007F04D043685B1A79
:100ED000022BF7D912E031684FF4843221F47411F7
:100EE00041F460113160012121664168AB5813F073
:100EF000007F03D143685B1A032BF7D34E4A106877
:100F000010F0060F1DD0306820F0F00030604FF474
:100F10008430285810F0007F51D03068022141F20F
:100F2000883261F301003060DFF8C404416833683F
:100F300003F00C03082B2CD043685B1A9342F6D9BC
:100F40003DE01068022161F302001060106800F0BB
:100F50000700022833D1306820F0F00030604FF4F1
:100F60008430285810F0007F29D03068022141F2E7
:100F7000883261F301003060DFF87404416833683F
:100F800003F00C03082B0FD043685B1A9342F6D989
:100F900015E0294A0221106861F302001060106810
:100FA00000F0070002280AD13068042161F30A200A
:100FB0003060306820F460503060FFF763FEB06945
:100FC000244F2346DFF8284440F08050B061B069D8
:100FD00000F08050059005984FF46050395841F466
:100FE0008071395061683A5812F4807F04D1626888
:100FF000521A642AF7D934E0F06900F44070B0F571
:10100000007F2ED0F0690121C3F840140021C3F8FD
:10101000401420F4407110F0020FF1611CD06068A0
:1010200041F28831F26912F0020F15D16268121A8A
:101030008A42F7D915E000BF002002400CED00E025
:101040000003FA050410024004000140000042427F
:101050000008014000380040F069022161F30920D6
:10106000F061FFF7D9FD4FF47A71B0FBF1F0002188
:10107000421EE048B1EB126F07D14260F0224346B6
:1010800088F8172007228160026002684FF4C05977
:101090004FF0010AAB4642F004020260D8F80000AB
:1010A00088F817100DF114087069414640F00400EB
:1010B0007061706900F0040005900598706940F057
:1010C00008007061706900F0080005900598CA4832
:1010D000286141F6F110C5F81094CDF818A002254A
:1010E000059058460895FFF74FFCCDE9059A0895FD
:1010F0000BF5806541462846FFF746FCBA48834613
:10110000006910F0800F05D0BC48CBF80400BC4843
:10111000CBF804003420BB4B00214FF48042CBF8C5
:101120000C00DBF81000994640F08000CBF810006E
:1011300007F5E05021652063C4E90D31C4E90F12C1
:10114000C4E91111E164A26EE2B91220616605A939
:1011500006904FF440700590032008902846FFF752
:1011600013FCA2488346006840F00200CBF8000060
:10117000B06940F40010B061B06900F40010049050
:101180000498206B2421A166016821F0010101600F
:10119000FFF742FD31689C4A09F10106C1F30221C3
:1011A000515C20FA01F19948B1FBF0F3206B4360E8
:1011B000626BB2420AD252000133B1FBF2F140F647
:1011C000FC720362114208BF04211DE04FF49676C1
:1011D00073434FF47A76B3FBF6F34FF44046013392
:1011E0000362A36B002B4FF0190308BF4FF40046B6
:1011F00008BF03235A4340F6FF73B1FBF2F242EA01
:1012000006011A4208BF0121C1610025804ED4E9C0
:10121000131211430160D4E90F1211438160D4E924
:10122000111211434FF48272C160016841F0010153
:101230000160202025674FF40071A0660A20E56652
:10124000C6E90072C6E90255C6E90455C6E90615A5
:10125000C6E90855C6E90A50736D7BB100234FF00B
:10126000000B4FF0000A4FF0000C4FF0000E0393FC
:101270000023029300230193002310E0FFF770FD89
:10128000306A0190706A0390B06A0290F06AD6E901
:101290000072D6E902ECD6E904ABD6E90613009356
:1012A0004FF0020942EA0E02C6F8549042EA0C02DC
:1012B00008F102093B6842EA0A024FF4145A42EA72
:1012C0000B0223F040033B6001F400731A43009BC0
:1012D0001A43019B1A43029B1A433A60042202EA12
:1012E0001141039A114379603861F86920F4006074
:1012F000F861B5650120474D474F706504AE3BE08E
:101300004FF404500221BB46ADF814004046FFF7ED
:1013100045F848460421FFF777F9DDF8160007BACB
:10132000781EB0F5504F57D200F0D6F84FF4641045
:10133000394600F017F94E2000F0C2FB5F460DE081
:10134000032000F07DF800F0C7F84FF496004FF44A
:10135000504100F007F94F2000F0B2FB28683840F8
:10136000B0F1005F08D100F089F86868A0602868D3
:1013700080F30888A0688047207840F00100207042
:1013800000F04CF860686168091AB1F5FA7FFAD389
:101390004FF47A70FFF774FAE0B940460221ADF8D5
:1013A00014A0FEF7FBFF30460121FFF72DF99DF851
:1013B00010004E28C4D05728A2D04F28CED1572095
:1013C00000F07EFB207800F0FE002070012000F08D
:1013D00037F8FBE7012000E0022000F031F800F0D0
:1013E0004DF8FEF7C7FF00BF002002400400014097
:1013F0000000002010E000E00000F1192301674523
:10140000AB89EFCDA0860100FC1A000840420F0016
:1014100080000020003000080000FE2F80B5064844
:1014200001210A22FEF7B6FE04484FF08051016008
:101430004FF48051016080BD000000201008014081
:10144000B0B50D4C4500217821F00201217001F06A
:10145000FD0011F0020F08BF41F002002070FFF7FD
:10146000DDFF60686168091AB1F5FA7FFAD3013DC2
:1014700008BFB0BD2178EAE70000002070B5134E28
:1014800041F6F11106F53440FFF74EFB06F53844FE
:101490004FF4C0512046FFF747FB0D480D4D006B40
:1014A000B04208D128694FF4407120F4001028613F
:1014B0002046FFF739FBFFF77BFC4FF0FF300021A0
:1014C000286069602860296070BD00BF005400403A
:1014D000000000200C1002402DE9F0411C4C206857
:1014E00010F0800F05D01B4844F80C0C1A4844F843
:1014F0000C0C1A4DA86A012823D00120A862FFF71E
:10150000DDFBE0B9164E4FF0000806F5504714E039
:10151000C5F82C80206840F00200206066602068DA
:1015200040F040002060FFF7C9FB2168002821F04F
:101530000201216003D106F58066BE42E8D3002097
:10154000A862206840F080002060BDE8F08100BF04
:101550001020024023016745AB89EFCD0000002039
:10156000003000082DE9F04FADF5856D81B00546DE
:1015700009A80C46DFF83465DFF8408540F001012A
:1015800002300190E34802910890002C00F085821F
:1015900003204FF080514FF4FA728DF82404280C88
:1015A0008DF827548DF82504280A8DF82604DA488A
:1015B00001600DF224400421FEF7ECFD00204FEA0B
:1015C0009429B0EB942FADF828041CBFA4F58069D2
:1015D0004FF48064306D716D012940F0DD81012888
:1015E00000F0DA8122200021706509A8C6E90C11FB
:1015F000B0630120B487F487C6E912113065B16584
:10160000B168B1F5004F04D13068026822F480421D
:101610000260B06AB0F5005F08D13268136823F445
:1016200000531360136843F40053136000295BD127
:101630007168B1F5827F57D100213165ADF82A1468
:10164000716D012903D0716D222940F0A58101211E
:1016500000223165716D012904BF32217165B0F539
:10166000005F09A9B163B265B487F4873163B486BA
:10167000F486C6E91222316807D10A6822F40052C2
:101680000A600A6842F400520A600A6812F0400FC9
:1016900002BF0A6842F040020A60F268B2F5006FC9
:1016A00044D1A2B2012A40F09D80BDF82420B0F5BB
:1016B000005FCA60A4F10102F286019A326302BFA0
:1016C000086840F480500860012000214FF4FA724D
:1016D000FEF706FE002840F05F813068C068B16BFD
:1016E00021F8020BB16341E03068016811F0400F4E
:1016F00002BF016841F040010160F168D1B32146A9
:1017000008E03068C168B26B22F8021BB263F18F47
:101710000139F18789B2022943D3012000214FF416
:10172000FA72FEF7DDFD0028EBD035E1A2B2012A06
:1017300040F08E80029AB0F5005F32639DF824205D
:10174000CA60A4F10102F2864FF4FA7202BF08687F
:1017500040F48050086000210120FEF7C1FD002800
:1017600040F01A813068C068B16B0870F08F0138A2
:10177000F087D7E0204608E03068C068B16B4A1CAB
:10178000B2630870F08F0138F08780B202280DD361
:10179000012000214FF4FA72FEF7A2FD0028EBD0E1
:1017A000FAE0B16AB1F5005F05D008E0B06AB0F5C3
:1017B000005F04D13068016841F48051016001206C
:1017C00000214FF4FA72FEF78BFD002840F0E48010
:1017D0003068F168C06800296FD0B16B21F8020B46
:1017E000B1636EE0204609E03068C068B16B21F853
:1017F000020BB163F08F0138F087F08E000400F027
:101800008580022000214FF4FA72FEF769FD00285E
:1018100040F0C280316B306831F8022BC260316316
:101820004FF6FF72F18E01391142F18607D1B16A8C
:10183000B1F5005F02BF016841F4805101600120F1
:1018400000214FF4FA72FEF74BFD0028CCD0A3E044
:10185000204609E03068C068B16B4A1CB26308706A
:10186000F08F0138F087F08E000457D0022000215D
:101870004FF4FA72FEF734FD002840F08D80316B92
:1018800030684A1C32634FF6FF720978C160F18EEE
:1018900001391142F18607D1B16AB1F5005F02BF8B
:1018A000016841F480510160012000214FF4FA7277
:1018B000FEF716FD0028CDD06EE0B16B4A1CB26376
:1018C0000870F08F0138F087B06AB0F5005F0CD176
:1018D000012000214FF4FA72FEF702FD68BB306868
:1018E000C068ADF82804BDF828047068B0F5827FA0
:1018F00039D1B068B0F5004F02D0B0F5806F32D169
:101900003068016821F0400101602CE0706848B93E
:10191000DAE600BF00300008100C014070680028B3
:1019200000F0AC80B06AB0F5005F10D1012000215A
:101930004FF4FA72FEF7D4FC18B1B06D40F002001B
:101940000FE03068C068ADF82A04BDF82A04802092
:1019500001214FF4FA72FEF7C3FC20B1B06D40F0E4
:101960001000B06518E001207065B06AB0F5005F46
:1019700010D13068816811F0100F0BD0B16D41F0BB
:101980000201B165016821F400510160016841F470
:10199000005101600020306542484FF480510595A8
:1019A00001604148006810F0800F06D040483E4971
:1019B00041F80C0C3F4841F80C0C089FA10800228C
:1019C000CDF810900794039101E0013204373A48B2
:1019D000874298BF8A423FD2D8F82800012846D0D3
:1019E00009A80692444650F822A00120C8F8280011
:1019F000FFF764F9B8BB4FF00008BB464FF0000991
:101A00000020B9F1010F1BD8274DE062A8F1200199
:101A10000029286840F0010028602AFA08F0A8BFD1
:101A200000202BF8020BFFF749F9296808F110088C
:101A300009F10109002821F001012960E0D012E03C
:101A4000069AA06209A8A046079C396850F82200AF
:101A500081420399B9D00AE013480146006840F07A
:101A60008000086003E00020A046A062079C059D5E
:101A7000089820442544049C089086E50120002114
:101A80004FF4FA72FEF72CFC00287FF485AF306823
:101A9000C068B16B4A1CB26367E60DF5856D01B095
:101AA000BDE8F08F100C01401020024080000020A3
:101AB00023016745AB89EFCDFCFF00080000002043
:101AC000E0B58DF806004FF414500321ADF8040082
:101AD00001A8FEF763FC6420FEF7D2FE8CBD02E095
:101AE00008C8121F08C1002AFAD1704770470020A9
:101AF00001E001C1121F002AFBD170470000000065
:101B00000102030401020304060708091C1B000864
:0C1B100000000020E0200000EE1A000899
:04000005080000ED02
:00000001FF
