:020000040800F2
:1080000050DF0120C18100080BE9000871D700088A
:1080100009E9000831880008FD420108000000005D
:10802000000000000000000000000000D3810008F4
:10803000719C000800000000D7810008F932010897
:10804000DB810008DB810008DB81000889F900087A
:10805000DB810008DB810008EDB40008DB8100084B
:10806000DB810008DB810008DB810008DB81000880
:10807000DB810008DB810008DB810008DB81000870
:10808000DB810008DB810008DB810008DB81000860
:1080900033880008DB810008DB810008DB810008F1
:1080A000DB810008DB810008DB810008DB81000840
:1080B000DB810008DB810008DB810008DB81000830
:1080C000DB810008DB810008DB810008DB81000820
:1080D000DB810008DB810008C5340108F5340108A4
:1080E00003B5000845F50008DB810008DB810008C6
:1080F000DB810008DB810008DB810008DB810008F0
:10810000DB81000811220108DB810008DB81000807
:10811000DB810008DB810008DB810008DB810008CF
:10812000DB810008C5990008DB810008E999000897
:10813000ED990008DB810008DB810008DB81000885
:1081400035880008DB810008DB810008DB8100083E
:10815000DB810008DB810008DB810008DB8100088F
:10816000DB810008DB810008DB810008DB8100087F
:10817000DB810008DB81000895990008DB8100089D
:10818000DB810008DB810008DB810008DB8100085F
:10819000DB810008DB810008DB810008DB8100084F
:1081A0002DE60008DB8100089B990008DFF80CD061
:1081B00000F06EFA00480047017D010850DF012001
:1081C0000648804706480047FEE7FEE7FEE7FEE771
:1081D000FEE7FEE7FEE7FEE7FEE7FEE7C133010844
:1081E000AD81000810B5431A934209D2831888184C
:1081F00003E010F8011D03F8011D521EF9D210BD55
:1082000040EA01039B0703D009E008C9121F08C018
:10821000042AFAD203E011F8013B00F8013B521E98
:10822000F9D210BDD2B201E000F8012B491EFBD2F9
:1082300070470022F6E710B513460A460446194671
:10824000FFF7F0FF204610BD30B505462A460B4625
:1082500012F8010B13F8014B08B1A042F8D01CB181
:10826000002802D06D1CF1E7284630BD10B5044649
:1082700004E00B7800F8013B03B1491C521EF8D210
:10828000204610BDCAB2401E10F8011F8A4202D01B
:108290000029F9D100207047421C10F8011B002969
:1082A000FBD1801A704710B5002200E0521C835C9D
:1082B0008C5CA34201D1002BF8D1D8B2E1B2401AB4
:1082C00010BD30B504460020034600E05B1C93421D
:1082D00003D2E05CCD5C401BF8D030BD034611F802
:1082E000012B00F8012B002AF9D11846704730B550
:1082F00005460020034600E05B1C934205D2EC5C7F
:10830000C85C201A01D1002CF6D130BD70B50646EC
:108310002AF02CF9046805460A220021304600F0B4
:1083200022F92C6070BD2DE9FE4F804681EA0300E2
:10833000C00F0C46009021F0004123F00045B8EB3F
:108340000200A94105D24046214690461C460B46F4
:10835000024623F00040104347D0270DC7F30A0020
:10836000C3F30A510290401A019040286BDAC3F31C
:10837000130040F4801B0098924620B10023D2EBFA
:10838000030A63EB0B0B01985946C0F140025046BB
:1083900000F0B8F806460D4650465946019A00F0DE
:1083A000D0F810EB08006141002487EA115284EAFA
:1083B000E7731A4340D0009A62B3019A012A4FEA48
:1083C000075215DC001B61EB02014FF0004202EA8C
:1083D0000752CDE90042001C41F5801132462B4680
:1083E00000F008F903B0BDE8F08F40462146F9E7F8
:1083F000001B61EB0201001C41F5801300185B417A
:108400002018A2F5001747EB030140EAD570B61912
:108410006D4111E06D084FEA360645EAC0754FEA36
:108420000752001B61EB0201001C41F58011490855
:108430004FEA30000019514132462B4603B0BDE8E7
:10844000F04F00F0C8B80098012240000023D0EBA4
:10845000020263EBE073009821464FEAE074B8EB48
:10846000000061EB0401E9E783F000435BE781F082
:10847000004158E770B5C1F30A5201F000450024ED
:10848000C1F3130140F2FF3341F480119A4201DA43
:10849000002070BD40F233439A42A2F2334203DC23
:1084A000524200F03EF800E090402C43F1D04042B0
:1084B00070BD00F0004230F000400AD0C10D01F55F
:1084C0006071C0F3160042EA0151C208400711432F
:1084D000704700200146704730B50B46014600202A
:1084E0002022012409E021FA02F59D4205D303FA76
:1084F00002F5491B04FA02F52844151EA2F10102F7
:10850000F1DC30BD202A04DB203A00FA02F1002021
:1085100070479140C2F1200320FA03F319439040C1
:108520007047202A04DB203A21FA02F0002170472C
:1085300021FA02F3D040C2F12002914008431946CB
:108540007047202A06DBCB17203A41FA02F043EAB3
:10855000E07306E041FA02F3D040C2F120029140FC
:108560000843194670472DE9F04791460F4680466B
:108570000446002614F8015B2DB100F09BF800685A
:10858000405DC007F6D12B2D02D02D2D18D0641ED2
:108590004A463946204600F091F827B13968A14291
:1085A00001D1C7F8008071054FF002040BD540429D
:1085B000002803DD29F0DAFF0460A007BDE8F0879A
:1085C00046F48066E4E70028F8DA29F0CFFF04607B
:1085D0006FF00040F2E710B5141E73F1000408DAE2
:1085E000401C41F1000192185B411A4301D120F077
:1085F000010010BD2DE9F04D92469B4611B1B1FA34
:1086000081F202E0B0FA80F220329046FFF77AFF62
:1086100004460F4640EA0A0041EA0B0153465A4617
:10862000084313D0114653EA010019D0C8F14002A3
:108630005046FFF776FF05460E46504659464246DD
:10864000FFF760FF084305D0012004E020463946CB
:10865000BDE8F08D0020054346EAE0762C43374321
:108660000A986305E40AA0EB08000022FD0A44EA28
:1086700047540A3002D500200146E9E701051019E8
:108680006941DDE9084500196941BDE8F04DA2E7FF
:10869000064C074D06E0E06840F0010394E807004F
:1086A00098471034AC42F6D3FFF784FDF0BC0408C1
:1086B00020BD040800487047281804082DE9F05F21
:1086C00082460078002715468B460AF10104B94618
:1086D000302801D09DB113E014F8010B0127782850
:1086E00003D0582801D045B10AE00DB1102D07D1B3
:1086F0000027102514F8010B02E0082500E00A25E8
:108700000026B0460EE005FB080005FB06F1012738
:1087100001EB10461FFA80F8B6F5803F00D3B9464A
:1087200014F8010B294600F018F80028EBDABBF129
:10873000000F05D00FB1641E00E05446CBF8004096
:10874000B9F1000F06D029F011FF02210160C81E07
:10875000BDE8F09F48EA0640FAE73A2800D23038F0
:1087600020F02002412A01D3A2F13700884201D330
:108770004FF0FF30704770B58C1810F8015B15F0A2
:10878000070301D110F8013B2A1106D110F8012B83
:1087900003E010F8016B01F8016B5B1EF9D12B07A8
:1087A00005D40023521E0DD401F8013BFAE710F85E
:1087B000013BCB1A921C03E013F8015B01F8015B4B
:1087C000521EF9D5A142D8D3002070BDF8B50D4690
:1087D0001946144606460DF08BF8054F6B46304699
:1087E000394622460DF07BFA2F600098F8BD00BF95
:1087F000140F00201CB508200121082406F068FD94
:1088000006486946CDE90040084C204603F044F98B
:108810002046082103F095F91CBD00BF01020001AC
:1088200002480821002203F090B900BF000C02406A
:10883000FEE7704770470000F8B5154E0C46054638
:108840000120314606F040FF124F0120394606F064
:1088500089FF11480021C0F806104471A0F80310E8
:108860007178B2788570F3788272C1723988037337
:10887000A0F80D10B978C17308490A8801320A803E
:10888000110A427001700120BDE8F84009F0ECBA0D
:10889000980B00209C0B0020F4C90020781F0020BA
:1088A000044A21B110F8013B01391360F9E710685F
:1088B000704700BF0030024001480121016070474D
:1088C000083002402DE9F04F8BB01422ADF8222081
:1088D000ADF82820A0F11402ADF824204FF01413B5
:1088E000ADF82620A1F114020693ADF81C20ADF8D6
:1088F0001E20022290FBF2F0634EADF82A0091FB9D
:10890000F2F0654D0DF10E0A0DF104080FF28C1B0B
:108910004FF00009ADF82000B9F1050F44D05948D7
:1089200016F04CFA002016F043FA14F087FE6FF0B0
:108930007F40B04706A830F919700DF1220030F9D8
:108940001940394620460A2215F0DCFA0020B047CB
:1089500020463946052215F0D5FA6FF07F40B04722
:1089600004F1140149A03A4615F06EF8287A28B9A6
:10897000642014F08FFF16F06BFEF7E74FF4FA70E7
:1089800014F088FFD5E900012AF81900002028F822
:108990001910287214F052FE584621463A4615F036
:1089A00053F809F10109B7E714F048FE3E4C3CA02A
:1089B000A047BDF90E803D4E40460421B0473CA083
:1089C000A047BDF904000421B0473B4FB8473BA086
:1089D000A047BDF910A004215046B04739A0A047D8
:1089E000BDF9069004214846B047B84737A0A047D4
:1089F000BDF912000421B04736A0A047BDF908B068
:108A000004215846B047B84734A0A047BDF9140028
:108A10000421B04733A0A047BDF90A000421B047A4
:108A2000B84732A0A047BDF916000421B04731A0D5
:108A3000A047BDF90C000421B047B8472FA0A047BC
:108A4000287A28B9642014F025FF16F001FEF7E714
:108A50004FF4FA7014F01EFF002000214FF4F07262
:108A60004346CDF800A016F05DFD012000214FF433
:108A700088724B46CDF800B016F054FD0BB0BDE83F
:108A8000F08F00BF08460308B5ED0108507265730A
:108A90007320686572650000F43E00204F4B0000B3
:108AA00078303A200000000049D90108FDD80108BB
:108AB000202079303A2000002DD9010878313A2061
:108AC00000000000202079313A20000078323A205E
:108AD00000000000202079323A20000078333A204C
:108AE00000000000202079333A20000078343A203A
:108AF00000000000202079343A200000506C6561AD
:108B0000736520746F75636820646973706C617934
:108B100020746F20636F6E74696E75652E2E2E0043
:108B200000220B0408BF704700F8012B0139F8E759
:108B3000002219B120F8022B0139FAE77047000032
:108B400010B544490446086810F0450FFBD04107B2
:108B50003AD4C0073DD109F035FBA0423ED140F2E6
:108B6000FF5009F0F7FA0020002409F045FB2D49D9
:108B7000084234D0002834D4410034D4810034D4A5
:108B8000C10034D4010134D4410134D4C10134D4FE
:108B9000010234D4410221D4810232D4C10232D440
:108BA000010332D4410332D4810332D4C10332D41D
:108BB000010432D4410432D481044FBF1924000788
:108BC0001A2101EAE0740AE0042009F0C3FA032440
:108BD00005E00120012409F0BDFA00E01024204640
:108BE00010BD1C24FBE70924F9E70A24F7E70B244E
:108BF000F5E70C24F3E70D24F1E70E24EFE70F244B
:108C0000EDE71124EBE71224E9E71324E7E7142446
:108C1000E5E71524E3E71624E1E71724DFE7182446
:108C2000DDE700BF08E0FFFD10B50A49086810F055
:108C3000450FFBD0410707D410F001044FF00100AD
:108C400008BF40F2FF5001E00324042009F082FA3B
:108C5000204610BD342C01402DE9FE434FF07F40EB
:108C600016F0A6F814F0EAFC4948DFF82881C0475E
:108C7000DFF824914FF0C440C847484C7820412188
:108C800040F2DB126923A047052041217322E12332
:108C9000A0470520E62140F2DB124FF48773A0477E
:108CA0003F48404900780A683F4E42F020030228BE
:108CB00008BF22F020030B60B0680227C1064FF006
:108CC000080158BF04210843B06040F60100374C4A
:108CD000CDE900070A20F02150221E23A047374D7E
:108CE00033A13062A84740F60200CDE90007872093
:108CF000F02150221E23A04731A1F061A84740F681
:108D00000300CDE900074FF48270F02150221E23AA
:108D1000A0472DA1B062A84740F60400CDE90007A6
:108D20004FF4C370F02150221E23A0477062B16837
:108D300027A2090628A158BF1146A8476FF07F4017
:108D4000C8472748C047022016F096F8254D9620C0
:108D500000210024A847274F23A0B8472648C04732
:108D60004FF6FF70C8470A200021A84723A0B84744
:108D70000A201921A84723A0B8476FF07F40C847B1
:108D8000B470B06840F48070B060BDE8FE8300BF8E
:108D900078350308BDED0108B5ED010835DF0108A0
:108DA000F70C0020240D0020780D002069B901087F
:108DB00053657474696E67730000000087BC010816
:108DC000546F6F6C73000000436F6E74726F6C00B1
:108DD000556E6C6F636B00004C6F636B000000009E
:108DE00054A8030879E10108484F54454C204E41EE
:108DF0004D45000049D901080C75030853484F52EE
:108E00005400000041424F5554000000FEB50020C0
:108E100015F0CEFF002015F0CDFF822005214FF484
:108E2000C372F02315F086F8022540F619004E4E65
:108E3000CDE900058C2032213C223C23B0474B4C2D
:108E40004C4F4BA16063B84740F61A00CDE90005CE
:108E5000C82032213C223C23B04747A1A063B84739
:108E600040F61B00CDE900054FF4827032213C2210
:108E70003C23B04741A1E063B84740F61C00CDE970
:108E800000054FF4A07032213C223C23B0473CA1A6
:108E90002064B84740F61D00CDE900058C206E2106
:108EA0003C223C23B04737A16064B84740F61E001F
:108EB000CDE90005C8206E213C223C23B04732A1F9
:108EC000A064B84740F61F00CDE900054FF482705A
:108ED0006E213C223C23B0472CA1E064B8474FF4FC
:108EE0000260CDE900054FF4A0706E213C223C23C6
:108EF000B04727A12065B84740F62100CDE900051D
:108F00008C20AA213C223C23B04722A16065B847AF
:108F100040F61800CDE90005C820AA213C223C23D8
:108F2000B0471DA12063B84740F62200CDE90005F7
:108F30004FF48270AA213C223C23B0471749A06518
:108F4000B84740F62300CDE900054FF4A070AA21F0
:108F50003C223C23B04712A1E065B847A06840F02E
:108F60002000A060FEBD00BF69B90108780D002097
:108F70003100000087BC010832000000330000000F
:108F8000340000003500000036000000370000000B
:108F9000380000003900000030000000D3B604089B
:108FA0003C42434B000000002DE9F04F87B0002009
:108FB00015F0FEFE14F042FB02214FF42560002262
:108FC000CDE90020CDE902120A200A214FF4E67211
:108FD000912319F0E1FADFF81CA2894C86A2322114
:108FE0000E23CAF81C00A047DAF81C0085A2CD2188
:108FF0000E23A047DAF81C0087A2CD210E23A0473C
:10900000DAF81C00012119F052FCDAF81C000121E9
:1090100019F04AFC4FF6DC714FF42060002502265F
:109020004FF00A0B814C0095CDE90160CDE903B109
:109030000A20B92150221E23A0477D4FDFF8F4817A
:1090400064217866C047786EDFF8EC91FA2101223E
:10905000C847786E794C0221A04740F60120CDE93F
:109060000056724DCDE9020B4FF6DC768720B92110
:1090700050221E230496A847FA210122F866C84709
:10908000F86E6421C047F86E0221A04740F6022026
:1090900000210091022102900A200191CDE90306EE
:1090A0000A20F02150221E234FF0020B4FF6DC76EF
:1090B000A847FA210122CAF80800C847DAF80800D0
:1090C0006421C047DAF808000221A04740F60320D7
:1090D0000021CDE9001B02900A20CDE9030687207C
:1090E000F02150221E234FF0020BA847FA21012243
:1090F000CAF80C00C847786E6421C047DAF80C0043
:109100000221A0470F2004214FF430620023CDE953
:10911000003B0293CDE9032105904FF48270A52115
:109120005A2200234FF000091AF074F8474C44A16A
:1091300000227867A047786F45A10122A047786F89
:1091400046A10222A047786F48A103224FF00308EE
:10915000A047786F03211AF07FF940F60500464DCD
:10916000009002264FF4C370B92150221E230196AD
:10917000A847444C41A13866A04740F60600CDE917
:1091800000064FF48270F02150221E230226A847C9
:109190003DA1CAF80400A04740F60700CDE900064B
:1091A0004FF4C370F02150221E23A8473949CAF852
:1091B0001000A047384815F001FE384C0A20A821BD
:1091C000A0473B4D36A0A8478720A821A04739A03B
:1091D000A8470A20DF21A04739A0A8478720DF2120
:1091E000A0473AA0A84787F8028087F8009007B008
:1091F000BDE8F08FF40D0020416464726573730064
:10920000FB210208486172647761726520566572BD
:1092100073696F6E000000004669726D7761726558
:109220002056657273696F6E00000000B93B02083A
:10923000780D0020A93E0208E53D0208553E0208CF
:1092400046696E64204649525354000011340208A6
:1092500046696E64204E45585400000046696E64AD
:1092600020414C4C204E45570000000046696E647A
:1092700020414C4C0000000069B901085343414EA5
:109280000000000087BC010853455420414444526B
:1092900045535300DDB704080846030879E1010887
:1092A000535441525420414444524553530000000A
:1092B00049D90108454E4420414444524553530086
:1092C0004F4C442041444452455353004E4557208F
:1092D00041444452455353002DE9FE4F00204FF0C6
:1092E000000915F065FD14F0A9F94FF47F4015F061
:1092F00061FD022140F60D00D14CCDE900010A20AC
:10930000F02150221E230227A047CE4ECE49CF4D3A
:10931000F064A847F06C1BF0B9FC40F60A00CDE9F8
:1093200000078520F02150221E23A047C849706203
:10933000A84740F60C00CDE900074FF48270F021F9
:1093400050221E23A047C349B064A84740F60B0033
:10935000CDE900074FF4C370F02150221E23A0472F
:10936000BD493062A8474FF40560CDE900900297EF
:10937000BA4F0A206E21502214234FF00208B8473A
:10938000B74D4FF47F417063A847706BB84CB5A1DF
:10939000A04740F65100CDE90090C8204121642249
:1093A0001423CDF808804FF00208B8474FF47F41EE
:1093B000B063A847B06BAF49A04740F65200CDE973
:1093C000009040F26310232160221423CDF808801E
:1093D0004FF00208B8474FF47F41F063A847DFF829
:1093E00098A2F06B5146A04740F65300CDE900909B
:1093F00040F263103C2178221423CDF808804FF00E
:109400000208B8474FF47F413064A847306C9B494D
:10941000A04740F65400CDE9009040F263106E2161
:1094200060221423CDF808804FF00208B8474FF4AB
:109430007F417064A847706C5146A0474FF410609C
:109440008F4D10248DE811010A202321642214235A
:109450004FF00209A8478B498B4F3065B847306DF4
:10946000DFF82882FA210122C04740F601108DE87A
:1094700011020A203C21642214234FF00209A8475C
:109480008349B065B847B06DFA210122C04740F664
:1094900002108DE811020A205521642214230224AF
:1094A000A8477C49A946F065B847F06DFA2101222A
:1094B000BA46C0474FF0050B40F60310CDE9000B4C
:1094C0000A20AA21322214230294A847724C734D19
:1094D000306620461021A8477148724F0188204607
:1094E000B847306E2146D047306EFA210122C0477E
:1094F00040F60410CDE9000B022002900A20C3219F
:1095000032221423C847706620461021A8476648B7
:1095100001882046B847706E2146D047706EFA2108
:1095200001225546C04740F60610CDE9000B022047
:109530000290C820AA21322214234FF0020AC84701
:109540005A49B0660131A847B06EFA210122C047DE
:1095500040F60710CDE9000B40F26310AA21322239
:109560001423CDF808A04FF0020BC8474B4AF06611
:109570002046102190474E4801882046B847F06E9B
:109580002146A847F06EFA210122C047152040F677
:109590000511CDE90010C820232178221423CDF82D
:1095A00008B0C847FA2101223067C047414815F08A
:1095B00005FC414C05200F21A0474048404DA847DD
:1095C00073202521A0473FA0A84773203E21A04734
:1095D00040A0A84773205721A04742A0A847C32016
:1095E0000F21A04742A0A8474FF4AF700F21A0471A
:1095F00042A0A8474FF4AF705A21A04742A0A84705
:1096000005209621A04743A0A8474320AD21A047AD
:1096100044A0A8474320C621A04747A0A847C3208D
:109620009621A04749A0A8474FF4AF709621A047C4
:1096300049A0A847D24880F802B0BDE8FE8F00BF1D
:1096400069B90108F40D002018B8040887BC0108A6
:10965000D3B604081DB8040803B8040881BD010886
:10966000F3BF01084448435020636C69656E740081
:10967000ABBF0108E2B704080AB80408F1B7040850
:10968000C7C20108300C0020A5C6010895C3010817
:10969000580C0020440C0020305C0120218B000875
:1096A0000C0D002025DE00080A0D002028070020F0
:1096B0002C5E01200846030879E10108B9B70408C7
:1096C00049D9010849507634204164647265737346
:1096D000000000004465662E20476174657761795B
:1096E000000000005375626E6574204D61736B005D
:1096F0004441544520262054494D45004854545077
:10970000205345525645520054465450205345521A
:1097100056455200525334383520494E544552462E
:1097200041434500496E746572666163652041641A
:10973000647265737300000042726F6164636173E9
:109740007420416464726573730000005041535388
:1097500053574F524400000053595354454D20492C
:10976000440000002DE9F04786B000204FF00008CB
:1097700015F01EFB13F062FF6FF07F4015F01AFB2F
:10978000022640F61500594FCDE90006BE200A21F9
:109790003C223C234FF00A09B847554D594C55A17E
:1097A000E860A04740F61300CDE900064FF496703C
:1097B0000A213C223C23B84753A12860A04740F629
:1097C0001700CDE900064FF4CD700A213C223C235E
:1097D000B84750A12862A0474FF40160CDE90006C8
:1097E000BE2055213C223C23B847DFF838A14EA1CA
:1097F000CAF87400A04740F61100CDE900064FF406
:10980000967055213C223C23B8474AA16860A04786
:1098100040F61200CDE900064FF4CD7055213C22F0
:109820003C23B84747A1A860A04740F61600CDE901
:1098300000064FF49670A0213C223C23B84745A176
:10984000E861A04740F61400CDE900064FF4CD7062
:10985000A0213C223C23B84741A1CAF87800A04788
:1098600043A0BE21A02214F0EFF84FF6DC7040F6C2
:109870000421CDE90086CDE902190490BE20B4216F
:10988000502228231AF098F96421CAF814001AF01B
:109890000BFBDAF8140002211AF0DCFA40F618008B
:1098A000CDE900064FF4C370F02150221E23B847C3
:1098B00032496862A0474FF43A60CDE90086CDE9AD
:1098C00002800A200A21A0224FF482731AF01DFDA3
:1098D0000121686101241AF0C5FD686901211AF0AF
:1098E000C7FDEB48847006B0BDE8F08769B9010890
:1098F000700E00207553440A46494C45204C49538C
:109900005400000087BC01085550444154450A46A4
:10991000570000004C4F41440A4354524C204C49DC
:1099200053540000F40D00204255530A5343414E56
:1099300000000000494D4147450A55504C4F4144F5
:10994000000000004649524D572E0A55504C4F41D9
:10995000440000007553440A464F524D41540000E4
:10996000444953504C41590A43414C4942522E00FC
:10997000434F4E54524F4C4C45520000DDB7040843
:10998000780D002002490968084018BF012070477F
:10999000100005500120FFF7F5BF00F001B80000EE
:1099A000014802210160704708B00240044A0029C2
:1099B00011680CBF21EA000008431060704700BF27
:1099C00000B00240B0B5654C064D2046294600F077
:1099D000E7F828B120462946BDE8B04000F01AB8A3
:1099E000B0BD00BF0088001009F0F8B95E48014919
:1099F00000F0D6B8208000207A4A02F11003984285
:109A00000B4838BFA2F580620840890054BF9060BF
:109A1000D0607047734A02F110039842044838BF7F
:109A2000A2F580620840890054BF9060D060704702
:109A30007D0F7D0F0268002942F0010308BF22F06C
:109A40000103036070470000016821F0010101601B
:109A50000021016041608160C1600161212141619B
:109A6000354988422FD03549884230D03449884220
:109A700031D03449884232D03349884233D03349D7
:109A8000884233D03249884233D03249884233D079
:109A90003149884235D03149884235D030498842F1
:109AA00036D03049884237D02F4988423AD02F49A2
:109AB00088423AD02E4988423AD02E4988423AD13B
:109AC00031483D2136E02C484FF03D5132E02E48E0
:109AD0004FF474612EE02C484FF474112AE02A48A8
:109AE0004FF0746126E02848264908E026482449BA
:109AF00005E02548214902E023484FF03D514160EF
:109B0000704721483D210AE01F484FF4746106E088
:109B10001D484FF4741102E01B484FF07461C0F807
:109B2000001470471448174904E01348144901E031
:109B30001148124901607047B86402402860024031
:109B400040600240586002407060024088600240FD
:109B5000A0600240B86002401064024028640240E5
:109B600040640240586402407064024088640240CD
:109B7000A0640240106002400C64024000003D20DE
:109B8000400F00203D0000200860024002680029CC
:109B900042F0200308BF22F020030360704700005A
:109BA000B0B5104A02F1100398420F4B38BFA2F52E
:109BB0008062194204D01E24006804EAD12401E026
:109BC000446980208D0048BF0432126803F14113BC
:109BD0001940114018BF0121204018BF0120084042
:109BE000B0BD00BF006402403C0F3C0F10B50B0637
:109BF00007D54369002A43F0800408BF23F080049E
:109C00004461802908D001F01E01002A02680CBFBF
:109C100022EA01011143016010BD000070B5026825
:109C2000124B01F10C061A400B6870CE1A43224306
:109C30008B6932431A43CB691A430B6A1A434B6A46
:109C40001A438B6A1A434B6B1A438B6B1A4302609D
:109C5000CA6A436923F007031A430B6B1A43426134
:109C600045604A6882608968C16070BD3F801CF0B1
:109C700070470000B0B5954C464D206AA847E06992
:109C8000A847A06AA847606A2946BDE8B0400847CF
:109C9000780D0020B0B58D4C3E4D206BA847606B11
:109CA000A847A06BA847E06BA847206CA847606C4A
:109CB000A847A06CA847E06CA847206DA847606D36
:109CC000A847A06DA847E06D2946BDE8B040084709
:109CD00070B52F4C2F4EE069B0477C4D686EB04791
:109CE000E86EB047A068B047E068B047686FB0471B
:109CF000286EB0476068B04720693146BDE87040C3
:109D0000084700BFB0B5224C224DE06CA847606AFE
:109D1000A847206AA847A06CA847606BA847A06B1B
:109D2000A847E06BA847206CA847606CA847206D47
:109D3000A847A06DA847E06DA847206EA847606EB1
:109D4000A847206FA847A06EA847E06E2946BDE847
:109D5000B040084770B50E4C0E4E606FB047A06F14
:109D6000B0470D4D2868B0476868B047A868B0474D
:109D7000E868B047E869B047286AB047686AB04702
:109D80006069B04768693146BDE87040084700BF68
:109D9000F40D0020A54B0208700E0020BCB514F095
:109DA000F5F9002014F0ECFF13F048FC4548464953
:109DB00000220BF045FE58B9454846490BF064FFB8
:109DC00030B9454845A101220BF060FE00286DD056
:109DD0003E48806820F010003C4C3B49A0600020C9
:109DE00000220BF02DFE012014F0CAFF4FF07F403F
:109DF00014F0DEFF13F022FC3C4813F05DFB3C48FE
:109E000019F0F2FA3B4811F027FF3B481AF014F81A
:109E100014201AF00BF86FF07F4019F0F3FA0120CC
:109E200012F0FEFB0220022515F026F86FF07F40AD
:109E300014F0C0FF314814F0C1FF78206E2140F2C9
:109E400063121923009518F0FCFE00216422E060E3
:109E500018F0CBFFE0680021002219F053F8E06809
:109E600001216FF07F4219F04DF8E068244A00218B
:109E700018F098FFE068234A012118F093FFE0688A
:109E8000022119F02FF8E0681F4918F09FFFE068E1
:109E90001EA118F0D5FFE0681D4918F0BFFFE0686B
:109EA0001BF03CFABDE8BC40FEF7D6BE0E480A499E
:109EB0000022002313F04EFA0448806840F010009E
:109EC0008AE700BF4CBC0020B6B50408780D00201E
:109ED00020BC0020B4B50408F8B9002042434B5F11
:109EE000474E442E424D5000CD870008B428030849
:109EF0001133020805BA0108713D020874610308B4
:109F000080FF8000D3D3D300E43D03083025000058
:109F1000212D02082DE9FC47DFF84C0EDFF84C7EBE
:109F200001683A690A32914201D2BDE8FC870068B3
:109F3000386115F08DFB13F0C3FFB878042800F2E8
:109F40006987DFE800F00360738E9E00786980B94E
:109F5000B86841060DD520F04001B960810604D5EE
:109F600020F06000B860FFF795FEFFF783FEFEF774
:109F700073FEB86948B9B868010606D520F08000BC
:109F8000B860FFF777FEFEF767FE09F0B9FBF869E6
:109F900011F054FE10B1387A00061CD4386A11F062
:109FA0004DFE10B1387A000621D4786A11F046FED1
:109FB000002800F01C81387A800600F11881786A48
:109FC00011F03CFE002800F0FA8215F041FB32202F
:109FD00013F060FCF3E7F86911F030FE002800F0A0
:109FE000648115F035FB322013F054FCF3E7386A36
:109FF00011F024FE002800F0EA8115F029FB322040
:10A0000013F048FCF3E7DFF8444E606F11F016FEE2
:10A01000002800F0C680606F11F010FE00285AD0B2
:10A0200015F016FB322013F035FCF4E7DFF8405E44
:10A030000120294605F096FBDFF8104E206A11F04A
:10A04000FDFDA0B3387A800631D4206A11F0F6FD08
:10A05000002800F02F8115F0FBFA322013F01AFCD3
:10A06000F3E7386E11F0EAFD002800F0AC80386E9E
:10A0700011F0E4FDA8B315F0EBFA322013F00AFC5E
:10A08000F5E7387A800640F1BD86386B11F0D6FDD1
:10A09000002800F06C82386B11F0D0FD002800F031
:10A0A0000C8115F0D5FA322013F0F4FBF3E7606A67
:10A0B00011F0C4FD002860D0387A80065DD4606A53
:10A0C00011F0BCFD002800F0008215F0C1FA32202A
:10A0D00013F0E0FBF3E7FFF73DFEFEF765FF00F04E
:10A0E00091BEDFF8D00D4FF40071FEF719FD786EC8
:10A0F00019F08BFEB866F86E19F087FE3867786F36
:10A1000019F062F9B867B7F86830B7F87010C2B2E2
:10A11000184607F09DFDDFF8344D411C02292060F0
:10A12000C0F07086B96F41F00101032940F043820D
:10A13000DFF8848D00250A26002800F06386D8F811
:10A140000010E8B231F810000422411CB8663967EB
:10A1500089B207F07DFD012802D10AF07FF803E003
:10A16000013E300604D10A262068013501382060FE
:10A17000642013F08FFB2068DEE7A06C11F05EFD19
:10A1800000287ED0387A80067BD4A06C11F056FD72
:10A19000002800F0378215F05BFA322013F07AFBCA
:10A1A000F3E7A06F11F04AFD002800F0DF82A06FF6
:10A1B00011F044FD002800F0858015F049FA3220A6
:10A1C00013F068FBF3E7DFF8846C706811F036FD7C
:10A1D000002800F0DF82706811F030FD002800F0E8
:10A1E000838015F035FA322013F054FBF3E7B86A98
:10A1F00011F024FD10B1387A000636D4DFF8D40C03
:10A20000DFF8D44C0168227801F02001022A40F0E6
:10A21000DA82002940F0EA80016840F2DB1241F066
:10A220002001016040F2B3100521412313F014FA1C
:10A23000DFF8C00C40F2B311052213F0BDFC002082
:10A2400014F01AFE002014F0B3FD4FF47F4014F018
:10A25000B1FDDFF88C0C14F0B1FD40F2BD102F21E0
:10A2600013F08AFF0FF69040D0E3B86A11F0E6FCD5
:10A27000002800F0BB8015F0EBF9322013F00AFB48
:10A28000F3E7E06C11F0DAFC002854D0387A80064D
:10A2900051D4E06C11F0D2FC002800F01A8315F0C4
:10A2A000D7F9322013F0F6FAF3E7FFF7E3FCFFF7F4
:10A2B00059FA90E004F06EFF53E1DFF8900B302183
:10A2C00000F09DBDFFF746FD4FF4F0704FF488712C
:10A2D000FEF7F8FA4FF47A7013F0DCFA13F0AEF9E7
:10A2E000FFF740FA00F08EBDDFF8C84B4FF4007165
:10A2F0002046FEF715FCB06819F087FD0146B866E8
:10A30000204603F08FFD00203867215C01300029D2
:10A31000FBD13867F06819F078FD01463060386F7E
:10A32000204403F07FFDDFF8941BD12247F2305028
:10A330000A7000F069BDA8787978814240F0758292
:10A34000254655F8500F1AF0D9FF012831D025467F
:10A3500055F8580F1AF0D2FF01282AD0254655F893
:10A360005C0F1AF0CBFF012823D0254655F8600F6B
:10A370001AF0C4FF01281CD0254655F8640F1AF0C6
:10A38000BDFF012815D0254655F8700F1AF0B6FF0D
:10A3900001280ED0254655F8680F1AF0AFFF0128A6
:10A3A00007D0254655F86C0F1AF0A8FF012840F099
:10A3B00099842868F86212F010F83871F96AE06C34
:10A3C000002900F09384BDE8FC471AF062BCFFF757
:10A3D00051FCFEF781FF47F23050C7E90500B8682D
:10A3E00040F04000B860642013F054FAB868C10728
:10A3F0000FD1810717D520F00200B860F8681AF075
:10A400008DFF78206E2140F2DB12872313F024F9B0
:10A4100009E020F00100B860F868002118F086FD1E
:10A42000F8681BF098FAB868010707D4410733D5DC
:10A43000DFF8CC5A20F01400FF2406E00221DFF8F8
:10A44000BC5A61F3C4004FF47F44B8604FF4C3704A
:10A4500005214FF4D772412313F0FEF828464FF43C
:10A46000C371052213F0A8FB002014F005FD0020A5
:10A4700014F09EFC204614F09DFCDFF8640A14F0F2
:10A480009DFC0FF6802040F28B112F2213F0DCFA96
:10A490004FF07F4014F08CFC387A80067FF545AD94
:10A4A0000020F862386B11F0C9FB002871D0386BBE
:10A4B00011F0C4FB28B115F0CBF8322013F0EAF903
:10A4C000F5E70720302100F0BCBCDFF8A8090068E0
:10A4D00044F8300FDFF8A00921460068224641F811
:10A4E000080DDFF898092346006842F8040DDFF8EC
:10A4F00090090DF087FE6068DFF88869B047DFF8E3
:10A5000088590128296821F4805208BF41F48052FB
:10A51000A0682A60B0472968012821F4006208BFBA
:10A5200041F40062E0682A60B0472968012821F4FC
:10A53000807208BF41F4807220692A60B0472968A0
:10A54000012821F4007208BF41F4007260692A609A
:10A55000B0472968012821F4806208BF41F4806275
:10A560002A60FFF7CFFBFEF777FB00F04BBC786B60
:10A5700011F064FB002800F0C181786B11F05EFBE4
:10A58000002800F0198115F063F8322013F082F9E9
:10A59000F3E7786B11F052FB002800F0BF81786B75
:10A5A00011F04CFB002800F00B8115F051F832201F
:10A5B00013F070F9F3E709F051FE00F023BC387A8C
:10A5C000000600F19881FEF721FCDFF884080521E0
:10A5D0002C30FEF7A5FA0020F8706FF07F4014F0E1
:10A5E000E9FBDFF8DC0814F0E9FB022014F044FC7E
:10A5F0000FF6D00096210F2213F026FA47F23050C2
:10A600007861ECE6DFF86C68DFF86C583068DFF8EA
:10A610006C7844F8300F2868214641F8080D3868F6
:10A62000224642F8040DDFF8580823460DF0EAFDF3
:10A630002868DFF85858DFF858982860A0200021D3
:10A6400004224FF00008C847DFF848A80F20D04781
:10A65000386804212860A0200422C8470F20D04772
:10A66000306808212860A0200422C8470F20D04766
:10A67000DFF8240810210088022200BA000C28808C
:10A68000A020C8470F20D047DFF810081421008809
:10A69000022200BA000C2880A020C8470F20D04713
:10A6A000DFF8FC071C210278A02003F005FA0F2038
:10A6B000D047DFF8F0070622B0F80110D0F8030009
:10A6C0002980C5F80200A0202021C8470F20D047CC
:10A6D000DFF8D4071A210088022200BA000C288073
:10A6E000A020C8470F20D0476068DFF89877B847A8
:10A6F000DFF894670128316821F4805208BF41F4E3
:10A700008052A0683260B8473168012821F40062A5
:10A7100008BF41F40062E0683260B8473168012840
:10A7200021F4807208BF41F4807220693260B8471A
:10A730003168012821F4007208BF41F40072606999
:10A740003260B847316885F8028021F48062A5F84C
:10A750000080012808BF41F480623260EA70A020C6
:10A7600016210422C8470F20D04753E3DFF8E056F4
:10A77000286811F063FA002800F0DF80286811F0E3
:10A780005DFA002800F03E8314F062FF322013F0DF
:10A7900081F8F3E7306911F051FA002800F0DE800B
:10A7A000306911F04BFA002800F09C8014F050FF43
:10A7B000322013F06FF8F3E7DFF8900631211EE343
:10A7C000072031213DE300293FF410AE016840F23B
:10A7D000DB1221F02001016040F2B310052141237A
:10A7E00012F03AFFDFF8F40640F2B311052213F03D
:10A7F000E3F9002014F040FB002014F0D9FAFF2008
:10A8000014F0D8FADFF8D80614F0D8FA40F2B310F2
:10A810002F2113F0B1FC2078012800F0F5800328E7
:10A8200040F0F6800FF2C460F0E0DFF880667870E8
:10A8300030462021FEF774F93A20B070707142F270
:10A840002000297830812E20307330206A78AB7850
:10A850004FF0030E0D46707443F22E206EF31F1559
:10A86000A6F80F0075701546DFF844C66EF31F1585
:10A8700035711D469CF802006EF31F15F5719CF8AA
:10A88000017005466EF31F15F5723D4609096EF31A
:10A890001F153031B573317011093031F17019095C
:10A8A000000930313030B171B07238093030707316
:10A8B000002030759CF8030001096EF31F10F0743E
:10A8C00001F13000B074206F3146BDE8FC4711F053
:10A8D000E9BEF86A002800F0D881216D884260D175
:10A8E0000120B5E1FFF7F4F9FEF73CFFD6E90501D9
:10A8F00019F0DAFA86E20020B86177E5B86B11F05A
:10A900009DF9002852D0B86B11F098F9002841D079
:10A9100014F09EFE322012F0BDFFF4E7B86B11F088
:10A920008DF9002850D0B86B11F088F9B0B314F04D
:10A930008FFE322012F0AEFFF5E7686811F07EF965
:10A94000002850D0686811F079F9002800F05A8288
:10A9500014F07EFE322012F09DFFF3E7DFF8F004E2
:10A96000102100F1320420461027FEF7D9F8F069D3
:10A9700017F0F2FE354645F8180F0246F06900213F
:10A980002346009717F08EFE20462946BDE8FC4777
:10A9900008F05CBCDFF8B404322130E20720322139
:10A9A0004FE2A16D88423FD1022051E1F86B11F0D6
:10A9B00045F9F0B3F86B11F041F970B314F048FEAB
:10A9C000322012F067FFF5E7F86B11F037F9002835
:10A9D0003FD0F86B11F032F918B314F039FE322081
:10A9E00012F058FFF5E7A86811F028F9002845D0C3
:10A9F000A86811F023F9002800F0048214F028FE62
:10AA0000322012F047FFF3E70FF2D84012F09CFF1C
:10AA10004FF07F4014F0CCF9E8E4DFF83004332144
:10AA2000EDE1072033210CE2E16D884221D10320C2
:10AA30000EE1386C11F002F9002800F08E80386CBD
:10AA400011F0FCF850B314F003FE322012F022FF94
:10AA5000F5E7386C11F0F2F8002800F08C80386CC3
:10AA600011F0ECF8F0B114F0F3FD322012F012FF07
:10AA7000F5E7216E88426BD10420E9E0E86811F027
:10AA8000DDF8002800F08580E86811F0D7F860B1A3
:10AA900014F0DEFD322012F0FDFEF5E7DFF8AC0326
:10AAA0003421ACE107203421CBE10020B8662861D5
:10AAB000DFF8A003DFF8A01300220AF0C1FF00288E
:10AAC0007FF433AADFF89403DFF894130BF0DCF87B
:10AAD0000028787140F0968168690FF28831009102
:10AAE00001210022002319F07CFCDFF8708305F1BE
:10AAF000440405F14D06A8612869214600284FF05D
:10AB0000010008BF0220B86640460BF09AF9002801
:10AB1000787140F0C38095F84D00002800F0BE80A9
:10AB200095F84C003146C0064FF0000254BF00209B
:10AB3000012019F032FC01460028286100F0AE80A7
:10AB4000BB6ED5E9050219F0ACFA13F0B9F9D3E7F9
:10AB5000616E884233D105207AE0786C11F06EF88E
:10AB600090B3786C11F06AF818B314F071FD3220CC
:10AB700012F090FEF5E7786C11F060F8A0B3786CF5
:10AB800011F05CF8C0B114F063FD322012F082FEC7
:10AB9000F5E7E86911F052F8B0B3E86911F04EF842
:10ABA000002800F02F8114F053FD322012F072FEC5
:10ABB000F3E7A648352122E10720352141E1A16EC6
:10ABC000884241D1062043E0B86C11F037F80028E4
:10ABD0006CD0B86C11F032F8002859D014F038FD60
:10ABE000322012F057FEF4E7B86C11F027F8002875
:10ABF0006AD0B86C11F022F800284CD014F028FD6F
:10AC0000322012F047FEF4E7286A11F017F8A8B9CD
:10AC1000686A11F013F800283FF487A9686A11F0F8
:10AC20000DF800286CD014F013FD322012F032FE23
:10AC3000F4E714F00DFD322012F02CFE286A10F01B
:10AC4000FDFF0028F5D1DDE0E16E884201D108204A
:10AC500060650020F8707E4806212C30FDF760FF0B
:10AC6000924D54212846FDF75BFFF86A29461822C9
:10AC700011F0D2FBFFF746F8002014F099F812F01B
:10AC8000DDFCFEF7C3F80420B8703979606DB7E0D9
:10AC90006E483621B3E007203621D2E06F4C2046C3
:10ACA0000AF01CFE20460AF019FEABE0F86C10F02A
:10ACB000C5FF48B3F86C10F0C1FFD8B114F0C8FC60
:10ACC000322012F0E7FDF5E7F86C10F0B7FF48B35B
:10ACD000F86C10F0B3FF80B114F0BAFC322012F01F
:10ACE000D9FDF5E700203871F862E06CBDE8FC475B
:10ACF00019F0CCBF5548372181E007203721A0E06B
:10AD0000FFF728F8FFF72FBC386D10F097FFE8B178
:10AD1000386D10F093FF98B114F09AFC322012F0C5
:10AD2000B9FDF5E7386D10F089FF08B3386D10F004
:10AD300085FF40B114F08CFC322012F0ABFDF5E73A
:10AD4000424838215BE0072038217AE0786D10F026
:10AD500075FF08B3786D10F071FFB8B114F078FC8E
:10AD6000322012F097FDF5E7003F0020780D00201B
:10AD7000786D10F063FFE8B1786D10F05FFF40B1BF
:10AD800014F066FC322012F085FDF5E72F483921DA
:10AD900035E00720392154E0B86D10F04FFFE8B1DD
:10ADA000B86D10F04BFF98B114F052FC322012F045
:10ADB00071FDF5E7B86D10F041FF80B3B86D10F08C
:10ADC0003DFF40B114F044FC322012F063FDF5E782
:10ADD0001E484F2113E007204F2132E0F86D10F09C
:10ADE0002DFF28B90EE014F033FC322012F052FD92
:10ADF000F86D10F023FF0028F5D114484221406D72
:10AE000003F0C4FD47F23050C7E90500B86840F0D0
:10AE10004000B8606420BDE8FC4712F03BBDF86D0F
:10AE200010F00CFF00283FF480A8F86D10F006FF2A
:10AE300028B114F00DFC322012F02CFDF5E70720AC
:10AE40004221BDE8FC4703F0A1BD00BFF40D002086
:10AE5000700E00204CBC0020B6B5040820BC0020B9
:10AE6000B4B504087553445F436172640000000088
:10AE70009C0B00202C0C0020240C0020280C00200F
:10AE8000D417012059BF0108285E0120F4C9002011
:10AE9000C1DB0008F14C01080C0D00200A0D002058
:10AEA00028580120280700202C5E0120305C01205A
:10AEB000980B00202C5901201C0D0020F90C0020BB
:10AEC000A4880308454E5445522050415353574FD0
:10AED00052440000240D0020F70C00201C510408EF
:10AEE000E85003084552524F520000002053544F7F
:10AEF000500000000851040852554E004451040807
:10AF0000305104087553440010B55A490868026866
:10AF1000002A02D40268D2051FD40268002A10D485
:10AF2000026892050DD50268D2050AD44A68012448
:10AF30001060D1E90023002058609C60D2680A604C
:10AF400010BD0268002A06D4026892055CBF026840
:10AF50005FEAC25208D5002010BD49684860886881
:10AF600001308860012010BD4A6893680133936006
:10AF7000C0680860EFE700BFF0B5DFF8F8C000F187
:10AF80002004551E002644F2F45E4FF00043CCF836
:10AF90000000B2420ED0074644F8203CAE4238BF13
:10AFA000274644E907E144F8147C01F2F4512034C7
:10AFB0000136EEE7034908600CF10800CCF8040004
:10AFC000F0BD00BF0C900240F0B5EE4B541E18606F
:10AFD00000F1200300254FF48016AA420CD007464A
:10AFE00043F8206CA54238BF1F4643E9061701F21B
:10AFF000F45120330135F0E701490860F0BD00BF8E
:10B000001090024080B54FF00070012104F06CF9FF
:10B010004FF000700021BDE8804004F065B982B0B7
:10B0200001900020009001980090009810B10098C5
:10B030000138F9E702B07047EA48006800F0010003
:10B04000704700BF10B50021C0E901110949D1E9DD
:10B0500000231468C4F30D44043C04609C68022C73
:10B06000144628BF1C68A368C0E90132D068086094
:10B0700010BD00BFD80C00202DE9F04387B0044676
:10B080000020E54F069001903E6902A80D4604F0AD
:10B0900081F982480399824B0A1826F01C009A42D3
:10B0A00002D840F0080015E07E4A7F4B0A449A42DD
:10B0B00002D840F00C000DE07C4A7D4B0A449A42D5
:10B0C00008D37C4A11447C4A91428CBF40F0100066
:10B0D00040F004003861284600214FF40042002669
:10B0E00000F0E0F9002800F0D180B846B94F07F52C
:10B0F0003020FFF794FF2068F0B301980121013060
:10B100000190284600F044F9400702D40198B84263
:10B11000F3D301980026B84200F0B88028460021F9
:10B120004FF48052019600F0BDF9002800F0AE8087
:10B130000198012101300190284600F029F980068C
:10B1400002D40198B842F3D301980026B84200F027
:10B150009D8028461F21019600F01AF900F01C007E
:10B16000042800F097800828464617D14FF4804005
:10B1700060610020206211E06069216A400840EAB5
:10B18000D10082B228460021002600F08BF9002869
:10B190007CD06FF07F40FFF742FF4646306847495A
:10B1A00004F1040800EA010C98E82E01D4E90670C5
:10B1B00041EA0C0111431943294341EA0801D4F83B
:10B1C00020E039430843616A40EA0E000843A16A5F
:10B1D00004F160050843E16A04F180070843216B2C
:10B1E0000843616B08433060D4E90E010843216CC9
:10B1F0000843616C0843A16C0843E16C0843216D6E
:10B200000843616D08437060A06D4FF64171B060F6
:10B21000E06DF060B06908402ECD104340EA014077
:10B220001843216F28430843616F254A0843B061E2
:10B23000D4E91E010843F0616A488169D4E927898D
:10B2400001EA020CECCFD4E9251E42EA0C021A43B3
:10B250002A4332433A43114341EA0E0141EA0801CD
:10B2600041EA0901816104F1A4066ECED4F8B84028
:10B2700011431943294341EA8601214341F4000166
:10B2800001600168012641F080010160304607B08D
:10B29000BDE8F0830020606120627EE700D3CEFE2F
:10B2A000BFE1E40040F1E9FD3F787D0100796CFCED
:10B2B000005A6202001F0AFA7FF0FA020F8120FF93
:10B2C000233FDEF80A794B7942EA0322024BC2504F
:10B2D000096818444160704740800240F0B5DFF8CB
:10B2E000A4C0DCF800201368002B1DD440F2F553F5
:10B2F00098420CD340F2F453B0FBF3F404FB130573
:10B30000ADB2002D18BF01252C44012C0ED11368BD
:10B310006FF35F3043F0405313605060106840F0AB
:10B3200000401060D56821E00020F0BD164D661E7B
:10B3300014FB0500002700F2F4506FF35F30154650
:10B34000A74213D21FB9116841F080511160BE426B
:10B350006B6004D1296841F0005129606860296858
:10B36000013741F000412960ED68E9E70748CCF872
:10B3700000500169490703D50421016100210160E2
:10B380000120F0BD1C2000200CFAFFFF04900240B9
:10B3900081B0002200924FF4F86202EA811160F35A
:10B3A000CF215048026802F01C02114401310160B3
:10B3B0004D49009A013200920268D20702D0009AE9
:10B3C0008A42F6D3009A8A4214BF4068002080B2B5
:10B3D00001B07047FFFF04000248016841F001011D
:10B3E00001607047009002400B48016841F008017D
:10B3F00001600A490A6842F480120A60026842F059
:10B4000004020260086840F400500860086840F0D8
:10B4100002000860704700BF0080024018900240A0
:10B4200070B504464FF400610025012021624FF4FD
:10B430008041C4E90005C4E90255C4E9045104F19E
:10B4400024001C21C4E90655FCF7F3FE202040210E
:10B45000C4E9101004F148001C21FCF7EAFE80202A
:10B46000606604F168001821FCF7E3FE4FF4001059
:10B470004FF000764FF08061C4E92016C4E92250F5
:10B4800004F190001421FCF7D4FE4FF400504FF467
:10B4900080014FF48032C4E92962C4E92B10C4E969
:10B4A0002D5570BD18B5002300930E4B1C685A60D3
:10B4B0004FF4F86202EA811160F3CF2104F01C001E
:10B4C0000844033018600848009901310091196858
:10B4D000C90702D000998142F6D30099081A18BF13
:10B4E000012018BD10800240FFFF040080B501203C
:10B4F00000F018F820B10120BDE8804000F00EB83F
:10B5000080BD80B54FF4006000F00CF828B14FF416
:10B510000060BDE8804000F001B880BD04490860CB
:10B52000704700BF02490968084018BF01207047F2
:10B53000143C014010B582791549E2B102680B68EC
:10B5400093430B604B6893434B6003790B431C6838
:10B5500022431A6002688B6893438B60CB689343E5
:10B56000CB60407910280ED1886810438860C86885
:10B570001043C86010BD0279006811430A6822EACE
:10B580000000086010BD084301681143016010BD50
:10B59000003C0140094A102809D0B0F5805F05D071
:10B5A000B0F5807F14BFF432203200E040321068E2
:10B5B0000840401AB0FA80F040097047640000A0CB
:10B5C00010B590E80E006FF01F04C06804EB431341
:10B5D0001143194341EA40200149086010BD00BFF2
:10B5E000500100A02DE9F047D0E900643B49D0E9C3
:10B5F00002A7D0E9049ED0E9068351F82620056A07
:10B6000047F6FF7C2B4322EA0C021C43224342EA0A
:10B610000A023A4342EA090242EA0E02456A42EA53
:10B62000080242EA050456B143EA05020B6823EA20
:10B630000C031A430A60026841F8224000E00C60E3
:10B64000D0F800E0846A01F1080C5CF82E60A36871
:10B65000D4E900576FF0FF0202EB03226FF00F03F3
:10B6600003EB0713013D2B4343EA020506F0704646
:10B67000BEF1000F1AD0D4E9032C6469184B51F8BD
:10B68000087F03EB0453174C04EB023207F07044BD
:10B6900022431A43144B0A6045EA060203EB0C43AB
:10B6A00000681A4341F82020BDE8F0870C3445EAD1
:10B6B00006001ECC0B4D05EB013108430A4901EB96
:10B6C00002410843064901EB03510843611E40EA69
:10B6D00001604CF82E00BDE8F08700BF400100A0DB
:10B6E0000000F0FF00F0FFFF0000FFFF02490A68C2
:10B6F00042EA400008607047540100A010B586B0CF
:10B700004FF40010012103F007FE0220012103F095
:10B71000DFFD1A481A4C0590C020049004A9204669
:10B7200000F0BAF920460621042200F0F6F920467E
:10B730000721042200F0F1F94FF48040ADF80C002D
:10B74000002002900F48A4F5D83401900E486946B5
:10B750000090204602F0F2FA2046012102F057F84C
:10B760004FF47A7009F0C4FA70200021002200F032
:10B7700029F900F0ADF806B010BD00BF02020101CA
:10B78000000402400000FFBFA08601002DE9FE4F2B
:10B79000002BCDE9012000F09180BD4E8B46304654
:10B7A00001219A4602F09EFABA486FF4405481464D
:10B7B0003046494602F0A8FA10B90134F8D37DE0CA
:10B7C000BAF10101304618BF012102F017F80299C1
:10B7D0003046002202F011FB6FF4405409F10105DC
:10B7E00048463046294602F08FFA10B90134F8D3A2
:10B7F00064E0308B6FF4405709F17F0448463046CF
:10B80000214602F081FA10B90137F8D356E03046EC
:10B81000594602F0FAFA6FF4405809F1030B484612
:10B820003046214602F070FA20B13046594602F007
:10B830006BFA18B918F10108F2D33FE03046012144
:10B8400002F050FA6FF440543046494602F05CFA78
:10B8500010B90134F8D331E002993046012202F0E8
:10B86000CCFA6FF440543046294602F04DFA10B934
:10B870000134F8D322E0308B002509F13F0455450F
:10B880001ED005F10108D04507D33046002101F054
:10B89000B5FF3046012102F02EFA6FF440573046D2
:10B8A000214602F031FA10B90137F8D306E03046EC
:10B8B00002F0A0FA019948554546E0E7BDE8FE8F41
:10B8C0003046012103B0BDE8F04F01F097BF00BF43
:10B8D000B0B588B06C4620462021FCF7AAFC712048
:10B8E000002122461F23FFF751FF9DF80200B549B2
:10B8F00010F00F00087562D0421E042A5FD8DFE8FE
:10B9000002F04B39271503009DF813209DF81430E1
:10B910009DF8154002F00F029DF8165043EA0222EE
:10B920000A8204F00F0245EA02224A829DF80F20A3
:10B930009DF810309DF8114002F00F029DF8125052
:10B9400043EA02228A8104F00F0245EA0222CA81F8
:10B950009DF80B209DF80C309DF80D4002F00F0271
:10B960009DF80E5043EA02220A8104F00F0245EAD4
:10B9700002224A819DF807209DF808309DF8094071
:10B9800002F00F029DF80A5043EA02228A8004F076
:10B990000F0245EA0222CA809DF803209DF8043078
:10B9A0009DF8054002F00F029DF8065043EA02227E
:10B9B0000A8004F00F0245EA02224A8000E00020DB
:10B9C00008B0B0BD2DE9F843314C90468946054694
:10B9D0006FF4405720464FF4003102F095F910B152
:10B9E0000137F7D34CE02046012102F07BF9294FC3
:10B9F0006FF440562046394602F086F910B90136F8
:10BA0000F8D33DE020462946002202F0F6F96FF413
:10BA100040567D1C2046294602F076F910B90136C1
:10BA2000F8D32DE0208B6FF4405607F17F052046B8
:10BA3000294602F069F910B90136F8D320E0204612
:10BA4000494602F0E2F96FF440562046294602F0DA
:10BA50005BF910B90136F8D312E02046414602F0F6
:10BA6000D4F96FF4405603372046294602F04CF9CA
:10BA700020B12046394602F047F918B90136F3D310
:10BA8000BDE8F88320460121BDE8F84302F033B950
:10BA900000540040010000102DE9F043D1F800806F
:10BAA00000234FF0010E4FF0030C0026102E08BFAC
:10BAB000BDE8F0830EFA06F718EA070F2AD00468EB
:10BAC0000CFA03F5AC4304600C79026804FA03F93C
:10BAD00042EA09020260621EED43012A12D882681E
:10BAE0002A4082604A7991F8069084689A402243FD
:10BAF00082604268BA43426009FA06F2446892B230
:10BB000022434260C2682A40C260CA79C4689A402F
:10BB10002243C26002330136C8E7B0B51C236FF080
:10BB2000030503EA810305EA510108440F24016A71
:10BB30009C40A143016202FA03F1026A11430162CF
:10BB4000B0BD4183704701837047002A0CBF418319
:10BB5000018370477047704710B5FFF7B9FE68B1B1
:10BB6000174C40F201102081164841880088C4E932
:10BB70000010204613F0C0FD206810BD10484FF49F
:10BB80008071018113F0B8FD002010BD10B5FFF7E2
:10BB90009FFE68B10A4C40F201102081094841889B
:10BBA0000088C4E90010204613F0A6FD606810BDAF
:10BBB00003484FF48071018113F09EFD002010BDF9
:10BBC000F43E0020325E012002484FF4001111F0D3
:10BBD000C3B800BF000060D006490A6810440A6874
:10BBE0009042FCDC704700BF7047000001480068CD
:10BBF000704700BFC8200020704700002DE9F04FBB
:10BC000089B0DFF8A06D0546306800240128CDE931
:10BC100002320491089402D102F0DAFC3460DFF8B9
:10BC2000880D002D41F0DD84CC48DFF8806D4FF4A5
:10BC300000694FF4805A834600240FF674550FF6BE
:10BC40007458A0F80090A0F800A00498A0421ED05C
:10BC50000398294650F82400FCF725FB08B101346D
:10BC6000F3E70298314650F824703846FCF71BFB86
:10BC700048B138464146FCF716FB0028EFD158463C
:10BC8000ABF802A0EBE75846ABF80290E7E7DFF825
:10BC9000286DDFF828BD00270FF6245806F500753B
:10BCA00000244FF000090498844239D0039841469B
:10BCB00050F82400FCF7F7FA029A78BB3046CBF82C
:10BCC0000060A84206D2411CCBF800100770DBF8D8
:10BCD0000000F6E74FF00009B9F5007F12D052F8E6
:10BCE000240010F8090020B106F8090009F1010943
:10BCF000F2E7B9F10F0F05D1304603F061FD4FF0C7
:10BD00000F090BE03046CBF80060A84206D2411C78
:10BD1000CBF800100770DBF80000F6E70134C2E74B
:10BD200000240FF6A0450FF6A0460FF6A0480FF628
:10BD3000A04A0498A04220D00398294650F8240035
:10BD4000FCF7B1FAB8B90298314650F82470384679
:10BD5000FCF7A9FA002801F0258438464146FCF793
:10BD6000A2FA002801F0278438465146FCF79BFAD6
:10BD7000002801F029840134DBE700240FF6544544
:10BD80000498A0420AD00398294650F82400FCF7F2
:10BD90008AFA002801F0CF830134F1E7DFF8185C5C
:10BDA000002705F500784FF0000A0498824547D037
:10BDB00003980FF6244150F82A603046FCF773FAD6
:10BDC000D0B130460FF61441FCF76DFAA8BB029EC5
:10BDD000002105EB0900089109EB010202F500734F
:10BDE000994225D256F82A305C5C0CB34A1C089262
:10BDF0005B5C43541146EFE7029A2846CBF80050AB
:10BE0000404506D2411CCBF800100770DBF800005B
:10BE1000F6E70020B0F5007F06D052F82A10095C42
:10BE200011B129540130F5E72F5400F1010904E064
:10BE3000DFF8AC0BD021914601700AF1010AB4E79A
:10BE4000DFF8747B4FF0000A0FF6983407F500789E
:10BE500000250498854200F083800398214650F81D
:10BE600025603046FCF71FFA00284CD030460FF60C
:10BE70007831FCF718FAD8B330460FF67031FCF77A
:10BE800012FAA8B330460FF66831FCF70CFA78B313
:10BE900030460FF66031FCF706FA48B330460FF62D
:10BEA0005831FCF700FA18B330460FF65031FCF762
:10BEB000FAF9E8B130460FF64831FCF7F4F9B8B1B9
:10BEC00030460FF64031FCF7EEF988B130460FF6F8
:10BED0003831FCF7E8F9F0BB0298DBF8001050F8B5
:10BEE000250000780870DFF8F80AD221017032E0EE
:10BEF0000298DBF8001050F825004A1C0078CBF8B7
:10BF00000020087027E0029B3846CBF800704045BF
:10BF100007D2411CCBF8001080F800A0DBF800002D
:10BF2000F5E74FF000093846CBF8007040450DD2D8
:10BF300053F8251011F8091041B1421CCBF800202C
:10BF40000170DBF8000009F10109EFE7411CCBF8B3
:10BF5000001080F800A001357BE700BF180C0240FC
:10BF6000DFF8486A00240FF6A8250498A04211D0F3
:10BF70000398294650F82400FCF795F940B9029837
:10BF8000314650F82400FCF78EF9002801F02C838C
:10BF90000134EAE7DFF8206A00240FF6782A06F574
:10BFA00000774FF0C1080025049885422ED00398F1
:10BFB000514650F82500FCF776F9029A20BB30462E
:10BFC000CBF80060B84206D2411CCBF800100470D8
:10BFD000DBF80000F6E74FF00009B9F5007F09D063
:10BFE00052F8250010F8090020B106F8090009F1FF
:10BFF0000109F2E7DFF8200A0470DFF8200A047074
:10C00000DFF8DC0980F800800135CDE7DFF8A859BA
:10C0100000270FF60C2405F500784FF0000A04986D
:10C02000824500F0A9800398214650F82A603046E6
:10C03000FCF739F9D8B130460FF6E811FCF733F9BF
:10C04000002840F09680029E002105EB090009F5CA
:10C05000007208915318994225D256F82A305C5C38
:10C060000CB34C1C08945B5C43542146F2E7029AE3
:10C070002846CBF80050404506D2411CCBF80010B2
:10C080000770DBF80000F6E70020B0F5007F06D06F
:10C0900052F82A10095C11B129540130F5E72F54E8
:10C0A00000F1010965E02846FCF730F94FF000097E
:10C0B000019015F8090009F101090028F9D105EBF3
:10C0C0000900FCF723F9DFF86019DFF86049096817
:10C0D000DFF85C69002233889A4203D221F812709B
:10C0E0000132F8E7DDF804E00021202902D067548E
:10C0F0000131FAE7DFF83C2900211180DFF8282917
:10C1000080B2D2F800C0DFF8302913681FFA8EF42D
:10C110000022A04213D396B233F81660A64202D092
:10C1200056B10132F5E789B22CF811E0DFF80419B5
:10C130000A460988013111800EF1010EE6E7DFF8A9
:10C14000D808DFF8D8280770080417700FD0DFF878
:10C15000DC0814210170C1201070DFF8E0086321B1
:10C160000780DFF8D0080780DFF8740801700FF649
:10C17000B0040AF1010A52E7DFF83CA800270FF6E5
:10C18000C0040AF5007800250498854200F0AA80D2
:10C190000398214650F825603046FCF784F8D8B162
:10C1A00030460FF6A001FCF77EF8002840F098809A
:10C1B000029E00210AEB090009F50072089153184C
:10C1C000994227D256F825305C5C1CB34C1C08946D
:10C1D0005B5C43542146F2E7029A5046CBF800A03C
:10C1E000404506D2411CCBF800100770DBF8000078
:10C1F000F6E70020B0F5007F07D052F82510095C63
:10C2000019B10AF800100130F4E70AF8007000F1E3
:10C21000010965E05046FCF779F84FF000090190FC
:10C220001AF8090009F101090028F9D10AEB0900FF
:10C23000FCF76CF8DFF8F017DFF8F0470968DFF873
:10C24000F067002233889A4203D221F8127001323B
:10C25000F8E7DDF804E00021202902D0675401311D
:10C26000FAE7DFF8D02700211180DFF8BC2780B281
:10C27000D2F800C0DFF8C02713681FFA8EF400223E
:10C28000A04213D396B233F81660A64202D056B13C
:10C290000132F5E789B22CF811E0DFF898170A4669
:10C2A0000988013111800EF1010EE6E7DFF8680719
:10C2B000DFF868270770080417700FD0DFF86C07E5
:10C2C00015210170C2201070DFF87007632107800C
:10C2D000DFF860070780DFF8080701700FF260746D
:10C2E000013551E7DFF8D00600270FF25C7A00F540
:10C2F000007800250498854200F01081039851468B
:10C3000050F8256003223046FBF7F1FF88B3304632
:10C310000FF238710322FBF7EAFF002847D03046BE
:10C320000FF22C710322FBF7E2FF002855D03046B4
:10C330000FF220710322FBF7DAFF002866D1DFF845
:10C340007806029EDFF810E7002100EB090C09F5E2
:10C3500000720891531899425AD256F825305C5C05
:10C36000002C55D04C1C08945B5C0CF80130214625
:10C37000F0E7DFF84436029A1846CBF80030404523
:10C3800006D2411CCBF800100770DBF80000F6E77E
:10C390000020B0F5007F06D052F82510095C11B1DD
:10C3A00019540130F5E71F5400F101092EE0DFF8C0
:10C3B0000806029E00214844089109EB010202F59B
:10C3C000007399421FD256F825305C5CDCB14A1CE0
:10C3D00008925B5C43541146EFE7DFF8DC05029EF0
:10C3E00000214844089109EB010202F500739942CB
:10C3F00009D256F825305C5C2CB14A1C08925B5C73
:10C4000043541146EFE7475402F10109013571E742
:10C41000DFF84816DFF814360C680021BEF800205B
:10C42000914203D224F811700131F7E7002120294D
:10C4300002D05F540131FAE7871CFBF767FFDFF892
:10C44000781582460024085D3E46013701340028F5
:10C45000F9D10819FBF75AFFDFF85C150746085DAC
:10C46000B146013601340028F9D10819FBF74EFF17
:10C47000064619F8010B0028FBD14846FBF746FF9A
:10C48000DFF8A835F9B24FF000095FFA8AF291425D
:10C4900006D303F809A009F101090AF1010AF4E73A
:10C4A000DFF8BC2500211180DFF8B025DFF868E552
:10C4B000D2F800C0DFF88025DFF860A5136880B2ED
:10C4C000B4B20022A04212D397B233F81770A74239
:10C4D00002D057B10132F5E789B22CF81160DFF8CC
:10C4E00080150A460988013111800136E8E70020ED
:10C4F0008EF800008AF80000002708040BD0DFF84F
:10C500003C0563210780DFF858058EF8001007808E
:10C51000DFF8CC0401700FF2305A77E7DFF8985457
:10C52000002705F500784FF0000A0498824547D0AF
:10C5300003980FF2305150F82A603046FBF7B3FEF3
:10C54000D0B130460FF22051FBF7ADFEA8BB029EE2
:10C55000002105EB0900089109EB010202F50073C7
:10C56000994225D256F82A305C5C0CB34A1C0892DA
:10C570005B5C43541146EFE7029A2846CBF8005023
:10C58000404506D2411CCBF800100770DBF80000D4
:10C59000F6E70020B0F5007F06D052F82A10095CBB
:10C5A00011B129540130F5E72F5400F1010904E0DD
:10C5B000DFF82C04D721914601700AF1010AB4E793
:10C5C000DFF8F483029C00260FF2A04A08F50077FA
:10C5D00000250498854235D00398514650F825002F
:10C5E000FBF761FE60BB4046CBF80080B84206D244
:10C5F000411CCBF800100670DBF80000F6E70020C5
:10C6000041464FF00009CBF80080B9420ED254F8F1
:10C61000252012F809204AB14B1CCBF800300A70D3
:10C62000DBF80010013809F10109EEE7085C302859
:10C6300002D1FCF7F5F803E0DFF8A403D421017080
:10C640000135C6E7DFF8707300240FF2244507F5C3
:10C6500000764FF0C00A4FF000080498804532D0B1
:10C660000398294650F82800FBF71DFE029938BBB5
:10C6700051F828000FF2FC31FBF715FE002800F0FE
:10C68000C187029A3846CBF80070B04206D2411CEE
:10C69000CBF800100470DBF80000F6E74FF000095B
:10C6A000B9F5007F09D052F8280010F8090020B130
:10C6B00007F8090009F10109F2E7C94880F800A06C
:10C6C00008F10108C9E7DFF8F0A200270AF50078B1
:10C6D00000250498854267D003980FF29C3150F8EA
:10C6E00025603046FBF7DFFD08B330460FF28C3192
:10C6F000FBF7D9FDC8B330460FF28431FBF7D3FD09
:10C7000000284FD1029E00210AEB0900089109EB95
:10C71000010202F50073994240D256F825305C5C64
:10C72000E4B34A1C08925B5C43541146EFE7029A5B
:10C730005046CBF800A0404506D2411CCBF8001073
:10C740000770DBF80000F6E70020B0F5007F07D0A7
:10C7500052F82510095C19B10AF800100130F4E70D
:10C760000AF8007000F101091CE0029E00210AEBAA
:10C770000900089109EB010202F50073994209D200
:10C7800056F825305C5C2CB14A1C08925B5C435423
:10C790001146EFE7475402F1010903E09048D62122
:10C7A00091460170013594E7834F4FF0000A07F579
:10C7B000007800250498854200F0BD800398B1A15F
:10C7C00050F825603046FBF76EFDA8B33046AEA1A9
:10C7D000FBF769FD00284DD03046ACA1FBF763FDA7
:10C7E00000285DD03046AAA1FBF75DFD00286CD083
:10C7F0003046A8A1FBF757FD00287BD03046A6A104
:10C80000FBF751FD002840F08E80029E002107EBCF
:10C810000900089109EB010202F50073994280F0CA
:10C82000848056F825305C5C002C7ED04A1C08922F
:10C830005B5C43541146EDE7029A3846CBF8007032
:10C84000404507D2411CCBF8001080F800A0DBF86F
:10C850000000F5E70020B0F5007F06D052F8251063
:10C86000095C11B139540130F5E707F800A000F177
:10C87000010958E0029E002107EB0900089109EB2D
:10C88000010202F50073994249D256F825305C5CEA
:10C89000002C44D04A1C08925B5C43541146EEE7DE
:10C8A000029E002107EB0900089109EB010202F545
:10C8B0000073994233D256F825305C5C7CB34A1C35
:10C8C00008925B5C43541146EFE7029E002107EBA0
:10C8D0000900089109EB010202F5007399421ED28A
:10C8E00056F825305C5CD4B14A1C08925B5C43541A
:10C8F0001146EFE7029E002107EB0900089109EBC2
:10C90000010202F50073994209D256F825305C5CA9
:10C910002CB14A1C08925B5C43541146EFE700F8C7
:10C9200001A002F10109013544E7DFF8E40CDE2142
:10C9300091460170F7E7DFF8D45C002705F5007A2F
:10C940004FF000080498804500F0F98003980FF636
:10C95000DC4150F828603046FBF7A5FCA0B130461A
:10C960000FF6D041FBF79FFC002840F0E5802846F9
:10C97000CBF80050504580F0A180411CCBF800104E
:10C980000770DBF80000F5E72846CBF8005050456B
:10C9900080F08480411CCBF800100770DBF80000A9
:10C9A000F5E700BF54070020BAB60408A1B6040892
:10C9B0006C656400320000002C5901200818012029
:10C9C000746475006C6F6700330000003400000071
:10C9D00035000000637374007374670076616C0047
:10C9E000F90C002063646F00646F3000646F3100E5
:10C9F000646F3200646F3300646F3400646F35001D
:10CA0000646F3600646F37006374726C000000005E
:10CA10006375660063756400E00E0020CC0E002094
:10CA20006675660066756C001C0D0020F40E002013
:10CA3000120D0020020D0020380D0020040D0020F2
:10CA40006275660062756C006975660069756C00D8
:10CA500069666100696C6100160D0020200D0020E0
:10CA6000060D00206362720062720000727564003D
:10CA7000727374003000000074636100747370009E
:10CA8000746466007464610074646E0074646900A8
:10CA90007464740074626D0074627400DFF89C0B3F
:10CAA0000188284601F0BEF9029E0020B0F5007F03
:10CAB00014D0295C01300029F8D111E0DFF87C0B9B
:10CAC0000188284601F0AEF9029E0020B0F5007FF3
:10CAD0001AD0295C01300029F8D117E040F201207A
:10CAE00000222918089200EB0209B7EB592F09D14F
:10CAF00056F828309C5C2CB1541C08949B5C8B54D9
:10CB00002246F0E7852014E040F201200022291897
:10CB1000089200EB0209B7EB592F09D156F82830DB
:10CB20009C5C2CB1541C08949B5C8B542246F0E70F
:10CB30008620DFF8DC1A087008F1010802E7DFF848
:10CB4000CC5A002705F500784FF0000A049882457A
:10CB500047D003980FF6E82150F82A603046FBF7DB
:10CB6000A2FBD0B130460FF6DC21FBF79CFBA8BB43
:10CB7000029E002105EB0900089109EB010202F574
:10CB80000073994225D256F82A305C5C0CB34A1CDB
:10CB900008925B5C43541146EFE7029A2846CBF8B3
:10CBA0000050404506D2411CCBF800100770DBF85E
:10CBB0000000F6E70020B0F5007F06D052F82A10FA
:10CBC000095C11B129540130F5E72F5400F1010936
:10CBD00004E0DFF83C0ADA21914601700AF1010A0B
:10CBE000B4E7DFF8285A4FF0000A05F500764FF059
:10CBF00000080498804500F04C8103980FF6482106
:10CC000050F8287003223846FBF771FBA8B338466A
:10CC10000FF638210322FBF76AFB00284BD0384679
:10CC20000FF62C210322FBF762FB002858D0384670
:10CC30000FF620210322FBF75AFB002865D0384667
:10CC40000FF614210322FBF752FB002876D1029F36
:10CC5000002105EB0900089109EB010404F50072BD
:10CC600091426ED257F82820535C002B69D04B1CA0
:10CC70000893525C42541946EEE7029A2846CBF8D4
:10CC80000050B04207D2411CCBF8001080F800A041
:10CC9000DBF80000F5E70020B0F5007F06D052F881
:10CCA0002810095C11B129540130F5E705F800A0FE
:10CCB00000F1010942E0029F002105EB0900089103
:10CCC00009EB010202F50073994233D257F828307C
:10CCD0005C5C7CB34A1C08925B5C43541146EFE7F2
:10CCE000029F002105EB0900089109EB010202F502
:10CCF000007399421ED257F828305C5CD4B14A1CAC
:10CD000008925B5C43541146EFE7029F002105EB5C
:10CD10000900089109EB010202F50073994209D25A
:10CD200057F828305C5C2CB14A1C08925B5C435479
:10CD30001146EFE700F801A002F1010908F101082E
:10CD400057E700F801A0284608A906F07FFADFF8A7
:10CD50000C09BDF82010008888420BD14FF0000963
:10CD6000B9F5007F0CD015F8090009F10109002878
:10CD7000F6D107E0DFF89808D121A1460170DDE780
:10CD800040F2012905EB090008A906F05FFA0898AE
:10CD9000DFF8C8180880BAEB592F06D115F809003A
:10CDA00009F101090028F6D101E009F1010905EBBB
:10CDB000090008A906F04AFA0898DFF8A4180880C4
:10CDC000BAEB592F06D115F8090009F1010900281D
:10CDD000F6D101E009F1010905EB090008A906F007
:10CDE00035FA0898DFF854180880BAEB592F06D1A5
:10CDF00015F8090009F101090028F6D101E009F14F
:10CE0000010915F80900A0F130010929DFF85418CB
:10CE100088BF36200870E14806F076FBDFF83C0852
:10CE2000DFF844780088DFF8443800BA000C388016
:10CE3000A020102102229847DFF834480F20A04795
:10CE4000DFF81C08DFF824380088122100BA000C33
:10CE50003880A020022298470F20A047DFF8DC0787
:10CE6000DFF808380088142100BA000C3880A020B0
:10CE7000022298470F20A047DFF8E877A0203A78F1
:10CE80001C2100F019FE0F20A04738780EF02CFA74
:10CE900054E7DFF878574FF0000A0FF2D87405F521
:10CEA00000774FF000080498804500F09E800398BA
:10CEB000214650F828603046FBF7F5F9E0B13046DE
:10CEC0000FF2B471FBF7EFF9002840F08B80029E5F
:10CED000002105EB0900089109EB010404F500723B
:10CEE000914227D256F82820535C1BB34B1C089361
:10CEF000525C42541946EFE7029A2846CBF800509C
:10CF0000B84207D2411CCBF8001080F800A0DBF833
:10CF10000000F5E70020B0F5007F06D052F8281099
:10CF2000095C11B129540130F5E705F800A000F1C2
:10CF3000010957E000F801A0284608A906F086F983
:10CF4000DFF81807BDF820100088884243D1002080
:10CF5000B0F5007F04D0295C01300029F8D101E050
:10CF600040F20120284408A906F070F90898DFF87B
:10CF70000C1702220880DFF8F0164870000A0870CB
:10CF8000A0201A2100F01CFE0F2007F0B1FE284659
:10CF9000CBF80050B84207D2411CCBF8001080F803
:10CFA00000A0DBF80000F5E7DFF8900601882846CE
:10CFB00000F038FF0024B4F5007F04D0285D013470
:10CFC0000028F8D101E040F20124DFF8B01628195A
:10CFD000098800F027FFDFF83806D821A1460FF2B4
:10CFE0009464017008F101085DE7DFF820A64FF0B6
:10CFF000000808254FF000090498814500F02F82B1
:10D0000003980FF27C6150F8297003223846FBF731
:10D010006EF9D0B138460FF26C610322FBF767F965
:10D02000002852D038460FF260610322FBF75FF907
:10D03000002840F04981029A00200890082800F05A
:10D0400046810AF800800130F8E7029A0020089033
:10D05000082803D00AF800800130F9E70024089579
:10D06000082C0AD052F82900005DA0F130010929EE
:10D0700003D80AF804000134F2E70027504608A953
:10D080000AF8047006F0E2F80898DFF8041608972A
:10D090000870082F03D00AF807800137F9E7029BD0
:10D0A0000020089527180E2F089000F0AC8053F848
:10D0B0002910214401444978A1F13002092A00F2E3
:10D0C000A5800AF800100130ECE7029A00200890D1
:10D0D000082803D00AF800800130F9E700240895F9
:10D0E0000F2C0AD052F82900005DA0F13001092967
:10D0F00003D80AF804000134F2E70026504608A9D4
:10D100000AF8046006F0A2F80898DFF88815089677
:10D110000870082E03D00AF806800136F9E7029B52
:10D12000002027460895211801310E2908900DD8B6
:10D1300053F82910214401444978A1F13002092A09
:10D1400004D80AF8001001370130ECE70AEB0401BB
:10D15000084400244470504608A906F077F808985F
:10D16000DFF8301508944870082C03D00AF80480C2
:10D170000134F9E7029B00200890B91C0E290FD852
:10D1800053F8291039448978A1F13002092A07D8C7
:10D190000AF80010013008900137EEE70044004023
:10D1A0000AEB07040026504608A9A67006F04EF8C0
:10D1B0000898DFF8E01408968870082E03D00AF863
:10D1C00006800136F9E7029B0020089539180331E3
:10D1D0000E2908900CD853F8291039440144C97815
:10D1E000A1F13002092A03D80AF800100130EDE756
:10D1F000204480F80380504608A906F027F80898D4
:10D20000DFF890145FE00F200E2700E0781C002468
:10D210000AF80040504608A906F018F80898DFF808
:10D22000701408944870082C03D00AF80480013464
:10D23000F9E7029B0024B81C089401190E290CD8A8
:10D2400053F829100144095DA1F13002092A04D8DC
:10D250000AF8041001340894EFE7504400260655FC
:10D26000504608A905F0F2FF0898DFF82414089644
:10D270008870082E03D00AF806800136F9E7089571
:10D28000F91C029D0A19002013180E2B08900CD8C7
:10D2900055F829300B4423441B5CA3F13006092EBA
:10D2A00003D80AF800300130EEE707EB0A01214409
:10D2B000084480F80380504608A905F0C7FF089885
:10D2C000DFF8CC130825C87009F1010994E60024A1
:10D2D00008950F2C0AD052F82900005DA0F130010A
:10D2E000092903D80AF804000134F2E70026504661
:10D2F00008A90AF8046005F0A9FF0898DFF88C1364
:10D3000008960870082E03D00AF806800136F9E75F
:10D31000029B002027460895211801310E2908900C
:10D320000DD853F82910214401444978A1F1300265
:10D33000092A04D80AF8001001370130ECE70AEB9B
:10D340000401084400244470504608A905F07EFFFB
:10D350000898CE4908944870082C03D00AF8048035
:10D360000134F9E7029B00200890B91C0E290DD862
:10D3700053F8291039448978A1F13002092A05D8D7
:10D380000AF80010013008900137EEE70AEB0704B5
:10D390000026504608A9A67005F058FF0898BB491A
:10D3A00008968870082E03D00AF806800136F9E73F
:10D3B000029B00200895391803310E2908900CD8DB
:10D3C00053F8291039440144C978A1F13002092ADF
:10D3D00003D80AF800100130EDE7204480F80380FC
:10D3E000504608A905F032FFA9490898A74F0C46F6
:10D3F0000968F8700791A749BB7809687A781B0417
:10D400000691397843EA006040EA0220084405901A
:10D41000A14807A906AA05AB0AF0F4FE20689249C4
:10D42000924B0C460860A020002104221D4698471C
:10D430008F490F200E468847964804210068042231
:10D440002060A020A8470F20B0473868082120603E
:10D45000A0200422A8470F200825B04734E7002465
:10D460000FF238290AF500774FF0D9080026049802
:10D47000864224D00398494650F82600FAF713FF55
:10D48000029AD0B95046CBF800A0B84206D2411C4F
:10D49000CBF800100470DBF80000F6E70020B0F5D0
:10D4A000007F07D052F82610095C19B10AF8001065
:10D4B0000130F4E7564880F800800136D7E7534E34
:10D4C000DFF8E08100240FF2D81906F50077002577
:10D4D000049885422DD00398494650F82500FAF764
:10D4E000E2FE20BB029A3046CBF80060B84206D27A
:10D4F000411CCBF800100470DBF80000F6E70020B8
:10D50000B0F5007F06D052F82510095C11B13154F6
:10D510000130F5E7345403F021F9012805D0D8F89B
:10D52000000040F00400C8F8000002F0C7FD01351B
:10D53000CEE7354855E03548029D00F500710022E0
:10D54000CBF80000884206D2431CCBF800300270B2
:10D55000DBF80000F6E72D490020B0F5007F06D08B
:10D5600055F82420125C12B10A540130F5E72B481B
:10D57000BD21274C0160A120294D20703220294E69
:10D580002870306820F0100030603068C00624D465
:10D5900003F002FD28783228F7D0306840F0100000
:10D5A00030601DE01A48A32101701A48272101703C
:10D5B00004F0E4FA14E01648D3210170154829213B
:10D5C000017002F0EBFD0BE01148D321017011480E
:10D5D0002B21017002F040FF02E000202070287033
:10D5E0000D4809B0BDE8F08F0F480822016862F3CA
:10D5F0001F7101600A0EA020162100F05DFA0F20B5
:10D6000007F076FB01F0B2F9BAB604082C590120F4
:10D61000F90C0020540D0020B0B604082C5B01204A
:10D62000FC0C0020240D0020285E01206A726E315F
:10D63000000000006A726E32000000000A0D002037
:10D6400073627200706572007273630072736100BE
:10D650007267610072626100726962000C0D0020E5
:10D66000100D002028580120F4C90020C1DB00085B
:10D67000F14C0108736964006E6964002C5E01203E
:10D6800069706100736E6D00677761002C0C00207B
:10D69000240C0020280C0020D4170120697072008F
:10D6A00063616400800D002010B508B1002010BD3A
:10D6B00029480278282A09D02A2A18D1274B002283
:10D6C000162A0CD09C5C8C540132F9E7254B0022C1
:10D6D000B2F5007F03D09C5C8C540132F8E7262120
:10D6E00001701F48002101704FF4007010BD1E48EA
:10D6F0000278372A0AD0332AF6D11C4B0022312A6D
:10D7000025D09C18E4798C540132F8E7174A00249C
:10D7100092F833300B7092F834304B7092F8353009
:10D720008B7092F83630CB7092F837300B7192F8DC
:10D7300038304B7192F839308B7192F83A30CB71A6
:10D74000074B047092F83B001C700872CCE7002174
:10D7500001700348C7E700BF540D00207CB50408E2
:10D76000F90C00202C590120FC0C0020305B01201A
:10D7700002A4204625F06EF8FBE700BF0D0A4861C1
:10D7800072644661756C740D00000000B0B5013222
:10D7900037230C0408BFB0BD0478013925093035A2
:10D7A0009F2C88BF03EB141502F8015C10F8014BA5
:10D7B00004F00F0404F13005092C88BF04F137058B
:10D7C00015700232E5E700001FB54FF48040ADF858
:10D7D0000C004FF0806002900648F84C019006481B
:10D7E00001210090204600F012F86946204600F022
:10D7F000A5FA1FBD0000FFBFA08601000288002916
:10D8000042F4806308BF22F480630380704702887B
:10D81000002942F0010308BF22F001030380704792
:10D8200010B50E49884209D00D49884209D0E34914
:10D83000884218BF10BD4FF4800404E04FF4001478
:10D8400001E04FF400042046012101F071FD204663
:10D850000021BDE8104001F06BBD00BF0054004046
:10D86000005C0040B0B5D54C05462046012100F0D3
:10D8700042FA2046012100F0CAFA2046002100F0B9
:10D88000C6FA2046FFF7CCFFFFF79EFF2846B0BD43
:10D89000FEB51C4D2878A0BB4FF480000121012665
:10D8A00001F03AFD184F0121B86801F011FDB86987
:10D8B000012101F00DFD4FF48000012101F038FD40
:10D8C0004FF48000002101F033FD397B38680422D9
:10D8D000FEF723F9397F38690422FEF71EF90B4859
:10D8E00001AC0290B888214601903868FEF7D4F860
:10D8F000B88A214601903869FEF7CEF8FFF764FF39
:10D900002E70FEBDC420002034070020020201005A
:10D910002DE9FE4F4FF6F878002A74D0EE4D8A4676
:10D92000074628460121914600F0DCF9EB4E4FEA0C
:10D930001A2B6FF440542846314600F0E5F920B91F
:10D940000134F8D308F1070859E0B9F1010128467C
:10D9500018BF0121FFF752FF2846394600220297DF
:10D9600000F04BFA6FF44054771C2846394600F01B
:10D97000CBF920B90134F8D308F106083FE0288B31
:10D9800030466FF4405600F17F042846214600F0EF
:10D99000BBF920B90136F8D308F105082FE0284675
:10D9A0005946CDF8049000F030FACC486FF4405955
:10D9B00000F1030B2846214600F0A6F920B12846C5
:10D9C000594600F0A1F918B919F10109F2D314E090
:10D9D0005FFA8AF1284600F018FADDF804906FF437
:10D9E00040562846214600F08FF920B12846594676
:10D9F00000F08AF958B90136F3D308F104080FFA98
:10DA000088F0FFF72FFF0FFA88F0BDE8FE8F284659
:10DA1000012100F067F9B14E6FF4405428463146B9
:10DA200000F072F920B90134F8D308F10308E6E7F1
:10DA300002992846012200F0E0F96FF4405428468C
:10DA4000394600F061F920B90134F8D308F1020831
:10DA5000D5E7DFF88CA2288B002706F13F044F455D
:10DA600022D0484607F10109814507D32846002105
:10DA7000FFF7C4FE2846012100F03DF96FF440563F
:10DA80002846214600F040F910B90136F8D308E0E5
:10DA9000284600F0AFF90AF807004F46DDF8049079
:10DAA000DDE708F10108AAE728460121FFF7A6FEF5
:10DAB0004FF00008A7E700BF2DE9F047864C8A46E3
:10DAC000054620460121904600F00CF9834E4FEAAE
:10DAD0001A296FF440572046314600F015F928B94D
