:020000042000DA
:100004000000000070B503F071FD00F043F840F209
:100014001005C0F2000509EB0504201D4C2103F076
:100024004EFE40F26000C0F200004844382103F064
:1000340046FE40F29800C0F20000002649F8006035
:1000440041F20001CAF2000149F805104844C0E930
:100054000166C0E903664661204601F0DFFF022025
:100064000121102216234FF4007504F1040C8CE8CE
:100074006F00C4E907666664204601F02FFF00287C
:100084001CBF002070BD00F051F80138B0FA80F0B8
:10009400400970BD80B592B043F64000C4F202003E
:1000A400016841F080510160006800F080500690C2
:1000B400069847F20000C4F20000016841F4404190
:1000C4000160006800F44040069006984FF48030C8
:1000D40007900120069002200C904FF480010D91AE
:1000E40004210E91C821CDE90F10119006A802F049
:1000F40065FC00B1FEE701F0C5FD00B1FEE702209A
:1001040002900F200190002003904FF4A05004901F
:100114004FF48050059001A8062102F02BFE002820
:1001240004BF12B080BD00BFFEE700BFB0B58EB003
:10013400662000904FF4807006900024CDE90744B7
:1001440009940594CDE90B440D9440F21005C0F2D6
:10015400000509EB0500694641F2883201F07EFF93
:10016400B8B900F093FA01280BD19920009009EB5B
:100174000500694641F2883201F070FF18B100248D
:1001840007E0002405E000F081FA0138B0FA80F0BD
:10019400440920460EB0B0BD00BF00BFB0B5144640
:1001A40040F26002C0F20002032349F802304A44DC
:1001B4004FF480734FF48065C2E906354FF4005361
:1001C400D36020F0704050604FF08070C2E90901A4
:1001D40040F21005C0F2000509EB0500114641F29A
:1001E400883201F03BFF00281CBF0020B0BD09EBA2
:1001F4000500214641F2883202F01CF9B0FA80F081
:100204004009B0BD80B500F029F801281CBF0020CA
:1002140080BD40F26000C0F20000C72149F8001020
:1002240009EB00014FF4807000224A63C1E9052004
:10023400C1E90722C1E90922C1E90B2240F21000F9
:10024400C0F20000484441F2883201F007FFB0FADE
:1002540080F0400980BD00BF00BF00BF70B540F210
:100264006004C0F20004062049F8040009EB04010C
:100274004FF480700025C1E90550C1E907554D626E
:10028400C1E90B554D6340F21006C0F2000609EBBC
:10029400060041F2883201F0E1FE00281CBF002074
:1002A40070BD40F29800C0F20000022149F800102D
:1002B400052249F8042009EB0002012010234FF421
:1002C400800CC2E9011302F10C0181E8211009EB51
:1002D40004014FF08073C1E9093009EB060041F2D3
:1002E400883302F07BF9B0FA80F0400970BD00BF9A
:1002F40000BF00BF70B50C464FF6FF7120EA010540
:10030400A54284BF012070BD0026C0F6FF7600BF61
:1003140005EA060000F00EF801281CBF002070BD9D
:1003240005F58035A54284BF012070BDF0E700BF0C
:1003340000BF00BF10B50446FFF790FF012824D189
:1003440040F26000C0F20000D82149F8001009EB27
:1003540000014FF480704FF480624FF40053CB607F
:100364004C6000234B63C1E90530C1E90723C1E9AF
:100374000933C1E90B3340F21000C0F200004844D5
:1003840041F2883201F06AFE08B1002010BD00F08D
:100394007DF90138B0FA80F0400910BD2DE9F04D27
:1003A40082B092460C460546E6B2200A5FFA85FB07
:1003B400BBF1000F3AD0CBF58078002852D0284604
:1003C4004146524600F06EF80AEB080608EB0507B2
:1003D400A4EB08005FFA80F80021B1EB102F1CD0C9
:1003E400010A20F0FF0000F58072A2EB0B020192DB
:1003F400284400F580754C4238464FF480713246EB
:1004040000F050F8013406F5807607F58077F3D1D3
:1004140001980AEB0006A5EB0B07B8F1000F3CD0DE
:1004240038464146324600F03DF836E050B324F0F9
:10043400FF0B0BEB05084442574600BF28464FF418
:1004440080713A4600F02EF8013407F5807705F5FF
:100454008075F3D10EB30AEB0B024046314600F02F
:1004640021F81AE0464513D928464146524600F081
:1004740019F808EB0500A6EB08010AEB080200F0E6
:1004840011F80AE028462146524600F00BF804E031
:1004940028462146524600F005F8012002B0BDE886
:1004A400F08D00BF70B514460D460646FFF7D6FE24
:1004B40001282DD140F26000C0F20000022149F869
:1004C400001009EB00014FF480704FF48062C1E921
:1004D40006024FF40050C86026F0704048604FF0A8
:1004E4008070C1E9090540F21005C0F2000509EB6E
:1004F400050041F2883201F0B1FD002818BF70BD3B
:1005040009EB0500214641F2883201F0F7FE00B103
:1005140070BDBDE87040B9E000BF00BF2DE9F04DEB
:1005240082B08B4600218DF807100124B1EB820FB5
:1005340040D04FEA820A20F07046002740F260055E
:10054400C0F2000540F21008C0F20008032049F888
:10055400050009EB05014FF4807088614FF4806059
:10056400C8614FF40050C860F01948604FF08070C3
:10057400C1E9090409EB080041F2883201F06EFD7B
:1005840098B909EB08000DF1070141F2883201F036
:1005940051FF60B91BF807009DF80710814208D18C
:1005A4000137BA45D2D8012404E0002402E0002433
:1005B40000E00024204602B0BDE8F08DF0B511F053
:1005C4000303C3F104038E4618BF9E44BEF1000F1B
:1005D40046D000F00304A0EB040C002073460BE0AB
:1005E40052FA84F205F1FD0135E052FA84F151FA30
:1005F40094F205F1FE012EE0E5B2032D2CD85CF84F
:100604000040DFE805F00222191D042B1BD8CDB2EF
:10061400AEEB050616F0030715D0032EE0D0022E2C
:10062400E3D0012E17D152FA84F151FA94F151FA20
:10063400A4F205F1FF010EE002EB146209E000BF31
:1006440002EB146207E052FA84F202EB146252FAEB
:1006540094F252FAA4F20024043B04308645CBD829
:100664001046F0BD0020704700BF00BF81B000906D
:100674004FF0FF3040F62F51009A4A430130B0EB5F
:10068400821FF9D301B0704700BF00BF80B540F2AC
:100694006000C0F20000052149F8001040F2980201
:1006A400C0F20002002349F8023009EB00014FF4C4
:1006B40080704FF0807CC1E90530C1E90733C1F88F
:1006C40024C0C1E90B334B634A4401204FF0100CA2
:1006D4004FF4800EC2E9010C02F10C0C8CE80940C5
:1006E40040F21000C0F20000484441F2883301F0A7
:1006F40075FFB0FA80F0400980BD00002DE9F04597
:1007040085B043F63000C4F20200816841F0020172
:100714008160816801F002010091009950F8181C71
:1007240041F0020140F8181C50F8181C21F0020195
:1007340040F8181C016841F002010160016801F0F1
:10074400020100910099016841F002010160016811
:1007540001F0020100910099016841F0200101605B
:10076400016801F0200100910099016841F0200125
:100774000160016801F0200100910099016841F0D5
:1007840020010160016801F02001009100990168D5
:1007940041F020010160006800F020000090009802
:1007A400022001904FF04008CDF800800120029013
:1007B400032003900A27049741F20044C4F2020480
:1007C400A4F580566D463046294600F003FF00200C
:1007D4000290042000904FF0090ACDF810A0304692
:1007E400294600F0F7FE04974FF4807000902046ED
:1007F400294600F0EFFE04974FF400700090204665
:10080400294600F0E7FECDF810A080200090204695
:10081400294600F0DFFECDF810A0CDF80080204678
:10082400294600F0D7FE5C200F21002200F0C2F917
:100834005C2000F007FA05B0BDE8F085B0B541F2E0
:100844000044C4F20204A4F580552846402100F077
:1008540091FF2846042100F08DFF20464FF480715B
:1008640000F088FF20464FF4007100F083FF20461B
:10087400802100F07FFF2046402100F07BFF43F6FB
:100884001800C4F20200016841F00201016001682D
:1008940021F002010160016A21F002010162B0BD90
:1008A4000000000080B543F60040C4F20200016875
:1008B40041F400710160016841F48071016003201A
:1008C40000F064F90F20FFF7CDFE00F02FF80020B0
:1008D40080BD00BFB0B5044640F20400C0F2000081
:1008E40059F8000040F20801C0F2000159F8011063
:1008F4004FF47A72B2FBF1F1B0FBF1F000F0E2F9DF
:1009040001250F2C0DD860B900254FF0FF3021468A
:10091400002200F04FF940F20C00C0F2000049F848
:1009240000402846B0BD00BF00BF00BF704700BFF5
:1009340000BF00BF80B543F61000C4F202004FF0C0
:10094400FF31016100220261416142610160026084
:10095400416042608160826000F004F8002080BD44
:1009640000BF00BF704700BF00BF00BF40F20800D7
:10097400C0F2000059F8000040F2B001C0F20001DA
:1009840059F80120104449F80100704740F2B000C2
:10099400C0F2000059F80000704700BF40F20C009C
:1009A400C0F2000059F80000704700BF40F208018F
:1009B400C0F2000159F80120824204BF00207047B0
:1009C40049F8010040F20C00C0F2000059F80000A0
:1009D400FFF748BE40F20800C0F2000059F80000DA
:1009E400704700BFB0B50446FFF7D0FF054640F29C
:1009F4000800C0F2000059F80000611C18BF04444C
:100A0400FFF7C4FF401BA042FAD3B0BD4EF2100062
:100A1400CEF20000016821F002010160704700BFBE
:100A240000BF00BF4EF21000CEF20000016841F09A
:100A340002010160704700BF00BF00BF40F20050D8
:100A4400C0F20210704700BF00BF00BF42F20000B6
:100A5400CEF204000068000C704700BF42F20000B0
:100A6400CEF2040000686FF31F3070474FF220404D
:100A7400C1F6F0700068704700BF00BF4FF2244019
:100A8400C1F6F0700068704700BF00BF4FF2284005
:100A9400C1F6F0700068704700BF00BF42F2040066
:100AA400CEF20400016841F001010160704700BF0B
:100AB40000BF00BF42F20400CEF20400016821F03E
:100AC40001010160704700BF00BF00BF42F2040093
:100AD400CEF20400016841F002010160704700BFDA
:100AE40000BF00BF42F20400CEF20400016821F00E
:100AF40002010160704700BF00BF00BF42F2040062
:100B0400CEF20400016841F004010160704700BFA7
:100B140000BF00BF42F20400CEF20400016821F0DD
:100B240004010160704700BF00BF00BF43F620000E
:100B3400C4F20100016841F001010160704700BF87
:100B440000BF00BF43F62000C4F20100016821F099
:100B540001010160704700BF00BF00BF43F6000001
:100B6400C4F20100016841F480610160704700BF74
:100B740000BF00BF43F60000C4F20100016821F485
:100B840040610160704700000000000002E000BF07
:100B940000BF00BF4EF60C51CEF200010A684FF6BA
:100BA400FF031A4060F30A2242F0806040F0FD70B7
:100BB4000860704770B514460D46064600F00AF802
:100BC4002946224600F022F801463046BDE870402E
:100BD40008E000BF4EF60C50CEF200000068C0F3EF
:100BE4000220704700F1604202F5644200F00F03F6
:100BF4004EF6145CCEF2000C0028B8BF03EB0C02D6
:100C040008011070704700BF00BF00BF00F007006C
:100C140000F1040CC31EBCF1070F38BF002380F0A1
:100C24000700042828BF04204FF0010C0CFA00F040
:100C34000138084098400CFA03F101391140084387
:100C4400704700BF02E000BF00BF00BF00F01F01FB
:100C5400012202FA01F140094EF20012CEF2000222
:100C640042F82010704700BF00BF00BF02E000BF81
:100C740000BF00BF00F01F01012202FA01F1400988
:100C84004EF28012CEF2000242F82010704700BFEC
:100C940000BF00BF00F002F800BF00BFBFF34F8FDA
:100CA4004EF60C50CEF20000016801F4E06104221B
:100CB400C0F2FA5211430160BFF34F8F00BFFDE74A
:100CC40000BF00BF02E000BF00BF00BFB0B50138E5
:100CD4000024B4EB106F1EBF01242046B0BD4EF2B9
:100CE4001005CEF2000568604FF0FF300F21FFF7CA
:100CF40079FFAC60072028602046B0BDBFF35F8F4A
:100D04004EF62450CEF20000016821F480310160D7
:100D140000210167704700BF00BF00BF40F0010021
:100D24004EF62451CEF200010867086840F4803082
:100D34000860BFF34F8FBFF36F8F704710B54278D1
:100D44004EF69C5ECEF2000E4EF8042C0278F2B100
:100D54004368CEF80030037B42EA037290F808C07F
:100D6400437A817AC47A42EA046242EAC141427B0C
:100D740041EA8241827B41EA4241C07B41EA004030
:100D840040EA032040EA4C00CEF8040010BD0020E5
:100D9400CEF80000CEF8040010BD00BF1AE700BF73
:100DA40000BF00BF70B51C4615460E4600F026F87D
:100DB40031462A462346BDE87040FFE710B501F0EE
:100DC400070E0EF1040CAEF10304BCF1070F38BF9B
:100DD400002420FA04FC8EF00701042928BF042112
:100DE4004FF0010E0EFA01F1013901EA0C01116014
:100DF4000EFA04F101390840186010BD00F1604199
:100E040001F5644100F00F024EF61453CEF20003D4
:100E14000028B8BFD11808780009704702E000BF65
:100E240000BF00BF00F01F01012202FA01F14009D6
:100E34004EF20022CEF2000242F82010704700BFAA
:100E440000BF00BF02E000BF00BF00BF41094EF277
:100E54000022CEF2000252F8211000F01F000122FD
:100E640002FA00F0084018BF0120704702E000BFFA
:100E740000BF00BF00F01F01012202FA01F1400986
:100E84004EF28022CEF2000242F82010704700BFDA
:100E940000BF00BF02E000BF00BF00BF41094EF227
:100EA4000032CEF2000252F8211000F01F0001229D
:100EB40002FA00F0084018BF012070474EF21001FA
:100EC400CEF200010A6822F00403042808BF42F0AD
:100ED40004030B60704700BF00BF00BF00F002B8FE
:100EE40000BF00BF70470000000000002DE9F04182
:100EF4000446FFF74BFD0546002C04BF0120BDE866
:100F0400F0810220A063002060632068016821F062
:100F1400010101602668306810F0010F08D0FFF766
:100F240035FD401B0528F5D903212022032044E088
:100F3400306848F23F01CFF2100100EA010C251D90
:100F44002ECDD4E9050ED4E9077841EA0C0111430A
:100F540019432943084340EA0E00384340EA080194
:100F6400606A042816D1D4E90B2311431943316074
:100F740056F8141F21F007010843D4E90A1240EA85
:100F8400010572B1204600F01DF850B10121402244
:100F9400012012E0316056F8141F21F0070141EAE4
:100FA40000053560204600F039F8216E3F2202FA30
:100FB40001F18160012100220020A265A163BDE846
:100FC400F08100BF8269816AB2F5005F06D06AB918
:100FD400022912D0012915D0D9B90EE0032918D855
:100FE400DFE801F0020B02100120704703293CBF27
:100FF400012070471CBF0020704790F82F0000F0BC
:1010040001007047C06AA0F1C070B0FA80F04009D6
:1010140070470020704700BF00BF00BF01686FF039
:101024000F0252FA81F240F2FF3399435F2A88BFDC
:1010340041F00401C1654AF6AB23CAF6AA23A2FB18
:1010440003231A0902A39A5C02660846704700BF8C
:10105400000610160006101600BF00BFB0B5054606
:10106400002D02BF01242046B0BDA86B022802BF98
:1010740002242046B0BD2868016821F00101016006
:101084000024046044608460C460046121214161DF
:101094002846FFF7C3FF296E3F2202FA01F181605F
:1010A400AC65C5E91044C5E91244C5E914446C6350
:1010B400AC632046B0BD00BF00BF00BFB0B504465E
:1010C400606B012814D001206063A06B01280DD14E
:1010D4000220A0630025A565204600F00FF82068D3
:1010E400016841F0010101602846B0BD0020606341
:1010F40002252846B0BD00BF00BF00BF80B5D0F8B0
:1011040000C0DCF800E02EF4802ECCF800E0CCF82F
:10111400043080684028084608BF1046CCF8080010
:1011240008BF0A46CCF80C2080BD00BFB0B5044609
:10113400606B012829D0E56D01206063A06B012854
:1011440021D10220A0630020A0652046FFF7D6FF2E
:10115400206E3F2101FA00F0A8602068016841F088
:1011640016010160416941F080014161616C00290F
:101174001EBF016841F008010160016841F00101EE
:1011840001600020B0BD002060630220B0BD00BF3C
:1011940000BF00BF70B50446E66DFFF7F7FB0546D8
:1011A400A06B022825D12068016821F01601016096
:1011B400416921F080014161616C09B9E16C19B1A7
:1011C400016821F008010160016821F0010101605A
:1011D4002068006810F0010F11D0FFF7D7FB401B07
:1011E4000628F5D32020A065002060630320A063B7
:1011F40070BD002060638020A065012070BD206E5A
:101204003F2101FA00F0B0600120A0630020606378
:1012140070BD00BF816B02291FBF80218165012041
:101224007047052181630068016821F001010160B4
:10123400002070472DE9F04D82B090460D460446DB
:10124400FFF7A4FB0746A06B022826D1206800689C
:1012540010F4807F25D110200195002D08BF202097
:10126400D4E917A100FA01FBDAF8000010EA0B0F29
:101274001ED0A06D00281CBFA06D10F0010F56D128
:10128400206E0199002962D0102101FA00F0CAF8F9
:101294000800002002B0BDE8F08D002060638020CB
:1012A40001E04FF48070A065012002B0BDE8F08D2C
:1012B40008F101064FF0080C4FF0010E042500BFA1
:1012C400A06D10F0010FD4D166B1B8F1000F4AD06F
:1012D400FFF75CFB04254FF0010E4FF0080CC01B18
:1012E400404540D8DAF80000216E0CFA01F20242BF
:1012F4001FBFA36D43F00103A365CAF808200EFACB
:1013040001F202421FBFA36D43F00203A365CAF8B2
:10131400082005FA01F101421FBFA26D42F0040248
:10132400A265CAF8081010EA0B0FC9D0A1E720463D
:10133400FFF730FF206E302101FA00F0CAF80800F0
:101344000120A0630021616302B0BDE8F08D30216B
:1013540001FA00F0CAF808000120A06300206063CD
:1013640002B0BDE8F08D2020A0650020606301205C
:10137400A063032002B0BDE8F08D00BFF0B581B0DA
:1013840004460020009040F20400C0F2000059F826
:101394000020D4E9176037680821814048F2B5136A
:1013A400C1F64E33A2FB032539420DD022681368DF
:1013B40013F0040F08D0136823F004031360B16022
:1013C400A16D41F00101A16501218140394209D09B
:1013D4002268526912F0800F1FBFB160A16D41F005
:1013E4000201A16504218140394209D022681268B2
:1013F40012F0020F1FBFB160A16D41F00401A1659D
:101404001021814039421AD02068026812F0080F76
:1014140015D0B1600268016812F4802F06D1C905A5
:101424005EBF016821F00801016001E0080301D4F6
:10143400616C00E0E16C00291CBF20468847216EE6
:10144400202000FA01F23A423CD02068036813F0ED
:10145400100F37D0B260A36B0268052B1BD122F0AA
:1014640016020260426922F080024261626C0AB98B
:10147400E26C1AB1026822F0080202603F20884040
:10148400B0600120A06300206063616DD1B3204689
:10149400884701B0F0BD016852030AD4C9050CD4D1
:1014A400016821F0100101600120A0630020606345
:1014B40003E0080301D4A16C00E0216C00291CBFE7
:1014C40020468847A06DE8B1A06D10F0010F14D03C
:1014D400A80A0521A16321680A6822F001020A60B2
:1014E400009A01320092824203D80A6812F0010F76
:1014F400F6D10120A06300206063216D00291CBF88
:101504002046884701B0F0BD00BF00BF436B012BEC
:1015140002BF4FF0020C604670474FF0010CC0F858
:1015240034C0836B012B13D105290FD8DFE801F0F8
:10153400030507090B0D026408E0426406E08264B7
:1015440004E0C26402E0026500E042654FF0000C72
:10155400002141636046704700BF00BF426B012A0F
:1015640002BF02221046704701224263836B012BA3
:1015740021D1062908D8DFE801F004090C0F12155F
:1015840017000022026416E0012214E000224264E3
:1015940011E0002282640EE00022C2640BE000220B
:1015A400026508E0002205E00022C0E91022C0E93B
:1015B400122202654265002141631046704700BF54
:1015C40000BF00BF806B704700BF00BF806D7047D5
:1015D400000000002DE9F04D83B042F20042C4F255
:1015E40002020A23904208BF0923019300F13E42FC
:1015F40002F1FF724FEAB2220092002243F6004E3B
:10160400C4F2010E4FF000084FF0000A0BE000BFD7
:10161400023208F104080AF1010ABAF1100F04BFFA
:1016240003B0BDE8F08D012303FA0AF40F6817EA4A
:10163400040BEDD04F6847F01005122D13D108F0BC
:101644001C070F2303FA07F54FF6FC73C7F6FF7365
:1016540003EA5A060644336AAB430D6905FA07F7F1
:101664003B4333624F6807F00303934003269640DD
:101674000568B5432B4303606FEA060C122F16D896
:101684000123BB4013F0061F1FBF836803EA0C034A
:10169400CD6895401FBF2B438360C7F3001303FA43
:1016A4000AF31FBF456825EA040423434360C36863
:1016B40003EA0C038E6896403343C360FB00A7D54E
:1016C40043F64403C4F202031F463B6843F48043D9
:1016D4003B603B6803F4804302932AF003037344A2
:1016E400029F4FF60847CFF6FF77BC4653F80C70BD
:1016F40008F00C060F25B540AF43009C092C019D52
:1017040038BF254605FA06F6374343F80C70DEF871
:10171400003043EA0B074E6816F4803F08BF23EA03
:101724000B07CEF80070DEF8043043EA0B0716F41A
:10173400003F08BF23EA0B07CEF80470DEF8083038
:1017440043EA0B0716F4801F08BF23EA0B07CEF801
:10175400087043F60C43C4F201031D462B6843EAA8
:101764000B0716F4001F08BF23EA0B072F604FE78F
:1017740000BF00BF2DE9F04D82B042F20042C4F236
:1017840002020A23904208BF0923019300F13E425A
:1017940002F1FF724FEAB222009200224FF0010ED2
:1017A40000260024DDF800B008E000BF0432023651
:1017B4000134102C04BF02B0BDE8F08D0EFA04FA17
:1017C4001AEA0108F2D00323B34005689D4305607B
:1017D40002F01C054FF00F0E0EFA05F54FF6FC77DC
:1017E400C7F6FF7707EA54070744D7F820C02CEA66
:1017F40005053D6287689F438760476827EA0A07B3
:101804004760C76827EA0303C3604FEA940A43F6B4
:101814000043C4F20103A3F57E7757F82A3002F09F
:101824000C050EFA05FC03EA0C03BBF1090FDDF805
:1018340004E038BFDE460EFA05F54FF0010EAB4268
:10184400B4D157F82A3023EA0C0347F82A3043F678
:101854000043C4F201031F463B6823EA08033B60CC
:101864007B6823EA08037B60BB6823EA0803BB6048
:1018740043F60C43C4F201031F463B6823EA080302
:101884003B6093E70069084018BF0120704700BF20
:1018940000BF00BF002A08BF09048161704700BF70
:1018A40000BF00BF426951404161704781B04FF4AD
:1018B40080320092009A0A430092009AC261C16188
:1018C4000099C161C1690091C069012121EA1040F8
:1018D40001B0704743F61441C4F201010A680242A0
:1018E4001CBF086000F002B8704700BF70470000DA
:1018F4000000000043F62000C4F20200016841F039
:1019040080510160016821F080510160704700BF7F
:1019140000BF00BF47F20000C4F20000016841F4B8
:1019240080710160704700BF00BF00BF47F2000034
:10193400C4F20000016821F480710160704700BFA7
:1019440000BF00BF43F2004CCFF6FF7C43F60042D9
:10195400C4F2010252F80C3023F0E0030168194389
:1019640042F80C1043F60441C4F201010B6823F45D
:1019740080330B60136823F4803313604B6823F4C3
:1019840080334B608B6823F480338B60406810F4A1
:10199400803F1EBF136843F480331360820342BF49
:1019A4000A6842F480320A60C2071EBF4A6842F4E1
:1019B40080324A60800742BF886840F48030886083
:1019C400704700BF47F20000C4F20000016841F014
:1019D40010010160704700BF00BF00BF47F2000064
:1019E400C4F20000016821F010010160704700BFDB
:1019F40000BF00BF47F20801C4F200014A6800F4C6
:101A04007C531A434A606FF47C5262EA00020B680A
:101A14001A4042EA90100860704700BF47F20C0178
:101A2400C4F200010A6822EA00000860704700BF9F
:101A340000BF00BF4EF61050CEF20000026822F044
:101A440004020260BFF34F8FBFF36F8F01290FBFF2
:101A540030BF40BF20BF20BF704700BF47F2000225
:101A6400C4F20002136823F00303184310604EF617
:101A74001050CEF20000026842F004020260BFF38C
:101A84004F8FBFF36F8F012901D130BF02E040BFF8
:101A940020BF20BF016821F004010160704700BF2E
:101AA40000BF00BF47F20000C4F20000016841F02B
:101AB400020101604EF61050CEF20000016841F0C0
:101AC4000401016030BF704700BF00BF10B543F68A
:101AD4001444C4F20104206810F4803F08BF10BD10
:101AE40000F004F84FF48030206010BD704700BF50
:101AF40000BF00BF4EF61050CEF20000016841F066
:101B040002010160704700BF00BF00BF4EF61050D5
:101B1400CEF20000016821F002010160704700BFAD
:101B240000BF00BF4EF61050CEF20000016841F035
:101B340010010160704700BF00BF00BF4EF6105097
:101B4400CEF20000016821F010010160704700002E
:101B540000000000B0B547F20405C4F2000528688F
:101B640040F400702860286840F480702860FEF714
:101B74000DFF0446286810F0080F1CBF0020B0BDFC
:101B840006E000BF286810F0080F1CBF0020B0BD9D
:101B9400FEF7FCFE001BB0F57A7F84BF0320B0BDC6
:101BA400F0E700BFB0B547F20405C4F200052868A9
:101BB40020F400702860286840F480702860FEF7E4
:101BC400E5FE0446286810F0080F04BF0020B0BDED
:101BD40006E000BF286810F0080F04BF0020B0BD65
:101BE400FEF7D4FE001BB0F57A7F84BF0320B0BD9E
:101BF400F0E700BF47F20000C4F20000016841F4BE
:101C040000710160704700BF00BF00BF47F20000D1
:101C1400C4F20000016821F400710160704700BF44
:101C240000BF00BF47F20000C4F20000016841F4A5
:101C340000610160704700BF00BF00BF47F20000B1
:101C4400C4F20000016821F400610160704700BF24
:101C540000BF00BF47F20000C4F20000016841F475
:101C640080610160704700BF00BF00BF47F2000001
:101C7400C4F20000016821F480610160704700BF74
:101C840000BF00BFB0B582B043F64000C4F202000A
:101C9400016841F080510160006800F080500190BB
:101CA400019847F20005C4F20005286840F480302A
:101CB4002860FEF76BFE0446686810F4803F06D186
:101CC400FEF764FE001BB0F57A7FF5D910E02868B2
:101CD40040F400302860FEF759FE0446686810F4AA
:101CE400003F08D1FEF752FE001BB0F57A7FF5D90C
:101CF400032002B0B0BD002002B0B0BDB0B582B0C8
:101D040043F64000C4F20200016841F080510160D2
:101D1400006800F080500190019847F20005C4F279
:101D24000005286820F400302860FEF72FFE0446E2
:101D3400686810F4003F06D0FEF728FE001BB0F5DB
:101D44007A7FF5D910E0286820F480302860FEF707
:101D54001DFE0446686810F4803F08D0FEF716FEA6
:101D6400001BB0F57A7FF5D9032002B0B0BD002086
:101D740002B0B0BDF0B581B00C46054643F6400054
:101D8400C4F20200016841F080510160006800F073
:101D940080500090009847F20007C4F2000778686A
:101DA40040F440207860386840F440203860FEF702
:101DB400EDFD0646786800F44020B0F5402F08D1C8
:101DC400FEF7E4FD801BB0F57A7FF3D9032001B060
:101DD400F0BD386840F603418843284338604EF626
:101DE4001050CEF20000016841F004010160012CA2
:101DF40014BF20BF30BF016821F00401016000203E
:101E040001B0F0BD47F20000C4F20000006800F425
:101E140040407047F0B583B0044643F64000C4F236
:101E24000200016841F080510160016801F08051B5
:101E34000291029950F8380C00F00C00082802BFF7
:101E4400012003B0F0BD43F60006C4F20206306878
:101E540020F080703060FEF799FD0546306810F080
:101E6400007F05D0FEF792FD401B0228F6D92FE033
:101E740043F60000CFF6FE70315821F4404121436F
:101E84003150305800F4404001900198306840F0DF
:101E940080703060FEF77AFD054600BF3768FEF7B4
:101EA40075FD044617F0007F03D1601B0228F5D9A5
:101EB4000EE043F60405CFF6FE7500BF705910F42A
:101EC400804F08D1FEF762FD001BB0F57A7FF5D98B
:101ED400032003B0F0BD002003B0F0BD2DE9F041B4
:101EE40082B00446FEF752FD0546002C02BF0120D5
:101EF40002B0BDE8F081206C012802BF022002B0CC
:101F0400BDE8F08101202064606C48B900202064A1
:101F14002046FEF7F3FB204641F2883100F046F8F4
:101F240020680168A2686FF0FF0303EB022221F42A
:101F3400F85111430160E06C00904FF00008204616
:101F4400202100222B4600F035F830BBD4E90012E2
:101F54000B684FF62F75C0F2FF052B40E568D4E9F6
:101F640007672B4343EA026232433A430A604A68F2
:101F74004FF6FE03CFF6E0731A40D4E90437A6699E
:101F84003A4342EA034232434A600A6842F0010299
:101F94000A60C4F8488001216164C4F8408002B03A
:101FA400BDE8F081704700BF00BF00BFC164704747
:101FB40000BF00BF2DE9F04581B09A4616460F4692
:101FC400044620688068384018BF0120B04215D00C
:101FD400DDF82080B8F1000F14D008F1010500BF2E
:101FE4002DB1FEF7D3FCA0EB0A0040450AD82068C7
:101FF4008068384018BF0120B042F1D1002001B000
:10200400BDE8F08504206064A06C40F00100A06489
:10201400012001B0BDE8F08500BF00BF10B5044643
:10202400002C04BF012010BD206C012804BF022035
:1020340010BD012020642068016821F001010160C5
:102044002046FEF7FBFB0020A0646064206410BD02
:1020540000BF00BF704700BF00BF00BFF0B581B034
:1020640015460F460446FEF791FC0646206C0128EF
:1020740002BF022001B0F0BD01202064616C022087
:1020840001291ED10021A16460640095204620210D
:1020940000223346FFF78EFF98B9204639460022C6
:1020A40000F018F8786A18B101206064002008E094
:1020B400009502252046022101223346FFF77AFFCC
:1020C40018B10021216401B0F0BD2068C560EBE7C0
:1020D40000BF00BF2DE9F041D1F824E0B2F1406F18
:1020E4001FBFBEF1000F03688C6A013C18BF1C615E
:1020F400D1F818C00B6ABCF1000F25D0002B4BD0CF
:10210400D0F800808C68C8F81C4043EA0E04D1E97A
:1021140004E5CB69D1E90B67486B34433C43204366
:1021240040EA854040EA0E04002B52D04CEA0200FB
:10213400184320430B68CF6838431843C8F8140089
:10214400B2F1406F43D022E0002B4CD0D0F8008095
:102154008C68C8F81C4043EA0E07D1E904E5CB6952
:10216400D1E90B404E6B3C432043304340EA854069
:1021740040EA0E04002B54D04CEA020018432043DA
:10218400CB681843C8F81400B2F1406F1FD04868F8
:10219400C8F81800BDE8F08143EA0E07D1F814E04E
:1021A400CB69D1E90B544E6B3D432C43344344EA91
:1021B4008E44F3B34CEA02073B4323430F68CE68D3
:1021C40033433B4300684361B2F1406F25D1BDE81E
:1021D400F0814CEA02001843204309680843C8F818
:1021E4001400BDE8F081CC696CB34EEA020747EAFB
:1021F4000C073B432343D1F80CC04E69D1E90B547F
:102204004F6B2B4323433B4343EA864343EA0C038C
:1022140000684361B2F1406FD9D049688161BDE87B
:10222400F0814CEA020018432043C8F81400BDE8CA
:10223400F08142EA0C021A43224309681143006800
:102244004161BDE8F081BEF1000F08BFBDE8F08137
:1022540042EA0E0242EA0C021A4322434B69D1E9D4
:102264000B76496B3A433243114341EA8341006898
:102274004161BDE8F08100BF00BF00BFF0B581B08F
:102284000D460446FEF782FB0346206C012801D16B
:10229400022616E001202064606C01280ED100277C
:1022A400A76402206064E06C009020462021002294
:1022B400FFF780FE06463EB1276402E0002020645A
:1022C4000226304601B0F0BD686A002802BF2068CB
:1022D4000321C1600026204629460022FFF7FAFEAA
:1022E400686A18B1012060642664EAE726642068FD
:1022F400016841F440310160E3E700BF2DE9F0419A
:1023040082B0154688460446FEF740FB0646276819
:10231400206C012802BF022002B0BDE8F081012038
:102324002064606C012828D10020A064B8F1000F5B
:1023340036D01220606438690130E0623869C4F82C
:1023440024800130A062786920F04060786108E060
:10235400606A411C6162007887F82000E06A0138F5
:10236400E062E06A58B10095204604210122334618
:10237400FFF720FE0028EBD00FE0022015E00095C7
:1023840002252046022101223346FFF713FE20B91D
:102394002068C560204600F00DF80121616404E066
:1023A400A06C40F00800A06401200021216402B068
:1023B400BDE8F08170B582B00446FEF7E7FA054641
:1023C400616C002011F0020F21D0206420680168A4
:1023D40011F0040F0CD0016821F004010160E06BDE
:1023E400FEF7D8FE00281EBFA06C40F00400A064D5
:1023F4002068016841F002010160E06C009002264F
:102404002046022101222B46FFF7D4FD08B102B079
:1024140070BD2068C660E06C009020462021002238
:102424002B46FFF7C7FD002802BF0120606400208F
:1024340002B070BD2DE9F04182B0154688460446CD
:10244400FEF7A4FA06462768B869216C012902BF81
:10245400022002B0BDE8F08101212164616C0129F0
:102464002BD10021A164B8F1000F39D0222161647D
:1024740039690131A1633969C4F83080013161637C
:102484007969012262F39B617961B86109E000BF57
:1024940097F82000216B4A1C22630870A06B013856
:1024A400A063A06B58B10095204606210122334653
:1024B400FFF780FD0028EBD00FE0022015E0009527
:1024C40002252046022101223346FFF773FD20B97D
:1024D4002068C5602046FFF76DFF0121616404E0B8
:1024E400A06C40F00800A06401200021216402B027
:1024F400BDE8F0810246106C012827D00120106449
:10250400506C012820D10020906409B31223536435
:10251400D2F800C0DCF810300133D362DCF810309C
:102524005162591C9162DCF8141021F04061CCF81E
:1025340014100321CCF80C101064DCF8001041F4E2
:10254400E021CCF80010704700201064022070478E
:10255400916C41F00801916410640120704700BF40
:1025640000BF00BF80B50246D2F800E0DEF818C014
:10257400106C012828D001201064506C012821D14E
:102584000020906411B322235364DEF81030013329
:102594009363DEF810301163591C5163DEF8141094
:1025A400012363F39B61CEF81410CEF818C0032105
:1025B400CEF80C101064DEF8001041F4E021CEF8DF
:1025C400001080BD00201064022080BD916C41F099
:1025D400080191641064012080BD00BF2DE9F04121
:1025E40082B01D46174688460446FEF7CFF90646D4
:1025F400206C012802BF022002B0BDE8F081012056
:102604002064606C012832D10020A0644220606400
:1026140000952046202100223346FFF7CBFC38BB2F
:1026240020683968816279684162B968C162016869
:102634003A6921F44001114341F480010160F868D2
:10264400C8F82800204641464FF00062FFF742FDDB
:102654000095082501272046082101223346FFF76B
:10266400A9FC28B92068C5606764002000E0022046
:102674000021216402B0BDE8F08100BFF0B581B053
:1026840017460E460446FEF781F90346206C0128DE
:1026940001D1022536E001202064606C01280ED1AE
:1026A4000025A56442206064E06C0090204620214F
:1026B4000022FFF77FFC30B12564054622E00020AC
:1026C400206402251EE020683968816279684162CD
:1026D400B968C1620168D7E9042321F440011143B8
:1026E400194301600921C160F868B062204631468F
:1026F4004FF00062FFF7EEFC25642068016841F4A6
:1027040010210160284601B0F0BD00BF70B582B051
:1027140016460D460446FEF739F90346206C012897
:1027240002BF022002B070BD01202064606C012849
:1027340024D10020A06482206064E06C00902046D4
:1027440020210022FFF736FCC8B9206801687268AE
:1027540021F0080111430160082A07D1316801639F
:102764001021C160016841F48011016020462946AE
:102774004FF04062FFF7AEFC002000E00220002191
:10278400216402B070BD00BF00BF00BF704700BF2E
:1027940000BF00BF704700BF00BF00BF704700BF4D
:1027A40000BF00BF704700BF00BF00BF704700BF3D
:1027B40000BF00BF704700BF00BF00BF704700BF2D
:1027C40000BF00BF704700BF00BF00BF704700BF1D
:1027D40000BF00BF704700BF00BF00BF406C704720
:1027E40000BF00BF806C704700BF00BF026C012AAD
:1027F40002BF02210846704701220264426C012A8A
:102804000CD181606FF0FF0202EB012102681368B2
:1028140023F4F85319431160002100E0022100223F
:1028240002640846704700BF00BF00BF006800682C
:10283400C0F3042001307047000000002DE9F0418E
:10284400FEF7A4F8044643F60008C4F20208D8F8D8
:10285400000040F00100C8F8000000BFD8F80000F4
:1028640010F0020F05D1FEF791F8001B0228F5D9EC
:1028740068E0D8F8000040F08000C8F80000FEF7D7
:1028840085F805460020C8F80800D8F80870FEF757
:102894007DF8044617F00C0F0DD041F2883700BFC5
:1028A400601BB8424ED8D8F80860FEF76FF80446AB
:1028B40016F00C0FF4D1D8F8000020F45020C8F81A
:1028C400000000BFD8F80060FEF760F8054616F473
:1028D400003F03D0281B6428F4D933E0D8F8000063
:1028E40020F08070C8F80000D8F80060FEF74EF8B9
:1028F400044616F0007F03D0601B0228F4D921E0BF
:10290400D8F8000020F08060C8F80000D8F8006013
:10291400FEF73CF8054616F0006F03D0281B642828
:10292400F4D90FE0D8F8000020F08050C8F8000077
:10293400D8F8000010F0005F07D0FEF727F8401B1E
:102944006428F5D90320BDE8F08143F20000C2F207
:10295400004000F11001C8F80410C8F88400C8F859
:102964008800D8F80C0020F4FE40C8F80C00D8F811
:102974000C0040F47F00C8F80C00D8F8740020F074
:102984000100C8F87400D8F8740040F08070C8F8EA
:10299400740040F20400C0F2000042F20041C0F2B0
:1029A400F40149F800100F20FDF75CFE002818BF61
:1029B4000120BDE8F08100BF00BF00BF2DE9F04554
:1029C40081B00446002C00F06E812078C00743F6E5
:1029D400000AC4F2020A43F67007C4F202075ED08A
:1029E40057F8680C00F00C0004281DD057F8680C48
:1029F40000F00C00082804D157F86C0C10F4800F78
:102A040012D16068C0B1B0F5803F08D0DAF8001088
:102A1400B0F5A02F2BD141F48020CAF80000DAF8D9
:102A2400000040F480302AE0DAF8000010F4003F9F
:102A340035D0606898BB36E1DAF8000020F48030C5
:102A4400CAF80000DAF8000020F48020CAF8000078
:102A5400FDF79CFF054600BFDAF8000010F4003FC4
:102A64001DD0FDF793FF401B6428F5D968E121F4DC
:102A74008030CAF80000DAF8000020F48020CAF898
:102A84000000FDF783FF0546DAF8000010F4003F6C
:102A940005D1FDF77BFF401B6428F5D950E1207870
:102AA40080073AD557F8680C10F00C0F23D057F86C
:102AB400680C00F00C00082804BF57F86C0C10F4E4
:102AC400800F18D0E168DAF80000002900F0AD802A
:102AD40040F00100CAF80000FDF758FF054600BFAA
:102AE400DAF8000010F0020F0ED1FDF74FFF401B83
:102AF4000228F5D924E1DAF8000010F0020F03D01F
:102B0400E068012840F0CF80DAF80000216920F065
:102B1400F80040EAC100CAF800002078000723D575
:102B24006169786881B140F001007860FDF72EFF9B
:102B3400054600BF786810F0020F15D1FDF726FF97
:102B4400401B0228F6D9FBE020F001007860FDF775
:102B54001DFF0546786810F0020F05D0FDF716FF3B
:102B6400401B0228F6D9EBE02078400740F1928020
:102B740057F8300C10F0805F0ED157F8300C40F04D
:102B8400805047F8300C57F8300C00F0805000901B
:102B940000984FF0010801E04FF0000843F60006EA
:102BA400CFF6FE765AF8060010F4807F13D15AF857
:102BB400060040F480704AF80600FDF7E7FE05467B
:102BC4005AF8060010F4807F05D1FDF7DFFE401BA4
:102BD4006428F5D9B4E0A06858B1012805D0396853
:102BE400052835D141F004003860386840F0010010
:102BF40034E0386820F001003860386820F00400C0
:102C04003860FDF7C3FE0546386810F0020F38D06F
:102C140041F28836FDF7BAFE401BB04200F29080C4
:102C2400386810F0020FF5D12BE020F00100CAF84B
:102C34000000FDF7ABFE0546DAF8000010F0020FC5
:102C44003FF46BAFFDF7A2FE401B0228F4D977E0F6
:102C540021F001003860386820F004003860FDF786
:102C640095FE0546386810F0020F0AD141F2883605
:102C7400FDF78CFE401BB04262D8386810F0020F9A
:102C8400F6D0B8F1000F1EBF57F8300C20F080507A
:102C940047F8300CA669002E57D057F8680C00F09E
:102CA4000C00082803D1012001B0BDE8F085DAF852
:102CB400000020F08070CAF80000FDF767FE0546AA
:102CC400DAF8000000F00070022E3DD150B100BFD0
:102CD400FDF75CFE401B022832D8DAF8000010F041
:102CE400007FF5D104F11C064FCE084340EA821060
:102CF40040EA0660D9034FF6FF729143A1F5803193
:102D0400084340F0005047F86C0CDAF8000040F03B
:102D14008070CAF80000FDF739FE0446DAF80000B6
:102D240010F0007F11D100BFFDF730FE001B022818
:102D340006D8DAF80010002011F0007FF4D016E075
:102D4400032001B0BDE8F08520B9002001B0BDE842
:102D5400F08500BFFDF71AFE401B032806D2DAF8FF
:102D64000010002011F0007FF4D100E0032001B036
:102D7400BDE8F0852DE9F0410D460446002C00F035
:102D8400A68043F60807C4F20207D7F8F80300F058
:102D94000F00A8420DD2D7F8F80320F00F00284303
:102DA400C7F8F803D7F8F80300F00F00A84240F082
:102DB4008E80206810F0020F11D0410742BF39689D
:102DC40041F4E0513960010742BF396841F4604180
:102DD40039603968A26821F0F00111433960C007F5
:102DE40037D06068012808D157F8081C11F4003F57
:102DF40004BF0120BDE8F0810BE057F8081C02284D
:102E040005D189015CBF0120BDE8F08101E089079B
:102E14005DD5396821F0030108433860FDF7B6FD3C
:102E240006463868616800F00C00B0EB810F10D0E2
:102E340041F28838FDF7AAFD801B404584BF03207A
:102E4400BDE8F0813868616800F00C00B0EB810FD8
:102E5400F0D1D7F8F80300F00F00A8420CD9D7F846
:102E6400F80320F00F002843C7F8F803D7F8F80355
:102E740000F00F00A8422AD1206810F0040F05D0FA
:102E84003968E26821F4E05111433960000706D53E
:102E94003868216920F4604040EAC100386000F0DD
:102EA40019F83968C1F3031140F65862C0F2000200
:102EB4007A44515CC84040F20401C0F2000149F870
:102EC40001000F20FDF7CEFB0020BDE8F0810120BA
:102ED400BDE8F08110B543F60404C4F2020460684E
:102EE40000F00C0142F20040C0F2F400082907D0BF
:102EF400042902BF41F20020C0F27A0010BD10BDC7
:102F04002168236801F03F022168C1F3881113F49A
:102F1400800F05D1A1FB0001002300F059FE06E05B
:102F240041F20020C0F27A004843B0FBF2F021687D
:102F3400C1F30141022202EB4101B0FBF1F010BDEB
:102F440000BF00BF70B586B014460D460146002090
:102F5400C4F2020043F63006C4F20206E9B1316855
:102F640041F004013160316801F0040101910199DB
:102F7400022102914FF40071019103210491002177
:102F84000391059100F5006001A9FEF723FBE4001D
:102F940056F8280C20F0784019E0316841F001011E
:102FA4003160316801F0010101910199022102911E
:102FB4004FF4807101910321049100210391059143
:102FC40001A9FEF707FB56F8280C20F0EC6044EA50
:102FD4000501084346F8280C06B070BD43F600000E
:102FE400C4F20200016841F400210160704700BF8F
:102FF40000BF00BF43F60000C4F20200016821F4E0
:1030040000210160704700BF00BF00BF40F2040010
:10301400C0F2000059F80000704700BF80B5FFF708
:10302400F5FF43F60801C4F202010968C1F38221E5
:1030340040F6E042C0F200027A44515CC84080BDD0
:1030440000BF00BF80B5FFF7E1FF43F60801C4F2FB
:1030540002010968C1F3423140F6B842C0F20002ED
:103064007A44515CC84080BD00BF00BF0F2101609D
:1030740043F60001C4F202010A6812F4802F06BF6D
:103084000A6802F480324FF4A02242600A6802F017
:103094000102C2600A68C2F3C40202610A6F12F03C
:1030A400040F06BF0A6F02F00102052282604A6F14
:1030B40002F0010242610A68C2F3006201328261D5
:1030C4004A6802F48002C2614A6802F03F02026266
:1030D4004A68C2F3881242624A684FF4C02303EA82
:1030E400420202F50032120C82624968C1F30361A4
:1030F400C16270470F22026043F60802C4F2020262
:10310400136803F003034360136803F0F003836060
:10311400136803F4E053C360D2F800C04FF4E053E3
:1031240003EADC030361D2F8F80300F00F0008603F
:10313400704700BF10B543F60C04C4F202042068C3
:1031440010F0800F08BF10BD00F004F88020A070BC
:1031540010BD00BF70470000000000002DE9F04DD5
:1031640082B00446D4F800A043F69006C4F20206E6
:103174001AF0010F14D100235FEA0A3022D556F861
:10318400041CE06B21F44011014346F8041CB0F523
:10319400801F1CD1002701235FEACA201DD42CE024
:1031A40056F8880C20F4000046F8880C606B56F83A
:1031B400881C014346F8881CB0FA80F043095FEA92
:1031C4000A30DCD400275FEACA2006D415E0B0FA3E
:1031D40080F047095FEACA200FD556F8041C206C1A
:1031E40021F44001014346F8041CB0F5800F01D1DD
:1031F400012302E0002808BF012743F6000BC4F2B4
:10320400020B1AF0200F77D00093B84656F8500CF2
:1032140040F0805046F8500C56F8500C00F08050A6
:103224000190019843F60007CFF6FE775BF807009C
:1032340040F480704BF80700FDF7A8FB054600BF7B
:103244005BF8070010F4807F05D1FDF79FFB401B5E
:103254006428F5D960E256F8200C10F4407030D0A0
:10326400216B01F4407188422BD056F8200C56F89B
:10327400201C41F4803146F8201C56F8201C21F40F
:10328400803146F8201C20F4407046F8200C56F893
:10329400200C10F0010F14D0FDF778FB054656F80A
:1032A400200C10F0020F0CD141F28837FDF76EFBB1
:1032B400401BB84200F2308256F8200C10F0020F86
:1032C400F4D0206B4FF6FF41C0F6FF71014056F871
:1032D400882C22F4F81200F44073B3F5407F08BF41
:1032E4000A4346F8882C56F8201C6FF31F30084315
:1032F40046F8200C4746009BD4F8008018F0100FC5
:1033040076D15FEA484000F183805FEA084000F12B
:1033140089805FEAC83000F18F805FEA883000F16D
:1033240095805FEA486000F19B805FEA086000F1E5
:10333400A1805FEAC85000F1A7805FEA885000F1DD
:10334400AD805FEA485000F1B3805FEA085000F1B5
:10335400B9805FEAC84000F1BF805FEA884000F1AD
:10336400C5805FEA482000F1CB805FEA882000F145
:10337400D18018F4802F05D03068616F20F0407040
:10338400084330600AF080705FEA082106D531688E
:10339400D4F8802021F0805111433160002808BF07
:1033A400002B00F0C680DBF8000020F08060CBF832
:1033B4000000FDF7EBFA0546DBF8000010F0006FA3
:1033C40005D0FDF7E3FA401B6428F5D9A4E1206891
:1033D40010F0010F03D0616B002900F0AE800103EF
:1033E40040F1BF80E16BB1F5801F40F0BA80BEE0D0
:1033F40056F8040C20F0807046F8040CA06B56F8C4
:10340400041C084346F8040C5FEA48407FF57DAF8E
:103414003068616E20F44030084330605FEA084051
:103424007FF577AF3068A16E20F440200843306008
:103434005FEAC8307FF571AF3068E16E20F4401068
:10344400084330605FEA88307FF56BAF3068216FE6
:1034540020F44000084330605FEA48607FF565AFC0
:103464003068616C20F00300084330605FEA086054
:103474007FF55FAF3068A16C20F00C00084330602A
:103484005FEAC8507FF559AF3068E16C20F0300036
:10349400084330605FEA88507FF553AF3068216D90
:1034A40020F0C000084330605FEA48507FF54DAF1C
:1034B4003068616D20F44070084330605FEA085062
:1034C4007FF547AF3068A16D20F440600843306059
:1034D4005FEAC8407FF541AF3068E16D20F44050A9
:1034E400084330605FEA88407FF53BAF3068216E67
:1034F40020F44040084330605FEA48207FF535AF50
:103504003068A16F20F08060084330605FEA882053
:103514007FF52FAF3068E16F20F000600843306022
:10352400B1F1006F08BF012718F4802F7FF424AF96
:1035340028E7B8F1007F68D135E756F80C1C01F490
:10354400403156F80C2C02F070621143D4E9012387
:1035540041EA821141EA037146F80C1C01033FF56C
:1035640041AFC1021DD5216CB1F5800F19D156F8B8
:103574000C1C01F4403156F80C2C02F0E0421143CB
:103584006268E36841EA821141EA036146F80C1C6F
:1035940056F8041C21F01F01626A013A114346F8EF
:1035A400041CC10110D556F80C1C01F0706156F8CA
:1035B4000C2C02F0E04211436268236941EA821153
:1035C40041EA034146F80C1C80010AD5231D0FCBA8
:1035D4001B0443EA801040EA026040EA017046F8A6
:1035E4000C0CDBF8000040F08060CBF80000FDF725
:1035F400CDF90546DBF8000010F0006F05D1FDF7AA
:10360400C5F9401B6428F5D986E018F0080008BF06
:10361400002F00F08580DBF8000020F08050CBF80C
:103624000000FDF7B3F90546DBF8000010F0005F79
:1036340005D0FDF7ABF9401B6428F5D96CE0206890
:1036440010F4002F01D0E16B19B1C1021ED5216C19
:10365400E1B956F8081C01F4403156F8082C02F080
:10366400E0421143D4E9052341EA821141EA0361AE
:1036740046F8081C56F8041CA26A6FF0FF0303EB1B
:10368400022221F4F851114346F8041C810214D596
:10369400E16FB1F1006F10D156F8081C01F07061B0
:1036A40056F8082C02F0E04211436269236A41EAA9
:1036B400821141EA034146F8081C000718D556F860
:1036C400080C00F0706056F8081C01F440310843FF
:1036D4006169E26940EA811040EA027046F8080C28
:1036E40056F8040CE16A20F44030084346F8040C10
:1036F400DBF8000040F08050CBF80000FDF746F9FD
:10370400044600BFDBF8000010F0005F08D1FDF7AD
:103714003DF9001B6528F5D3032002B0BDE8F08D08
:10372400002002B0BDE8F08D00BF00BF4FF6F1717C
:10373400C0F2FF01016043F69001C4F2020151F8A6
:103744000C2CC2F38812426051F80C2CC2F30142D3
:10375400026151F80C2CC2F30362C26051F80C2CC4
:10376400C2F30272826051F8082CC2F388124261DB
:1037740051F8082CC2F30142026251F8082CC2F33A
:103784000362826151F8082CC2F30272C26151F8DB
:10379400042C02F01F02426251F8042CC2F30422EA
:1037A400826251F8042CC2F30142C26251F8042C23
:1037B40002F44012C26351F8042C02F44002026481
:1037C40051F8882C02F4000242630A6802F4403281
:1037D40042660A6802F4402282660A6802F44012D1
:1037E400C2660A6802F4400202670A6802F0030231
:1037F40042640A6802F00C0282640A6802F0300231
:10380400C2640A6802F0C00202650A6802F44072E7
:1038140042650A6802F4406282650A6802F4405212
:10382400C2650A6802F4404202660A6802F0407205
:1038340042670A6802F0806282670A6802F00062E6
:10384400C2670A6802F08052C0F8802051F8882CC0
:1038540002F4F81251F8203C03F440731A43026353
:1038640051F8041C01F0807181637047B0F5801F2A
:1038740013D0B0F5002F0ED143F60400C4F20200B9
:10388400D0F8881001F44011B1F5001F39D0B1F51A
:10389400801F3BD099B10020704743F60400C4F266
:1038A4000200D0F8881001F44001B1F5000F28D0CF
:1038B400B1F5800F2AD000291CBF00207047016891
:1038C40041F20022C0F27A0211F4800F04BF42F2E6
:1038D4000042C0F2F402016801F03F01B2FBF1F1D1
:1038E400D0F88420D0F88430C3F3881303FB01F1AB
:1038F400C2F30362B1FBF2F1D0F88800C0F30420F4
:1039040025E048F20000C0F2BB007047016841F2B4
:103914000022C0F27A0211F4800F04BF42F2004286
:10392400C0F2F402016801F03F01B2FBF1F1D0F8FA
:103934008020D0F88030C3F3881303FB01F1C2F375
:103944000362B1FBF2F1D0F8880000F01F000130EF
:10395400B1FBF0F0704700BF00BF00BF70B5044674
:1039640043F60006C4F20206306820F0806030603E
:10397400FDF70CF8054606E0FDF708F8401B64283F
:1039840084BF032070BD306810F0006FF4D194E858
:103994000F001B0443EA801040EA026040EA017011
:1039A400C6F88400306840F080603060FCF7EEFFB9
:1039B4000446306810F0006F1CBF002070BD05E0A5
:1039C400306810F0006F1CBF002070BDFCF7DEFFF4
:1039D400001B652824BF032070BDF1E7B0B543F692
:1039E4000005C4F20205286820F080602860FCF716
:1039F400CDFF0446286810F0006F04BF0020B0BD5E
:103A040006E000BF286810F0006F04BF0020B0BDBE
:103A1400FCF7BCFF001B652824BF0320B0BDF1E701
:103A240000BF00BF70B5044643F60006C4F20206A8
:103A3400306820F080503060FCF7A8FF054606E0AF
:103A4400FCF7A4FF401B642884BF032070BD3068CA
:103A540010F0005FF4D194E80F001B0443EA8010D7
:103A640040EA016040EA0270C6F88800306840F01D
:103A740080503060FCF78AFF0446306810F0005F25
:103A84001CBF002070BD05E0306810F0005F1CBF53
:103A9400002070BDFCF77AFF001B652824BF0320BB
:103AA40070BDF1E7B0B543F60005C4F2020528681D
:103AB40020F080502860FCF769FF0446286810F065
:103AC400005F04BF0020B0BD06E000BF286810F00E
:103AD400005F04BF0020B0BDFCF758FF001B652841
:103AE40024BF0320B0BDF1E7000000004EF688506B
:103AF400CEF20000016841F47001016043F6000158
:103B0400C4F202010A6842F001020A604FF0000C9C
:103B1400C1F808C00B684FF6FF72CFF6F6621A4080
:103B24000A6043F21002C2F200424A600A6822F4B8
:103B340080220A60C1F80CC04FF0006140F8801C7C
:103B4400704700BF43F60400C4F20200416801F06C
:103B54000C0241F20021C0F27A01082A07D0042A9B
:103B640020D042F20041C0F2F401002A1AE00268B7
:103B740012F4800F04BF42F20041C0F2F401026863
:103B840002F03F02B1FBF2F10268C2F3881202FBB9
:103B940001F10268C2F301424FF0020303EB420257
:103BA400B1FBF2F140F20402C0F2000249F8021043
:103BB400406859F80210C0F3031040F24613C0F2F3
:103BC40000037B44185C21FA00F049F802007047B6
:103BD40053EA020C00F069802DE9F04B4FF0000627
:103BE400002B1FBFB3FA83F503FA05F424FA05F694
:103BF4005E4012BF1643B2FA82F502FA05F4C5F12B
:103C040020051EBF22FA05FC44EA0C04203556EABE
:103C1400044C4FEA144418BF641C4FF000084FF0E2
:103C24000009904271EB030C39D3002919BFB1FA92
:103C340081F701FA07F6B0FA80F700FA07F6C7F140
:103C440020071EBF20FA07FC46EA0C062037B6FB05
:103C5400F4FCA7EB0507103F07F01F0BCBF1200680
:103C64002CFA06F60CFA0BFB44BFB3460026202FB1
:103C7400A4BF5E464FF0000B5BEA060C08BF4FF092
:103C8400010B19EB0B0948EB0608ABFB027C06FBA6
:103C940002CC0BFB03CCC01B71EB0C01C1E70B4640
:103CA400024641464846BDE8F08B13B54FF000008C
:103CB4004FF00001AFF30080BDE81C4070474FF0A7
:103CC400000200B5134694469646203922BFA0E868
:103CD4000C50A0E80C50B1F12001BFF4F7AF090774
:103CE40028BFA0E80C5048BF0CC05DF804EB890065
:103CF40028BF40F8042B08BF704748BF20F8022BA8
:103D040011F0804F18BF00F8012B7047000000002D
:103D14000000000001020304060708090000000077
:103D240001020304000000000024F400010000006C
:043D3400100000007B
:020000042000DA
:103D38005732355136345F4C4452000000000000C1
:103D4800000000000000000000000000000000006B
:103D5800000000000000000000000000000000005B
:103D6800000000000000000000000000000000004B
:103D7800000000000000000000000000000000003B
:103D8800000000000000000000000000000000002B
:103D98000000000003000000000000900000800008
:103DA80000010000FF00000080000000000001008A
:103DB80000000000000000000000000000000000FB
:103DC80000000000000000000000000000000000EB
:103DD80000000000000000000000000000000000DB
:103DE80000000000000000000000000000000000CB
:083DF8000000000000000000C3
:0400000500000000F7
:00000001FF
