:020000040800F2
:10000000A0010220DD010008212100086520000870
:100010001D210008210300087924000800000000C9
:10002000000000000000000000000000EF010008D8
:100030005903000800000000F3010008292400080B
:10004000F7010008F7010008F7010008F7010008B0
:10005000F7010008F7010008F7010008F7010008A0
:10006000F7010008F7010008F7010008F701000890
:10007000F7010008F7010008F7010008F701000880
:10008000F7010008F7010008F7010008F701000870
:10009000F7010008F7010008F7010008F701000860
:1000A000F7010008F7010008F7010008F701000850
:1000B000F7010008F7010008F7010008F701000840
:1000C000F7010008F7010008F7010008F701000830
:1000D000F7010008F7010008F7010008F701000820
:1000E000F7010008F7010008F7010008F701000810
:1000F000F7010008F7010008F7010008F701000800
:10010000F7010008F7010008F7010008F7010008EF
:10011000F7010008F7010008F7010008F7010008DF
:10012000F7010008F7010008F7010008F7010008CF
:10013000F7010008F7010008F7010008F7010008BF
:10014000F7010008F7010008F7010008F7010008AF
:10015000F7010008F7010008F7010008F70100089F
:10016000F7010008F7010008F7010008F70100088F
:10017000F7010008F7010008F7010008000000007F
:10018000F7010008F7010008F7010008F70100086F
:10019000F7010008F7010008F7010008F70100085F
:1001A000F7010008F7010008F7010008F70100084F
:1001B0001D240008F7010008F7010008F7010008F6
:1001C000F7010008F7010008DFF80CD000F02AF86A
:1001D000004800479D240008A001022006488047EF
:1001E00006480047FEE7FEE7FEE7FEE7FEE7FEE71C
:1001F000FEE7FEE7FEE7FEE72D240008C901000840
:10020000D2B201E000F8012B491EFBD27047002258
:10021000F6E710B513460A4604461946FFF7F0FF05
:10022000204610BD064C074D06E0E06840F0010393
:1002300094E8070098471034AC42F6D3FFF7C8FFA4
:100240005C2800087C280008BFB5334D85200022BB
:100250004FF080730124294641F81C0F4FF4807041
:100260004A63C1E905202D48C1E90722C1E90934E3
:10027000C1E90B2241F2883200F04FFE38B927481D
:100280000DF10F0141F2883201F028F910B1002080
:1002900004B0B0BD02F086F80028F8D09DF80F0039
:1002A0000A2141F2883261F31F1029468DF80F00B0
:1002B000812041F81C0F194800F02FFE0028E6D1DC
:1002C00016480DF10F0141F2883201F06BF9002858
:1002D000DDD1EB2000224FF4807C4FF440634FF0DF
:1002E00040740A2145F81C0F4FF40050C5E90B2259
:1002F0006A636A60C5E903020848C5E9051CC5E9E7
:100300000732C5E90942029201AA294600F0CAFF54
:100310000028BCD10120BBE710000020C000002055
:1003200000F01CB801686FF00F0240F2FF3352FA80
:1003300081F2994318235F2AB2FBF3F204A39A5C7B
:1003400088BF41F004018165C2650846704700BF5F
:10035000000610160006101670470000B0B51048D1
:10036000016821F4805101600E48203000F02BF923
:100370000D4C0E4D4FF480712046A84704F5806067
:100380008021A84704F580504FF4C041A847282099
:1003900000F076FC00F0EAF9BDE8B04000F05EBA8B
:1003A0003038024070000020000802402509000893
:1003B0003B4A0329136823F4407313604FF44073DE
:1003C00038BF0B02116819431160116821F0F80160
:1003D0001160116841EAC00040F00200106010682E
:1003E00040F480301060BFF34F8F70472C490A688B
:1003F00022F440720A600A6842F004020A600A6845
:1004000042EA002040F480300860BFF34F8F70470D
:10041000234A136823F4407313601368136013684E
:1004200043F0010313600170BFF34F8F704700BFAB
:1004300010B51B4C216821F440712160216841F402
:1004400040712160216841F0010121600260436038
:10045000BFF34F8F10BD00BFFA4A136823F44073F7
:100460001360136843F480731360136843F001034F
:1004700013600180BFF34F8F704700BFF64A1368C7
:1004800023F440731360136843F40073136013681C
:1004900043F0010313600160BFF34F8F704700BF4B
:1004A000103C02402D48016811F0020F1FBFE449C3
:1004B0008A6942F020028A61016811F0100F1FBFA3
:1004C000DF498A6942F010028A61016811F0200F49
:1004D0001FBFDB498A6942F008028A61016811F096
:1004E000400F1FBFD6498A6942F004028A61016841
:1004F00011F0800F1FBFD2498A6942F002028A615F
:10050000F2210160704700BFF8B50446F948134E68
:100510000021816100F03EFB0546671C306810F445
:10052000803F09D0002FF9D024B100F033FB401BED
:10053000A042F3D903200EE0306810F0F20F03D090
:10054000FFF7B0FF012006E0306810F0010F1CBF7C
:10055000012030600020C0B201B0F0BD0C3C024070
:1005600080B54FF01F0E4FF0010C04E0BEF1000FFC
:1005700006D0AEF1010E0CFA0EF30B42F6D001E0FC
:100580004FF0FF3E0123B3EBF20F0CD04FEAF20C19
:10059000BCF1020F13D0BCF1030F07D1BEF1060F5F
:1005A00004D9012080BDBEF10F0FFAD80068416167
:1005B000816821F0180111438160002080BDBEF1E7
:1005C000070FEED8F2E7B0B5044690B1607F022580
:1005D00002280FD0657700252068816841F001016D
:1005E000816001790571204600F03EF82577657736
:1005F00000E00125E8B2B0BD10B5044680B1607FCF
:1006000020B900202077204600F02FF802206077E4
:10061000207938B1D4E902122046FFF7A1FF40B19A
:10062000012010BD20680F494161816821F0180147
:1006300081606079002814BF20694FF0FF30216885
:1006400008618868626920F06000104388608868EB
:10065000A26920F0800010438860012060770020AC
:1006600010BD00BFB71DC1047047704770B5866DDF
:10067000044600F08FFA054694F8350002282BD185
:100680002068016821F016010160416921F08001B4
:100690004161216C09B9A16C19B1016821F008010F
:1006A0000160016821F00101016005E000F072FACB
:1006B000401B052817D82068006810F0010FF5D1FD
:1006C000E06D3F2101FA00F0B060012084F83500B0
:1006D000002084F834000EE0002084F834008020EC
:1006E0006065012007E020206065002084F8340068
:1006F000032084F83500C0B270BD90F8351002298F
:100700001FBF8021416501207047052180F8351009
:100710000068016821F00101016000207047B0B558
:10072000044628B194F83500022803D102251BE0C5
:10073000012519E020680025016821F00101016010
:100740002121056045608560C560056141612046E5
:10075000FFF7E8FDE16D3F2202FA01F18160656576
:1007600084F8345084F83550E8B2B0BD80B50948FB
:100770004FF0FF310022016102614161426101607D
:100780000260416042608160826000F077FA002080
:1007900080BD00BF103802401CB5019000F0FAF98E
:1007A000044600F0F7F90199001B8842F9D31CBDFB
:1007B0002DE9F041DFF83C8105460C4698F814001D
:1007C000012804BF0220BDE8F081012088F8140050
:1007D0004CF25030FFF798FE60BB4FF0FF30464FB1
:1007E0002060286801280BD1287BFFF7FFFD4CF221
:1007F0005030FFF789FE396821F00401396019E0B3
:10080000686806460FE0297B3046FFF7D1FD4CF2C1
:100810005030FFF779FE3968002821F07A013960FD
:1008200007D168680136A96808448642EBD30020E6
:1008300000E02660002188F81410BDE8F08100BFB8
:100840007C010020103C02402B48016841F000412F
:1008500001600020704700BF103C0240044801685E
:1008600041F0020101604CF25030FFF74DBE00BF75
:10087000143C02402DE9F041DFF8788007461E461F
:1008800014460D4698F81400012804BF0220BDE864
:10089000F081012088F814004CF25030FFF734FE4C
:1008A00010BB032F17D8DFE807F002070C11E1B2E5
:1008B0002846FFF7ADFD0EE0A1B22846FFF7CCFDBC
:1008C00009E028462146FFF7D9FD04E028462246E4
:1008D0003346FFF7ADFD4CF25030FFF715FE0649E9
:1008E0000A6822F001020A60002188F81410BDE8AD
:1008F000F08100BF7C010020103C02400648C16826
:10090000B1F1FF3FC4BF01207047044901600449B1
:1009100001600020704700BF043C0240230167458E
:10092000AB89EFCD2DE9F04F904A4FF00A094FF017
:10093000000B4FF0010C4FF00F084FF0000E002796
:1009400090428B4A08BF4FF0090902444FEAB22394
:10095000092B38BF4FEAB229864AA2F57E7A102FBA
:1009600008BFBDE8F08F0CFA07F20A423FD003231C
:1009700006680EF00C0503FA0BF4814BA64303EA5C
:10098000570306600EF01C06034408FA06F6D3F877
:1009900020C02CEA06064FF0010C1E6208FA05F68C
:1009A00009FA05F58368A343836043689343436072
:1009B000C368A343BC08C3605AF824303340AB4239
:1009C00015D15AF82430D243B3434AF82430694B46
:1009D0001E461B6813403360736813407360B3682E
:1009E0001340B360644B1E461B681A4032600BF123
:1009F000020B0EF1040E0137B1E700BF2DE9F84FED
:100A00005A4A4FF00A084FF0000C4FF001094FF01E
:100A1000000A9042564A08BF4FF0090802444FEAC4
:100A2000B223092B38BF4FEAB2280022102A08BF90
:100A3000BDE8F88F0C6809FA02F6344200F08F80A6
:100A40004D6845F01004122C10D10AF01C040F233D
:100A500003FA04FB4A4B03EA520707443D6A0B6959
:100A600025EA0B05A3402B433B624D68076803242E
:100A700005F00303122D04FA0CF403FA0CF327EA31
:100A800004076FEA040443EA0703036014D809FA71
:100A900005F313F0061F1FBF83682340CF6807FAD2
:100AA0000CF71FBF3B438360C5F3001393401FBF88
:100AB0004768B7433B434360C36823408C6804FAEC
:100AC0000CF42343C360EB0049D52C4B0AF00C0512
:100AD0000F27AF4008FA05F51C461B6843F4804316
:100AE00023602368234C03F48043A346009322F041
:100AF00003032344009C234CA6461C59BC432C43AF
:100B000043F80E40DBF800304D6843EA060415F464
:100B1000803F08BF23EA060415F4003FCBF80040ED
:100B2000DBF8043043EA060408BF23EA060415F4A0
:100B3000801FCBF80440DBF8083043EA060408BF06
:100B400023EA06040C4B15F4001FCBF808401F469F
:100B50001B6843EA060408BF23EA06043C600CF164
:100B6000020C0AF1040A013260E700BF00240240CF
:100B70000000FEBF003C01400C3C014044380240F4
:100B8000FCFFFF7F08FCFFFF002A08BF090481610A
:100B90007047000004480068704700BF02480168C1
:100BA00001310160704700BF9801002080B50748FF
:100BB000016841F400710160032000F0A3F80F20E8
:100BC00000F006F800F05BF8002080BD003C024019
:100BD00010B5044607484FF47A710068B0FBF1F095
:100BE00001F02CFA4FF0FF302146002200F068F8A7
:100BF000002010BD00000020B0B54278114D2A60E1
:100C00000278DAB143686B60037BC47A817A90F82A
:100C100008C042EA0372437A42EA046242EAC141EE
:100C2000427B41EA8241827BC07B41EA424141EA08
:100C3000004040EA032040EA4C0001E000206860E8
:100C4000A860B0BD98ED00E00B48BFF35F8F01686E
:100C500021F480310160002101677047064940F0AE
:100C600001000867086840F480300860BFF34F8FC8
:100C7000BFF36F8F704700BF24ED00E070477047EF
:100C800000280CDB00F01F010122400902FA01F1EB
:100C9000034A42F82010BFF34F8FBFF36F8F7047A6
:100CA00080E100E0002808DB00F01F01012240097C
:100CB00002FA01F1014A42F82010704700E100E019
:100CC00010B5164B1B68C3F3022E0EF1040CAEF1E7
:100CD00003048EF00703BCF1070F4FF0010C38BF7F
:100CE0000024042B28BF04230CFA03F3013B194012
:100CF0000CFA04F3013BA1401A401143BDE8104037
:100D000001F0BCBB05494FF6FF030A681A4060F3C7
:100D10000A22034810430860704700BF0CED00E052
:100D20000000FA05BCB51A481A4D016841F080511F
:100D30000160006800F0805001900198286840F43C
:100D400080302860FFF726FF0446686810F4803F73
:100D500006D1FFF71FFF001BB0F57A7FF5D910E031
:100D6000286840F400302860FFF714FF04466868E4
:100D700010F4003F07D1FFF70DFF001BB0F57A7F9D
:100D8000F5D9032000E00020C0B202B0B0BD00BF22
:100D900040380240007000407CB50446FFF7FAFE80
:100DA00094F841100546002011F0020F30D084F86D
:100DB00040002068016811F0040F0BD0016821F099
:100DC00004010160E06BFFF751FC18B1606C40F06A
:100DD00004006064206801222B460226016841F06D
:100DE000020101600221A06C0090204601F0B0FADF
:100DF00070B92068202100222B46C660A06C0090AC
:100E0000204601F0A5FA18B9012084F8410000201D
:100E100002B070BD7047000090F8411011F0020F51
:100E200025D0002180F84010082180F84110016889
:100E30000A6822F4F8120A600A6812F0040F0AD154
:100E40000220C860086840F400300860086840F07C
:100E5000020008600BE080B50A6822F004020A6014
:100E6000DF49C06B0165FFF748FCBDE8804000200A
:100E7000704700BF2DE9FC411D46174688460446D1
:100E8000FFF788FE064694F84000012801D10220B1
:100E90003FE0012084F8400094F84100012834D15B
:100EA00000202021002233466064422084F8410063
:100EB0002046009501F04CFA40BB206839688162F9
:100EC00079684162B968C16201683A6921F44001F8
:100ED00011434FF0006241F4800101604146F8681F
:100EE000C8F82800204601F047F9204608210122D1
:100EF000334600950825012701F02AFA30B9206809
:100F0000C560002084F8417000E00220002184F8D0
:100F1000401002B0BDE8F0817047F8B515460F46A5
:100F20000446FFF737FE064694F84000012801D139
:100F300002202CE0012084F84000022094F84110A7
:100F4000012921D1002100223346616484F8410047
:100F500020462021009501F0FBF9A8B9204639462A
:100F6000002201F009F9786A20B1012084F84100DB
:100F7000002009E020460221012233460095022587
:100F8000012701F0E5F920B1002184F8401001B0FB
:100F9000F0BD2068C56084F84170E9E710B50E4CDB
:100FA000206828B194F84010012903D1022010E0F4
:100FB00001200EE0012184F84010016821F00101B8
:100FC000016000F0B1F90020606484F8410084F809
:100FD0004000C0B210BD00BFC00000207047704785
:100FE00010B5044600688268016812F0040F18BF4B
:100FF00011F4802327D193073DD511F400333AD063
:101000000221C160016821F4E021016094F84110DF
:10101000122947D1016811F0040F09D0016821F0AD
:1010200004010160E06B0068016821F001010160CA
:101030002046FFF7F1FE012084F841002046BDE87C
:10104000104000F00DBB94F84110122934D1014634
:101050000CE0E26A002A58D0616A4A1C6262097890
:1010600080F820102168E26A013AE2628A6812F090
:10107000040FEED14DE0130735D511F4002332D023
:101080000821C160016811F4800F06D0016821F4C5
:1010900010210160012084F841002046BDE8104085
:1010A00000F07EBA94F84110222937D1016811F07E
:1010B000040F50D1014672E094F84110222928D142
:1010C00001460BE0A26B02B390F82010226B531C78
:1010D000236311702168A26B013AA2638A6812F03F
:1010E000040FEFD115E0D30718BF11F4803321D1DD
:1010F000D20658BF10BD11F4801145D01021C16037
:101100002046BDE8104000F04CBA086820F480206A
:1011100008602046BDE81040FFF761BF94F8410029
:10112000022823D1012084F841002046BDE8104068
:10113000FFF7F2BE0121C160026822F47022026052
:10114000626C42F002026264026812F0040F38D14D
:1011500084F8411013E0016821F004010160E06BA4
:101160000068016821F0010101601FE094F841006E
:10117000082809D1012084F84100606C58B320464A
:10118000BDE81040FFF72ABF10BD90F82010226B79
:10119000531C236311702168A26B013AA263896812
:1011A00011F4F85F1CBFA16B0029EED12046FFF7B8
:1011B00033FE012084F841002046BDE8104000F0D5
:1011C000EEB9016821F0040101600549E06B016599
:1011D000FFF793FA10BD2046BDE81040FFF71ABE96
:1011E0001F2300082DE9FC410446FFF7D3FC054608
:1011F0002CB194F84000012803D102204BE00120DB
:1012000049E0012084F8400094F8410008B1A06C46
:1012100008E0002084F84000204600F0BFF841F2CA
:101220008830A06421686FF0FF064FF000080A685C
:10123000A36806EB032322F4F8521A432B460A60F4
:10124000009020462021002201F082F808BBD4E95A
:101250000012124D0B682B40E568D4E907672B4359
:1012600043EA02620E4B32433A430A604A681A402C
:10127000D4E90437A6693A4342EA034232434A605A
:101280000A6842F001020A600121C4F8448084F82F
:10129000411084F8408002B0BDE8F0812FFFFF00CC
:1012A000FEF8E0FF7CB516460D460446FFF772FCDB
:1012B000034694F84000012801D1022031E00120CA
:1012C00084F8400094F84100012826D10020202114
:1012D00000226064822084F84100A06C00902046C7
:1012E00001F036F8D0B920680168726821F0080171
:1012F000082A41EA0201016007D131680163102127
:10130000C160016841F480110160204629464FF018
:10131000406200F031FF002000E00220002184F84C
:10132000401002B070BD000070B54620FFF7A8FC69
:101330005C20FFF7A5FC154815490160FFF7EFF9A0
:10134000644C144E4021A4F580552846B0472846E9
:101350000421B04720464FF48071B04720464FF437
:101360000071B04720468021B04720464021B04759
:101370000948016841F002010160016821F00201A1
:101380000160016A21F00201016270BD1C010020B0
:10139000B864024025090008183802402DE9F047DA
:1013A00086B04B484B4C4C4F4FF0400801AD4FF0CE
:1013B0000A0A8168A4F5805641F0020181608168C3
:1013C00001F002010191019950F8181C41F002014D
:1013D00040F8181C50F8181C21F0020140F8181CA5
:1013E000016841F002010160016801F00201019110
:1013F0000199016841F002010160016801F00201F8
:1014000001910199016841F020010160016801F03A
:10141000200101910199016841F0200101600168FA
:1014200001F0200101910199016841F02001016062
:10143000016801F0200101910199016841F020014A
:1014400001602946006800F0200001900198022008
:1014500002900120CDF804800390032004903046D0
:10146000CDF814A0B84700204FF009092946039091
:10147000042001903046CDF81490B8474FF48070A6
:10148000CDF814A0294601902046B8474FF40070CB
:10149000CDF814A0294601902046B8478020CDF809
:1014A0001490294601902046B84720462946CDF899
:1014B0001490CDF80480B8475C200F210022FFF77C
:1014C000FFFB5C20FFF7EEFB06B0BDE8F08700BF36
:1014D0003038024000140240FD0900082DE9FC41AB
:1014E000154688460446FFF755FB27680646B86947
:1014F00094F84010012901D102204DE0012184F827
:10150000401094F8411001293CD10021B8F1000F9E
:10151000616439D02221012284F8411039690131F6
:10152000A1633969C4F8308001316163796962F37C
:101530009B617961B86110E02046062101223346A3
:10154000009500F005FFC8B997F82000216B4A1CF0
:1015500022630870A06B0138A063A06B0028EBD158
:1015600020460221012233460095022500F0F0FEBC
:1015700020B92068C5602046FFF70EFC012184F8E1
:10158000411006E0022004E0606C40F00800606456
:101590000120002184F8401002B0BDE8F0817047BE
:1015A000704770472DE9FC41154688460446FFF711
:1015B000F1FA0646276894F84000012801D102207C
:1015C0004BE0012084F8400094F8410001283AD112
:1015D0000020B8F1000F606437D0122084F8410079
:1015E00038690130E0623869C4F824800130A062B3
:1015F000786920F04060786110E0204604210122E3
:101600003346009500F0A4FEC8B9606A411C6162CF
:10161000007887F82000E06A0138E062E06A00287C
:10162000EBD120460221012233460095022500F02D
:101630008FFE20B92068C5602046FFF7ADFB012171
:1016400084F8411006E0022004E0606C40F00800DD
:1016500060640120002184F8401002B0BDE8F081F0
:10166000704700002DE9F84FD0F80090C14D0446B6
:1016700019F0010F02D14FF0000A0BE0286820F4A6
:1016800000002860606B29680143B0FA80F04FEADF
:10169000501A29605FEA093002D44FF0000814E0C4
:1016A000D5F88410E06B21F44011B0F5801F41EAB9
:1016B0000001C5F8841004D14FF000084FF0010A72
:1016C00003E0B0FA80F04FEA50185FEAC92012D563
:1016D000D5F88410206C21F44001B0F5800F41EA68
:1016E0000001C5F8841002D14FF0010A03E0002880
:1016F00008BF4FF00108A04F19F0200F4E46AB462F
:1017000067D0A86B9D4E40F08050A863A86B00F096
:10171000805000900098B85940F48070B851FFF79D
:1017200039FA0546B85910F4807F05D1FFF732FA2F
:10173000401B6428F6D90AE25846DBF8680010F42A
:1017400040702ED0216B01F44071884229D0DBF823
:101750006800DBF868105A4641F4803120F440708C
:10176000CBF86810DBF8681021F48031CBF86810F2
:10177000CBF86800DBF8680010F0010F11D0FFF71C
:1017800009FA054641F288365846DBF8680010F041
:10179000020F06D1FFF7FEF9411B0320B142F3D936
:1017A000D8E1206B7649DBF800205D4600F44073F9
:1017B000014022F4F8126FF31F30B3F5407F08BFE9
:1017C0000A43CBF80020DBF868100843CBF8680028
:1017D0002668F0060BD5D5F8840020F08070C5F897
:1017E0008400A06BD5F884100843C5F88400700409
:1017F00007D5D5F88800616E20F440300843C5F85D
:101800008800300407D5D5F88800A16E20F4402068
:101810000843C5F88800F00307D5D5F88800E16EC5
:1018200020F440100843C5F88800B00307D5D5F868
:101830008800216F20F440000843C5F88800700636
:1018400007D5D5F88800616C20F003000843C5F87F
:101850008800300607D5D5F88800A16C20F00C0070
:101860000843C5F88800F00507D5D5F88800E16C75
:1018700020F030000843C5F88800B00507D5D5F83A
:101880008800216D20F0C0000843C5F8880070056D
:1018900007D5D5F88800616D20F440700843C5F87D
:1018A0008800300507D5D5F88800A16D20F4406088
:1018B0000843C5F88800F00407D5D5F88800E16D25
:1018C00020F440500843C5F88800B00407D5D5F887
:1018D0008800216E20F440400843C5F8880070025B
:1018E00007D5D5F88800A16F20F080600843C5F8BF
:1018F0008800B0020DD5D5F88800E16F20F00060B7
:10190000B1F1006F40EA0100C5F8880008BF4FF050
:10191000010816F4802F07D0D5F88800616F20F0F9
:1019200040700843C5F8880009F08070310208D57E
:10193000D5F88810D4F8802021F080511143C5F8E3
:10194000881028B9BAF1000F02D1B6F1007F7ED11C
:10195000386820F080603860FFF71CF90546386869
:1019600010F0006F0ED0FFF715F9401B6428F6D970
:10197000EDE000BF08380240003802400038FEFFAA
:10198000FFFCFF0F20685D4610F0010F0FD0616B68
:1019900069B9E96FEA6F01F4403102F070621143F6
:1019A000D4E9012341EA821141EA0371E9670103A5
:1019B00003D5E16BB1F5801F05D0C1021AD5216CAA
:1019C000B1F5800F16D1E96FEA6FE36801F4403199
:1019D00002F0E0421143626841EA821141EA036188
:1019E000E967D5F88410626A21F01F01013A1143BA
:1019F000C5F88410C1010DD5E96FEA6F236901F0C4
:101A0000706102F0E0421143626841EA821141EAEA
:101A10000341E967800109D5231D0FCB1B0443EA6D
:101A2000801040EA026040EA0170E867386840F0E0
:101A300080603860FFF7AEF80546386810F0006F38
:101A400005D1FFF7A7F8401B6428F6D97FE016F010
:101A5000080008BFB8F1000F7BD0386820F0805034
:101A60003860FFF797F80546386810F0005F05D03A
:101A7000FFF790F8401B6428F6D968E0206810F45E
:101A8000002F01D0E16B19B1C1021ED5216CE1B963
:101A9000DBF88010DBF8802001F4403102F0E042F6
:101AA0001143D4E9052341EA821141EA03616FF051
:101AB000FF03CBF88010DBF88410A26A03EB02224C
:101AC00021F4F8511143CBF88410810214D5E16F51
:101AD000B1F1006F10D1DBF88010DBF88020236AB1
:101AE00001F0706102F0E0421143626941EA821143
:101AF00041EA0341CBF88010000718D5DBF88000DD
:101B0000DBF88010E26900F0706001F440310843B6
:101B1000616940EA811040EA0270CBF88000DBF88E
:101B20008400E16A20F440300843CBF88400386830
:101B300040F080503860FFF72DF80446386810F008
:101B4000005F06D1FFF726F8001B6528F6D30320B7
:101B500000E00020C0B201B0BDE8F08F2DE9F041F7
:101B60000D460446002800F08180424BD3F8000463
:101B700000F00F00A8420CD2D3F8000420F00F00B0
:101B80002843C3F80004D3F8000400F00F00A84273
:101B90006CD1206810F0020F05D09968A26821F07E
:101BA000F00111439960C0072AD06068012804D170
:101BB000196811F4003F08D158E01968022802D1D1
:101BC000890102D452E0890750D59968984621F0DE
:101BD000030108439860FEF7DDFF064641F28837AF
:101BE000D8F808006168434600F00C00B0EB810FA4
:101BF00006D0FEF7CFFF801BB842F1D9032036E0B4
:101C0000D3F8000400F00F00A8420CD9D3F8000468
:101C100020F00F002843C3F80004D3F8000400F0BC
:101C20000F00A84222D1206810F0040F05D0996857
:101C3000E26821F4E05111439960000706D59868E5
:101C4000216920F4604040EAC10098601C4600F021
:101C50001BF8A168084AC1F30311515CC840094947
:101C600008600F20FEF7B4FF002000E00120C0B2A2
:101C7000BDE8F081003802404A28000801480068A9
:101C8000704700BF00000020E549486800F00C02E2
:101C90001148082A04D0042A04BF1048704770472E
:101CA00010B50A680B680D4C13F4800F08BF04468A
:101CB00002F03F000A68B4FBF0F0C2F38812096832
:101CC00050430222C1F3014102EB4101B0FBF1F0AC
:101CD000BDE81040704700BF0024F40000127A00F5
:101CE0002DE9F8430446002800F043812078CB4ECC
:101CF000CB4FC007B14650D0786800F00C000428E4
:101D000018D0786800F00C00082803D1386810F467
:101D1000800F0FD16068A0B1B0F5803F06D0316868
:101D2000B0F5A02F25D141F480203060306840F418
:101D3000803024E0306810F4003F2ED0606860BB33
:101D400017E1306820F480303060306820F4802063
:101D50003060FEF71FFF0546D9F800004E4610F42C
:101D6000003F1AD0FEF716FF411B03206429F3D968
:101D700000E121F480303060306820F48020306051
:101D8000FEF708FF0546306810F4003F05D1FEF766
:101D900001FF401B6428F6D9DAE02078800730D5AF
:101DA000786810F00C0F1DD0786800F00C0008283F
:101DB00004BF386810F4800F14D0E168306800293F
:101DC00000F0858040F001003060FEF7E3FE05463C
:101DD000306810F0020F0DD1FEF7DCFE401B022828
:101DE000F6D9B5E0306810F0020F1CBFE06801289A
:101DF00040F0BF803068216920F0F80040EAC1005F
:101E000030602078000722D56169386F79B140F0E1
:101E100001003867FEF7BEFE0546386F10F0020F6E
:101E200015D1FEF7B7FE401B0228F6D990E020F04E
:101E300001003867FEF7AEFE0546386F10F0020F5E
:101E400005D0FEF7A7FE401B0228F6D980E02078D7
:101E5000400740F18680F86B10F0805F0BD1F86B83
:101E60004FF0010840F08050F863F86B00F08050AC
:101E70000090009801E04FF000086A4E484659F87B
:101E8000060010F4807F14D159F8060040F48070E9
:101E900049F80600FEF77EFE0546484659F806005A
:101EA00010F4807F05D1FEF775FE401B6428F4D93D
:101EB0004EE0A068F8B1012805D0F96E052832D1AE
:101EC00041F00400F866F86E40F0010031E020F0C7
:101ED00001003060FEF75EFE05464846D9F8000076
:101EE00010F0020F3FF48DAFFEF754FE411B0320AC
:101EF0000229F2D93EE0F86E20F00100F866F86E93
:101F000020F00400F866FEF745FE054641F28836EB
:101F1000F86E10F0020F1DD0FEF73CFE411B0320AF
:101F2000B142F5D926E021F00100F866F86E20F004
:101F30000400F866FEF72EFE054641F28836F86E7C
:101F400010F0020F06D1FEF725FE401BB042F6D975
:101F500003200FE0B8F1000F1EBFF86B20F0805097
:101F6000F863A669002E56D0786800F00C000828A7
:101F700004D10120C0B201B0BDE8F083D9F800005F
:101F800020F08070C9F80000FEF704FE0546022E1E
:101F90000CD1D9F800004E4610F0007F13D0FEF7A8
:101FA000F9FD411B03200229F3D9E3E74846D9F89C
:101FB000000010F0007F2ED0FEF7ECFD411B032047
:101FC0000329F3D3D6E704F11C0335460FCBE66AA9
:101FD0000843D90340EA82104FF6FF72914340EA6A
:101FE0000660A1F58031084340F000503860286851
:101FF00040F080702860FEF7CDFD04464846D9F8D1
:10200000000010F0007F06D1FEF7C4FD011B032085
:102010000229F3D9AEE70020ACE700BF0038024048
:10202000043802400038FEFF0C4904280A6822F0F8
:10203000040308BF42F004030B607047411E0020F8
:10204000B0EB116F1CBF01207047044AF0235160B0
:1020500003490B70072190601160704710E000E0A9
:1020600023ED00E0FEF77AB9F0B58FB0EA4C4821D5
:10207000201DFEF7CCF8E74E382106F11C00FEF7D4
:10208000C6F8301D1821FEF7C2F823482060FEF77D
:1020900085FF02200421102217234FF4807704F1DA
:1020A000040C0025ACE88F002046C4E906552562E3
:1020B000FFF798F860BB662001A941F288320190D1
:1020C000D548CDE908550A95CDE90657CDE90C5517
:1020D0000E95FEF722FF60B9992001A941F28832DE
:1020E0000190CD48FEF719FF18B941F2883000F091
:1020F00019F841F2883000F015F8012807D130783E
:1021000018B9FEF7A1F8012801D1012500E000254A
:1021100028460FB0F0BD00BF001000A0FEF71EB9AA
:10212000FEF71CB980B5BB4A034600204FF480710E
:102130004FF0807C4FF4800E42F8040FC2E90B018F
:10214000C2E90D00C2F83CC001214FF0100CC2E9F9
:102150001100D064C2E9011CC2E903100520114638
:10216000C2F814E041F8180FAB48FEF783FEB0FA4E
:1021700080F0400980BD00BF2DE9F041D1F824C0B6
:10218000B2F1406F1FBFBCF1000F03688C6A013CC5
:1021900018BF1C61D1F818E00B6ABEF1000F31D0F6
:1021A000002B5CD0D0F800808868C8F81C0043EA97
:1021B0000C00D1E904C5CB69D1E90B674C6B304306
:1021C000002B40EA070040EA040040EA854040EA6C
:1021D0000C005DD04EEA0207B2F1406F43EA0703FC
:1021E000CF6840EA03000B6840EA070040EA0300BA
:1021F000C8F814001EBF4868C8F81800BDE8F08190
:10220000BDE8F081002B4CD0D0F800E08F68CEF80C
:102210001C7043EA0C07D1E904C5CB69D1E90B4630
:10222000486B3C43002B44EA060440EA040040EAC1
:10223000854040EA0C0451D043EA0200CB68B2F179
:10224000406F40EA040040EA0300CEF814001EBFCD
:102250004868CEF81800BDE8F081BDE8F08101F1D2
:102260002C07CB694C69E0CF002B45EA0C0546EA08
:10227000050647EA060747EA844C35D04EEA0207CE
:10228000CE683B430F6843EA0C0333433B431AE0F9
:10229000096842EA0E0210430843C8F81400BDE87A
:1022A000F081CB693BB34CEA0207D1F80CC04E6910
:1022B000D1E90B543B434F6B2B4323433B4343EA4E
:1022C000864343EA0C030068B2F1406F43611EBFCE
:1022D00049688161BDE8F081BDE8F08144EA02000F
:1022E000CEF81400BDE8F081096842EA0E0242EA25
:1022F0000C0211430FE0BCF1000F08BFBDE8F081F4
:102300004B69D1E90B76496B42EA0C023A433243FE
:10231000114341EA834100684161BDE8F081806B6F
:1023200000218163C16290F8411008290BD1006837
:102330000221C160016841F400310160016841F08F
:10234000020101607047012180F84110FEF746BE8E
:102350002DE9F843DDF82090984616460F460446CE
:1023600009F1010520688068384018BF0120B0429B
:1023700013D0002DF6D0B9F1000F05D0FEF70AFCFE
:10238000A0EB08004845EDD9042084F84100606CBA
:1023900040F001006064012000E0002001B0BDE8D1
:1023A000F0830000B0B51B4C0620002541F28832B6
:1023B000214641F81C0F4FF48070C1E905501648C2
:1023C000C1E907554D62C1E90B554D63FEF7A5FD07
:1023D00008B10020B0BD0520102201214FF4800378
:1023E00044F81C0F022044E905024FF0807244E9D2
:1023F000031544F8043C41F28833C4E9092122461C
:10240000214642F8180D0448FEF734FDB0FA80F07A
:102410004009B0BD10000020C00000200148FEF7B8
:10242000DFBD00BFC0000020FEF7B8BB10B50E48EE
:102430000F4CD0F8801041F47001C0F880100B49A7
:102440000A6842F001020A6000228A600B68234099
:102450000B60084B4B600B6823F480230B60CA6051
:102460004FF00061016010BD08ED00E0003802404F
:10247000FFFFF6FE10300024FDF770BF10B5E04CF2
:10248000054A00F00F03B0F1FF3F2344C8BF831893
:102490000801187010BD00BF00E400E02DE9F04F06
:1024A000B3B0FEF7D1FB0120D24D01ACADF8040072
:1024B000CD480390CD480490CD48824600F17E601F
:1024C00002902046A8474FF0104640F201200296A5
:1024D000ADF804001B20039040F201100490204648
:1024E000A84740F201300296ADF80400C2480390BC
:1024F000C24804902046A8470420FEF7AFFB4FF0E7
:10250000204043F2D20143F6E07C0160BC48002148
:10251000BFF34F8FBFF36F8FC0F83C12BFF34F8FE5
:10252000BFF36F8F026842F400320260B54ABFF316
:102530004F8FBFF36F8F0167BFF34F8FC16E62EA9A
:10254000D105C1F34E32C9088C070CEA4216234666
:10255000294643EA060703F140430131C0F84C72B3
:10256000F7D1511E002A0A46EFD1BFF34F8F016801
:1025700041F480310160BFF34F8FBFF36F8FFEF7DF
:1025800015FBA14CA14D4FF48001206940F0805013
:102590002061206900F0805001900198286840F483
:1025A00040402860286800F44040019001984FF4B2
:1025B00080302890012027900020299002202D9023
:1025C0002E9104212F91C821CDE93010329027A8F7
:1025D000FFF786FB08B1FDF7C1FEFEF7A3FB08B1CC
:1025E000FDF7BCFE02270F2000260621239722902C
:1025F0004FF4A050249625904FF48050269022A8A6
:10260000FFF7ACFA08B1FDF7A9FE392006900320C8
:10261000CDE90770012009960B904FF480300C90A3
:102620004FF480700D907A48CDE911661396CDE98C
:102630001C66019001A8FFF715F808B1FDF78EFEA2
:10264000FFF71CFB4FF47A71B0FBF1F0FFF7F6FCDB
:102650000420FFF7E9FC4FF0FF30002100224FF08B
:102660000009FEF72DFB6B4E05F5E031304640F8D2
:10267000201F216841F480512160216801F48051BC
:1026800001910199FDF7B8FF08B1FDF767FE2068D9
:102690004FF4807100224FF4807840F004002060F5
:1026A000206800F0040001900198206840F00800C4
:1026B0002060206800F0080001900198206840F038
:1026C00040002060206805F5CC3400F04000019007
:1026D00001982046FEF758FA4F4F4FF4C040CDF80E
:1026E00008A0AB46019005F5D43001ADCDF80C90B3
:1026F0002946B8474FF0010A20462946CDE9018A0C
:10270000CDE90399B84780200BF5CE38CDF8089075
:10271000294601904046CDE903A9B8472820012168
:102720000022FEF7CDFA2820FEF7BCFAFFF79CFC4A
:10273000FEF7E4F8394807210222C6E900A1C0E902
:10274000009AC0E9021206F11001FEF731F808B153
:10275000FDF704FE334C324F334D2146C6E90247A4
:102760000FE0F26802200023FEF784F818B1FDF7AD
:10277000F5FDB16805E0D6E90202011D101DC6E9AC
:102780000210A942EDD3FEF75FF80020C6E9024728
:10279000391DF061201D10E0126872613A680F4621
:1027A000B2617269B3699A421EBFF2690132F26185
:1027B000C6E9020104300A1D1146021FAA42EBD3EA
:1027C000F06910B1FDF7CAFD0CE04046102101226E
:1027D000FEF7DAF96420FDF7DFFF40461021002202
:1027E000FEF7D2F9FEE700BF11000003000101006F
:1027F00000002110F90B000817000003010101007F
:1028000014ED00E000FCFFFF303802400070004093
:102810000800130070000020FD0900080C010020D2
:102820000000F09000800008FFFF0F0802E008C8D9
:10283000121F08C1002AFAD170477047002001E03A
:1028400001C1121F002AFBD17047000000000000E8
:1028500000000102030406070809000080280008A0
:1028600000000020100000002C280008902800081C
:1028700010000020900102003C2800080000000029
:102880000024F40000000000000000000000000030
:04000005080001C925
:00000001FF
