:020000040800F2
:10300000C0250020013100088D4D00088F4D0008BB
:10301000914D0008934D0008954D000800000000F8
:10302000000000000000000000000000974D0008B4
:10303000153100080000000017310008994D000804
:103040001B3100081B3100081B3100081B31000830
:103050001B3100081B3100081B3100081B31000820
:103060001B3100081B3100081B3100081B31000810
:103070001B3100081B3100081B3100081B31000800
:103080001B3100081B3100081B3100081B310008F0
:103090001B3100081B3100081B3100081B310008E0
:1030A0001B3100081B3100081B3100081B310008D0
:1030B0001B3100081B3100081B3100081B310008C0
:1030C0001B3100081B3100081B3100081B310008B0
:1030D0001B310008C14D00081B3100081B310008DE
:1030E0001B3100081B3100081B310008DFF80CD031
:1030F00000F018F800480047CD6E0008C0250020F9
:103100000648804706480047FEE7FEE7FEE7FEE781
:10311000FEE7FEE7FEE7FEE7FEE7FEE749310008CF
:10312000ED300008064C074D06E0E06840F0010372
:1031300094E8070098471034AC42F6D3FFF7DAFF63
:1031400088D50008A8D500080D480E4A016841F04E
:1031500001010160416811400B4A41600168114062
:103160000160016821F480210160416821F4FE01C1
:1031700041604FF41F0181600448054901607047B8
:10318000001002400000FFF8FFFFF6FE08ED00E02F
:10319000003000080B484FF47A710068B0FBF1F082
:1031A000411E0020B0EB116F07D1074AF023516098
:1031B00006490B709060072010604FF0FF3000212F
:1031C00016E000BF0000002010E000E023ED00E06A
:1031D00081B000900548C169009B5A1C08BF1A467F
:1031E000C3695B1A9342FBD301B0704720010020F2
:1031F00010B500F00F03124C104AB0F1FF3FA3F1DD
:103200000403234403F10C03C8BF83182068C0F3F0
:103210000220021DC41E80F00700072A4FF00102A1
:1032200038BF0024042828BF042002FA00F0013827
:103230000840A0400001187010BD00BF00E400E08D
:103240000CED00E000F000F80648BFF34F8F064A8F
:10325000016801F4E06111430160BFF34F8F00BFCB
:10326000FDE700BF0CED00E00400FA05E0B110B589
:1032700001680F4C0D4B0A6822F001020A6000221F
:103280000A604A608A60CA6021441424B1FBF4F1E8
:1032900001248900C0E9103104FA01F15960C263C8
:1032A000C0E90822BDE81040704700BF000002409E
:1032B000F8FFFDBF10B52549254C4CF25033CA69C3
:1032C00005E0C869801A984284BF032010BD2068B9
:1032D00010F0010FF5D1206810F0200F1CBF202046
:1032E0002060206810F0100F09D1206910F0010F44
:1032F00005D1206810F0040F04BF002010BD206825
:1033000010F0100F01D1002105E01248416B41F08F
:10331000020141631021206810F0040F06D00D480F
:1033200041F00401426B42F001024263206910F057
:10333000010F08D00748426B42F004024263206943
:1033400020F0010020610120216010BD200100203B
:103350000C200240100300202DE9FC4F594A0423A1
:103360004FF0000B4FF001084FF00F0E4FF0000927
:103370000025904208BF03230093102D08BFBDE82D
:10338000FC8F0A6808FA05F73A4200F097804A680D
:10339000032A16D9112A24D0122A26D04D4B9A423C
:1033A00013D04D4B9A4210D04C4B9A420DD04C4BFF
:1033B0009A420AD04B4B9A4207D04B4B9A4204D0C8
:1033C00020E0DFE802F00216191D8A6832B1012AF6
:1033D0004FF0080914BF4761076113E04FF004097B
:1033E00010E0CA6802F104090CE0CA6802F10C0995
:1033F00008E0D1F80C9005E0CA6802F1080901E084
:103400004FF00009082D5A46044628BF203A28BF2D
:10341000043426680EFA02F309FA02F226EA0303DC
:103420001A432260CA79D20648D5294A0BF00C0CFF
:103430001346126842F001021A601A680EFA0CF381
:1034400002F001020192204A019CAC08A2F57E76AE
:1034500056F8242022EA030A244A904208D0244A3B
:10346000904207D0234A009B904208BF022302E00B
:10347000002300E0012303FA0CF242EA0A0246F8B4
:103480002420114E4A68336812F4803F0CBFBB43BE
:103490003B4333609303736854BFBB433B43736048
:1034A000D302B36854BFBB433B439202074AB360A5
:1034B0001346126854BFBA433A431A600BF1040B27
:1034C00001355AE700140140000401400C0401409A
:1034D000181002400000111000001210000021100E
:1034E00000002210000031100000321000080140DE
:1034F000000C0140001001402DE9F84F344A4FF014
:10350000000C4FF001084FF00F09002390424FF0DC
:10351000040208BF032200922E4AA2F57E7A31FAF5
:1035200003F708BFBDE8F88F08FA03F717EA0105AB
:103530004AD0B5F5807F6246064628BF203A28BFAC
:103540000436346809FA02F724EA0707042404FA67
:1035500002F23A430CF00C0732609E0809FA07F4B5
:10356000C268AA43C2605AF8262002EA040B1B4A2A
:1035700090420AD01A4A90420AD01A4ADDF800E076
:10358000904208BF4FF0020E04E04FF0000E01E041
:103590004FF0010E0EFA07F2934515D15AF8267036
:1035A000EA43A7430B4C4AF8267027682646174083
:1035B0002760676817406760A7681740A760064CD8
:1035C000276826463A4022600CF1040C0133A6E736
:1035D00000140140000401400C04014000080140B7
:1035E000000C0140001001402DE9F84FDFF8D8A190
:1035F000764D0646984614460F46DAF81C90286C1D
:10360000202846D17248012119224B46834600F5F5
:10361000702000F0DFF801460220002961D1E96B3B
:1036200001295ED00120E8632868016811F0010FCC
:1036300002BF016841F001010160016821F40061ED
:10364000016021212964102169640021A96459467F
:103650006C85ABF10211E9626F62698D2985E96AB7
:1036600011F5803F18BF012915D1016841F480711F
:1036700001604FF00110002142464B46002400F04B
:10368000A9F840BB2869B0F5804F0AD1FE205F46FB
:1036900017E0022025E00429E7D0296B1229E4D0A5
:1036A000E7E7062029684A465F4600EAD61040F060
:1036B000F00008610BF10600414600F0BFF848B980
:1036C000FF20296830404A4608613846414600F0EC
:1036D000B5F848B1A86CEC630320A96C042908BFB5
:1036E000012001B0BDE8F08F002008F101044FF681
:1036F000FF760090286841690091816900910099E6
:103700003FE000F0E3F8002851D144B1B8F1000FD8
:1037100044D0DAF81C00A0EB090040453ED82868E8
:10372000416911F0800FECD0696A4A1C6A620A781C
:1037300002616A8D013A6A852A8D571E2F853742AC
:10374000436918BF13F0040317D08B1C6B624978D0
:103750000161911E2985698D013969850DE000F0AF
:10376000B5F820BB44B1B8F1000F17D0DAF81C004F
:10377000A0EB0900404511D82868416911F0040FF9
:10378000EDD0298D0029CBD1016841F40071016091
:10379000202028640020E8636864A2E7A86C40F059
:1037A0002000A86400202863E86320202864A86C17
:1037B000042806D12868016841F4007101600120E5
:1037C0008FE703208DE700BF2001002000050020C7
:1037D00002000100F0B500F47F06DFF858C04FF09A
:1037E000180E80B2551CB6F5803F134E08BF4FF03F
:1037F000140EDCF8004054F80E7007403F1AB7FA78
:1038000087F77F098F421CBF0020F0BD002DF2D04A
:103810001AB1F769FF1A9742EDD900202021CCF8A0
:103820003000CCF84010CCF83C00CCF84400032029
:10383000F0BD00BF000500202001002070B5DFF8BA
:1038400080C0214D83B200F47F004C1CDCF800E006
:10385000B0F5803F0CBFDEF81460DEF818601E4043
:103860009E4204BF002070BDDEF8146016F4806F25
:1038700010D1002CECD019B1EE69B61A8E42E7D9FE
:103880000020CCF83000CCF83C002020CCF84000E0
:10389000032070BDDEF8000040F40070CEF8000098
:1038A0000848CEF814000420CCF848000020CCF8DA
:1038B0003000CCF83C002020CCF84000012070BD46
:1038C00000050020FFFBFFFF200100200849002029
:1038D0000A68536913F4806F08BF7047054B536142
:1038E00004228A640863C8632020086401207047AA
:1038F00000050020FFFBFFFF2DE9F84F0746C048F9
:10390000C04D984614460E46D0F81C90286C2028CE
:103910006AD1BD48012119224B46824600F570202C
:10392000FFF758FF01460220002940F08480E96B30
:10393000012900F080800120E8632868016811F007
:10394000010F02BF016841F001010160016821F42B
:103950000061016022212964102169640021A964A9
:1039600051466C85AAF10211E9626E62698D298562
:10397000E96A026842F4806211F5803F026018BF74
:10398000012933D1016841F4807101604FF00110C9
:10399000002142464B460024FFF71CFF002844D17B
:1039A0002869B0F5804F27D107F0FE0040F00100F4
:1039B000296880B24A465646086150464146FFF79C
:1039C0003DFF88BB298D012950D0002964D10020FA
:1039D000009028684169009181690091009901680F
:1039E00041F40071016079E0022024E00429C9D08B
:1039F000296B1129C6D0C9E7062029684A465646D0
:103A000000EAD71B4BF0F00008610AF106004146BE
:103A1000FFF714FF40B92868F9B24A460161304601
:103A20004146FFF70BFF48B1A86CEC630320A96C7B
:103A3000042908BF012001B0BDE8F08F00204246F4
:103A40004B46009028684169009181690091009976
:103A5000016841F4807101604FF001100021FFF70F
:103A6000B9FE0028E1D14BF0F100A1E72868016818
:103A700021F480610160EFF3108072B600200090A5
:103A8000286841690091816900910099016841F4B9
:103A90000071016062B621E028680229026813D132
:103AA00042F400610160EFF3108072B600200090D4
:103AB000286841690091816900910099016821F4A9
:103AC0008061016062B609E042F48061016000211A
:103AD000009141690091806900900098288D02361C
:103AE0007DE084B2032C08D8012C1FD14046494602
:103AF00000F08CF8002866D07AE04046494600F095
:103B000085F8002874D128680069696A4A1C6A62CD
:103B10000870288D01382885698D013969852968E3
:103B20004A6912F0040F5AD008694EE0304600216D
:103B300042464B46FFF74EFE022C16D100285DD1BF
:103B4000EFF3108072B62868016841F400710160DB
:103B50000069696A4A1C6A620870288D01382885E4
:103B6000688D0138688562B62DE0002846D1286846
:103B70004B46016821F480610160EFF3108072B65A
:103B800028680069696A4A1C6A6208700021424616
:103B9000288D01382885688D013868853046FFF703
:103BA00019FE58BB2868016841F400710160006982
:103BB000696A4A1C6A620870288D01382885688DF8
:103BC0000138688562B628680069696A4A1C6A62B9
:103BD0000870288D01382885698D013969850104AF
:103BE0007FF47FAF202028640020E863686422E728
:103BF000A96C0120202908BF03201CE703201AE735
:103C000020010020000500200200010080B5DFF83F
:103C10005CC0DFF85CE0DCF800305A6912F0400F5D
:103C20001CBF002080BD5A6912F0100F0DD120B1C9
:103C3000DEF81C20521A8242EFD9DCF8480040F02E
:103C40002000CCF84800032008E06FF01000586115
:103C50000020CCF84800CCF8300001200021CCF83E
:103C60003C102021CCF8401080BD00BF0005002092
:103C7000200100202DE9F84F444D454FEC69386C88
:103C8000202864D143480121192223468246FFF7A8
:103C9000A1FD0226002874D1F86B012871D0012003
:103CA0004FF00108A0264FF02009F863386801683A
:103CB00011F0010F02BF016841F0010101600168CC
:103CC00021F400610160242139640021B964324982
:103CD000F96232498B462CE038680661EC6904E0F1
:103CE000E969091B102928BF3E64416942693B6CA0
:103CF000A02B05D0920A42EA510111F00101EFD048
:103D0000C7F840904169026842F4007211F0020F56
:103D100002601ED1C0F814B050460121192223467A
:103D2000FFF758FD18BBB8F1630F22D8386808F1C7
:103D3000010801680F22234641F4807101604FF0B1
:103D400001100021FFF746FD0028C5D00FE0022634
:103D500017E00026192223460096416900910121AF
:103D60008069009000985046FFF734FD30B103267B
:103D700007E000200126F863202001E02020FE63F8
:103D80003864304601B0BDE8F08F00BF200100204C
:103D900000050020020010000000FFFFFFFBFFFFF6
:103DA0000A480068416821F0080141600849CA6971
:103DB000436813F0080F1CBF00207047CB699B1AA3
:103DC000B3F57A7F84BF03207047F1E7100300202A
:103DD000200100200A480B490068CA6906E0CB6947
:103DE0009B1AB3F57A7F84BF03207047436813F0B2
:103DF000200FF4D0416841F010014160002070476D
:103E000010030020200100200A480068416821F0CA
:103E1000100141600849CA69436813F0200F1CBFB4
:103E200000207047CB699B1AB3F57A7F84BF0320CB
:103E30007047F1E71003002020010020B0B50028F2
:103E400048D0254D2969012944D002216961012109
:103E5000296101784278807801F00F03090901EBAC
:103E6000810103EB41014FF46163C9B2594302F090
:103E70000F03120902EB820203EB4202D2B2C2EB41
:103E8000021201EB820100F00F02000900EB80003A
:103E900002EB4000C0B20C18204600F021F808B137
:103EA000042014E02868416821F005014160016A9E
:103EB000406A80B240EA0140411C07D0A04205D2CE
:103EC0000649084400F022F80028E9D10120002129
:103ED00029616861B0BD00BF10030020805101005E
:103EE00010B50446FFF776FF08B1012010BD064863
:103EF000210C00688161A1B2C161FFF785FF002834
:103F000018BF012010BD00BF1003002010B50446EB
:103F1000FFF760FF08B1012010BD0648210C0068C2
:103F20000162A1B24162FFF76FFF002818BF0120B4
:103F300010BD00BF100300202DE9F84F894604464C
:103F4000002841D0DFF85481D8F80060706810F084
:103F5000040F39D100F0ACF84FF461613C23B0FBA1
:103F6000F1F24F4902FB0101B1FBF3F36370A3EBE4
:103F7000031301EB8301A1704A49884228D3182317
:103F8000B0FBF1F74849B2FBF3F303EB4303A2EBB9
:103F9000C3022270326A736A07FB01069BB243EACE
:103FA0000242151A304698BF4FF0FF35531C08BF28
:103FB0001546FFF795FF38B9681C14BFA8194FF0D4
:103FC000FF30FFF7A3FF98B1012001B0BDE8F08FEB
:103FD0002270B9F1000F09D02078344DA847207025
:103FE0006078A8476070A078A847A0700020ECE730
:103FF00098F80D6098F80E3098F80F00012141F202
:10400000AA524FF0640C4FF4C87ED7B30C2E13D8CD
:1040100001FA06F5154206D01E2B09D90C2E09D13E
:104020000130012607E015F4256F07D01D2B01D8BC
:10403000013301E001360123013FE6E7022EFBD107
:104040001B2B01D801331AE01D2B15D01C2B16D1C8
:1040500010F0030F10D11FFA80FB0226BBFBFEF30A
:1040600003FB1EBA1D23BAF1000FE5D0BBFBFCF524
:1040700005FB1CB5002DDFD101230326DCE702265A
:10408000DAE7F1B2DAB288F80D6088F80F0088F844
:104090000E3000F021F888F80C009AE71003002099
:1040A000F0F1FFFF8051010080AEFEFF31410008BA
:1040B000084802689169D2F81CC0936983EA01003C
:1040C00000041CBFD2F81CC019461FFA8CF040EA4D
:1040D0000140704710030020172300EB020C092257
:1040E000022901FB03F3B3FBF2F2624402F2D47241
:1040F00007D800F2CF706421B0FBF1F1C1EB900161
:1041000009E000F5FA6064216FF00103B0FBF1F102
:1041100003EB9003591A4FF4C873B0FBF3F0084453
:1041200007211044B0FBF1F1C1EBC101401A704707
:10413000C143CAB2F62A4FF00A0298BF6FF00901D4
:1041400001440A31C9B2B1FBF2F101EB8102A0EBEB
:10415000420040EA0110C0B2704700BF70B504468B
:1041600000284CD0264D2869012848D002206861DB
:10417000012028616078E278A17800F00F0300093F
:1041800000EB800003EB400302F00F00120902EB8A
:1041900082026B7300EB420001F00F02090901EB90
:1041A0008101E873C0B202EB4102D9B2AA73D2B264
:1041B000FFF792FF28732070FFF77AFF11498842BA
:1041C00019D3114EB0FBF6F101FB16042046FFF7A0
:1041D00087FE08B104200FE02868016A406A80B2B7
:1041E00040EA0140411C06D0A04204D23044FFF70F
:1041F0008DFE0028EED1012000212961686170BD8B
:1042000010030020905F010080510100F8B50446C2
:104210000020002C8DF80200ADF8000004D06846A4
:104220000021FFF789FE00B1F8BD0848084F017B67
:104230002170457B867BC07BB847E0702846B84735
:1042400060703046B847A070F8BD00BF1003002072
:104250003141000804480549054A00680968C1F36E
:104260000221515CC8407047000000200410024049
:10427000E8D2000804480549054A00680968C1F306
:10428000C221515CC8407047000000200410024069
:10429000E8D200082DE9FC41514E1446326D012A46
:1042A00001D1022280E04FF001084E4BC6F8508049
:1042B000DD69726D012A48D10122002870D00029E1
:1042C0006ED0032272650022B265F1863063B1863A
:1042D000B263B287C6E91022F287B2683168B2F5DC
:1042E000004F02BF0A6842F480420A600A6812F076
:1042F000400F02BF0A6842F040020A60F768726825
:10430000B7F5006F23D112B1F28E012A05D130F832
:10431000022BCA60F18E0139F1863168621C10E00F
:104320008F6817F0020F06D15AB1C4B3DF697F1B43
:10433000A74206D333E030F8027BCF60F78E013F0F
:10434000F786F78E002FEBD122E0022228E012B18F
:10435000F28E012A05D110F8012B0A73F18E013972
:10436000F1863168621C10E08F6817F0020F06D1E9
:104370005AB1A4B1DF697F1BA74206D30FE010F842
:10438000017B0F73F78E013FF786F78E002FEBD17D
:104390000220012122462B4600F026F840B10322DC
:1043A00000203065C6F85480104602B0BDE8F081A8
:1043B0002046294600F068F818B120200122B06597
:1043C000EEE7B06838B9002001903068C16801910B
:1043D000806801900198B26D002A18BF0122DFE7C2
:1043E000600500202001002070B5DFF894C0254D45
:1043F000541CDCF800E0DEF808600640361AB6FA15
:1044000086F676098E4204BF002070BD002CF2D0E3
:104410001AB1EE69F61A9642EDD3DEF8040020F0E8
:10442000E000CEF80400DCF80400B0F5827F0DD186
:10443000DCF80800B0F5004F02D0B0F5806F05D170
:10444000DEF8000020F04000CEF80000DCF8280084
:10445000B0F5005F0CD1DEF800004DF6FF710840AA
:10446000CEF80000DEF8000040F40050CEF8000066
:104470000020CCF850000120CCF85400032070BD7F
:10448000600500202001002010B50B460246802068
:1044900000210024FFF7A8FF28B104480324816D00
:1044A00041F020018165204610BD00BF600500205D
:1044B000BCB5A54D6C68B4F5827F6CD1AA68002AA2
:1044C00069D104226A652A6D012A67D00122DFF8CA
:1044D0007CE22A65DEF81C406A6D042A02D0012ABB
:1044E00040F0A8800122002800F0F980002900F0A7
:1044F000F6806A6D012A04BF05226A650022AA655A
:10450000E987A863A9872863A986C5E91022E986F7
:104510002A68116811F0400F02BF116841F0400194
:104520001160E98EEB68B3F5006F40F085800129DA
:10453000844606D184463CF8021BD160E98E0139DD
:10454000E9862A680121EB8E1BB9EB8F002B00F066
:10455000BD8059B1EB8E53B1936813F0020F06D0B2
:104560003CF8021BD160E98E0139E9860021EB8F0E
:1045700053B1936813F0010F06D0D16820F8021BE5
:10458000E98F0139E9870121DEF81C301B1BB3F5E7
:10459000FA7FD8D3A2E02A6D012A01D10222BAE023
:1045A0004FF0010CDFF8A4E1C5F850C0DEF81C3074
:1045B0006A6D012A3CD10122002800F0A880002960
:1045C00000F0A58004226A650022AA65E987A86335
:1045D000A9872A63AA86C5E91022EA86AA682968FB
:1045E000B2F5004F02BF0A6822F480420A600A68EE
:1045F00012F0400F02BF0A6842F040020A60E96808
:1046000000294CD02968EA8F002A6ED08A6812F0FF
:10461000010F06D1DEF81C20D21AB2F5FA7FF2D3D0
:1046200052E0C96820F8021BE98F0139E987E9E700
:1046300002226CE0022252E00129844606D184461F
:104640001CF8011B1173E98E0139E9860122E98EFC
:1046500009B9E98FD1B362B1E98E59B129688B6884
:1046600013F0020F06D01CF8012B0A73E98E0139F2
:10467000E9860022E98F59B129688B6813F0010F90
:1046800006D0C968012200F8011BE98F0139E987CA
:10469000DEF81C10091BB1F5FA7FD8D31EE029689B
:1046A000EA8F0AB38A6812F0010F06D1DEF81C20E7
:1046B000D21AB2F5FA7FF3D306E0097B00F8011BAA
:1046C000E98F0139E987EAE7032220E0022001218E
:1046D0004FF4FA722346FFF787FEF8B10322002059
:1046E00028650120686516E06C68B4F5827F0AD100
:1046F000A868B0F5004F02D0B0F5806F03D108680C
:1047000020F040000860AA6D002A18BF0122002096
:104710002865C5F854C0104602B0B0BD4FF4FA7019
:104720002146FFF7B1FE18B120200122A865D6E787
:10473000A86800220028D2D101922868C16801919E
:10474000806801900198CAE76005002020010020E0
:104750002DE9FF47044690B3E06B6D4D002854D11E
:1047600000276C49A763206888422AD06A4988429A
:104770004BD16A486E46016841F480410160314680
:10478000006800F4804000900098022001904FF4EF
:1047900000700090032003902846FEF7DDFD002006
:1047A0004FF4806101900091029028463146FEF757
:1047B000D3FD25200121FEF71BFD202023E0012051
:1047C000A2E056486E46416841F4003141603146EE
:1047D000406800F40030009000980220019004200E
:1047E0000090032003902846FEF7B6FD08200197AD
:1047F0003146009028460297FEF7AEFD26200221A2
:10480000FEF7F6FC402046490860242041F20C6681
:10481000E0632068C16821F40051C1600169E26869
:1048200021F4405111430161A168D4E90423C76810
:104830001143B74319433943C1604169A26921F467
:1048400040711143416105F54051884214BFDFF8C2
:10485000D4A0DFF8D4A0D047D4F804908046D04745
:1048600067680646D04761681925BF00684306FBA4
:1048700005F38900B3FBF7F3B0FBF1F06421B0FB63
:10488000F1F202FB1102181A4FEA89031044322296
:1048900002EB001008FB05F2B0FBF1F0B2FBF3F203
:1048A00000F0F000B2FBF1F100EB0116D0476168B7
:1048B00068438900B0FBF1F7D04761686843642220
:1048C0008900B0FBF1F0B0FBF2F3391A03FB1200E0
:1048D0000844322101EB00102168B0FBF2F000F037
:1048E0000F0030438860086920F4904008614869EF
:1048F00020F02A004861C86840F40050C8600020D9
:1049000020216064E163216404B0BDE8F08700BF4A
:1049100000080140004400400038014018100240E7
:1049200004E100E055420008754200082DE9F0411D
:104930000446C06B1D460E46202807D10120002EDC
:1049400042D0002A40D0A06B012802D10220BDE84D
:10495000F081002060640120A0632120E0631B48F7
:10496000D0F81C80E284A2841DE0E08C80214246C5
:104970002B460138E0842046A76800F029F8B7F5F7
:10498000805F0BD1C8B9318820686FF35F21416027
:104990002069002814BF0136023604E068B9206897
:1049A00016F8011B4160E08C0028DED12046402132
:1049B00042462B4600F00CF810B10320BDE8F08110
:1049C00000202021A063E163BDE8F08120010020E8
:1049D000B0B5D0F800C0124C03F1010EDCF8005065
:1049E0000D408D4204BF0020B0BDBEF1000FF5D0D8
:1049F0001BB1E569AD1A9D42F0D9DCF80C1000221C
:104A000021F4D071CCF80C10DCF8141021F0010165
:104A1000CCF814102021C163826301640320B0BD6F
:104A2000200100202DE9F041254C06461546206C5A
:104A3000202803D12EB1A06B012805D10220BDE8AA
:104A4000F0810120BDE8F081002060642220206414
:104A50000120A0631B48A185D0F81C80E18523E0DC
:104A6000E08D202142462B460138E0852046A7688C
:104A7000FFF7AEFFB7F5805F08D1F0B92068216974
:104A8000406869B1C0B226F8010B0DE0A8B92068F2
:104A90002169406809B100F07F0006F8010B03E0CE
:104AA0006FF35F2026F8020BE08D0028D8D100209C
:104AB0002021A0632164BDE8F0810320BDE8F081DE
:104AC000B004002020010020B0B54F4A106C40F027
:104AD0000100232851D114684C480521D4F804C0A2
:104AE00041618168062900F28A80DFE801F008044C
:104AF0000F0438404700464981F800C03AE05FFAA9
:104B00008CF14A1E012A38D8416033E08168404A5E
:104B1000013181603F4912788B7C9A4207D1CB7C6E
:104B20005FFA8CF4A34202BF01210161B0BD0B7D8D
:104B30009A4207D14B7D5FFA8CF4A34202BF022157
:104B40000161B0BD8B7D9A4207D1C97D5FFA8CF2BD
:104B5000914202BF03210161B0BD00210CE02C494C
:104B60005FFA8CF2097842EA0121416202E05FFAC1
:104B70008CF10162816801318160B0BDC168DFF8EC
:104B800090E04B1CC3600EF801C0C168036A033398
:104B9000994218BFB0BD00214161C368013BC360A9
:104BA000816205E01EF80130856A01312B44836281
:104BB000036A9942F6D1816AC368734413F8023CD0
:104BC000B3EB112F18D1816AC3687344C9B213F8CB
:104BD000013C8B4210D15FFA8CF104290CD1E168C1
:104BE00021F02001E16020211164D16302210160E4
:104BF00041F22E614161B0BDC1690131C161BDE8C1
:104C0000B04001F061B900BF60040020A0010020A5
:104C10007C00002020010020806A0021C185C18421
:104C200001F0EABE084801680848814218BF704791
:104C3000074900F538400A6822F400120A604FF470
:104C40004071FEF759BC00BF000500200054004031
:104C50001C100240BFB5134CA4F55441884218BF44
:104C6000BFBD11486D46016841F48041016029468D
:104C7000006800F4804000900098022001904FF4FA
:104C800020400090032003902046FEF765FB0020A3
:104C90004FF4804101900091029020462946FEF792
:104CA0005BFBBFBD000C01401C10024010B5044668
:104CB00001680B48814218BF10BD0A4900F55440F5
:104CC0000A6822F480420A604FF46041FEF714FC47
:104CD000A06CFEF7CBFAE06CBDE81040FEF7C6BA58
:104CE000003800401C1002400E480068B0F1804FB0
:104CF0000CD00D4988420ED00C49884218BF70472D
:104D00000B48016821F40061016070470848416860
:104D100021F0010103E00648416821F002014160F1
:104D2000704700BF1004002000040040002C014028
:104D30001810024080B500680F4988420FD00F4913
:104D4000884218BF80BD0E48016821F4804101608F
:104D50000C484FF4C061FEF7CFFB202009E0084863
:104D6000416821F40031416006480C21FEF7C4FB84
:104D700040200549086080BD0044004000380140E3
:104D8000181002400008014084E100E070477047BD
:104D900070477047704770470748C1690131C1616A
:104DA0000648416921B1416901394161406900B159
:104DB000704701F089B800BF20010020A001002049
:104DC000B0B56C4D28680168C268436911F00F0FD7
:104DD0006CD002F4907403F001031C436DD0CC0737
:104DE0001FBF12F480746C6C44F001046C644C07B7
:104DF00004D51BB16C6C44F002046C648C0704D5C0
:104E00001BB16C6C44F004046C640C0704D51BB13A
:104E10006B6C43F008036B646B6C002B00F08280BA
:104E20001140890602D5FFF74FFE286841696A6C78
:104E300001F0400102F00802114362D0C16821F480
:104E40009071C160416921F0010141612021296413
:104E5000416911F0400F4FD0416921F0400141619B
:104E6000686B002848D044498163416A022963D1B4
:104E70000368434C414A1968A34221F00E011960AE
:104E8000196821F0010119604FF0010159D03D4C22
:104E9000A34258D03C4CA34257D03C4CA34257D0DD
:104EA0003B4CA34257D14FF480345CE0114011F0E9
:104EB000200F03D0BDE8B04006E611400A0608D432
:104EC00049062FD5C16821F04001C1602020E86368
:104ED000B0BDE96B212925D1AA68296AB2F5805FA6
:104EE00015D10A886FF35F2242602A69002A14BF35
:104EF0000131023129620EE01E48BDE8B04001F0E8
:104F00007BBD284601F078FD00206864B0BD4A1CD6
:104F10002A6209784160E98C4FF6FF72013911422B
:104F2000E98400D0B0BDC16821F08001C160C168D2
:104F300041F04001C160B0BD0421C163BDE8B04093
:104F40006AE601240FE010240DE04FF480740AE0BB
:104F50004FF4805407E002F168054FF08074AB42D3
:104F600008BF4FF4801414600022C0E90821BDE896
:104F7000B04051E660040020194C000804000240D3
:104F8000080002401C000240300002404400024081
:104F90005800024000210022435C013110291A44CC
:104FA000FAD15042C0B27047BFB50022EC46002390
:104FB00002E00CF803200133102BFAD10E4B002233
:104FC0004FF00A0E0AE0B1FBF3F404F1300504FBE4
:104FD0001311B3FBFEF30CF8025001320A2AF2D18E
:104FE0000CF1090104300022531D08BFBFBD8B5CCA
:104FF0008354013AF8E700BF00CA9A3B10B500F1AC
:10500000010E6FF06F0C080408BF10BD1EF8010CF4
:10501000A0F130042301092C88BF0CEB001313709E
:105020009EF80000A0F130040A2C0BD3A0F141043B
:10503000E4B2062C6FF0560438BF6FF036042044FB
:10504000184400E0181902F8010B0EF1020E0139A4
:10505000D9E710B5013101224FF0370C4FF0300E77
:10506000130408BF10BD0378013A4EEA13149F2BB6
:1050700088BF0CEB131401F8014C10F8013B03F04E
:105080000F0343F03004092B88BF03F137040C7081
:105090000231E5E710B50278302A2ED1427842F08D
:1050A0002002782A29D14FF0000C4FF0020E1BE0AD
:1050B00002B3412A04D3472A0AD26FF036030EE026
:1050C000A2F13003DBB2092B47D86FF02F0306E0C3
:1050D000A2F16103DBB2062B3FD26FF056031A44F4
:1050E0000EF1010E02EB0C1C10F80E20BEF10A0F9F
:1050F000DED992BBC1F800C02FE000224FF0000CB7
:105100004FF0000E0A2A28D8BCF1010F25D0835C8D
:105110006B2B07D07BB10AB14B2B04D06D2B05D183
:105120003AB91AE0CAB14FEA8E2E04E04AB14D2BCB
:1051300007D14FEA0E5E4FF0010CC1F800E00132DA
:10514000E0E7A3F13004E4B2092C06D80EEB8E049C
:1051500003EB4403A3F1300EF1E710BD2DE9F04F4E
:1051600099B0904A904F00200921002303E0FA18DB
:10517000013901335E3200291070F8D1DFF824A222
:105180009AF8010098B18A480078B8B39AF80300F9
:10519000411C8AF800108AF8031011F0FF0FDAF8AA
:1051A000200030D040F00100CAF82000A2E04FF407
:1051B000165000F0FFF8F02001AC01224FF44873C4
:1051C000ADF8040079482146FFF7B0FB013408B17F
:1051D00005F0E8FB204601214FF44872FFF722FC5E
:1051E00008B105F0DFFB4FF4E13000F0E3F89DF883
:1051F000050018B1FF2801D0F0287ED10020AAF8C0
:105200000100DAF8200020F00100CAF820004FF475
:10521000165000F0CFF8654C00264FF0010901ADA3
:105220004FF0000B002001E02E5401306028FBD12C
:10523000206809F580714FF000084160DAF81C0021
:1052400008E0DAF81C104FF00008091A1D2988BF81
:105250004FF00108E16B226CB8F1000F02D111434D
:105260002029EED10220FDF7B3FFA020ADF8040005
:105270002846FFF78FFE8DF81400204629460922A4
:105280001E23FFF753FB216800EB080728461E2268
:1052900049680921FFF7C6FBC7421FD19DF814706A
:1052A0002846FFF777FE874218D19AF800003E495A
:1052B000084480F85E90DAF8200040F00200CAF856
:1052C00020005920FDF784FF9AF8000009F1010938
:1052D0004FF0000B01308AF8000008E00BF1010BE1
:1052E000BBF1040F84BF09F101094FF0000BB9F1C4
:1052F0000A0F97D319B0BDE8F08F0024012506E00E
:1053000005FA04F000F0F00000F07AF80134082CFF
:10531000F6D1274F4FF0010B00264FF00009012571
:1053200000F092F8044600F08FF8012C08BF012825
:105330002AD084420AD19AF802005FFA8BF18142A6
:1053400007D2F0B2385C284204D108E0012C08D121
:1053500000E004D1F0B20124395C294304E00024C8
:10536000D946F0B2395CA9433954204600F048F8D8
:105370006D000BF1010BE8B2002808BF013608BF31
:105380000125F0B20828CBD35FFA8BF04128FFF457
:10539000FAAE19F0FF0F8AF8029004BF01208AF8D4
:1053A0000100F0E62001002020020020B0040020CF
:1053B0000C010020B0B5104C10494FF4805200256C
:1053C0000C23C4E900102420C4E90225C4E90453D5
:1053D000C4E90655E0632046FFF7ACFC204665644F
:1053E000E563A5632564FFF7B3F9002814BFBDE8A2
:1053F000B040B0BD05F0D6BAB00400200044004073
:105400001CB5002100280DF106044FF001024FF4F5
:1054100048738DF8071018BF4FF0FF3021468DF804
:1054200006000848FFF782FA013408B105F0BAFA1D
:10543000204601214FF44872FFF7F4FA08B105F055
:10544000B1FA1CBDB00400201CB5FF200DF106040C
:1054500001224FF44873ADF806000D482146FFF7CE
:1054600065FA013408B105F09DFA204601214FF498
:105470004872FFF7D7FA08B105F094FA9DF80600D4
:105480009DF80710401AB0FA80F0400902B010BD34
:10549000B00400200748084A0178002005E01318EE
:1054A00093F87030012B03D001308842F7D3FF20EE
:1054B000C0B2704720010020200200200B4A09489A
:1054C0000949002312780930703107E0037000F8B1
:1054D000093C437201F8013B013A0130002AF5D141
:1054E000704700BFA0020020200200202001002001
:1054F00070B5114E0D464FF08051144603223160B5
:105500000E4901F8562F020C4A70020A8A70C870C0
:10551000084604214FF4FA72FEF7BCFE08B105F00C
:1055200041FA28462146FEF7C3FF08B105F03AFAD2
:105530004FF48050306070BD100C014020020020FC
:1055400010B50A4C4FF0805006214FF4FA722060DB
:10555000074800F8561F0121FEF79CFE08B105F030
:1055600021FA4FF48050206010BD00BF100C0140A4
:1055700020020020B0B50C460546FFF7E1FF0E48BB
:1055800002214FF4FA7200F8561F290C4170290AC3
:105590008170210AC57001714471084C4FF080512F
:1055A00021600621FEF776FE08B105F0FBF94FF405
:1055B00080502060B0BD00BF20020020100C0140D0
:1055C000F8B514460D460646FFF7BAFF104F4FF0E8
:1055D000805002214FF4FA7238600E4800F8561FCE
:1055E000310C4170310A81700421C670FEF752FE01
:1055F00008B105F0D7F9284621464FF4FA72FEF7B4
:1056000049FE08B105F0CEF94FF480503860F8BD7E
:10561000100C01402002002010B5FFF791FF0A4C4A
:105620004FF0805001214FF4FA722060074820F8B3
:10563000561F0221FEF72EFE08B105F0B3F94FF414
:105640008050206010BD00BF100C014020020020DF
:10565000B0B50446FFF774FF0C4D4FF08050392170
:105660004FF4FA7228600A4800F8561F210C417066
:10567000210A81700421C470FEF70CFE08B105F008
:1056800091F94FF480502860B0BD00BF100C01406C
:10569000200200202DE9F84FDFF868801B4E1A49E0
:1056A00004464FF0050A4FF4805BD8F81C7006F1F1
:1056B0005705D8F81C00C01BA0421ED24FF08050E6
:1056C00089464FF4FA7208603046012120F856AF3F
:1056D000FEF7E0FD08B105F065F928460121FEF767
:1056E000E7FE08B105F05EF9C9F800B0494696F842
:1056F0005700C007DDD1012000E0002001B0BDE867
:10570000F08F00BF20010020100C0140200200207B
:1057100080B588B08DF80100000A13468DF80000AE
:10572000684600F1020C04E011F8010B013B0CF893
:10573000010B1806F8D102326946A0200523FDF7B7
:1057400053FF08B105F02EF9FEF794FA08B105F001
:1057500029F908B080BD00BFB0B50446FFF7F0FEE0
:105760000C4D4FF08050D8214FF4FA7228600A484F
:1057700000F8561F210C4170210A81700421C47069
:10578000FEF788FD08B105F00DF94FF48050286050
:10579000B0BD00BF100C0140200200201CB50B4C16
:1057A0008DF807004FF0806001214FF4FA722060FD
:1057B0004FF0006020600DF10700FEF76BFD08B1AF
:1057C00005F0F0F84FF4006020601CBD100C0140A3
:1057D0001CB50B4C8DF807004FF4806001214FF48D
:1057E000FA7220604FF0006020600DF10700FEF7B4
:1057F00051FD08B105F0D6F84FF4006020601CBDE3
:10580000100C014070B5ADF5207D0020002140F264
:105810003F12EF2300F08CF92C20FFF7BFFF124D51
:105820004FF480606C464FF420712860204605F0EC
:105830000CF94FF000606FF0EF06286020464FF43F
:1058400020714FF4FA72FEF725FD08B105F0AAF8B1
:105850000136F3D14FF4006028600020FFF79EFF6F
:105860000DF5207D70BD00BF100C01402DE9F04703
:10587000064618484FF01A090D4604211446C06B1D
:10588000022801EB80084FF49E7108BF4FF0140905
:105890000128A1EB800708BF4FF01009C9F1F00AF9
:1058A00012E0B0B2874238BF4D44A9B28A4538BF32
:1058B000002538BF0026874238BF0026A9B2B0B203
:1058C00000F04EF8464401342278002AE9D1BDE8C0
:1058D000F08700BF200100202DE9F84F83461F48C4
:1058E000894604211C4690465E1E4FF0000A0027A0
:1058F000C06B01EB8005A74208BFBDE8F88FF01B25
:10590000012103E001EB8101013849000206F9D1D0
:10591000B8FBF1F00A21BAF1000FB0FBF1F101EB95
:105920008101A0EB410104D1B74202D261B14FF035
:10593000010A07FB05B041F03001CAB280B2494606
:1059400000F00EF80137D6E707FB05B049462022E4
:1059500080B200F005F84FF0000AF3E720010020C4
:105960002DE9F04F85B05F4D90460423EA6B2E8AF7
:1059700003EB8207012A06D0022A09D14FF48402E0
:105980004FF0140908E04FF47C124FF0100903E0C7
:105990004FF48A024FF01A090392C21901EB09036E
:1059A000013A013B92B29BB200F0C2F82C20FFF703
:1059B000F5FEA8F120004D4C4FF00008CDF80890FE
:1059C00009FB00F0019004F15A00009082E0019878
:1059D0004FF08052CDF8108008EB0001E86B0128F1
:1059E000414823D102602046032200F8562F039A33
:1059F00011440A0C42700A0A8270C17000214FF4EF
:105A0000FA7201710421FEF745FC08B104F0CAFFE7
:105A100000980121FEF74CFD08B104F0C3FF3248A5
:105A20004FF48051016094F85AA027E002602046AC
:105A3000032200F8562F039A02EB41010A0C427030
:105A40000A0A8270C17000214FF4FA728180042129
:105A5000FEF720FC08B104F0A5FF00980221FEF734
:105A600027FD08B104F09EFF1F484FF480510160EC
:105A700094F85A0094F85B1041EA002AEC6B4FF05E
:105A80000008B4F1010B18BF4FF0010BB5F80E90F0
:105A9000474518D0012CA5F810900FD1012000FA2D
:105AA00008F01AEA000F484601D030462E8200F076
:105AB00059F80AFA0BFA08F10108E9E75FEA0A4027
:105AC0004846F2D4F3E7DDF81080DDF80890074C83
:105AD00008F10108C8457FF47AAF2E8205B0BDE811
:105AE000F08F00BF20010020100C01402002002098
:105AF00080B5DFF838C000214FF0000E0CF1200215
:105B0000CCE90011BEF1080F08BF80BD00200CEBEE
:105B10000E03187418728CF8180001E0115401304B
:105B20000828FBD108320EF1010EEBE71800002027
:105B30002DE9F04107462A20984615460E46FFF704
:105B40002DFE074C3846A0472846A0472B20FFF7DC
:105B500025FE3046A04740462146BDE8F0410847B3
:105B6000655B000810B50C4C4FF480614FF4FA727D
:105B700021600A494870000A08704FF000602060F8
:105B800008460221FEF786FB08B104F00BFF4FF434
:105B90000060206010BD00BF100C0140100000200C
:105BA0002DE9F04FADF5006D81B0284A00EB4001C2
:105BB0000C2802EB014408D1002000211F221F23E2
:105BC000FFF7B6FF4FF4006508E00020002140F227
:105BD0003F12EF23FFF7ACFF4FF416352C20FFF7F1
:105BE000DDFD1B4F4FF000080DF1040B27E0B8EB73
:105BF000D52FAA462046594618BF4FF4006A1FFA0F
:105C00008AF63246FFF774FC4FF480604FEAD529DC
:105C1000B8EBD52F31464FF0050238604FF00060E9
:105C20003860584618BFA5F50069FEF733FB08B188
:105C300004F0B8FE4FF4006054444D463860002D27
:105C4000D5D10DF5006D01B0BDE8F08F0000FDFF6E
:105C5000100C01402DE9F04F89B08D4F0220DFF884
:105C600038828E49F8638B48C7F80E0098F8020016
:105C700051F820200020DC21FFF7F8FD98F8020001
:105C8000002187A2002804BF48F23041CFF6FF71FF
:105C9000F98118BF4FF0FF30002138820020FFF754
:105CA000E5FD0DF11200DFF814B2DFF818A208F1DB
:105CB000200428254FF0000900F10E01039100F1A6
:105CC00009010291811D033001910090B9F1080F83
:105CD00004BF09B0BDE8F08F98F8020098F80410EE
:105CE0005BF82920B9EB0101B0FA80F018BF01215F
:105CF0004009084348F2304118BF00214042F98171
:105D0000388209EB890005EB800086B2002031461D
:105D1000FFF7ACFD08EB0900007A092852D00828EB
:105D200066D1B9F1070F67D10DF1120608F15800DD
:105D30003146D0473A2000998DF8140008F15900F7
:105D4000D047202001998DF8170008F15A00D0475C
:105D50002E2002998DF81A0008F15B00D047302000
:105D600003998DF81F0043F22E20ADF81D0008F1B5
:105D70005C00D0470020B42132468DF82200782004
:105D8000FFF774FD98F80400072831D198F8060051
:105D900001282DD1002038824CF21860F88198F843
:105DA0000500042824D8DFE800F00348525C6600B0
:105DB0009DF812207820B421FFF7D2FD9DF8132022
:105DC000842063E000203E4938824CF21860F8815C
:105DD00098F8140051F82020D2207821FFF746FDD2
:105DE000387878213030C2B24FF49670FFF7B8FDA2
:105DF000083409F1010969E7FA2031462246FFF724
:105E000035FD98F806000128F2D1002098F80530F9
:105E100098F80420FA2138824CF21860F88103EBDC
:105E2000430001EB800002EB820108EBC2021A443E
:105E300005EB810192F82020D8E79DF815209C20E1
:105E4000B421FFF78DFD9DF81620A8201EE09DF8D7
:105E50001820C020B421FFF783FD9DF81920CC2025
:105E600014E09DF81B20E420B421FFF779FD9DF894
:105E70001C20F0200AE09DF820204FF49070B421FF
:105E8000FFF76EFD9DF821204FF49670B421ADE729
:105E9000200100200000FFFF18000020ACAA00082D
:105EA0002020202053595354454D2020534554540D
:105EB000494E475320202020202000008CAA0008B3
:105EC00080AA00085350000823490020002201E066
:105ED00088540132802AFBD120484FF00062DFF85D
:105EE00080C002600022CCF80420CCF80820CCF856
:105EF0000C20CCF810201B4A136C222B07D11368FE
:105F0000D86820F02000D86020201064D063936B04
:105F1000106C20281BD1012B19D080200023D085A4
:105F20005364908522209162936310641068C16865
:105F300041F48071C160416941F001014161C16872
:105F400041F02001C1600120CCF80000704741F20F
:105F50002E60CCF8140070477C000020100801402F
:105F6000A0010020600400202DE9F04FADF5036D85
:105F700081B0DFF8A869B06910F0010F12D0DFF826
:105F8000A009F16AC269511A41F27072914209D3B3
:105F9000B16921F00101B161017901F0F30141F032
:105FA000080101713068022840F0288470680128D7
:105FB0003FD1DFF870B99BF80000A0F16401C9B2CD
:105FC000172900F29A80DFF8584900220121F26176
:105FD0006071E3699BF801209BF8025045EA0225B5
:105FE000DBF8072017BADBF80320C6E90B31C6E956
:105FF0000D57237912BAF26303F0F7072771B769D7
:1060000047F00107B761A0F17707FFB2022F80F0D8
:10601000D68003F07701D54A7728217100EB400143
:1060200002EB0141316414BF4FF470104FF464105F
:10603000DAE07068022840F0A483306C002800F099
:10604000E180DFF8E018326B0B784F7847EA0323E2
:106050009A4240F0D780C64D012A01F1020402BFE6
:106060000120A860306C326A911E8AB22146FFF787
:10607000A7FA4FF4FA70FFF70DFB08B904F092FC91
:106080003069316A326C11440128A1F10201316496
:1060900002D1062000F08CFC306A023803E014F8CC
:1060A000011B013829600028F9D12868DFF87098B1
:1060B000F064D9F81C10F162D6E90C12914240F05C
:1060C000A980B16B884240F0BA8099F80500772822
:1060D00040F0B780F06B04220424010E8DF81F00FD
:1060E0008DF81C10010C000A8DF81D108DF81E0093
:1060F00007A92120FFF70CFBEDE0A0F1BC0122294C
:1061000000F28B80DFE811F02300F700F700F700C2
:10611000FB00F7000701F700F700F700F700F700B2
:10612000F700F700F700F700F700F700F700F700B7
:106130006C018401B101D301DA01E50120022702DB
:106140003E024E025A026102F700F7006E02306909
:10615000012802D1062000F02BFC572007A90122BC
:106160008DF81C002520FFF7D3FA4FF4960001218B
:106170004FF4960800F0F4FB7E4C00270DAD1AE0BA
:10618000002002E0215C29540130B0F5807FF9D174
:10619000404629464FF48072FFF712FA4FF4FA7026
:1061A00007F5807704F58074FFF774FA08B904F0F6
:1061B000F9FB08F58078380B0C28E1D9A8E0DFF866
:1061C000685700EB40004FF490072970DFF85C57E8
:1061D000297003F0B7012171644901EB0040C6E961
:1061E0001070B2644FF49000032100F0B9FB3069E5
:1061F000012840F0C68201208BF8050060798BF8F9
:106200000600BAE23069012840F0BB82152000F098
:10621000CFFBB6E2481C3063B3E2852800F0E98189
:10622000A02800F0ED81A12800F00582A32862D10A
:106230003069012840F0A5824AF201309BE208242F
:1062400049E0DFF8E4060078012843D1D6E911A53A
:106250004FF6FF70012125EA00002A0CA842DFF862
:10626000CC0638BF01EB154290F800B0D1B25046D1
:1062700000F076FBBBF1000F0DF1340818BF4FF4AE
:10628000900B1FE0FF2D2C465846414688BF4FF427
:106290008074A7B23A46FFF72BF9504641463A467A
:1062A000FFF78EF94FF4FA70FF2D4FF0000788BF0B
:1062B000A5F58077FFF7EEF908B904F073FBA34466
:1062C000A2443D46002DDDD199F8040040F01000B5
:1062D00089F8040004240021DFF84C0689F8051031
:1062E0003164017099F80400204389F80400B06912
:1062F00020F0010044E2B06920F0020040E2306981
:10630000012802D1062000F053FB0A20FCF760FFB1
:1063100004F048FB35E2DFF80876174DF869F062C3
:10632000B06940F00100B061286810F0800F05D01E
:10633000124845F80C0C124845F80C0CDFF810A672
:10634000DAF83000012800F0F1810120CAF83000AD
:10635000FCF7B0FF002840F0E68106494FF00064EA
:1063600001204FF00008894623E000BF0000D4FE62
:106370000030024000300008102002402301674531
:10638000AB89EFCDCAF83480286840F0020028605D
:106390006C60286840F040002860FCF78BFF29689B
:1063A000002821F00201296040F0BD8104F58064DD
:1063B00000204C454946E5D300210028CAF830109A
:1063C00040F0B48128684FF440544FF000610DF163
:1063D000340940F0800028604FF47010049191E27D
:1063E0009BF801009BF80210DFF84425A0F1300370
:1063F0005360A1F13003DBB2092B9EBF084457382C
:1064000050603069012840F0BC814DF20100B2E1DA
:10641000DFF80C45DFF82C550BF10100022104F1E7
:106420001202A8470BF1050004F114020221A8474B
:106430000BF1090004F116020221A8479BF80D0098
:106440000722A071618AADF81C106169CDF81E1099
:106450008DF8220007A92820FFF75AF93069012892
:1064600040F08F814DF2011085E10021012014E000
:106470000BEB02014B78511C302B07D0312B0CD188
:1064800000FA02F2B36E92B21A4305E0B36E00FA5C
:1064900002F223EA020292B2B2660A460929E7D161
:1064A0003069012840F06D814DF2012063E13069CF
:1064B000012840F066814DF201305CE19BF801005B
:1064C000312804D1306E10F0080F40F03D813020AB
:1064D0004AE10DF13408DFF86C440BF101000121B1
:1064E00048F00202A0470BF1030048F0010201212D
:1064F000A0470BF1050048F003020121A04707ADBA
:106500000BF1070001212A46A0470BF1090045F0D5
:1065100001020121A0470BF10B0045F0020201210D
:10652000A0472846FDF78AFC4046FDF717FEDFF836
:10653000F003016A41F0200101623069012840F056
:1065400020814DF2015016E13069012840F0198197
:106550004DF201600FE15946DFF8C42331F8010F15
:1065600000BA000C9081DFF8D823126850633B20FA
:106570000222FFF7CDF83069012840F002814DF288
:106580000170F8E0BBF80100E549022221F8180F7C
:106590003620FFF7BDF83069012840F0F2804DF653
:1065A0000100E8E0DE48016C41F00401016430695B
:1065B000012840F0E6804DF60110DCE0306901284A
:1065C00040F0DF804DF60120D5E00BF101015020B5
:1065D0001022FFF79DF83069012840F0D2804DF677
:1065E0000130C8E03069012840F0CB804DF60160F1
:1065F000C1E03069012840F0C48048F20150BAE09F
:106600003069012840F0BD804AF2090000210122D2
:10661000ABF80500C24800790AE002FA01F30BEB7F
:106620000107013103424FF0310308BF3023FB71F2
:106630000829F2D1A1E03069012840F0A2804AF295
:106640003210ABF80500BB48CBF8080044F24430E8
:10665000ABF80C004FF03030CBF80E00B4480079A6
:1066600000F13001CAB2392A88BF00F13701002099
:106670008BF80710012112E0736F01FA00F20BEBA7
:106680000007013013424FF0310308BF3023BB74C1
:10669000736E13424FF0310208BF3022BA760828D9
:1066A000EAD1A549002006E00B180BEB00020130EF
:1066B0001B7982F822300828F6D14FF4645007A9DC
:1066C00002220523ADF81C00A020FCF78DFF08B1C5
:1066D00004F068F90BF12B01A12001220523FDF73D
:1066E0000BF908B104F05EF99BF82B000A2164282D
:1066F00024BF63208BF82B00B0FBF1F130318BF815
:106700002A1002E00A388BF82B00C1B20A29F9D20C
:106710008A4A4FF030313030CBE90B11CBF83420BE
:106720008BF82B0029E00020CAF83000202002213D
:106730003A6C11433964397908433871306901285A
:106740001FD14CF2012016E0306E20F008003066B8
:106750007348016C21F02001016400210166016C85
:1067600041F00041016431208BF8070030690128B5
:1067700007D14DF20240ABF80500B06940F00200CD
:10678000B061B06910F0020F36D0654A6549062045
:106790000027528A0870A1F80320726A736AB762F0
:1067A000120A4A708B704A79931D04E0CF5DB56A76
:1067B00001302F44B762C7B2BB42F7D8B06A664D0A
:1067C000664C000AC85488180423B26A03727B23FB
:1067D000C2714FF400602860487900F10902204638
:1067E000FEF7A4F8E06B2028FCD1B06920F002008D
:1067F000B0614FF000602860FFF766FB0DF5036D98
:1068000001B0BDE8F08F4FF000082146B8EBD42F5F
:1068100018BF4FF40061019003918AB24946FEF718
:1068200067FEE00AB8EBD42F18BFA4F50060009013
:10683000286810F0800F05D0434845F80C0C4348F9
:1068400045F80C0C03980022810804980291034635
:1068500047E0DAF8300001283FF468AFCDE90523BE
:10686000012059F82270D146CAF83000FCF722FD09
:1068700000284DD1069C4FF000084FF0000ABAF1F5
:10688000010F1CD80020A8F12001C9F8340000290C
:10689000286840F00100286027FA08F0A8BF00200F
:1068A00024F8020BFCF706FD296808F110080AF12C
:1068B000010A002821F001012960E0D028E0002031
:1068C000059A069BCA46164FC9F830000DF13409E7
:1068D00059F82200196881427FF428AF02990132E9
:1068E00004331C48834298BF8A42B2D3286840F0E0
:1068F0008000286003990198009C0A460844049986
:1069000011440491002C7FF47EAF102001210FE789
:106910000020034FC9F8300008E700BFA0010020A5
:10692000200100207C000020FC000020000100204D
:106930000000002058303030C5AA000830304443F1
:1069400010040020FD4F000823016745AB89EFCDFF
:1069500010030020FCFF0008100801406004002024
:10696000B0B50C460546200608BFB0BDFEF754FE84
:106970004FF4FA70FEF78EFE08B904F013F82846BB
:10698000FEF766FE4FF4FA70FEF784FE08B904F0D5
:1069900009F82846FEF7E0FE4FF4FA60FEF77AFEAB
:1069A00008B903F0FFFF013C05F58035DBE700BFC8
:1069B0007CB50E4D8DF807004FF400600C4E0D4C69
:1069C0000DF1070101227B2328607B2070612046A6
:1069D000FDF7ACFF08B103F0E5FFE06B2028FCD128
:1069E000002070614FF0006028607CBD10080140FD
:1069F000A00100206004002081B00021134A009112
:106A000012681368009353680093009B0091136809
:106A1000009353680093009B0091136800935368A0
:106A20000093009B00911368009353680093009BB0
:106A300000911368009353680093009B526841646F
:106A400003488160C16001B0704700BF600400204E
:106A5000A001002080B5084A052302F8380F7E20E7
:106A6000517011460222FCF7BFFD002814BFBDE89B
:106A7000804080BD03F096BFA002002080B51420A6
:106A800000F008F8800718BF80BD14200321BDE87E
:106A900080401BE010B50C4C01220523214601F873
:106AA000380F7E20FCF7A0FD08B103F07BFF04F156
:106AB00028017F2001220523FCF71EFF08B103F007
:106AC00071FF94F8280010BDA0020020B0B50C465C
:106AD0000546FFF7DFFF40EA04012846BDE8B04065
:106AE000B8E71CB504460D200721FFF7B3FF2620A9
:106AF00021460122234620700DF1060000900C2053
:106B000000F0C0F8BDF80610002210294FF0000177
:106B100008BF0146012818BF1146084602B010BD43
:106B20001FB550200DF10A040221ADF80A00A21C85
:106B3000204600F073F80DF10E0021460422234692
:106B400000900C2000F09EF81FBD1CB504460D20DF
:106B50000021FFF77FFF42F29300214602222346E5
:106B600020800DF1060000900C2000F08BF8012829
:106B70000BD10020002101E051400130225C0428AB
:106B8000FAD1881AB0FA80F0400902B010BD00BFF7
:106B90001E4800210022A0F85C10816503E08318E4
:106BA000013283F86410052AF9D10021002203E0A4
:106BB0008318013283F85E10062AF9D180B5DFF818
:106BC00050E0144ADFF850C000200023102B08BF0B
:106BD00080BD0CEB03010EF80300D05481F848008F
:106BE00081F8380081F8580081F868000EEB030145
:106BF000087481F8200081F83000D118013308743E
:106C000081F8200081F83000E0E700BFA0020020FA
:106C1000D0030020900300201003002070B50D4623
:106C20000646012000211446FFF714FF0520042129
:106C300000F0FEF80A208021FFF748FF05E016F873
:106C4000011B0920FFF706FF013D002DF7D10120B0
:106C50000321FFF7FFFE6FF0FD050520FFF71AFF88
:106C60001DB1013510F00400F7D001200021FFF71D
:106C7000F1FE2220FFF70EFF20702120FFF70AFF10
:106C8000607070BD2DE9F0471C4616460F468246DF
:106C90000C2806D0BAF10E0F07D111254FF01209BA
:106CA00006E031254FF0770902E001254FF0000999
:106CB00049F08000DDF82080C1B20220FFF7CAFE53
:106CC0000420802100F0B4F80A208021FFF7FEFEA6
:106CD00001200021FFF7BEFE05E017F8011B092087
:106CE000FFF7B8FE013E002EF7D101205146FFF715
:106CF000B1FEBAF10C0F03D10D208021FFF7E6FEA3
:106D0000244F0420FFF7C6FE0646013725D0354242
:106D1000F7D00D20802100F08BF80620FFF7BAFE97
:106D200010F01B0F1DD109EA0600BAF10C0F00F09C
:106D3000010000F1010615D10A20FFF7ABFE054660
:106D40000C20FFF7A7FE10F007000ED04FF6F871E9
:106D5000C0B201EBC501084308E00D20802100F01E
:106D600067F800263046BDE8F087E800102D2F4672
:106D7000A8F8000028BF1027002D08BF012705E054
:106D80000920FFF787FE04F8010B013F002FF7D120
:106D9000E8E700BF30F8FFFFFEB58DF80B0060207C
:106DA0000DF10A0C00238DF80A0016480CF10202BE
:106DB00004E0C11891F85010D1540133062BF8D1DA
:106DC0000CF10801002204E0831893F845308B543D
:106DD0000132042AF8D10DF116000DF10A010C223E
:106DE00000900E200B46FFF74DFF012804D108202C
:106DF000FFF750FE000701D4002000E0012006B09C
:106E000080BD00BF200200201CB5487030200C4619
:106E10008A1C087008460221FFF700FF0DF10600EA
:106E200021460422234600900C20FFF72BFF1CBDB7
:106E3000B0B50C460546FFF72DFE20EA04012846B2
:106E4000BDE8B04006E600BF80B5084801210A222F
:106E50000930FDF71FFA08B103F0A4FD04484FF014
:106E6000805101604FF48051016080BD20010020FD
:106E700010080140E0B58DF807108DF806000DF1FF
:106E80000601502002220A23FCF7AEFB08B103F0F2
:106E900089FD8CBDE0B58DF807000DF1070150208C
:106EA00001220A23FCF7A0FB08B103F07BFD0DF1E2
:106EB0000601512001220A23FCF71EFD08B103F050
:106EC00071FD9DF8060002B080BD00BF2DE9F04FB6
:106ED000B5B0CC49086A002810DB086A10F0804F72
:106EE0000CD1086A10F0005F08D1086A10F0805FCA
:106EF00004D1086A10F0006F08BF086AC249012077
:106F0000C24DC34E4FF6FF07C24CC1F8A4008846DD
:106F1000286840F010002860306838402043306016
:106F2000FCF738F9B748B749406940F001004861BB
:106F3000B448B449406900F001000F900F98B1487F
:106F4000806940F080508861AE480021806900F07F
:106F500080500F900F9830683840AA4F2043AE4CB5
:106F600030606FF00B00A0476FF00A000021A047CF
:106F70006FF009000021A0476FF004000021A04736
:106F80006FF003000021A0476FF001000021A0472F
:106F90004FF0FF300021A047A04C4FF4144021587F
:106FA00021F0E0612150215841F0007121503868F2
:106FB00000F00C00042802D1994800681AE03868F3
:106FC00000F00C00082803D1386810F4803FF3D19A
:106FD00093480146006840F4803008609148C169D8
:106FE0008F4A126812F4003F04D1C269521A642A0F
:106FF000F6D96CE0B86910F0805F0AD1B869012158
:1070000040F08050B861B86900F080500F900F9840
:1070100000E00021D4F8FC0310F4807F11D1D4F8F3
:10702000FC0340F48070C4F8FC037E48C269D4F8C5
:10703000FC3313F4807F04D1C3699B1A642BF6D907
:1070400045E0F86941F2883340F00100F861754885
:10705000C269FF6917F0020F05D1C769BF1A9F42C5
:10706000684FF6D933E0674F00291EBFB96921F098
:107070008051B961396801F00C01082927D06A49AB
:107080000022434648F80120C269654B1B6813F093
:10709000007F04D0C3699B1A022BF6D917E03A6827
:1070A000434622F400323A603A6822F4741242F401
:1070B000E8123A60012248F80120C169584A126872
:1070C00012F0007F05D1C269521A032AF6D303F0E9
:1070D00069FC286810F0060F09D12868022161F3C5
:1070E00002002860286800F00700022846D13868AE
:1070F00020F0F00038604A48006810F0007F3DD072
:107100003868022141F2883261F301003860454855
:10711000C1693B6803F00C03082B04D0C3695B1AF8
:107120009342F6D92AE0286800F00700032809D323
:107130002868022161F302002860286800F0070037
:1071400002281BD13868042161F30A2038603868AE
:1071500020F46050386035483A6802F00C01082984
:1071600043F0D583C2F3834131A312F4803F595CCD
:1071700043F0C5833248484303F0C9BB03F012FC17
:10718000B86910F0805F0AD1B86940F08050B861EA
:10719000B86900F080500F900F98012000E00020A7
:1071A000D4F8FC1311F4807F11D1D4F8FC1341F40E
:1071B0008071C4F8FC131B49CA69D4F8FC3313F47A
:1071C000807F04D1CB699B1A642BF6D959E0F96909
:1071D00001F4007141F48071B1F5807F32D1094B27
:1071E00001220028D96962F30921D96103D0986985
:1071F00020F0805098611868022161F38F30186088
:1072000041E000BF041002403C0442420020024022
:107210000CED00E00003FA05F1310008046C0040B9
:10722000001002402001002024FCFFFF00127A0021
:1072300002030405060708090A0B0C0D0E0F1010B7
:1072400000093D00D449012247460B46C969C8F8E8
:1072500004200022C8F8042021F4407211F0010F2C
:10726000DA61BCD05FF84410CB4F41F28833CA6971
:10727000FF6917F0020FB2D1CF69BF1A9F42C64F04
:10728000F6D903F08FFBC5484FF47A7100240068EB
:10729000B0FBF1F0411EC248B4EB116F05D1416063
:1072A000F021F17507218460016001684FF0FF361D
:1072B00041F0040101604FF0FF300021FBF798FF1F
:1072C000B84FB948C7E90006BC60786988B90020A2
:1072D00001213861B5480160AF480246806940F03D
:1072E00000609061906900F000600F900F98C8F8FE
:1072F000001002207861FCF753FDAD4C40BBFCF759
:1073000069FD28BBA8480146406820F00700486096
:10731000B86818B1E16A21F00101E162A16A21F4C3
:1073200060710843A0627868411C03F0CA829E49DC
:107330000A46896821F00F0141EA10419160D16845
:1073400060F30F01D160FCF75FFD002803F0CE82EF
:10735000042078614AF2A551206880B288420CD19D
:1073600060688DF83E00A0688DF83D00E0688DF8FB
:107370003C0020698DF83F000AE000208DF8C6002F
:107380001220ADF8C4008B480F9031A8FCF756FDD1
:10739000814E0FA8FCF7E2FEFCF702FD4AF2A55071
:1073A000DFF81482206005F58050C8F81C00D8F87A
:1073B000240058B90020C8F82000306940F040008F
:1073C0003061306900F040000F900F984FF00109D4
:1073D0007A4C7B497B4D4FF0020BC8F824907069C2
:1073E00040F004007061706900F004000F900F9885
:1073F000706940F008007061706900F008000F903B
:107400000F98706940F010007061706900F0100012
:107410000F900F98706940F02000706170690FAE96
:1074200000F020000F900F984FF40050C4F810089F
:1074300021614FF08061C4F810144FF4C051C4F8BA
:107440001014CDE90F0904F500603146CDF848B0BD
:10745000A84749F6F010CDF8409031460F902046ED
:10746000CDF848B0A8470027FF2004F5806A3146D0
:1074700010970F9050461197A8474FF4E050CDF861
:10748000409031460F905046CDF848B0A847464945
:107490004D4E4E484FF024090A4601F530544FF442
:1074A00080413762C6E90040C6E90277C6E90417A1
:1074B000C6E90677C6F840904FF43050115821F0D5
:1074C00001011150FDF7AEFBB76437643763776491
:1074D000F763306C08BBF7633068A0421DD12E48BB
:1074E0000146806940F40010886188690FA900F4A2
:1074F00000100F900F98122010904FF440700F90D2
:10750000032012905046FBF727FF29494FF41440FF
:107510000A46095841F002011150C6F840903068FF
:10752000016821F001010160FCF794FE2849294C13
:10753000B0FBF1F331684B607268A2420AD8520086
:107540000133B0FBF2F040F6FC720B62104208BF50
:10755000042047E04FF496777B434FF47A77B3FBF0
:10756000F7F301330B62B36833B119275743B0FB0C
:10757000F7F747F4804703E002EB4207B0FBF7F769
:107580003F0507D043B319235A43B0FBF2F040F450
:10759000804025E0012025E004100240000000208A
:1075A00010E000E0100300200028004020000E4200
:1075B000046C004001010118A002002000080140F5
:1075C0000000F0995933000800050020801A0600D9
:1075D00040420F00A086010002EB4202B0FBF2F035
:1075E00040F40040C86100254FF48273D6E90702D9
:1075F00010430860D6E9030210438860D6E905020B
:1076000010434FF40072C860086840F00100086041
:107610002020B5640A213064CD4835637564CD4EB1
:1076200000F5805086E82900C6E90355C6E90552F1
:10763000F561C6E90855C6E90A51776D7FB10027A3
:107640004FF0000B4FF0000A00244FF0000E4FF0F7
:10765000000C0E9700270D9700270C970EE0FDF702
:10766000F9FA306AF16A0D90706A0E90B06A0C9067
:1076700096E80950D6E9044AD6E9062B022743EAE0
:107680000C03776543EA0E03D0F80090234343EAE6
:107690000A0329F04007076002F400773B430D9F7F
:1076A00043EA0B033B430C9F3B430360042303EA81
:1076B00012420E9B1A434FF47A73426001614722D3
:1076C000C16921F40061C1610121B5654FF08040BD
:1076D0007165A14E86E82500C6E90335B561376CB2
:1076E00067B900279D4CF763A769254647F0010756
:1076F000A761A76907F001070F970F9F022737645B
:10770000076827F47C7707609548836242620161CD
:107710003164F16B012904D103F044F903F042F91B
:1077200030E002213164026822F0700202600268D7
:107730000260426822F08002426042684260012298
:107740003264F2633164C16921F00101C161C16930
:1077500003684769036027F0730321F0020143F0D7
:107760006003436164230363C161416941F008011F
:107770004161416921F00401416141694161002099
:10778000F0633264774C022001210DF13C09109026
:107790000F91129049462046FBF7DEFD3068016AE2
:1077A00021F001010162016A41F00101016204F569
:1077B0001051884204D16C490A6842F400420A60C0
:1077C000016841F0010101607B20FBF701FDFDF73D
:1077D00023FF4FF4FA70FDF75DFF08B903F0E2F8FC
:1077E0004FF47C10FDF734FF4FF4FA70FDF752FFB1
:1077F00008B903F0D7F84FF47C10FDF7ADFF4FF454
:10780000FA60FDF747FF08B903F0CCF8574F0024A2
:107810004FF0020B4FF080554FF4805626E004F5F0
:107820007C1AFDF78DFE52484FEA1A414FF4FA7266
:1078300000F856BF41704FEA1A218170395D80F817
:1078400003A001714749C1F810540521FCF722FD3E
:1078500008B103F0A7F84348C0F810644FF4FA7079
:10786000FDF718FF08B903F09DF80134B4F5BE6FB9
:10787000D5D1FDF7D1FE4FF4FA70FDF70BFF08B933
:1078800003F090F84FF48400FDF7E2FE4FF4FA7035
:10789000FDF700FF0028CB4608BF03F083F84FF444
:1078A0008400FDF759FF4FF4FA60FDF7F3FE00285E
:1078B000DFF8A49008BF03F075F82E4E002440F6C0
:1078C000D8650CE0315B04F58400FDF753FE4FF4FE
:1078D000FA70FDF7DFFE08B903F064F80234AC4239
:1078E000F0D1FDF799FE4FF4FA70FDF7D3FE08B919
:1078F00003F058F84FF48A00FDF7AAFE4FF4FA702F
:10790000FDF7C8FE08B903F04DF84FF48A00FDF703
:1079100023FF4FF4FA60FDF7BDFE08B903F042F80B
:10792000154E002441F24C350CE0315B04F58A0021
:10793000FDF720FE4FF4FA70FDF7ACFE08B903F036
:1079400031F80234AC42F0D1002000211DE000BF2C
:1079500000280040600500201004002004100240B0
:107960000400004000080140442C0140D4AA000853
:1079700020020020C4B000089CBF0008E9350008C0
:10798000753C00080BF8010001311829FAD10027D5
:107990004FF414505FF81CA05946032205238DF8BC
:1079A0003E70ADF83C00A020D0475FF82C60B04797
:1079B000E2485946082205230F90E1481090A02084
:1079C000D047B0474FF43850594603220523ADF84D
:1079D0003C0036208DF83E00A020D047B047D94863
:1079E0005946042205230F90A020D047B047D6481F
:1079F0005946042205230F90A020D047B0474FF4EA
:107A000080404FF6FF754FF0FF345946082205239A
:107A1000ADF83C00A020ADF84250CDF83E40D04734
:107A2000B0474FF49040594608220523ADF83C007A
:107A3000A020ADF84250CDF83E40D047B0470020DE
:107A400002E00BF8007001301828FAD1BF480FADE2
:107A50001222052329460F9045F24D30ADF8400023
:107A6000A020D047B0474FF4645000242946032299
:107A70000523ADF83C00A0208DF83E40D047B0472C
:107A80004FF40050294603220523ADF83C00A02006
:107A90008DF83E40D047B047AD484FF08054AB2101
:107AA0004FF4FA72C0F810445FF83C0100F8561F1A
:107AB0000121FCF7EFFB08B102F074FFA4494FF479
:107AC0008050C1F8100401200D46FBF781FB5FF8E0
:107AD00060019F21C5F810444FF4FA7240F8561F18
:107AE0000121FCF7D7FB00285FF8504518BF02F0D2
:107AF00059FF5FF8840103215730FCF7D9FC08B126
:107B000002F050FF92494FF48050C1F810045FF822
:107B1000A001024690F8570092F8581092F85920A8
:107B2000090241EA00408B491043884218BF02F025
:107B300039FF00200FA902220523ADF83C00A02048
:107B4000FBF752FD08B102F02DFF0FADA1208022FE
:107B500005232946FBF7D0FE08B102F023FF9DF86C
:107B60005C209DF861E09DF86AC06260BDF87720F6
:107B70005FF8504912BA84F807E084F806C0120C86
:107B8000A28100220EE0AF18A318013297F82860F6
:107B900097F82A1097F82C0097F836709E7419758C
:107BA00098751F76022AEED105F13002002306E017
:107BB0005FF84412D05C1944013381F84A00052B68
:107BC000F6D105F14002002306E05FF85C12D05CBC
:107BD0001944013381F85000062BF6D1002208E049
:107BE00005EB420108EB42000132B1F86010A0F849
:107BF0004810082AF4D105F17002002306E05FF86E
:107C00009012D05C1944013381F85E00092BF6D143
:107C1000BEF1000F1DD0BEF14E0F06D0BEF14F0FCA
:107C20000CD14FF40020202102E04FF480201021DD
:107C3000227911432171216C0843206400202546DC
:107C4000012205F8070F25202946FDF761FD15F8EB
:107C500001CCACF13000404EC0B20A2824BF36201F
:107C6000A071306E20F010003066706E40F002009F
:107C70007066607A40F004006072706E20F001005F
:107C80007066FFF7E1F800200FA901220A238DF8A2
:107C9000BC008DF8C400FD208DF83C005020FBF79F
:107CA000A3FC08B102F07EFE2FA9512001220A2375
:107CB000FBF722FE08B102F075FEFE200DF13C0B31
:107CC00001220A238DF83C0050205946FBF78CFC1A
:107CD00008B102F067FE31A9512001220A23FBF707
:107CE0000BFE08B102F05EFEF06E9DF8BC106F292D
:107CF0003AD19DF8C4105D2936D140F08000174D6F
:107D00000021F0662A20A84721200521A847272026
:107D10000521A84744204021A84728200021A84742
:107D200029200521A8471F200F21A84780200021D6
:107D3000A84700200021A84719E000BF0028000143
:107D400067769999003B01F40036ABCD0050474867
:107D5000000801401740EF00A0010020756E0008E8
:107D6000556A00086004002020F08000F066607A08
:107D700000F07F006072FFF767F80A20FBF728FA2F
:107D8000607A40F080006072FFF75EF83220FBF707
:107D90001FFA5FF8347001200F21B8472A208D2187
:107DA000B8472B203E21B8472C2000210025B8479A
:107DB0002D201E21B84715204021B84711203D2114
:107DC000B847FEF75BFE316D5FF86820EB480C2783
:107DD00021F00101A0F5584031651646E8A2A179CD
:107DE00002EB810151F8C01C86E823003046C6E949
:107DF0000355C6E90575F561FCF7AAFC08B102F068
:107E0000D1FDE94AE94B4FF416504FF4805102F589
:107E1000E052C3E900201846C3E90215C3E904573C
:107E2000C3E90655FCF794FC08B102F0BBFD5FF80E
:107E3000C03400200021207009E05A18013192F866
:107E40005E20013AD2B2082A9CBF01302070092975
:107E5000F3D1000604D0206A40F00200206201E065
:107E6000FDF77CF9FEF730F8D1494FF40060D14DB1
:107E7000C1F81004607A40F040006072A847CE4F0D
:107E80000520B847607A00F0BF006072A847322032
:107E9000B847607A40F040006072A847C820B847F1
:107EA000DFF818A3EF20D047C54D0320A847802056
:107EB000A8470220A847CF20D0470020A847C120CC
:107EC000A8473020A847ED20D0476420A8470320CA
:107ED000A8471220A8478120A847E820D04785203E
:107EE000A8470020A8477820A847CB20D0473920B2
:107EF000A8472C20A8470020A8473420A8470220E4
:107F0000A847F720D0472020A847EA20D0470020E4
:107F1000A8470020A847C020D0472320A847C12059
:107F2000D0471020A847C520D0473E20A84728208A
:107F3000A847C720D047E820A8473620D047E820E8
:107F4000A8473A20D0475520A847B120D047002065
:107F5000A8471820A847B620D0470820A847822065
:107F6000A8472720A847F220D0470020A84726206E
:107F7000D0470120A847E020D0470F20A847312054
:107F8000A8472B20A8470C20A8470E20A847082068
:107F9000A8474E20A847F120A8473720A847072028
:107FA000A8471020A8470320A8470E20A84709206B
:107FB000A8470020A847E120D0470020A8470E206E
:107FC000A8471420A8470320A8471120A847072046
:107FD000A8473120A847C120A8474820A847082023
:107FE000A8470F20A8470C20A8473120A8473620D3
:107FF000A8470F20A847B120D0470020A84710204D
:10800000A8471120D047C820B8472920D047D9F821
:108010000000A1894163FDF7F5FB0120694A6A4D23
:108020000021E0636948C4F80E000A20A847684AA6
:1080300014202821A847674A00205021A847664AF3
:1080400000206021A84765A200208021A847207E4B
:10805000617E654F052341EA00228C208021B847CC
:1080600062A200209021A84772688C2090210623EC
:10807000B84762A20020A021A847A07CE17C05238C
:1080800041EA00228C20A021B84760A20020B02144
:10809000A847206A10F0010F0AD15FF8009B800703
:1080A00002F1F6835D4A8C20B021FDF7DFFB06E08C
:1080B0005BA28C20B021FDF7D9FB5FF8209B3B4EE3
:1080C0005FF86C73FDF714FD206C012140F008008F
:1080D000206458484170206C40F00040206440F219
:1080E000DC50FBF775F840F2DC50FBF771F831A873
:1080F000DFF844A15FF88857014602300E900BF17B
:1081000012000A900BF10F0009902FA840F0010215
:1081100040F0020008920BF10C020190C81D07927A
:108120000BF108020D9008F1090006920BF1030211
:108130000C90059241F00302049241F00102039277
:1081400041F0020202923868022803D1FDF70CFFC9
:108150005FF8E457B86910F0010F40F01D84B96E64
:10816000B86E00F4007011F4807F67D100284FF0E2
:1081700000011EBFA07A7866B96698E00010024040
:1081800060090000C012000080250000004B0000C4
:108190000096000000E1000000C20100008403001E
:1081A0000008070000100E0000280040B004002066
:1081B00000080140496E0008D13100089D570008B1
:1081C000D157000873D400086D5800080000FFFF65
:1081D00055D50008B8AA0008C5AA000853797374D9
:1081E000656D2049443A0000D9580008525334388C
:1081F000352062617564726174653A005253343897
:108200003520616464726573733A00004F6E655780
:10821000697265206465766963653A0099D40008DF
:10822000445331384232302054656D702E53656EA0
:10823000736F720018000020D003002028B9786EF8
:10824000A072B86E40F40070B866B86EC0B27866BE
:10825000B86E10F0400F0BD0B86E10F4805F07D1ED
:10826000B86E002140F48050B866E069B8671EE03F
:10827000B96EB86E11F0400F05D14EF6FF7108408F
:108280000021B86613E040064FF000010FD5B86E2C
:1082900010F4805F0BD0B86FE16941F2F832081A30
:1082A0000021904203D3786E00F0BF007866F86E2C
:1082B00010F0800F16D00320FEF7ECFDF96E00F0F1
:1082C000070001F0F801F966F96E0843F86600202E
:1082D000FEF7E0FD0021C00704D000200021FEF7DA
:1082E000C9FD0021386E5FF8785910F4807F50D1B5
:1082F000D8483967D0F8080410F0010F1EBF386F56
:1083000040F001003867D348D0F8080410F0020F9D
:108310001EBF386F40F002003867CE48D0F808041E
:1083200010F0040F1EBF386F40F004003867C948D2
:10833000D0F8080410F0080F1EBF386F40F0080096
:108340003867C448D0F8080410F0100F1EBF386F0B
:1083500040F010003867BF48D0F8080410F0200F34
:108360001EBF386F40F020003867BA48D0F80804C4
:1083700010F0400F1EBF386F40F040003867B5481E
:10838000D0F8080410F0800F1EBF386F40F0800056
:108390003867386F10F0010F28D0786F10F0010F98
:1083A00024D1286842F2107201309042286026D30E
:1083B0002960786F40F001007867D9F80400082838
:1083C0001EBF786E40F002007866786F10F0200FC4
:1083D0001EBF786E40F010007866786E20F00100C5
:1083E0007866607A40F00200607208E0386F10F042
:1083F000010F03D1786F10F0010F71D12960386F30
:1084000010F0020F0ED0786F10F0020F0AD16868DA
:108410000130322868600ED36960786F40F0020046
:10842000786708E0386F10F0020F03D1786F10F012
:10843000020F6FD16960386F10F0040F1FD0786F92
:1084400010F0040F1BD1A86801303228A8601FD398
:10845000786F40F004007867A960386E10F0080F5C
:1084600016D0386E20F008003866206C20F020000E
:1084700020642166206C40F00040206408E0386FE2
:1084800010F0040F03D1786F10F0040F5FD1A960D2
:10849000386F10F0080F19D0786F10F0080F15D151
:1084A000E86801306428E8607ED3786F40F0080007
:1084B0007867E960386E10F0200F75D0386E20F0C4
:1084C00020003866607A00F0FE006CE0386F10F033
:1084D000080F03D1786F10F0080F43D1E96063E013
:1084E000286842F21072013090422860FFF487AF92
:1084F000786F20F001007867786E40F001007866B0
:108500002960607A00F0FD006072786E20F0100043
:10851000786674E76868013032286860FFF48BAFD2
:10852000786F20F0020078676960386E10F0080FED
:108530007FF481AF386E40F008003866206C40F060
:1085400020002064206C40F00040206473E7A8689D
:1085500001303228A8609BD3A960786F20F0040016
:10856000786795E7E86801306428E8601CD3786F85
:1085700020F008007867E960386E10F0010F0BD02A
:10858000386E20F001003866206C20F01000206466
:10859000206C40F000402064386E40F020003866C7
:1085A000607A40F001006072386F10F0100F0ED04A
:1085B000786F10F0100F0AD1286901303228286135
:1085C0000ED32961786F40F01000786708E0386FAB
:1085D00010F0100F03D1786F10F0100F26D1296121
:1085E000386F10F0200F17D0786F10F0200F13D1D4
:1085F000686942F210720130904268613ED3786F30
:1086000040F0200078676961786F10F0010F35D075
:10861000786E40F0100030E0386F10F0200F03D17A
:10862000786F10F0200F19D1696127E028690130B7
:1086300032282861D4D3786F20F010007867206C3E
:1086400040F4005020642961206C40F00040206418
:10865000C6E700BF0008014008010020686942F237
:10866000107201309042686108D3786F20F02000CA
:1086700078676961786E20F010007866386F10F0C6
:10868000400F19D0786F10F0400F15D1A869013054
:108690006428A8613CD3786F40F040007867A961F6
:1086A000386E10F0010F33D0386E20F001003866BC
:1086B000206C20F0100026E0386F10F0400F03D13E
:1086C000786F10F0400F01D1A96121E0A869013055
:1086D0006428A8611CD3786F20F040007867A961F6
:1086E000386E10F0200F07D0386E20F0200038666A
:1086F000607A00F0FE006072386E40F0010038666B
:10870000206C40F010002064206C40F00040206499
:10871000386F10F0800F12D0786F10F0800F0ED1EC
:10872000E86901303228E86112D3786F40F08000A8
:108730007867E961386E40F08000386608E0386F8D
:1087400010F0800F03D1786F10F0800F4ED1E961E7
:10875000F86E10F0040F15D0386E10F0020F11D122
:10876000386E40F002003866E069E169C5E9080149
:108770005FF840154878002843D00220C8707B205D
:10878000A8625EE0286AA96AE269101A884214D2D7
:10879000386E10F0020F54D0686AE169081AC828D0
:1087A0004FD3E0696862607A10F0040F0CBF40F0AC
:1087B000040000F0FB00607243E0B86E10F0080F98
:1087C00002BF786E20F008007866386E10F0020F55
:1087D00037D0607A40F004006072386E20F00200FA
:1087E0003866206A40F4887020622AE0E869013027
:1087F0003228E861ACD3E961786F20F080007867B7
:10880000A6E7786E40F008007866206A0C9A40F47B
:108810008870206205F17000217809E001230227A9
:108820000139177002F8093C577200F8013B013218
:108830000029F3D14FF4FA605FF8E47AA8620320CC
:108840002066F86E10F0010F1DD0386E10F0040F86
:1088500019D1386E5FF8001240F004003866607A73
:1088600000F001000870E069E169C5E90B015FF8FB
:108870003C16487806283AD103202066012048702B
:1088800040F2D24036E0E86A696BE269121A386E4B
:108890008A4200F0040014D900284FF000012BD0C8
:1088A000386E5FF84C1220F0040038660978607A60
:1088B00000294FF000010CBF00F0FE0040F0010065
:1088C00013E000284FF0000116D0286BE169081A68
:1088D0000021C82810D3E0692863607A10F0010FE6
:1088E0000CBF40F0010000F0FE00607204E00120C7
:1088F000C8707B2068630021786F10F0800F04D06F
:10890000386E10F0800F40F0C281E069C5E90E01B9
:10891000786EE74910F0010F4FF010000B4608BFCA
:108920004FF480100861786E10F0020F4FF02000B5
:1089300008BF4FF400100861786E10F0040F4FF07C
:10894000800008BF4FF400000861786E617A41F042
:10895000100210F0100F08BF21F01002796E42F0E3
:10896000200011F0200F08BF02F0DF006072786E67
:1089700010F0400F4FF0400008BF4FF48000186126
:10898000786E10F0800F4FF4807008BF4FF0807049
:108990001861FEF759FAC74D3868022802D1FDF771
:1089A000E3FAC44D386D10F0020F08D0386D20F096
:1089B00002003865E069786540F68A40B865F86D70
:1089C000E169081ABC490978002918BF40F6291145
:1089D00088420CD3207A012807D1D9F8040008284E
:1089E00002BF386D40F00100386500202072D7E9E1
:1089F0001501E269101A8842C0F0D983B86910F0F5
:108A0000010F40F0D483E069786505F140073846EE
:108A1000FEF767F8012840F05D813846FEF795F8CB
:108A20000746FEF77DF8012F40F05681FEF7B0F8BB
:108A30005846FEF756F85846FEF787F80E9B9F4FAC
:108A40009C4D002005E01BF800202918013081F81A
:108A500045200528F7D147F29300ADF8C400002067
:108A600004E0291891F84510195401300528F8D16F
:108A700031AD0D9A07212846FEF7D0F834A82946D3
:108A800009222B4600900C20FEF7FCF80020FEF790
:108A900083F901283AD18A48054600F138010020BF
:108AA000B84705F148010120B84705F158010220F7
:108AB000B84705F168010320B8470420FEF76CF9B8
:108AC000012823D104205146B8470AF1100105209E
:108AD000B8470AF120010620B8470AF13001072003
