:020000040800F2
:1000000068050020C500000855180008B117000851
:1000100000000000000000000000000000000000E0
:100020000000000000000000000000001125000892
:100030000000000000000000E91800086D2500081D
:10004000D700000800000000D7000008D700000813
:10005000D7000008D7000008D7000008D700000824
:1000600000000000D7000008D7000008D7000008F3
:10007000D7000008D7000008D700000800000000E3
:10008000D70000080000000000000000D7000008B2
:1000900000000000D7000008D7000008D7000008C3
:1000A00000000000D700000800000000D700000892
:1000B0000348854600F02AF800480047432B000813
:1000C000680500200448804704480047FEE7FEE733
:1000D000FEE7FEE7FEE7FEE725260008B100000880
:1000E00030B50B46014600202022012409E00D46D0
:1000F000D5409D4205D31D469540491B2546954058
:1001000040191546521E002DF1DC30BD064C01256C
:10011000064E05E0E36807CC2B430C3C98471034AF
:10012000B442F7D3FFF7C8FFDC2B0008FC2B000814
:1001300085B00A460346049003A80180002002907F
:1001400001920093FFE7029803A90988884207D229
:10015000FFE7049802994A1C029200224254F2E7F7
:1001600005B0704780B584B001460390009100F05F
:1001700073FA0290039801900198401C002804D063
:10018000FFE70198401C0190FFE7FFE700F064FAE9
:100190000299401A0199884201D2FFE7F6E704B0BC
:1001A00080BD0000B0B58DB00A4603460C900B919F
:1001B00000200A900990089007920693FFE70B9899
:1001C0000A99C840002800D1A5E00B980A9901229D
:1001D0008A40104009900998002800D197E00A98B9
:1001E000400003210A4682400C9803689343036051
:1001F0000A980722034613409A000F231C46944096
:100200000C9A4008454D28401018026AA243026229
:100210000A9840000A4682400C988468944384609F
:100220000A98012282400C984468944344600A98DA
:1002300040000A4682400C98C4689443C4600A98FF
:100240008843EE4A805808900A980840800083400E
:1002500008981840089008980C990922D2069142F3
:10026000059003D1FFE70020049022E00C98E449B8
:10027000884203D1FFE70120039017E00C98E14981
:10028000884203D1FFE7022002900CE00C98DE497F
:100290000322052388420193009201D00198009027
:1002A00000980290FFE702980390FFE703980490FC
:1002B000FFE704980A9903221140890088400599B4
:1002C000814223D1FFE70A980321084080000F22D2
:1002D0008240089208980A9A8A43C849535883432F
:1002E00053500998C9490A6882430A600998C84965
:1002F0000A6882430A600998C6490A6882430A600C
:100300000998C5490A6882430A60FFE7FFE70A982F
:10031000401C0A9053E70DB0B0BDC046FCFFFF7F04
:100320008EB00A4603460D900C9100200B900A9067
:10033000099007920693FFE70C9800680B99C84054
:10034000002800D156E10C9800680B9901228A40E0
:1003500010400A900A98002800D147E10C984068A4
:10036000022805D0FFE70C984068122822D1FFE749
:100370000D980B994908A04A11404018006A09904D
:100380000B980721084080000F2383400998984369
:1003900009900C9800690B9B0B40990088400999C3
:1003A0000143099109980D990B9B5B081340C918EB
:1003B0000862FFE70D98006809900B984000032140
:1003C0000A4682400998904309900C98406808407A
:1003D0000B994900884009990143099109980D99A1
:1003E00008600C98406801280FD0FFE70C9840681F
:1003F00002280AD0FFE70C984068112805D0FFE7D3
:100400000C98406812282CD1FFE70D98806809905D
:100410000B984000032181400998884309900C986B
:10042000C0680B99490088400999014309910998CE
:100430000D9988600D98406809900B9801218140C2
:100440000998884309900C984068102108400009D9
:100450000B99884009990143099109980D994860C1
:10046000FFE70D98C06809900B9840000321814078
:100470000998884309900C9880680B994900884036
:1004800009990143099109980D99C8600C98406831
:10049000C000002800D4A8E0FFE7A34801680122BB
:1004A0001143016000681040089008980590FFE72C
:1004B0000B9803218843514A805809900B980840B3
:1004C00080000F2181400998884309900D980921E7
:1004D000C906884203D1FFE70020049022E00D986E
:1004E0004749884203D1FFE70120039017E00D98A8
:1004F0004449884203D1FFE7022002900CE00D98A6
:1005000041490322052388420193009201D00198BA
:10051000009000980290FFE702980390FFE703988D
:100520000490FFE704980B9903221140890088404A
:1005300009990143099109980B9991432F4A8850D1
:100540003248006809900A980999814309910C98EA
:100550004068C003002805D5FFE70A9809990143C0
:100560000991FFE70998294908602948006809901E
:100570000A980999814309910C98406880030028E2
:1005800005D5FFE70A98099901430991FFE7099802
:100590001F4908601F48006809900A98099981431B
:1005A00009910C984068C002002805D5FFE70A9819
:1005B000099901430991FFE709981649086016480F
:1005C000006809900A980999814309910C9840683C
:1005D0008002002805D5FFE70A980999014309918F
:1005E000FFE709980C490860FFE7FFE70B98401CFC
:1005F0000B90A1E60EB07047FCFFFF7F08000140A2
:100600000004004800080048000C004800040140B5
:1006100004040140080401400C040140B0B586B058
:1006200013460C460546059004A8018003A80270F5
:100630000078002802930194009505D0FFE704A8F4
:1006400000880599886104E004A8008805998862FB
:10065000FFE706B0B0BD0000044800687047C04620
:1006600002480168491C01607047C04660010020D3
:1006700080B582B007480168102211430160002054
:10068000019000F009F8009000F01EF8019802B007
:1006900080BDC0460020024080B584B00146039072
:1006A000029100F035FA7D21C900FFF719FD00F035
:1006B000E4FD03990022D34301901846009200F014
:1006C00035F8009804B080BD80B586B0FFE71648C5
:1006D00001680122114301600068104005900598EF
:1006E0000390FFE7FFE781480168012212071143E9
:1006F000016000681040049004980290FFE7042015
:10070000C04300210191019A00F010F80120C0437C
:100710000199019A00F00AF80198C0430199019AE1
:1007200000F004F806B080BD1810024070B586B025
:1007300013460C46054605AE3070049103920499A9
:10074000307840B202940195009301F085F806B02C
:1007500070BD000080B588B001460690002005906D
:10076000049006980068C0030028019100D497E027
:1007700003A8002101705D480068012109070842B3
:1007800011D1FFE7FFE75948016801221207114321
:10079000016000681040029002980090FFE703A8F3
:1007A00001210170FFE75248006801210902084257
:1007B0001ED1FFE74E480168012212021143016079
:1007C000FFF74AFF0590FFE7494800680121090249
:1007D00008420CD1FFE7FFF73FFF0599401A652853
:1007E00004D3FFE707A8032101707BE0ECE7FFE7F4
:1007F000404800680321090208400490049800283A
:1008000038D0FFE704980699496803221202114084
:1008100088422FD0FFE73748016803221202914334
:10082000049101680122120411430160016891439F
:1008300001600499016004A80078C007002818D05E
:10084000FFE7FFF709FF0590FFE72A48006802214C
:1008500008420DD1FFE7FFF7FFFE0599401AAA49AC
:10086000884204D3FFE707A8032101703AE0ECE7D0
:10087000FFE7FFE71F480168032212029143069A2F
:1008800052681143016003A80078012807D1FFE7EF
:10089000164801680122120791430160FFE7FFE754
:1008A00006980068C007002809D0FFE712480168D1
:1008B00003229143069A926811430160FFE706986C
:1008C00000688006002809D5FFE70B480168102260
:1008D0009143069AD26811430160FFE707A80021FF
:1008E0000170FFE707A8007808B080BD1C10024027
:1008F00000700040201002403010024010B588B057
:100900000A460346069005910020049005987C490C
:1009100009680124214088420392029312D9FFE71B
:100920007748016801229143059B194301600068E3
:1009300010400599884204D0FFE707A80121017003
:10094000DAE0FFE7069800688007002809D5FFE78E
:100950009E480168F0229143069A92681143016013
:10096000FFE706980068C007002800D185E00698D8
:10097000406801280CD1FFE7624800680121490462
:10098000084204D1FFE707A801210170B4E01CE090
:100990000698406802280CD1FFE75A4800680121F8
:1009A0004906084204D1FFE707A801210170A3E02E
:1009B0000AE0544800680221084204D1FFE707A872
:1009C0000121017098E0FFE7FFE7804801680322FA
:1009D0009143069A526811430160FFF73DFE04906F
:1009E00006984068012816D1FFE7FFE777480068BE
:1009F0000C21084004280DD0FFE7FFF72DFE0499D5
:100A0000401A4149884204D3FFE707A80321017037
:100A100072E0EBE730E006984068022816D1FFE765
:100A2000FFE76A4800680C21084008280DD0FFE75E
:100A3000FFF712FE0499401A3349884204D3FFE7B6
:100A400007A80321017057E0EBE714E0FFE75F48D8
:100A500000680C2108420DD0FFE7FFF7FDFD049967
:100A6000401A2949884204D3FFE707A803210170EF
:100A700042E0ECE7FFE7FFE7FFE705982049096858
:100A800001221140884212D2FFE71D48016801226D
:100A90009143059B19430160006810400599884205
:100AA00004D0FFE707A80121017025E0FFE70698C1
:100AB0000068400700280AD5FFE74448016807227C
:100AC00012029143069AD26811430160FFE700F0D9
:100AD00035F83E490968F022114009090B4A515C7A
:100AE000C8400D49086000200190FFF7D5FD07A917
:100AF000019A0A700090FFE707A8007808B010BDBF
:100B0000002002400010024089130000862B0008DC
:100B1000014800687047C0460000002080B5FFF71C
:100B2000F7FF2A490968072212021140090A024AFE
:100B3000515CC84080BDC046962B000880B586B089
:100B40000020059004900390029001901F480068D7
:100B5000059005980C210840002800902ED0FFE752
:100B60000098042804D0FFE70098082803D026E066
:100B70001B48019026E005980F218A041040800C44
:100B8000134A105C02901348006808401249085C40
:100B900004900598C003002808D5FFE70499104881
:100BA000FFF79EFA02994143039104E002980B4932
:100BB00041430391FFE70398019003E0FFE70848F2
:100BC0000190FFE7019806B080BDC04604100240C6
:100BD0009E2B00082C100240AE2B000800093D009F
:100BE00000127A0080B588B001460690002005907A
:100BF00006980068C0070028029100D197E0FE48DF
:100C000000680C21084004280ED0FFE7FA4800686D
:100C10000C210840082818D1FFE7F7480068012197
:100C20000904084211D0FFE7F44800680121490493
:100C3000084209D0FFE706984068002804D1FFE782
:100C400007A801210170E9E270E0FFE7069840681B
:100C5000012807D1FFE7E948016801221204114386
:100C600001602CE00698406800280BD1FFE7E348BC
:100C700001680122130499430160016892049143C1
:100C800001601BE00698406805280BD1FFE7DB48B0
:100C900001680122930419430160016812041143A1
:100CA00001600AE0D54801680122130499430160FC
:100CB0000168920491430160FFE7FFE7FFE7FFE768
:100CC00006984068002818D0FFE7FFF7C5FC05909C
:100CD000FFE7CA4800680121490408420CD1FFE738
:100CE000FFF7BAFC0599401A652804D3FFE707A867
:100CF0000321017092E2ECE717E0FFF7ADFC0590ED
:100D0000FFE7BE4800680121490408420CD0FFE714
:100D1000FFF7A2FC0599401A652804D3FFE707A84E
:100D2000032101707AE2ECE7FFE7FFE7FFE70698AF
:100D300000688007002876D5FFE7AF4800680C21DF
:100D400008420ED0FFE7AC4800680C210840082894
:100D500021D1FFE7A84800680121090408421AD1FF
:100D6000FFE7A64800680221084209D0FFE706987D
:100D7000C068012804D0FFE707A8012101704DE2F7
:100D80009E480168F8229143069A1269D2001143E5
:100D90000160FFE746E00698C068002825D0FFE71D
:100DA00096480168012211430160FFF755FC059048
:100DB000FFE792480068022108420CD1FFE7FFF7E5
:100DC0004BFC0599401A032804D3FFE707A8032129
:100DD000017023E2EDE789480168F8229143069A01
:100DE0001269D200114301601BE0844801680122AE
:100DF00091430160FFF730FC0590FFE77F480068F2
:100E0000022108420CD0FFE7FFF726FC0599401AA3
:100E1000032804D3FFE707A803210170FEE1EDE7F3
:100E2000FFE7FFE7FFE706980068000700283ED5C8
:100E3000FFE70698C06900281CD0FFE7FB4801685F
:100E4000012211430160FFF707FC0590FFE7F74817
:100E50000068022108420CD1FFE7FFF7FDFB05996E
:100E6000401A032804D3FFE707A803210170D5E146
:100E7000EDE71BE0ED480168012291430160FFF7B7
:100E8000EBFB0590FFE7E9480068022108420CD01F
:100E9000FFE7FFF7E1FB0599401A032804D3FFE7BA
:100EA00007A803210170B9E1EDE7FFE7FFE7069826
:100EB00000684007002800D4BDE004A800210170AC
:100EC000DB48006801210907084211D1FFE7FFE76D
:100ED000D7480168012212071143016000681040E1
:100EE000039003980190FFE704A801210170FFE738
:100EF000D04800680121090208421ED1FFE7CD4811
:100F000001680122120211430160FFF7A5FB059061
:100F1000FFE7C84800680121090208420CD1FFE739
:100F2000FFF79AFB0599401A652804D3FFE707A845
:100F30000321017072E1ECE7FFE7FFE706988068A4
:100F4000012806D1FFE7BC48016801221143016076
:100F500029E00698806800280AD1FFE7B6480168B2
:100F6000012291430160016804229143016019E06C
:100F70000698806805280AD1FFE7AF480168042277
:100F800011430160016801221143016009E0AA4890
:100F900001680122914301600168042291430160CC
:100FA000FFE7FFE7FFE7FFE706988068002818D013
:100FB000FFE7FFF751FB0590FFE79F48006802211C
:100FC00008420DD1FFE7FFF747FB0599401A9B49FF
:100FD000884204D3FFE707A8032101701EE1ECE774
:100FE0001CE0FFF739FB0590FFE7934800680221FA
:100FF000084212D004E0C046041002400010024033
:10100000FFF72AFB0599401A8C49884204D3FFE771
:1010100007A80321017001E1E7E7FFE704A80078D2
:10102000012807D1FFE78248016801221207914396
:101030000160FFE7FFE706980068C006002864D556
:10104000FFE706984069012829D1FFE77C4801683D
:101050000422114301600168012211430160FFF77E
:10106000FBFA0590FFE776480068022108420CD1A0
:10107000FFE7FFF7F1FA0599401A032804D3FFE7C9
:1010800007A803210170C9E0EDE76D480168F82267
:101090009143069A9269D2001143016034E00698A8
:1010A0004069401D00280ED1FFE765480168042211
:1010B000914301600168F8229143069A9269D20037
:1010C000114301601FE05E48016804221143016082
:1010D0000168012291430160FFF7BEFA0590FFE726
:1010E00057480068022108420CD0FFE7FFF7B4FA26
:1010F0000599401A032804D3FFE707A803210170CC
:101100008CE0EDE7FFE7FFE7FFE70698006A0028BD
:1011100000D17FE0434800680C210840082874D0C3
:10112000FFE70698006A022850D1FFE73E480168B1
:101130000122120691430160FFF78EFA0590FFE746
:10114000394800680121490608420CD0FFE7FFF743
:1011500083FA0599401A032804D3FFE707A803215F
:1011600001705BE0ECE7FFE7364801680F2291432E
:10117000069AD26A114301602A4801683D2212048E
:101180009143069A936A526A134319430160FFE739
:10119000254801680122120611430160FFF75CFA3D
:1011A0000590FFE7204800680121490608420CD15C
:1011B000FFE7FFF751FA0599401A032804D3FFE728
:1011C00007A80321017029E0ECE71DE0164801683B
:1011D0000122120691430160FFF73EFA0590FFE7F6
:1011E000114800680121490608420CD0FFE7FFF7CB
:1011F00033FA0599401A032804D3FFE707A803210F
:1012000001700BE0ECE7FFE703E007A801210170A4
:1012100004E0FFE707A800210170FFE707A80078B6
:1012200008B080BD041002400010024024100240AB
:101230001C10024000700040201002408913000082
:10124000341002402C10024082B0014601900198F7
:101250000428009106D1FFE70648016804221143E3
:10126000016005E003480168042291430160FFE743
:1012700002B0704710E000E0704780B582B00146D0
:1012800001900198009101F045F902B080BD80B550
:10129000FFF7F2FF80BD80B586B001460490049848
:1012A0000028039104D1FFE705A8012101702BE07C
:1012B000049869212422425404980068026801239A
:1012C0009A43026004980068002202600498006853
:1012D000426004980068826004980291019200F0D4
:1012E00073F804980199C1660498029A815404988D
:1012F0006A23C154FFE70498682100224254FFE7A3
:1013000005A800210170FFE705A8007806B080BDA0
:1013100080B584B00146029002980028019104D162
:10132000FFE703A80121017049E0029880690028C5
:1013300001D0FFE700E0FFE702986921405C002848
:1013400008D1FFE70298682100224254029800F079
:1013500055F8FFE702986921242242540298006858
:101360000168012291430160029801F05DFA0128B1
:1013700004D1FFE703A80121017020E00298406A30
:10138000002804D0FFE7029801F088F9FFE70298EF
:10139000006841680122D3029943416002980068C5
:1013A00081680823994381600298006801681143AD
:1013B0000160029801F021FA03A90870FFE703A871
:1013C000007804B080BD000080B582B00146019075
:1013D000019800681E4A904200910DD1FFE71D4818
:1013E000016801229203914301600920C006032194
:1013F0004902FEF7D7FEFFE702B080BD80B58AB094
:101400000146099009980068114A904202911CD146
:10141000FFE7FFE70F4801680122920311430160D3
:1014200000681040039003980190FFE703204102F9
:10143000049102210591012106910790089109204C
:10144000C00604A9FEF76CFFFFE70AB080BDC046E6
:101450000038014018100240F0B58DB01C4615460A
:101460000E4607460B900A9109A8028008930020B7
:1014700005900B986A21405C2028049403950296FD
:10148000019700D0C8E00A98002805D0FFE709A816
:101490000088002804D1FFE70CA801210170BFE0FB
:1014A0000B98806801210903884210D1FFE70B984F
:1014B000006900280BD1FFE70AA80078C0070028C0
:1014C00004D0FFE70CA801210170A9E0FFE7FFE7C6
:1014D0000B986821405C012804D1FFE70CA8022189
:1014E00001709DE00B98682101224254FFE7FFE75D
:1014F0000B980021C1660B986A2122224254FFF703
:10150000ABF8059009980B995822885209980B99C5
:101510005A228852FFE70B9880680121090388420C
:1015200010D1FFE70B980069002805D1FFE70B9861
:101530005C219E4A425204E00B985C21FF224252F9
:10154000FFE715E00B988068002810D1FFE70B98A3
:101550000069002805D1FFE70B985C21FF22425269
:1015600004E00B985C217F224252FFE7FFE7FFE790
:10157000FFE70B985C21405A06A90880FFE70B980B
:101580005A21405A002839D0FFE70B985A21425A75
:10159000521E42520B98059B08996A461160202101
:1015A000002201F06BFA002804D0FFE70CA8032109
:1015B000017035E00B98806801210903884212D13F
:1015C000FFE70B98006900280DD1FFE70A98079004
:1015D0000B980068808C06990840079908800A9843
:1015E000801C0A9009E00B980068808C06990840DE
:1015F0000A994A1C0A920870FFE7C0E70B986A2113
:1016000020224254FFE70B98682100224254FFE752
:101610000CA80021017003E00CA802210170FFE773
:101620000CA800780DB0F0BDF0B58DB01C46154685
:101630000E4607460B900A9109A8028008930020E5
:1016400006900B986921405C202805940495039628
:10165000029700D0A2E00A98002805D0FFE709A869
:101660000088002804D1FFE70CA80121017099E04F
:101670000B98806801210903884210D1FFE70B987D
:10168000006900280BD1FFE70AA80078C0070028EE
:1016900004D0FFE70CA80121017083E0FFE7FFE71A
:1016A0000B986821405C012804D1FFE70CA80221B7
:1016B000017077E00B98682101224254FFE7FFE7B1
:1016C0000B980021C1660B98692121224254FEF734
:1016D000C3FF069009980B995022885209980B99DC
:1016E00052228852FFE70B985221405A012837DBDB
:1016F000FFE70B985221425A521E42520B98069B0A
:1017000008996A4611608021002201F0B7F900288B
:1017100004D0FFE70CA80321017043E00B98806818
:1017200001210903884212D1FFE70B9800690028C4
:101730000DD1FFE70A980790079800881B490840D9
:101740000B99096808850A98801C0A9007E00A9896
:10175000411C0A9100780B9909680885FFE7C2E7E8
:101760000B98069B08996A4611604021002201F0FF
:1017700085F9002804D0FFE70CA80321017011E0CF
:101780000B98692120224254FFE70B986821002220
:101790004254FFE70CA80021017003E00CA80221CD
:1017A0000170FFE70CA800780DB0F0BDFF0100004C
:1017B000FFE7FEE780B58AB0FFE714480168012221
:1017C0005204114301600068104004900498039093
:1017D000FFE70920C0060721012202900192FEF7CF
:1017E0001DFF08210020029A00901046009AFEF783
:1017F00015FF0F2005900198069000990791089118
:1018000005A90298FEF78CFD0AB080BD14100240B5
:1018100080B50D480D4901604B21C901416000218F
:101820008160C16001610C2242618161C16101621C
:101830004162FFF76DFD002805D0FFE704488E21C7
:1018400001F076F9FFE780BD1C0000200038014060
:10185000BE2B00087047000070B584B00A460346EE
:1018600003AC20700291207840B2002801930092CE
:101870001CDAFFE703A801780F221140083903237F
:10188000DC432140174D4959007840B206461E40BE
:10189000F300FF269E40B143029EB601F6B29E4081
:1018A0003143104008382040415117E003A8017827
:1018B00049B20322D3431940094C0959007840B278
:1018C00005461540EA00FF259540A943029DAD015C
:1018D000EDB29540294318400151FFE704B070BDB7
:1018E00000E400E01CED00E0704780B582B01420F9
:1018F00000F0FAFA01A9087008788007002805D1DD
:10190000FFE71420032100F0BBFCFFE702B080BD1D
:1019100080B588B00146079004A8002202700D200F
:101920000291114600F0CEFD0798932101700798AF
:10193000202141700798694603AA0A600C210222FF
:10194000019008460199019B00F0B5FC06A90870BA
:101950000878002820D1FFE700200590FFE70598D0
:1019600003280CD8FFE707980599405C049941408B
:1019700004A80170FFE70598401C0590EFE704A854
:1019800000780799059A895C884204D0FFE706A889
:1019900001210170FFE7FFE706A8007808B080BDCD
:1019A000F0B593B01C4615460E460746089012A89F
:1019B0000790089806910799087011A90698087071
:1019C00010920F93129909AA1170119951700CA9D4
:1019D00000220A700595049603970294FFE70CA86D
:1019E000007805280DD8FFE710980CA90978405C0D
:1019F00009AA51188870FFE70C98401C0CA90870C0
:101A0000EDE70CA800210170FFE70CA8007803287F
:101A10000DD8FFE70F980CA90978405C09AA511866
:101A20000872FFE70C98401C0CA90870EDE76846A7
:101A30000DA901600E200C2209A90191019B00F063
:101A40003AFC0EA908700878002807D1FFE70820A3
:101A500000F04AFA0007002804D4FFE70EA801218D
:101A60000170FFE70EA8007813B0F0BDB0B58AB0E2
:101A700013460C460546099008A8017007920120FC
:101A80000021049103930294019500F01BFD0520B1
:101A9000042100F06AF80A20802100F0F1FB04988C
:101AA0000690FFE7069808A9097888420BD2FFE75D
:101AB00009980699415C092000F004FDFFE70698AB
:101AC000401C0690EEE70120032100F0FBFCFF2004
:101AD0000690FFE7052000F007FA05900698401EE3
:101AE0000690FFE7069800210028009109D0FFE743
:101AF00005A80078042108400021091A48410090F7
:101B0000FFE70098C0070028E4D1FFE7012000218B
:101B100000F0D8FC222000F0E7F907990870212096
:101B200000F0E2F9079948700AB0B0BD80B584B002
:101B3000014603900398262201901046019A0091D5
:101B4000114600F013FA02A908700878002806D19F
:101B5000FFE70398FFF7DCFE02A90870FFE700F03B
:101B60006DF802A8007804B080BD10B588B00A46B0
:101B7000034607AC207006A801702178059008463E
:101B800004910393029200F0AFF905990A7890430B
:101B9000049A01901046019900F094FC08B010BD21
:101BA00010B584B0244800210170417041808180CB
:101BB00002460C3205230290104601911946FEF7A9
:101BC000B7FA0298801D0621FEF7B2FA0198039039
:101BD000FFE703980F282CD8FFE70398BF4900229E
:101BE0000A54039808180274039808182023C25452
:101BF00003980818302142540398B94C2254039892
:101C00002018027403982018C254039820184254D4
:101C10000398B44C22540398201802740398201897
:101C2000C254039820184254FFE70398401C0390C5
:101C3000CFE704B010BDC0468C00002080B586B050
:101C400004A85021017000214170821C02210390E0
:101C5000FFF70CFF684605A901600C2004220399D8
:101C6000039B00F028FB029006B080BD80B5FA20EF
:101C7000FEF778FA1F207A2100F024FCB948E12110
:101C800049024160FFF744FB002805D0FFE7B64852
:101C9000DE2100F04DFFFFE7FA20FEF763FA012096
:101CA0000F2100F00FFC2A20802100F00BFC2B20DC
:101CB000A92100F007FC2C20032100F003FC2D20BB
:101CC000E82100F0FFFB1520402100F0FBFB112074
:101CD0003D2100F0F7FB3320002100F0F3FBFFF77C
:101CE00004FE80BD10B58AB00A46034609AC2070D8
:101CF000089108983021017009980899487008984F
:101D0000811C022405912146059C049222460393DE
:101D1000FFF7ACFE0898694606AA0A600C21042267
:101D2000029008460299029B00F0C5FA07A90870C4
:101D30000878002805D1FFE706A80088902804D07D
:101D4000FFE707A801210170FFE707A800780AB0A4
:101D500010BD000080B59AB0262014A9129100F0A1
:101D600005F9129911900846FFF7D2FD13A90870E2
:101D700000201890FFE7189804280AD8FFE7189861
:101D800014A9095C534A1154FFE71898401C189095
:101D9000F1E75048109000F044F94F4A60210023C9
:101DA0000F9008461946109BFFF7FAFD13A908701B
:101DB0000878002806D0FFE7FFF740FF139819A91D
:101DC000087083E0454800210E9008460E99FFF701
:101DD00089FF0E99103101220D901046FFF782FF06
:101DE0000E99203102220C901046FFF77BFF0E99CE
:101DF000303103220B901046FFF774FF0A90FFE783
:101E0000354A344B60200421FFF7CAFD13A908703E
:101E10000878002806D0FFE7FFF710FF139819A9EC
:101E2000087053E02E480421099008460999FFF7ED
:101E300059FF09991031052208901046FFF752FF0B
:101E400009992031062207901046FFF74BFF0999A8
:101E50003031072206901046FFF744FF0590FFE758
:101E60001D4A1C4B60200821FFF79AFD13A908703A
:101E70000878002806D0FFE7FFF7E0FE139819A9BD
:101E8000087023E017480821049008460499FFF7DA
:101E900029FF04991031092203901046FFF722FF11
:101EA000049920310A2202901046FFF71BFF049983
:101EB00030310B2201901046FFF714FF0090FFE72E
:101EC000FFF7BCFE139819A90870FFE719A800785E
:101ED0001AB080BD14000020040000209E000020E5
:101EE000DE0000201E01002080B588B0014607AA50
:101EF000107006A80022027005AB1A70079A8023A2
:101F00001A430270DC4A0490104603910292FFF7D4
:101F1000C2F9029901900846FFF7FAF90122052358
:101F20000299009008460499FFF77EFB002806D02E
:101F3000FFE7D248FF217A3100F0FAFDFFE7CE48F3
:101F400005A901220A23FFF787FA002806D0FFE738
:101F5000CA48BD21490000F0EBFDFFE705A8007865
:101F600008B080BD1C000020CC2B000810B588B044
:101F70000A46034607AC207006910D200721039204
:101F8000029300F09FFA0798069908700698694630
:101F900004AA0A600C210122019008460199019BC4
:101FA00000F089F905A908700878002805D1FFE735
:101FB00004A80088102804D0FFE705A801210170BB
:101FC000FFE705A8007808B010BD80B582B00120F9
:101FD0000F2100F077FA0520FEF7C4F87D2080007D
:101FE0000090FFE70120FFF77FFFC006002810D513
:101FF000FFE70098401E00900098002804D1FFE7FA
:1020000001A80121017008E00120FEF7ABF8FFE70D
:10201000E8E701A800210170FFE701A8007802B0FD
:1020200080BD80B58CB001460B9005A8932202704C
:1020300070224270002009900391FFE7099804285C
:102040000BD8FFE70B980999405C05AA51188870D6
:10205000FFE70998401C0990F0E705A8C21D072179
:102060000290FFF703FD684608A901600C200922D1
:102070000299029B00F01FF90AA90870087800284D
:1020800009D1FFE708A80088182804D1FFE70598C0
:1020900004A9087003E004A800210170FFE704A868
:1020A00000780CB080BD000080B592B00FA8002170
:1020B0000170FEF7D1FA6F490968401A7A2801D8F1
:1020C000FFE7D4E0FEF7C8FA6A49086010A8FFF7F6
:1020D0002DFD002800D085E0FFF762FDFFF73AFEF6
:1020E0000F9908180FA908700E9100F0E9F90F99DF
:1020F00008180E990870087800282AD1FFE70920EF
:10210000C006022100220D900C910B92FEF786FA78
:10211000082001210D9A0A9010460A9B0991194640
:10212000099AFEF77BFA6420FEF71CF80D980A99CD
:102130000B9AFEF773FA7D2080000890FEF712F8E4
:102140000D980C99099AFEF769FA0898FEF70AF8B3
:1021500047E00920C0060121002207900691059260
:10216000FEF75CFA08200799049008460499069A3D
:10217000FEF754FA32200390FDF7F4FF0798049914
:10218000059AFEF74BFA0398FDF7ECFF07980499C0
:10219000069AFEF743FA0398FDF7E4FF07980499BF
:1021A000059AFEF73BFA0398FDF7DCFF07980499C0
:1021B000069AFEF733FA0398FDF7D4FF07980499BF
:1021C000059AFEF72BFA7D2080000290FDF7CAFFEA
:1021D00007980699069AFEF721FA0298FDF7C2FFC2
:1021E000FFE7FFE7FFF7F1FEC7494B22D2014A6044
:1021F00001900846FFF78CF8002806D0FFE7C34897
:102200000921490100F094FCFFE71F207A2100F02A
:1022100059F9BD48E12149024160FFF779F80028EA
:1022200006D0FFE7B948FF212A3100F081FCFFE723
:102230002A20802100F046F92B20A92100F042F944
:102240002C20032100F03EF92D20E82100F03AF97E
:102250001520402100F036F911203D2100F032F91F
:102260003320002100F02EF9FFF73FFBFFE712B00B
:1022700080BDC046100000201C000020CC2B0008B0
:1022800010B588B00A46034607AC207006A8017056
:10229000217805900846049103930292FFF724FEEB
:1022A00005990A781043049A01901046019900F0AC
:1022B00009F908B010BDF0B599B01E9C1D46164630
:1022C0000F460E900D9018A80C900E980B910C993B
:1022D00008700B98179016A80270159314A8012285
:1022E000027013A80022027012A8027008780C284D
:1022F0000A9509970896079406900BD0FFE7069871
:102300000E280ED1FFE713A81221017012A8102188
:10231000017007E013A87721017012A83021017025
:1023200000E0FFE701200021059100F0CBF8042038
:1023300080210491FFF719FC0A200499FFF7A0FF00
:1023400013A80078049908430222039010460399C9
:1023500000F0B8F805981090FFE7109816A90978D2
:1023600088420BD2FFE717981099415C092000F0D2
:10237000A9F8FFE71098401C1090EEE718A8017824
:1023800001220290104600F09DF8029801780C2975
:1023900005D1FFE70D208021FFF772FFFFE77D20C9
:1023A00000011090FFE70420FFF79EFD11901098A8
:1023B000401E1090FFE7109800210028019111D0D5
:1023C000FFE7002011A90978C9070029019009D168
:1023D000FFE7119812A9097808400021091A48411D
:1023E0000190FFE70198C0070028DCD1FFE70D202E
:1023F0008021FFF7BAFB109800285DD0FFE7062088
:10240000FFF772FD1321084251D1FFE714A8002104
:102410000170119813990840C007002804D0FFE705
:1024200014A802210170FFE718A800780C283DD1FC
:10243000FFE70A20FFF758FD11900C20FFF754FD2D
:10244000072108400F900F98002808D0FFE7119847
:10245000C0000F99401808381E99088004E01198B0
:10246000C0001E990880FFE71198002803D1FFE7FC
:1024700001201190FFE71198112803D3FFE71020E6
:102480001190FFE700201090FFE710981199884203
:102490000BD2FFE70920FFF727FD1599109A885402
:1024A000FFE71098401C1090EFE7FFE703E014A847
:1024B00001210170FFE7FFE714A8007819B0F0BD13
:1024C00000207047B0B586B00A46034605AC2070C0
:1024D00004A80170059803A90870049848700A4878
:1024E000022414250292224601932B46FFF79CF802
:1024F000002806D0FFE70548B721490000F018FB87
:10250000FFE706B0B0BDC0461C000020CC2B000881
:102510007047000080B584B0014602900298401ECA
:10252000000E0028019103D0FFE70120039013E083
:102530000298401E0A4908600020C143032200900F
:1025400008461146FFF788F90648009901600648D9
:10255000072202600391FFE7039804B080BDC046E4
:1025600014E000E018E000E010E000E080B5FEF7C5
:1025700077F8FEF78CFE80BD80B596B002200A90F9
:1025800001210D9110210E91129000201390052130
:10259000C904149115900AA8FEF724FB002805D061
:1025A000FFE71F485B2100F0C3FAFFE70720069012
:1025B0000220079000200890099006A80121FEF74C
:1025C0009DF9002805D0FFE71548682100F0B0FA12
:1025D000FFE7012002900020049002A8FEF7BAF85D
:1025E000002805D0FFE70E486F2100F0A1FAFFE7B1
:1025F000FEF78EFA7D21C900FDF772FDFEF73DFE64
:10260000042101900846FEF71FFE0020C143009000
:1026100008460099009AFEF789F816B080BDC046BA
:10262000BE2B000810B51548016801221143016056
:1026300013490B68134C23400B600368124C234072
:10264000036003689404A343036008683F231B04EA
:10265000984308600D4801680F23994301600C48B6
:102660000168FF231433994301600A4801689143CC
:10267000016009480021016010BDC0460010024001
:10268000041002400CB8FF08FFFFF6FE2C100240B9
:1026900030100240341002400810024082B001465F
:1026A000019001982422805CC007002800910CD082
:1026B000FFE70198006840680121490488430199B7
:1026C0008A6A104309684860FFE701982421405C4A
:1026D000800700280CD5FFE70198006840680121B9
:1026E000090488430199CA6A104309684860FFE7F2
:1026F00001982421405C400700280CD5FFE7019891
:102700000068406801218904884301990A6B1043DD
:1027100009684860FFE701982421405C0007002811
:102720000CD5FFE70198006840680121C903884380
:1027300001994A6B104309684860FFE7019824211A
:10274000405CC00600280CD5FFE70198006880684F
:1027500001210903884301998A6B10430968886045
:10276000FFE701982421405C800600280CD5FFE794
:102770000198006880680121490388430199CA6B68
:10278000104309688860FFE701982421405C4006F7
:1027900000281DD5FFE70198006840680121090560
:1027A0008843019A136C1843126850600198006CBA
:1027B00088420CD1FFE70198006840680321490571
:1027C000884301994A6C104309684860FFE7FFE7B6
:1027D00001982421405C000600280CD5FFE70198F1
:1027E000006840680121C904884301998A6C10433C
:1027F00009684860FFE702B0704782B00146019067
:1028000001980022C266019869222023835401980E
:102810006A2283540091FFE7019868210022425404
:10282000FFE7002002B0704780B590B001460F90DE
:1028300000200E900DAA102313700CAA10800BAA72
:1028400010800AAA10700F98826803691A434369BE
:102850001A43C06902430E920F9800680068824ACA
:1028600010400E9A10430F9A126810600F9800687B
:1028700040680322120390430F9AD36818431268EA
:1028800050600F988269006A02430E920F980068A8
:1028900080680B22120290430E9A10430F9A12681E
:1028A00090600991FFE77148006803210840032800
:1028B000089017D80898C0467844007940008744AB
:1028C00001090D050DA8002101700FE00DA80221DE
:1028D00001700BE00DA80421017007E00DA808218C
:1028E000017003E00DA810210170FFE7FFE70F98CA
:1028F000C0690121C90388425DD1FFE70DA80078B6
:102900001028079041D80798784400794000874400
:10291000083C143C213C3C3C2D3C3C3C3C3C3C3C7D
:102920003B00FEF7FBF840000F9949684A08801801
:10293000FDF7D6FB0BA908802BE00F9840684108F3
:102940004C4A8918069008460699FDF7C9FB0BA961
:1029500008801EE0FEF7F2F840000F9949684A0827
:102960008018FDF7BDFB0BA9088012E00F984068A6
:102970004108012212048918059008460599FDF7BF
:10298000AFFB0BA9088004E0FFE70AA80121017052
:10299000FFE70BA80188384A11400CAA1180008873
:1029A0000E21084040080C990143118010880F99AE
:1029B0000968C86054E00DA80078102804904AD82F
:1029C0000498C0467844007940008744084417447E
:1029D0002544444434444444444444444300FEF7BE
:1029E0009DF80F994A685308C01803911146FDF7E6
:1029F00077FB80B203990A68D06030E00F98416895
:102A00004A081B4BD21802901046FDF769FB80B2B2
:102A100002990A68D06022E0FEF790F80F994A68A0
:102A20005308C01801911146FDF75AFB80B2019975
:102A30000A68D06013E00F9841684A080123DB035D
:102A4000D21800901046FDF74BFB80B200990A683F
:102A5000D06004E0FFE70AA801210170FFE7FFE76B
:102A60000AA8007810B080BDF369FFFF3010024063
:102A700000127A000024F400F0FF0000F0B58BB0E3
:102A8000109C1D4616460F46059004900598099027
:102A9000089107A90A70069303950296019700947E
:102AA000FFE709980068C06908990840401A0021AA
:102AB000091A484107A90978884231D1FFE71098DF
:102AC000401C00282BD0FFE71098002808D0FFE713
:102AD000FDF7C2FD0699401A109988421ED9FFE7FA
:102AE0000998006801680D2252019143016009981C
:102AF0000068816801229143816009986921202240
:102B0000425409986A214254FFE70998682100223B
:102B10004254FFE70AA80321017005E0FFE7C0E780
:102B20000AA800210170FFE70AA800780BB0F0BDE9
:102B300084B00A460346039002910192009304B0C8
:102B4000704780B582B000200190FDF791FD0090A4
:102B5000FFF712FDFEF72EFEFEF75AFEFFF786F88E
:102B6000FFE7FFF7A1FAFCE702E008C8121F08C15F
:102B7000002AFAD170477047002001E001C1121FFE
:102B8000002AFBD170470000000000000000010295
:102B90000304060708090000000001020304020301
:102BA0000405060708090A0B0C0D0E0F1010010290
:102BB000030405060708090A0B0C0D0E0F102E2E34
:102BC0002F5372632F6D61696E2E63002E2E2F536B
:102BD00072632F72633532322E630000002C0008BE
:102BE0000000002010000000682B0008102C0008D6
:102BF0001000002058050000782B0008000000009D
:102C000000127A00FFFFFFFFFFFF0000000000003E
:04000005080000B13E
:00000001FF
